Archive member included to satisfy reference by file (symbol)

D:/Program Files/STM32CubeIDE_1.10.1/STM32CubeIDE/plugins/com.st.stm32cube.ide.mcu.externaltools.gnu-tools-for-stm32.11.3.rel1.win32_1.1.1.202309131626/tools/bin/../lib/gcc/arm-none-eabi/11.3.1/../../../../arm-none-eabi/lib/thumb/v7-m/nofp\libm.a(libm_a-s_atan.o)
                              ./Src/System/sensors.o (atan)
D:/Program Files/STM32CubeIDE_1.10.1/STM32CubeIDE/plugins/com.st.stm32cube.ide.mcu.externaltools.gnu-tools-for-stm32.11.3.rel1.win32_1.1.1.202309131626/tools/bin/../lib/gcc/arm-none-eabi/11.3.1/../../../../arm-none-eabi/lib/thumb/v7-m/nofp\libm.a(libm_a-s_fabs.o)
                              D:/Program Files/STM32CubeIDE_1.10.1/STM32CubeIDE/plugins/com.st.stm32cube.ide.mcu.externaltools.gnu-tools-for-stm32.11.3.rel1.win32_1.1.1.202309131626/tools/bin/../lib/gcc/arm-none-eabi/11.3.1/../../../../arm-none-eabi/lib/thumb/v7-m/nofp\libm.a(libm_a-s_atan.o) (fabs)
D:/Program Files/STM32CubeIDE_1.10.1/STM32CubeIDE/plugins/com.st.stm32cube.ide.mcu.externaltools.gnu-tools-for-stm32.11.3.rel1.win32_1.1.1.202309131626/tools/bin/../lib/gcc/arm-none-eabi/11.3.1/../../../../arm-none-eabi/lib/thumb/v7-m/nofp\libm.a(libm_a-wf_sqrt.o)
                              ./Src/EKF/matrix.o (sqrtf)
D:/Program Files/STM32CubeIDE_1.10.1/STM32CubeIDE/plugins/com.st.stm32cube.ide.mcu.externaltools.gnu-tools-for-stm32.11.3.rel1.win32_1.1.1.202309131626/tools/bin/../lib/gcc/arm-none-eabi/11.3.1/../../../../arm-none-eabi/lib/thumb/v7-m/nofp\libm.a(libm_a-sf_tan.o)
                              ./Src/System/filter.o (tanf)
D:/Program Files/STM32CubeIDE_1.10.1/STM32CubeIDE/plugins/com.st.stm32cube.ide.mcu.externaltools.gnu-tools-for-stm32.11.3.rel1.win32_1.1.1.202309131626/tools/bin/../lib/gcc/arm-none-eabi/11.3.1/../../../../arm-none-eabi/lib/thumb/v7-m/nofp\libm.a(libm_a-ef_sqrt.o)
                              D:/Program Files/STM32CubeIDE_1.10.1/STM32CubeIDE/plugins/com.st.stm32cube.ide.mcu.externaltools.gnu-tools-for-stm32.11.3.rel1.win32_1.1.1.202309131626/tools/bin/../lib/gcc/arm-none-eabi/11.3.1/../../../../arm-none-eabi/lib/thumb/v7-m/nofp\libm.a(libm_a-wf_sqrt.o) (__ieee754_sqrtf)
D:/Program Files/STM32CubeIDE_1.10.1/STM32CubeIDE/plugins/com.st.stm32cube.ide.mcu.externaltools.gnu-tools-for-stm32.11.3.rel1.win32_1.1.1.202309131626/tools/bin/../lib/gcc/arm-none-eabi/11.3.1/../../../../arm-none-eabi/lib/thumb/v7-m/nofp\libm.a(libm_a-kf_tan.o)
                              D:/Program Files/STM32CubeIDE_1.10.1/STM32CubeIDE/plugins/com.st.stm32cube.ide.mcu.externaltools.gnu-tools-for-stm32.11.3.rel1.win32_1.1.1.202309131626/tools/bin/../lib/gcc/arm-none-eabi/11.3.1/../../../../arm-none-eabi/lib/thumb/v7-m/nofp\libm.a(libm_a-sf_tan.o) (__kernel_tanf)
D:/Program Files/STM32CubeIDE_1.10.1/STM32CubeIDE/plugins/com.st.stm32cube.ide.mcu.externaltools.gnu-tools-for-stm32.11.3.rel1.win32_1.1.1.202309131626/tools/bin/../lib/gcc/arm-none-eabi/11.3.1/../../../../arm-none-eabi/lib/thumb/v7-m/nofp\libm.a(libm_a-ef_rem_pio2.o)
                              D:/Program Files/STM32CubeIDE_1.10.1/STM32CubeIDE/plugins/com.st.stm32cube.ide.mcu.externaltools.gnu-tools-for-stm32.11.3.rel1.win32_1.1.1.202309131626/tools/bin/../lib/gcc/arm-none-eabi/11.3.1/../../../../arm-none-eabi/lib/thumb/v7-m/nofp\libm.a(libm_a-sf_tan.o) (__ieee754_rem_pio2f)
D:/Program Files/STM32CubeIDE_1.10.1/STM32CubeIDE/plugins/com.st.stm32cube.ide.mcu.externaltools.gnu-tools-for-stm32.11.3.rel1.win32_1.1.1.202309131626/tools/bin/../lib/gcc/arm-none-eabi/11.3.1/../../../../arm-none-eabi/lib/thumb/v7-m/nofp\libm.a(libm_a-sf_fabs.o)
                              D:/Program Files/STM32CubeIDE_1.10.1/STM32CubeIDE/plugins/com.st.stm32cube.ide.mcu.externaltools.gnu-tools-for-stm32.11.3.rel1.win32_1.1.1.202309131626/tools/bin/../lib/gcc/arm-none-eabi/11.3.1/../../../../arm-none-eabi/lib/thumb/v7-m/nofp\libm.a(libm_a-kf_tan.o) (fabsf)
D:/Program Files/STM32CubeIDE_1.10.1/STM32CubeIDE/plugins/com.st.stm32cube.ide.mcu.externaltools.gnu-tools-for-stm32.11.3.rel1.win32_1.1.1.202309131626/tools/bin/../lib/gcc/arm-none-eabi/11.3.1/../../../../arm-none-eabi/lib/thumb/v7-m/nofp\libm.a(libm_a-kf_rem_pio2.o)
                              D:/Program Files/STM32CubeIDE_1.10.1/STM32CubeIDE/plugins/com.st.stm32cube.ide.mcu.externaltools.gnu-tools-for-stm32.11.3.rel1.win32_1.1.1.202309131626/tools/bin/../lib/gcc/arm-none-eabi/11.3.1/../../../../arm-none-eabi/lib/thumb/v7-m/nofp\libm.a(libm_a-ef_rem_pio2.o) (__kernel_rem_pio2f)
D:/Program Files/STM32CubeIDE_1.10.1/STM32CubeIDE/plugins/com.st.stm32cube.ide.mcu.externaltools.gnu-tools-for-stm32.11.3.rel1.win32_1.1.1.202309131626/tools/bin/../lib/gcc/arm-none-eabi/11.3.1/../../../../arm-none-eabi/lib/thumb/v7-m/nofp\libm.a(libm_a-sf_scalbn.o)
                              D:/Program Files/STM32CubeIDE_1.10.1/STM32CubeIDE/plugins/com.st.stm32cube.ide.mcu.externaltools.gnu-tools-for-stm32.11.3.rel1.win32_1.1.1.202309131626/tools/bin/../lib/gcc/arm-none-eabi/11.3.1/../../../../arm-none-eabi/lib/thumb/v7-m/nofp\libm.a(libm_a-kf_rem_pio2.o) (scalbnf)
D:/Program Files/STM32CubeIDE_1.10.1/STM32CubeIDE/plugins/com.st.stm32cube.ide.mcu.externaltools.gnu-tools-for-stm32.11.3.rel1.win32_1.1.1.202309131626/tools/bin/../lib/gcc/arm-none-eabi/11.3.1/../../../../arm-none-eabi/lib/thumb/v7-m/nofp\libm.a(libm_a-sf_floor.o)
                              D:/Program Files/STM32CubeIDE_1.10.1/STM32CubeIDE/plugins/com.st.stm32cube.ide.mcu.externaltools.gnu-tools-for-stm32.11.3.rel1.win32_1.1.1.202309131626/tools/bin/../lib/gcc/arm-none-eabi/11.3.1/../../../../arm-none-eabi/lib/thumb/v7-m/nofp\libm.a(libm_a-kf_rem_pio2.o) (floorf)
D:/Program Files/STM32CubeIDE_1.10.1/STM32CubeIDE/plugins/com.st.stm32cube.ide.mcu.externaltools.gnu-tools-for-stm32.11.3.rel1.win32_1.1.1.202309131626/tools/bin/../lib/gcc/arm-none-eabi/11.3.1/../../../../arm-none-eabi/lib/thumb/v7-m/nofp\libc_nano.a(libc_a-exit.o)
                              D:/Program Files/STM32CubeIDE_1.10.1/STM32CubeIDE/plugins/com.st.stm32cube.ide.mcu.externaltools.gnu-tools-for-stm32.11.3.rel1.win32_1.1.1.202309131626/tools/bin/../lib/gcc/arm-none-eabi/11.3.1/../../../../arm-none-eabi/lib/thumb/v7-m/nofp/crt0.o (exit)
D:/Program Files/STM32CubeIDE_1.10.1/STM32CubeIDE/plugins/com.st.stm32cube.ide.mcu.externaltools.gnu-tools-for-stm32.11.3.rel1.win32_1.1.1.202309131626/tools/bin/../lib/gcc/arm-none-eabi/11.3.1/../../../../arm-none-eabi/lib/thumb/v7-m/nofp\libc_nano.a(libc_a-nano-vfprintf_float.o)
                              (_printf_float)
D:/Program Files/STM32CubeIDE_1.10.1/STM32CubeIDE/plugins/com.st.stm32cube.ide.mcu.externaltools.gnu-tools-for-stm32.11.3.rel1.win32_1.1.1.202309131626/tools/bin/../lib/gcc/arm-none-eabi/11.3.1/../../../../arm-none-eabi/lib/thumb/v7-m/nofp\libc_nano.a(libc_a-nano-vfprintf_i.o)
                              D:/Program Files/STM32CubeIDE_1.10.1/STM32CubeIDE/plugins/com.st.stm32cube.ide.mcu.externaltools.gnu-tools-for-stm32.11.3.rel1.win32_1.1.1.202309131626/tools/bin/../lib/gcc/arm-none-eabi/11.3.1/../../../../arm-none-eabi/lib/thumb/v7-m/nofp\libc_nano.a(libc_a-nano-vfprintf_float.o) (_printf_common)
D:/Program Files/STM32CubeIDE_1.10.1/STM32CubeIDE/plugins/com.st.stm32cube.ide.mcu.externaltools.gnu-tools-for-stm32.11.3.rel1.win32_1.1.1.202309131626/tools/bin/../lib/gcc/arm-none-eabi/11.3.1/../../../../arm-none-eabi/lib/thumb/v7-m/nofp\libc_nano.a(libc_a-nano-vfscanf_float.o)
                              (_scanf_float)
D:/Program Files/STM32CubeIDE_1.10.1/STM32CubeIDE/plugins/com.st.stm32cube.ide.mcu.externaltools.gnu-tools-for-stm32.11.3.rel1.win32_1.1.1.202309131626/tools/bin/../lib/gcc/arm-none-eabi/11.3.1/../../../../arm-none-eabi/lib/thumb/v7-m/nofp\libc_nano.a(libc_a-findfp.o)
                              D:/Program Files/STM32CubeIDE_1.10.1/STM32CubeIDE/plugins/com.st.stm32cube.ide.mcu.externaltools.gnu-tools-for-stm32.11.3.rel1.win32_1.1.1.202309131626/tools/bin/../lib/gcc/arm-none-eabi/11.3.1/../../../../arm-none-eabi/lib/thumb/v7-m/nofp\libc_nano.a(libc_a-exit.o) (__stdio_exit_handler)
D:/Program Files/STM32CubeIDE_1.10.1/STM32CubeIDE/plugins/com.st.stm32cube.ide.mcu.externaltools.gnu-tools-for-stm32.11.3.rel1.win32_1.1.1.202309131626/tools/bin/../lib/gcc/arm-none-eabi/11.3.1/../../../../arm-none-eabi/lib/thumb/v7-m/nofp\libc_nano.a(libc_a-fwalk.o)
                              D:/Program Files/STM32CubeIDE_1.10.1/STM32CubeIDE/plugins/com.st.stm32cube.ide.mcu.externaltools.gnu-tools-for-stm32.11.3.rel1.win32_1.1.1.202309131626/tools/bin/../lib/gcc/arm-none-eabi/11.3.1/../../../../arm-none-eabi/lib/thumb/v7-m/nofp\libc_nano.a(libc_a-findfp.o) (_fwalk_sglue)
D:/Program Files/STM32CubeIDE_1.10.1/STM32CubeIDE/plugins/com.st.stm32cube.ide.mcu.externaltools.gnu-tools-for-stm32.11.3.rel1.win32_1.1.1.202309131626/tools/bin/../lib/gcc/arm-none-eabi/11.3.1/../../../../arm-none-eabi/lib/thumb/v7-m/nofp\libc_nano.a(libc_a-printf.o)
                              ./Src/BSP/ak8963.o (printf)
D:/Program Files/STM32CubeIDE_1.10.1/STM32CubeIDE/plugins/com.st.stm32cube.ide.mcu.externaltools.gnu-tools-for-stm32.11.3.rel1.win32_1.1.1.202309131626/tools/bin/../lib/gcc/arm-none-eabi/11.3.1/../../../../arm-none-eabi/lib/thumb/v7-m/nofp\libc_nano.a(libc_a-puts.o)
                              ./Src/BSP/ak8963.o (puts)
D:/Program Files/STM32CubeIDE_1.10.1/STM32CubeIDE/plugins/com.st.stm32cube.ide.mcu.externaltools.gnu-tools-for-stm32.11.3.rel1.win32_1.1.1.202309131626/tools/bin/../lib/gcc/arm-none-eabi/11.3.1/../../../../arm-none-eabi/lib/thumb/v7-m/nofp\libc_nano.a(libc_a-sprintf.o)
                              ./Src/BSP/i2c_oled.o (sprintf)
D:/Program Files/STM32CubeIDE_1.10.1/STM32CubeIDE/plugins/com.st.stm32cube.ide.mcu.externaltools.gnu-tools-for-stm32.11.3.rel1.win32_1.1.1.202309131626/tools/bin/../lib/gcc/arm-none-eabi/11.3.1/../../../../arm-none-eabi/lib/thumb/v7-m/nofp\libc_nano.a(libc_a-stdio.o)
                              D:/Program Files/STM32CubeIDE_1.10.1/STM32CubeIDE/plugins/com.st.stm32cube.ide.mcu.externaltools.gnu-tools-for-stm32.11.3.rel1.win32_1.1.1.202309131626/tools/bin/../lib/gcc/arm-none-eabi/11.3.1/../../../../arm-none-eabi/lib/thumb/v7-m/nofp\libc_nano.a(libc_a-findfp.o) (__sread)
D:/Program Files/STM32CubeIDE_1.10.1/STM32CubeIDE/plugins/com.st.stm32cube.ide.mcu.externaltools.gnu-tools-for-stm32.11.3.rel1.win32_1.1.1.202309131626/tools/bin/../lib/gcc/arm-none-eabi/11.3.1/../../../../arm-none-eabi/lib/thumb/v7-m/nofp\libc_nano.a(libc_a-wbuf.o)
                              D:/Program Files/STM32CubeIDE_1.10.1/STM32CubeIDE/plugins/com.st.stm32cube.ide.mcu.externaltools.gnu-tools-for-stm32.11.3.rel1.win32_1.1.1.202309131626/tools/bin/../lib/gcc/arm-none-eabi/11.3.1/../../../../arm-none-eabi/lib/thumb/v7-m/nofp\libc_nano.a(libc_a-puts.o) (__swbuf_r)
D:/Program Files/STM32CubeIDE_1.10.1/STM32CubeIDE/plugins/com.st.stm32cube.ide.mcu.externaltools.gnu-tools-for-stm32.11.3.rel1.win32_1.1.1.202309131626/tools/bin/../lib/gcc/arm-none-eabi/11.3.1/../../../../arm-none-eabi/lib/thumb/v7-m/nofp\libc_nano.a(libc_a-wsetup.o)
                              D:/Program Files/STM32CubeIDE_1.10.1/STM32CubeIDE/plugins/com.st.stm32cube.ide.mcu.externaltools.gnu-tools-for-stm32.11.3.rel1.win32_1.1.1.202309131626/tools/bin/../lib/gcc/arm-none-eabi/11.3.1/../../../../arm-none-eabi/lib/thumb/v7-m/nofp\libc_nano.a(libc_a-puts.o) (__swsetup_r)
D:/Program Files/STM32CubeIDE_1.10.1/STM32CubeIDE/plugins/com.st.stm32cube.ide.mcu.externaltools.gnu-tools-for-stm32.11.3.rel1.win32_1.1.1.202309131626/tools/bin/../lib/gcc/arm-none-eabi/11.3.1/../../../../arm-none-eabi/lib/thumb/v7-m/nofp\libc_nano.a(libc_a-memset.o)
                              D:/Program Files/STM32CubeIDE_1.10.1/STM32CubeIDE/plugins/com.st.stm32cube.ide.mcu.externaltools.gnu-tools-for-stm32.11.3.rel1.win32_1.1.1.202309131626/tools/bin/../lib/gcc/arm-none-eabi/11.3.1/../../../../arm-none-eabi/lib/thumb/v7-m/nofp/crt0.o (memset)
D:/Program Files/STM32CubeIDE_1.10.1/STM32CubeIDE/plugins/com.st.stm32cube.ide.mcu.externaltools.gnu-tools-for-stm32.11.3.rel1.win32_1.1.1.202309131626/tools/bin/../lib/gcc/arm-none-eabi/11.3.1/../../../../arm-none-eabi/lib/thumb/v7-m/nofp\libc_nano.a(libc_a-localeconv.o)
                              D:/Program Files/STM32CubeIDE_1.10.1/STM32CubeIDE/plugins/com.st.stm32cube.ide.mcu.externaltools.gnu-tools-for-stm32.11.3.rel1.win32_1.1.1.202309131626/tools/bin/../lib/gcc/arm-none-eabi/11.3.1/../../../../arm-none-eabi/lib/thumb/v7-m/nofp\libc_nano.a(libc_a-nano-vfprintf_float.o) (_localeconv_r)
D:/Program Files/STM32CubeIDE_1.10.1/STM32CubeIDE/plugins/com.st.stm32cube.ide.mcu.externaltools.gnu-tools-for-stm32.11.3.rel1.win32_1.1.1.202309131626/tools/bin/../lib/gcc/arm-none-eabi/11.3.1/../../../../arm-none-eabi/lib/thumb/v7-m/nofp\libc_nano.a(libc_a-closer.o)
                              D:/Program Files/STM32CubeIDE_1.10.1/STM32CubeIDE/plugins/com.st.stm32cube.ide.mcu.externaltools.gnu-tools-for-stm32.11.3.rel1.win32_1.1.1.202309131626/tools/bin/../lib/gcc/arm-none-eabi/11.3.1/../../../../arm-none-eabi/lib/thumb/v7-m/nofp\libc_nano.a(libc_a-stdio.o) (_close_r)
D:/Program Files/STM32CubeIDE_1.10.1/STM32CubeIDE/plugins/com.st.stm32cube.ide.mcu.externaltools.gnu-tools-for-stm32.11.3.rel1.win32_1.1.1.202309131626/tools/bin/../lib/gcc/arm-none-eabi/11.3.1/../../../../arm-none-eabi/lib/thumb/v7-m/nofp\libc_nano.a(libc_a-reent.o)
                              D:/Program Files/STM32CubeIDE_1.10.1/STM32CubeIDE/plugins/com.st.stm32cube.ide.mcu.externaltools.gnu-tools-for-stm32.11.3.rel1.win32_1.1.1.202309131626/tools/bin/../lib/gcc/arm-none-eabi/11.3.1/../../../../arm-none-eabi/lib/thumb/v7-m/nofp\libc_nano.a(libc_a-closer.o) (errno)
D:/Program Files/STM32CubeIDE_1.10.1/STM32CubeIDE/plugins/com.st.stm32cube.ide.mcu.externaltools.gnu-tools-for-stm32.11.3.rel1.win32_1.1.1.202309131626/tools/bin/../lib/gcc/arm-none-eabi/11.3.1/../../../../arm-none-eabi/lib/thumb/v7-m/nofp\libc_nano.a(libc_a-impure.o)
                              D:/Program Files/STM32CubeIDE_1.10.1/STM32CubeIDE/plugins/com.st.stm32cube.ide.mcu.externaltools.gnu-tools-for-stm32.11.3.rel1.win32_1.1.1.202309131626/tools/bin/../lib/gcc/arm-none-eabi/11.3.1/../../../../arm-none-eabi/lib/thumb/v7-m/nofp\libc_nano.a(libc_a-printf.o) (_impure_ptr)
D:/Program Files/STM32CubeIDE_1.10.1/STM32CubeIDE/plugins/com.st.stm32cube.ide.mcu.externaltools.gnu-tools-for-stm32.11.3.rel1.win32_1.1.1.202309131626/tools/bin/../lib/gcc/arm-none-eabi/11.3.1/../../../../arm-none-eabi/lib/thumb/v7-m/nofp\libc_nano.a(libc_a-lseekr.o)
                              D:/Program Files/STM32CubeIDE_1.10.1/STM32CubeIDE/plugins/com.st.stm32cube.ide.mcu.externaltools.gnu-tools-for-stm32.11.3.rel1.win32_1.1.1.202309131626/tools/bin/../lib/gcc/arm-none-eabi/11.3.1/../../../../arm-none-eabi/lib/thumb/v7-m/nofp\libc_nano.a(libc_a-stdio.o) (_lseek_r)
D:/Program Files/STM32CubeIDE_1.10.1/STM32CubeIDE/plugins/com.st.stm32cube.ide.mcu.externaltools.gnu-tools-for-stm32.11.3.rel1.win32_1.1.1.202309131626/tools/bin/../lib/gcc/arm-none-eabi/11.3.1/../../../../arm-none-eabi/lib/thumb/v7-m/nofp\libc_nano.a(libc_a-readr.o)
                              D:/Program Files/STM32CubeIDE_1.10.1/STM32CubeIDE/plugins/com.st.stm32cube.ide.mcu.externaltools.gnu-tools-for-stm32.11.3.rel1.win32_1.1.1.202309131626/tools/bin/../lib/gcc/arm-none-eabi/11.3.1/../../../../arm-none-eabi/lib/thumb/v7-m/nofp\libc_nano.a(libc_a-stdio.o) (_read_r)
D:/Program Files/STM32CubeIDE_1.10.1/STM32CubeIDE/plugins/com.st.stm32cube.ide.mcu.externaltools.gnu-tools-for-stm32.11.3.rel1.win32_1.1.1.202309131626/tools/bin/../lib/gcc/arm-none-eabi/11.3.1/../../../../arm-none-eabi/lib/thumb/v7-m/nofp\libc_nano.a(libc_a-writer.o)
                              D:/Program Files/STM32CubeIDE_1.10.1/STM32CubeIDE/plugins/com.st.stm32cube.ide.mcu.externaltools.gnu-tools-for-stm32.11.3.rel1.win32_1.1.1.202309131626/tools/bin/../lib/gcc/arm-none-eabi/11.3.1/../../../../arm-none-eabi/lib/thumb/v7-m/nofp\libc_nano.a(libc_a-stdio.o) (_write_r)
D:/Program Files/STM32CubeIDE_1.10.1/STM32CubeIDE/plugins/com.st.stm32cube.ide.mcu.externaltools.gnu-tools-for-stm32.11.3.rel1.win32_1.1.1.202309131626/tools/bin/../lib/gcc/arm-none-eabi/11.3.1/../../../../arm-none-eabi/lib/thumb/v7-m/nofp\libc_nano.a(libc_a-errno.o)
                              ./Src/BSP/usart1.o (__errno)
D:/Program Files/STM32CubeIDE_1.10.1/STM32CubeIDE/plugins/com.st.stm32cube.ide.mcu.externaltools.gnu-tools-for-stm32.11.3.rel1.win32_1.1.1.202309131626/tools/bin/../lib/gcc/arm-none-eabi/11.3.1/../../../../arm-none-eabi/lib/thumb/v7-m/nofp\libc_nano.a(libc_a-init.o)
                              D:/Program Files/STM32CubeIDE_1.10.1/STM32CubeIDE/plugins/com.st.stm32cube.ide.mcu.externaltools.gnu-tools-for-stm32.11.3.rel1.win32_1.1.1.202309131626/tools/bin/../lib/gcc/arm-none-eabi/11.3.1/../../../../arm-none-eabi/lib/thumb/v7-m/nofp/crt0.o (__libc_init_array)
D:/Program Files/STM32CubeIDE_1.10.1/STM32CubeIDE/plugins/com.st.stm32cube.ide.mcu.externaltools.gnu-tools-for-stm32.11.3.rel1.win32_1.1.1.202309131626/tools/bin/../lib/gcc/arm-none-eabi/11.3.1/../../../../arm-none-eabi/lib/thumb/v7-m/nofp\libc_nano.a(libc_a-lock.o)
                              D:/Program Files/STM32CubeIDE_1.10.1/STM32CubeIDE/plugins/com.st.stm32cube.ide.mcu.externaltools.gnu-tools-for-stm32.11.3.rel1.win32_1.1.1.202309131626/tools/bin/../lib/gcc/arm-none-eabi/11.3.1/../../../../arm-none-eabi/lib/thumb/v7-m/nofp\libc_nano.a(libc_a-findfp.o) (__retarget_lock_init_recursive)
D:/Program Files/STM32CubeIDE_1.10.1/STM32CubeIDE/plugins/com.st.stm32cube.ide.mcu.externaltools.gnu-tools-for-stm32.11.3.rel1.win32_1.1.1.202309131626/tools/bin/../lib/gcc/arm-none-eabi/11.3.1/../../../../arm-none-eabi/lib/thumb/v7-m/nofp\libc_nano.a(libc_a-strcpy.o)
                              ./Src/FreeRTOS/tasks.o (strcpy)
D:/Program Files/STM32CubeIDE_1.10.1/STM32CubeIDE/plugins/com.st.stm32cube.ide.mcu.externaltools.gnu-tools-for-stm32.11.3.rel1.win32_1.1.1.202309131626/tools/bin/../lib/gcc/arm-none-eabi/11.3.1/../../../../arm-none-eabi/lib/thumb/v7-m/nofp\libc_nano.a(libc_a-memchr-stub.o)
                              D:/Program Files/STM32CubeIDE_1.10.1/STM32CubeIDE/plugins/com.st.stm32cube.ide.mcu.externaltools.gnu-tools-for-stm32.11.3.rel1.win32_1.1.1.202309131626/tools/bin/../lib/gcc/arm-none-eabi/11.3.1/../../../../arm-none-eabi/lib/thumb/v7-m/nofp\libc_nano.a(libc_a-nano-vfprintf_i.o) (memchr)
D:/Program Files/STM32CubeIDE_1.10.1/STM32CubeIDE/plugins/com.st.stm32cube.ide.mcu.externaltools.gnu-tools-for-stm32.11.3.rel1.win32_1.1.1.202309131626/tools/bin/../lib/gcc/arm-none-eabi/11.3.1/../../../../arm-none-eabi/lib/thumb/v7-m/nofp\libc_nano.a(libc_a-memcpy-stub.o)
                              ./Src/BSP/can.o (memcpy)
D:/Program Files/STM32CubeIDE_1.10.1/STM32CubeIDE/plugins/com.st.stm32cube.ide.mcu.externaltools.gnu-tools-for-stm32.11.3.rel1.win32_1.1.1.202309131626/tools/bin/../lib/gcc/arm-none-eabi/11.3.1/../../../../arm-none-eabi/lib/thumb/v7-m/nofp\libc_nano.a(libc_a-strlen.o)
                              ./Src/FreeRTOS/tasks.o (strlen)
D:/Program Files/STM32CubeIDE_1.10.1/STM32CubeIDE/plugins/com.st.stm32cube.ide.mcu.externaltools.gnu-tools-for-stm32.11.3.rel1.win32_1.1.1.202309131626/tools/bin/../lib/gcc/arm-none-eabi/11.3.1/../../../../arm-none-eabi/lib/thumb/v7-m/nofp\libc_nano.a(libm_a-sf_nan.o)
                              D:/Program Files/STM32CubeIDE_1.10.1/STM32CubeIDE/plugins/com.st.stm32cube.ide.mcu.externaltools.gnu-tools-for-stm32.11.3.rel1.win32_1.1.1.202309131626/tools/bin/../lib/gcc/arm-none-eabi/11.3.1/../../../../arm-none-eabi/lib/thumb/v7-m/nofp\libc_nano.a(libc_a-nano-vfscanf_float.o) (nanf)
D:/Program Files/STM32CubeIDE_1.10.1/STM32CubeIDE/plugins/com.st.stm32cube.ide.mcu.externaltools.gnu-tools-for-stm32.11.3.rel1.win32_1.1.1.202309131626/tools/bin/../lib/gcc/arm-none-eabi/11.3.1/../../../../arm-none-eabi/lib/thumb/v7-m/nofp\libc_nano.a(libc_a-dtoa.o)
                              D:/Program Files/STM32CubeIDE_1.10.1/STM32CubeIDE/plugins/com.st.stm32cube.ide.mcu.externaltools.gnu-tools-for-stm32.11.3.rel1.win32_1.1.1.202309131626/tools/bin/../lib/gcc/arm-none-eabi/11.3.1/../../../../arm-none-eabi/lib/thumb/v7-m/nofp\libc_nano.a(libc_a-nano-vfprintf_float.o) (_dtoa_r)
D:/Program Files/STM32CubeIDE_1.10.1/STM32CubeIDE/plugins/com.st.stm32cube.ide.mcu.externaltools.gnu-tools-for-stm32.11.3.rel1.win32_1.1.1.202309131626/tools/bin/../lib/gcc/arm-none-eabi/11.3.1/../../../../arm-none-eabi/lib/thumb/v7-m/nofp\libc_nano.a(libc_a-freer.o)
                              D:/Program Files/STM32CubeIDE_1.10.1/STM32CubeIDE/plugins/com.st.stm32cube.ide.mcu.externaltools.gnu-tools-for-stm32.11.3.rel1.win32_1.1.1.202309131626/tools/bin/../lib/gcc/arm-none-eabi/11.3.1/../../../../arm-none-eabi/lib/thumb/v7-m/nofp\libc_nano.a(libc_a-wsetup.o) (_free_r)
D:/Program Files/STM32CubeIDE_1.10.1/STM32CubeIDE/plugins/com.st.stm32cube.ide.mcu.externaltools.gnu-tools-for-stm32.11.3.rel1.win32_1.1.1.202309131626/tools/bin/../lib/gcc/arm-none-eabi/11.3.1/../../../../arm-none-eabi/lib/thumb/v7-m/nofp\libc_nano.a(libc_a-malloc.o)
                              D:/Program Files/STM32CubeIDE_1.10.1/STM32CubeIDE/plugins/com.st.stm32cube.ide.mcu.externaltools.gnu-tools-for-stm32.11.3.rel1.win32_1.1.1.202309131626/tools/bin/../lib/gcc/arm-none-eabi/11.3.1/../../../../arm-none-eabi/lib/thumb/v7-m/nofp\libc_nano.a(libc_a-dtoa.o) (malloc)
D:/Program Files/STM32CubeIDE_1.10.1/STM32CubeIDE/plugins/com.st.stm32cube.ide.mcu.externaltools.gnu-tools-for-stm32.11.3.rel1.win32_1.1.1.202309131626/tools/bin/../lib/gcc/arm-none-eabi/11.3.1/../../../../arm-none-eabi/lib/thumb/v7-m/nofp\libc_nano.a(libc_a-mallocr.o)
                              D:/Program Files/STM32CubeIDE_1.10.1/STM32CubeIDE/plugins/com.st.stm32cube.ide.mcu.externaltools.gnu-tools-for-stm32.11.3.rel1.win32_1.1.1.202309131626/tools/bin/../lib/gcc/arm-none-eabi/11.3.1/../../../../arm-none-eabi/lib/thumb/v7-m/nofp\libc_nano.a(libc_a-findfp.o) (_malloc_r)
D:/Program Files/STM32CubeIDE_1.10.1/STM32CubeIDE/plugins/com.st.stm32cube.ide.mcu.externaltools.gnu-tools-for-stm32.11.3.rel1.win32_1.1.1.202309131626/tools/bin/../lib/gcc/arm-none-eabi/11.3.1/../../../../arm-none-eabi/lib/thumb/v7-m/nofp\libc_nano.a(libc_a-mlock.o)
                              D:/Program Files/STM32CubeIDE_1.10.1/STM32CubeIDE/plugins/com.st.stm32cube.ide.mcu.externaltools.gnu-tools-for-stm32.11.3.rel1.win32_1.1.1.202309131626/tools/bin/../lib/gcc/arm-none-eabi/11.3.1/../../../../arm-none-eabi/lib/thumb/v7-m/nofp\libc_nano.a(libc_a-freer.o) (__malloc_lock)
D:/Program Files/STM32CubeIDE_1.10.1/STM32CubeIDE/plugins/com.st.stm32cube.ide.mcu.externaltools.gnu-tools-for-stm32.11.3.rel1.win32_1.1.1.202309131626/tools/bin/../lib/gcc/arm-none-eabi/11.3.1/../../../../arm-none-eabi/lib/thumb/v7-m/nofp\libc_nano.a(libc_a-mprec.o)
                              D:/Program Files/STM32CubeIDE_1.10.1/STM32CubeIDE/plugins/com.st.stm32cube.ide.mcu.externaltools.gnu-tools-for-stm32.11.3.rel1.win32_1.1.1.202309131626/tools/bin/../lib/gcc/arm-none-eabi/11.3.1/../../../../arm-none-eabi/lib/thumb/v7-m/nofp\libc_nano.a(libc_a-dtoa.o) (_Balloc)
D:/Program Files/STM32CubeIDE_1.10.1/STM32CubeIDE/plugins/com.st.stm32cube.ide.mcu.externaltools.gnu-tools-for-stm32.11.3.rel1.win32_1.1.1.202309131626/tools/bin/../lib/gcc/arm-none-eabi/11.3.1/../../../../arm-none-eabi/lib/thumb/v7-m/nofp\libc_nano.a(libc_a-strtod.o)
                              D:/Program Files/STM32CubeIDE_1.10.1/STM32CubeIDE/plugins/com.st.stm32cube.ide.mcu.externaltools.gnu-tools-for-stm32.11.3.rel1.win32_1.1.1.202309131626/tools/bin/../lib/gcc/arm-none-eabi/11.3.1/../../../../arm-none-eabi/lib/thumb/v7-m/nofp\libc_nano.a(libc_a-nano-vfscanf_float.o) (_strtod_r)
D:/Program Files/STM32CubeIDE_1.10.1/STM32CubeIDE/plugins/com.st.stm32cube.ide.mcu.externaltools.gnu-tools-for-stm32.11.3.rel1.win32_1.1.1.202309131626/tools/bin/../lib/gcc/arm-none-eabi/11.3.1/../../../../arm-none-eabi/lib/thumb/v7-m/nofp\libc_nano.a(libc_a-strtol.o)
                              D:/Program Files/STM32CubeIDE_1.10.1/STM32CubeIDE/plugins/com.st.stm32cube.ide.mcu.externaltools.gnu-tools-for-stm32.11.3.rel1.win32_1.1.1.202309131626/tools/bin/../lib/gcc/arm-none-eabi/11.3.1/../../../../arm-none-eabi/lib/thumb/v7-m/nofp\libc_nano.a(libc_a-nano-vfscanf_float.o) (_strtol_r)
D:/Program Files/STM32CubeIDE_1.10.1/STM32CubeIDE/plugins/com.st.stm32cube.ide.mcu.externaltools.gnu-tools-for-stm32.11.3.rel1.win32_1.1.1.202309131626/tools/bin/../lib/gcc/arm-none-eabi/11.3.1/../../../../arm-none-eabi/lib/thumb/v7-m/nofp\libc_nano.a(libc_a-ctype_.o)
                              D:/Program Files/STM32CubeIDE_1.10.1/STM32CubeIDE/plugins/com.st.stm32cube.ide.mcu.externaltools.gnu-tools-for-stm32.11.3.rel1.win32_1.1.1.202309131626/tools/bin/../lib/gcc/arm-none-eabi/11.3.1/../../../../arm-none-eabi/lib/thumb/v7-m/nofp\libc_nano.a(libc_a-strtol.o) (_ctype_)
D:/Program Files/STM32CubeIDE_1.10.1/STM32CubeIDE/plugins/com.st.stm32cube.ide.mcu.externaltools.gnu-tools-for-stm32.11.3.rel1.win32_1.1.1.202309131626/tools/bin/../lib/gcc/arm-none-eabi/11.3.1/../../../../arm-none-eabi/lib/thumb/v7-m/nofp\libc_nano.a(libc_a-nano-svfprintf.o)
                              D:/Program Files/STM32CubeIDE_1.10.1/STM32CubeIDE/plugins/com.st.stm32cube.ide.mcu.externaltools.gnu-tools-for-stm32.11.3.rel1.win32_1.1.1.202309131626/tools/bin/../lib/gcc/arm-none-eabi/11.3.1/../../../../arm-none-eabi/lib/thumb/v7-m/nofp\libc_nano.a(libc_a-sprintf.o) (_svfprintf_r)
D:/Program Files/STM32CubeIDE_1.10.1/STM32CubeIDE/plugins/com.st.stm32cube.ide.mcu.externaltools.gnu-tools-for-stm32.11.3.rel1.win32_1.1.1.202309131626/tools/bin/../lib/gcc/arm-none-eabi/11.3.1/../../../../arm-none-eabi/lib/thumb/v7-m/nofp\libc_nano.a(libc_a-nano-vfprintf.o)
                              D:/Program Files/STM32CubeIDE_1.10.1/STM32CubeIDE/plugins/com.st.stm32cube.ide.mcu.externaltools.gnu-tools-for-stm32.11.3.rel1.win32_1.1.1.202309131626/tools/bin/../lib/gcc/arm-none-eabi/11.3.1/../../../../arm-none-eabi/lib/thumb/v7-m/nofp\libc_nano.a(libc_a-printf.o) (_vfprintf_r)
D:/Program Files/STM32CubeIDE_1.10.1/STM32CubeIDE/plugins/com.st.stm32cube.ide.mcu.externaltools.gnu-tools-for-stm32.11.3.rel1.win32_1.1.1.202309131626/tools/bin/../lib/gcc/arm-none-eabi/11.3.1/../../../../arm-none-eabi/lib/thumb/v7-m/nofp\libc_nano.a(libc_a-fflush.o)
                              D:/Program Files/STM32CubeIDE_1.10.1/STM32CubeIDE/plugins/com.st.stm32cube.ide.mcu.externaltools.gnu-tools-for-stm32.11.3.rel1.win32_1.1.1.202309131626/tools/bin/../lib/gcc/arm-none-eabi/11.3.1/../../../../arm-none-eabi/lib/thumb/v7-m/nofp\libc_nano.a(libc_a-findfp.o) (_fflush_r)
D:/Program Files/STM32CubeIDE_1.10.1/STM32CubeIDE/plugins/com.st.stm32cube.ide.mcu.externaltools.gnu-tools-for-stm32.11.3.rel1.win32_1.1.1.202309131626/tools/bin/../lib/gcc/arm-none-eabi/11.3.1/../../../../arm-none-eabi/lib/thumb/v7-m/nofp\libc_nano.a(libc_a-fvwrite.o)
                              D:/Program Files/STM32CubeIDE_1.10.1/STM32CubeIDE/plugins/com.st.stm32cube.ide.mcu.externaltools.gnu-tools-for-stm32.11.3.rel1.win32_1.1.1.202309131626/tools/bin/../lib/gcc/arm-none-eabi/11.3.1/../../../../arm-none-eabi/lib/thumb/v7-m/nofp\libc_nano.a(libc_a-nano-vfprintf.o) (__sfvwrite_r)
D:/Program Files/STM32CubeIDE_1.10.1/STM32CubeIDE/plugins/com.st.stm32cube.ide.mcu.externaltools.gnu-tools-for-stm32.11.3.rel1.win32_1.1.1.202309131626/tools/bin/../lib/gcc/arm-none-eabi/11.3.1/../../../../arm-none-eabi/lib/thumb/v7-m/nofp\libc_nano.a(libc_a-makebuf.o)
                              D:/Program Files/STM32CubeIDE_1.10.1/STM32CubeIDE/plugins/com.st.stm32cube.ide.mcu.externaltools.gnu-tools-for-stm32.11.3.rel1.win32_1.1.1.202309131626/tools/bin/../lib/gcc/arm-none-eabi/11.3.1/../../../../arm-none-eabi/lib/thumb/v7-m/nofp\libc_nano.a(libc_a-wsetup.o) (__smakebuf_r)
D:/Program Files/STM32CubeIDE_1.10.1/STM32CubeIDE/plugins/com.st.stm32cube.ide.mcu.externaltools.gnu-tools-for-stm32.11.3.rel1.win32_1.1.1.202309131626/tools/bin/../lib/gcc/arm-none-eabi/11.3.1/../../../../arm-none-eabi/lib/thumb/v7-m/nofp\libc_nano.a(libc_a-memmove.o)
                              D:/Program Files/STM32CubeIDE_1.10.1/STM32CubeIDE/plugins/com.st.stm32cube.ide.mcu.externaltools.gnu-tools-for-stm32.11.3.rel1.win32_1.1.1.202309131626/tools/bin/../lib/gcc/arm-none-eabi/11.3.1/../../../../arm-none-eabi/lib/thumb/v7-m/nofp\libc_nano.a(libc_a-nano-svfprintf.o) (memmove)
D:/Program Files/STM32CubeIDE_1.10.1/STM32CubeIDE/plugins/com.st.stm32cube.ide.mcu.externaltools.gnu-tools-for-stm32.11.3.rel1.win32_1.1.1.202309131626/tools/bin/../lib/gcc/arm-none-eabi/11.3.1/../../../../arm-none-eabi/lib/thumb/v7-m/nofp\libc_nano.a(libc_a-strncmp.o)
                              D:/Program Files/STM32CubeIDE_1.10.1/STM32CubeIDE/plugins/com.st.stm32cube.ide.mcu.externaltools.gnu-tools-for-stm32.11.3.rel1.win32_1.1.1.202309131626/tools/bin/../lib/gcc/arm-none-eabi/11.3.1/../../../../arm-none-eabi/lib/thumb/v7-m/nofp\libc_nano.a(libc_a-strtod.o) (strncmp)
D:/Program Files/STM32CubeIDE_1.10.1/STM32CubeIDE/plugins/com.st.stm32cube.ide.mcu.externaltools.gnu-tools-for-stm32.11.3.rel1.win32_1.1.1.202309131626/tools/bin/../lib/gcc/arm-none-eabi/11.3.1/../../../../arm-none-eabi/lib/thumb/v7-m/nofp\libc_nano.a(libc_a-locale.o)
                              D:/Program Files/STM32CubeIDE_1.10.1/STM32CubeIDE/plugins/com.st.stm32cube.ide.mcu.externaltools.gnu-tools-for-stm32.11.3.rel1.win32_1.1.1.202309131626/tools/bin/../lib/gcc/arm-none-eabi/11.3.1/../../../../arm-none-eabi/lib/thumb/v7-m/nofp\libc_nano.a(libc_a-localeconv.o) (__global_locale)
D:/Program Files/STM32CubeIDE_1.10.1/STM32CubeIDE/plugins/com.st.stm32cube.ide.mcu.externaltools.gnu-tools-for-stm32.11.3.rel1.win32_1.1.1.202309131626/tools/bin/../lib/gcc/arm-none-eabi/11.3.1/../../../../arm-none-eabi/lib/thumb/v7-m/nofp\libc_nano.a(libc_a-fstatr.o)
                              D:/Program Files/STM32CubeIDE_1.10.1/STM32CubeIDE/plugins/com.st.stm32cube.ide.mcu.externaltools.gnu-tools-for-stm32.11.3.rel1.win32_1.1.1.202309131626/tools/bin/../lib/gcc/arm-none-eabi/11.3.1/../../../../arm-none-eabi/lib/thumb/v7-m/nofp\libc_nano.a(libc_a-makebuf.o) (_fstat_r)
D:/Program Files/STM32CubeIDE_1.10.1/STM32CubeIDE/plugins/com.st.stm32cube.ide.mcu.externaltools.gnu-tools-for-stm32.11.3.rel1.win32_1.1.1.202309131626/tools/bin/../lib/gcc/arm-none-eabi/11.3.1/../../../../arm-none-eabi/lib/thumb/v7-m/nofp\libc_nano.a(libc_a-isattyr.o)
                              D:/Program Files/STM32CubeIDE_1.10.1/STM32CubeIDE/plugins/com.st.stm32cube.ide.mcu.externaltools.gnu-tools-for-stm32.11.3.rel1.win32_1.1.1.202309131626/tools/bin/../lib/gcc/arm-none-eabi/11.3.1/../../../../arm-none-eabi/lib/thumb/v7-m/nofp\libc_nano.a(libc_a-makebuf.o) (_isatty_r)
D:/Program Files/STM32CubeIDE_1.10.1/STM32CubeIDE/plugins/com.st.stm32cube.ide.mcu.externaltools.gnu-tools-for-stm32.11.3.rel1.win32_1.1.1.202309131626/tools/bin/../lib/gcc/arm-none-eabi/11.3.1/../../../../arm-none-eabi/lib/thumb/v7-m/nofp\libc_nano.a(libc_a-sbrkr.o)
                              D:/Program Files/STM32CubeIDE_1.10.1/STM32CubeIDE/plugins/com.st.stm32cube.ide.mcu.externaltools.gnu-tools-for-stm32.11.3.rel1.win32_1.1.1.202309131626/tools/bin/../lib/gcc/arm-none-eabi/11.3.1/../../../../arm-none-eabi/lib/thumb/v7-m/nofp\libc_nano.a(libc_a-mallocr.o) (_sbrk_r)
D:/Program Files/STM32CubeIDE_1.10.1/STM32CubeIDE/plugins/com.st.stm32cube.ide.mcu.externaltools.gnu-tools-for-stm32.11.3.rel1.win32_1.1.1.202309131626/tools/bin/../lib/gcc/arm-none-eabi/11.3.1/../../../../arm-none-eabi/lib/thumb/v7-m/nofp\libc_nano.a(libc_a-strcmp.o)
                              D:/Program Files/STM32CubeIDE_1.10.1/STM32CubeIDE/plugins/com.st.stm32cube.ide.mcu.externaltools.gnu-tools-for-stm32.11.3.rel1.win32_1.1.1.202309131626/tools/bin/../lib/gcc/arm-none-eabi/11.3.1/../../../../arm-none-eabi/lib/thumb/v7-m/nofp\libc_nano.a(libc_a-locale.o) (strcmp)
D:/Program Files/STM32CubeIDE_1.10.1/STM32CubeIDE/plugins/com.st.stm32cube.ide.mcu.externaltools.gnu-tools-for-stm32.11.3.rel1.win32_1.1.1.202309131626/tools/bin/../lib/gcc/arm-none-eabi/11.3.1/../../../../arm-none-eabi/lib/thumb/v7-m/nofp\libc_nano.a(libm_a-s_nan.o)
                              D:/Program Files/STM32CubeIDE_1.10.1/STM32CubeIDE/plugins/com.st.stm32cube.ide.mcu.externaltools.gnu-tools-for-stm32.11.3.rel1.win32_1.1.1.202309131626/tools/bin/../lib/gcc/arm-none-eabi/11.3.1/../../../../arm-none-eabi/lib/thumb/v7-m/nofp\libc_nano.a(libc_a-strtod.o) (nan)
D:/Program Files/STM32CubeIDE_1.10.1/STM32CubeIDE/plugins/com.st.stm32cube.ide.mcu.externaltools.gnu-tools-for-stm32.11.3.rel1.win32_1.1.1.202309131626/tools/bin/../lib/gcc/arm-none-eabi/11.3.1/../../../../arm-none-eabi/lib/thumb/v7-m/nofp\libc_nano.a(libc_a-assert.o)
                              D:/Program Files/STM32CubeIDE_1.10.1/STM32CubeIDE/plugins/com.st.stm32cube.ide.mcu.externaltools.gnu-tools-for-stm32.11.3.rel1.win32_1.1.1.202309131626/tools/bin/../lib/gcc/arm-none-eabi/11.3.1/../../../../arm-none-eabi/lib/thumb/v7-m/nofp\libc_nano.a(libc_a-dtoa.o) (__assert_func)
D:/Program Files/STM32CubeIDE_1.10.1/STM32CubeIDE/plugins/com.st.stm32cube.ide.mcu.externaltools.gnu-tools-for-stm32.11.3.rel1.win32_1.1.1.202309131626/tools/bin/../lib/gcc/arm-none-eabi/11.3.1/../../../../arm-none-eabi/lib/thumb/v7-m/nofp\libc_nano.a(libc_a-callocr.o)
                              D:/Program Files/STM32CubeIDE_1.10.1/STM32CubeIDE/plugins/com.st.stm32cube.ide.mcu.externaltools.gnu-tools-for-stm32.11.3.rel1.win32_1.1.1.202309131626/tools/bin/../lib/gcc/arm-none-eabi/11.3.1/../../../../arm-none-eabi/lib/thumb/v7-m/nofp\libc_nano.a(libc_a-mprec.o) (_calloc_r)
D:/Program Files/STM32CubeIDE_1.10.1/STM32CubeIDE/plugins/com.st.stm32cube.ide.mcu.externaltools.gnu-tools-for-stm32.11.3.rel1.win32_1.1.1.202309131626/tools/bin/../lib/gcc/arm-none-eabi/11.3.1/../../../../arm-none-eabi/lib/thumb/v7-m/nofp\libc_nano.a(libc_a-gdtoa-gethex.o)
                              D:/Program Files/STM32CubeIDE_1.10.1/STM32CubeIDE/plugins/com.st.stm32cube.ide.mcu.externaltools.gnu-tools-for-stm32.11.3.rel1.win32_1.1.1.202309131626/tools/bin/../lib/gcc/arm-none-eabi/11.3.1/../../../../arm-none-eabi/lib/thumb/v7-m/nofp\libc_nano.a(libc_a-strtod.o) (__gethex)
D:/Program Files/STM32CubeIDE_1.10.1/STM32CubeIDE/plugins/com.st.stm32cube.ide.mcu.externaltools.gnu-tools-for-stm32.11.3.rel1.win32_1.1.1.202309131626/tools/bin/../lib/gcc/arm-none-eabi/11.3.1/../../../../arm-none-eabi/lib/thumb/v7-m/nofp\libc_nano.a(libc_a-gdtoa-hexnan.o)
                              D:/Program Files/STM32CubeIDE_1.10.1/STM32CubeIDE/plugins/com.st.stm32cube.ide.mcu.externaltools.gnu-tools-for-stm32.11.3.rel1.win32_1.1.1.202309131626/tools/bin/../lib/gcc/arm-none-eabi/11.3.1/../../../../arm-none-eabi/lib/thumb/v7-m/nofp\libc_nano.a(libc_a-strtod.o) (__match)
D:/Program Files/STM32CubeIDE_1.10.1/STM32CubeIDE/plugins/com.st.stm32cube.ide.mcu.externaltools.gnu-tools-for-stm32.11.3.rel1.win32_1.1.1.202309131626/tools/bin/../lib/gcc/arm-none-eabi/11.3.1/../../../../arm-none-eabi/lib/thumb/v7-m/nofp\libc_nano.a(libc_a-mbtowc_r.o)
                              D:/Program Files/STM32CubeIDE_1.10.1/STM32CubeIDE/plugins/com.st.stm32cube.ide.mcu.externaltools.gnu-tools-for-stm32.11.3.rel1.win32_1.1.1.202309131626/tools/bin/../lib/gcc/arm-none-eabi/11.3.1/../../../../arm-none-eabi/lib/thumb/v7-m/nofp\libc_nano.a(libc_a-locale.o) (__ascii_mbtowc)
D:/Program Files/STM32CubeIDE_1.10.1/STM32CubeIDE/plugins/com.st.stm32cube.ide.mcu.externaltools.gnu-tools-for-stm32.11.3.rel1.win32_1.1.1.202309131626/tools/bin/../lib/gcc/arm-none-eabi/11.3.1/../../../../arm-none-eabi/lib/thumb/v7-m/nofp\libc_nano.a(libc_a-reallocr.o)
                              D:/Program Files/STM32CubeIDE_1.10.1/STM32CubeIDE/plugins/com.st.stm32cube.ide.mcu.externaltools.gnu-tools-for-stm32.11.3.rel1.win32_1.1.1.202309131626/tools/bin/../lib/gcc/arm-none-eabi/11.3.1/../../../../arm-none-eabi/lib/thumb/v7-m/nofp\libc_nano.a(libc_a-nano-svfprintf.o) (_realloc_r)
D:/Program Files/STM32CubeIDE_1.10.1/STM32CubeIDE/plugins/com.st.stm32cube.ide.mcu.externaltools.gnu-tools-for-stm32.11.3.rel1.win32_1.1.1.202309131626/tools/bin/../lib/gcc/arm-none-eabi/11.3.1/../../../../arm-none-eabi/lib/thumb/v7-m/nofp\libc_nano.a(libc_a-wctomb_r.o)
                              D:/Program Files/STM32CubeIDE_1.10.1/STM32CubeIDE/plugins/com.st.stm32cube.ide.mcu.externaltools.gnu-tools-for-stm32.11.3.rel1.win32_1.1.1.202309131626/tools/bin/../lib/gcc/arm-none-eabi/11.3.1/../../../../arm-none-eabi/lib/thumb/v7-m/nofp\libc_nano.a(libc_a-locale.o) (__ascii_wctomb)
D:/Program Files/STM32CubeIDE_1.10.1/STM32CubeIDE/plugins/com.st.stm32cube.ide.mcu.externaltools.gnu-tools-for-stm32.11.3.rel1.win32_1.1.1.202309131626/tools/bin/../lib/gcc/arm-none-eabi/11.3.1/../../../../arm-none-eabi/lib/thumb/v7-m/nofp\libc_nano.a(libc_a-fprintf.o)
                              D:/Program Files/STM32CubeIDE_1.10.1/STM32CubeIDE/plugins/com.st.stm32cube.ide.mcu.externaltools.gnu-tools-for-stm32.11.3.rel1.win32_1.1.1.202309131626/tools/bin/../lib/gcc/arm-none-eabi/11.3.1/../../../../arm-none-eabi/lib/thumb/v7-m/nofp\libc_nano.a(libc_a-assert.o) (fiprintf)
D:/Program Files/STM32CubeIDE_1.10.1/STM32CubeIDE/plugins/com.st.stm32cube.ide.mcu.externaltools.gnu-tools-for-stm32.11.3.rel1.win32_1.1.1.202309131626/tools/bin/../lib/gcc/arm-none-eabi/11.3.1/../../../../arm-none-eabi/lib/thumb/v7-m/nofp\libc_nano.a(libc_a-abort.o)
                              D:/Program Files/STM32CubeIDE_1.10.1/STM32CubeIDE/plugins/com.st.stm32cube.ide.mcu.externaltools.gnu-tools-for-stm32.11.3.rel1.win32_1.1.1.202309131626/tools/bin/../lib/gcc/arm-none-eabi/11.3.1/../../../../arm-none-eabi/lib/thumb/v7-m/nofp\libc_nano.a(libc_a-assert.o) (abort)
D:/Program Files/STM32CubeIDE_1.10.1/STM32CubeIDE/plugins/com.st.stm32cube.ide.mcu.externaltools.gnu-tools-for-stm32.11.3.rel1.win32_1.1.1.202309131626/tools/bin/../lib/gcc/arm-none-eabi/11.3.1/../../../../arm-none-eabi/lib/thumb/v7-m/nofp\libc_nano.a(libc_a-msizer.o)
                              D:/Program Files/STM32CubeIDE_1.10.1/STM32CubeIDE/plugins/com.st.stm32cube.ide.mcu.externaltools.gnu-tools-for-stm32.11.3.rel1.win32_1.1.1.202309131626/tools/bin/../lib/gcc/arm-none-eabi/11.3.1/../../../../arm-none-eabi/lib/thumb/v7-m/nofp\libc_nano.a(libc_a-reallocr.o) (_malloc_usable_size_r)
D:/Program Files/STM32CubeIDE_1.10.1/STM32CubeIDE/plugins/com.st.stm32cube.ide.mcu.externaltools.gnu-tools-for-stm32.11.3.rel1.win32_1.1.1.202309131626/tools/bin/../lib/gcc/arm-none-eabi/11.3.1/../../../../arm-none-eabi/lib/thumb/v7-m/nofp\libc_nano.a(libc_a-signal.o)
                              D:/Program Files/STM32CubeIDE_1.10.1/STM32CubeIDE/plugins/com.st.stm32cube.ide.mcu.externaltools.gnu-tools-for-stm32.11.3.rel1.win32_1.1.1.202309131626/tools/bin/../lib/gcc/arm-none-eabi/11.3.1/../../../../arm-none-eabi/lib/thumb/v7-m/nofp\libc_nano.a(libc_a-abort.o) (raise)
D:/Program Files/STM32CubeIDE_1.10.1/STM32CubeIDE/plugins/com.st.stm32cube.ide.mcu.externaltools.gnu-tools-for-stm32.11.3.rel1.win32_1.1.1.202309131626/tools/bin/../lib/gcc/arm-none-eabi/11.3.1/../../../../arm-none-eabi/lib/thumb/v7-m/nofp\libc_nano.a(libc_a-signalr.o)
                              D:/Program Files/STM32CubeIDE_1.10.1/STM32CubeIDE/plugins/com.st.stm32cube.ide.mcu.externaltools.gnu-tools-for-stm32.11.3.rel1.win32_1.1.1.202309131626/tools/bin/../lib/gcc/arm-none-eabi/11.3.1/../../../../arm-none-eabi/lib/thumb/v7-m/nofp\libc_nano.a(libc_a-signal.o) (_kill_r)
D:/Program Files/STM32CubeIDE_1.10.1/STM32CubeIDE/plugins/com.st.stm32cube.ide.mcu.externaltools.gnu-tools-for-stm32.11.3.rel1.win32_1.1.1.202309131626/tools/bin/../lib/gcc/arm-none-eabi/11.3.1/thumb/v7-m/nofp\libgcc.a(_arm_muldf3.o)
                              ./Src/BSP/motor.o (__aeabi_dmul)
D:/Program Files/STM32CubeIDE_1.10.1/STM32CubeIDE/plugins/com.st.stm32cube.ide.mcu.externaltools.gnu-tools-for-stm32.11.3.rel1.win32_1.1.1.202309131626/tools/bin/../lib/gcc/arm-none-eabi/11.3.1/thumb/v7-m/nofp\libgcc.a(_arm_mulsf3.o)
                              ./Src/BSP/mpu9250.o (__aeabi_fmul)
D:/Program Files/STM32CubeIDE_1.10.1/STM32CubeIDE/plugins/com.st.stm32cube.ide.mcu.externaltools.gnu-tools-for-stm32.11.3.rel1.win32_1.1.1.202309131626/tools/bin/../lib/gcc/arm-none-eabi/11.3.1/thumb/v7-m/nofp\libgcc.a(_arm_addsubdf3.o)
                              ./Src/System/radio.o (__aeabi_dsub)
D:/Program Files/STM32CubeIDE_1.10.1/STM32CubeIDE/plugins/com.st.stm32cube.ide.mcu.externaltools.gnu-tools-for-stm32.11.3.rel1.win32_1.1.1.202309131626/tools/bin/../lib/gcc/arm-none-eabi/11.3.1/thumb/v7-m/nofp\libgcc.a(_arm_muldivdf3.o)
                              ./Src/BSP/motor.o (__aeabi_ddiv)
D:/Program Files/STM32CubeIDE_1.10.1/STM32CubeIDE/plugins/com.st.stm32cube.ide.mcu.externaltools.gnu-tools-for-stm32.11.3.rel1.win32_1.1.1.202309131626/tools/bin/../lib/gcc/arm-none-eabi/11.3.1/thumb/v7-m/nofp\libgcc.a(_arm_cmpdf2.o)
                              D:/Program Files/STM32CubeIDE_1.10.1/STM32CubeIDE/plugins/com.st.stm32cube.ide.mcu.externaltools.gnu-tools-for-stm32.11.3.rel1.win32_1.1.1.202309131626/tools/bin/../lib/gcc/arm-none-eabi/11.3.1/../../../../arm-none-eabi/lib/thumb/v7-m/nofp\libc_nano.a(libc_a-nano-vfprintf_float.o) (__aeabi_dcmpeq)
D:/Program Files/STM32CubeIDE_1.10.1/STM32CubeIDE/plugins/com.st.stm32cube.ide.mcu.externaltools.gnu-tools-for-stm32.11.3.rel1.win32_1.1.1.202309131626/tools/bin/../lib/gcc/arm-none-eabi/11.3.1/thumb/v7-m/nofp\libgcc.a(_arm_unorddf2.o)
                              D:/Program Files/STM32CubeIDE_1.10.1/STM32CubeIDE/plugins/com.st.stm32cube.ide.mcu.externaltools.gnu-tools-for-stm32.11.3.rel1.win32_1.1.1.202309131626/tools/bin/../lib/gcc/arm-none-eabi/11.3.1/../../../../arm-none-eabi/lib/thumb/v7-m/nofp\libc_nano.a(libc_a-nano-vfprintf_float.o) (__aeabi_dcmpun)
D:/Program Files/STM32CubeIDE_1.10.1/STM32CubeIDE/plugins/com.st.stm32cube.ide.mcu.externaltools.gnu-tools-for-stm32.11.3.rel1.win32_1.1.1.202309131626/tools/bin/../lib/gcc/arm-none-eabi/11.3.1/thumb/v7-m/nofp\libgcc.a(_arm_fixdfsi.o)
                              ./Src/BSP/motor.o (__aeabi_d2iz)
D:/Program Files/STM32CubeIDE_1.10.1/STM32CubeIDE/plugins/com.st.stm32cube.ide.mcu.externaltools.gnu-tools-for-stm32.11.3.rel1.win32_1.1.1.202309131626/tools/bin/../lib/gcc/arm-none-eabi/11.3.1/thumb/v7-m/nofp\libgcc.a(_arm_fixunsdfsi.o)
                              ./Src/BSP/watchdog.o (__aeabi_d2uiz)
D:/Program Files/STM32CubeIDE_1.10.1/STM32CubeIDE/plugins/com.st.stm32cube.ide.mcu.externaltools.gnu-tools-for-stm32.11.3.rel1.win32_1.1.1.202309131626/tools/bin/../lib/gcc/arm-none-eabi/11.3.1/thumb/v7-m/nofp\libgcc.a(_arm_truncdfsf2.o)
                              ./Src/BSP/power_control.o (__aeabi_d2f)
D:/Program Files/STM32CubeIDE_1.10.1/STM32CubeIDE/plugins/com.st.stm32cube.ide.mcu.externaltools.gnu-tools-for-stm32.11.3.rel1.win32_1.1.1.202309131626/tools/bin/../lib/gcc/arm-none-eabi/11.3.1/thumb/v7-m/nofp\libgcc.a(_arm_addsubsf3.o)
                              ./Src/EKF/ekf.o (__aeabi_fsub)
D:/Program Files/STM32CubeIDE_1.10.1/STM32CubeIDE/plugins/com.st.stm32cube.ide.mcu.externaltools.gnu-tools-for-stm32.11.3.rel1.win32_1.1.1.202309131626/tools/bin/../lib/gcc/arm-none-eabi/11.3.1/thumb/v7-m/nofp\libgcc.a(_arm_muldivsf3.o)
                              ./Src/BSP/motor.o (__aeabi_fdiv)
D:/Program Files/STM32CubeIDE_1.10.1/STM32CubeIDE/plugins/com.st.stm32cube.ide.mcu.externaltools.gnu-tools-for-stm32.11.3.rel1.win32_1.1.1.202309131626/tools/bin/../lib/gcc/arm-none-eabi/11.3.1/thumb/v7-m/nofp\libgcc.a(_arm_cmpsf2.o)
                              ./Src/EKF/ekf.o (__aeabi_fcmpeq)
D:/Program Files/STM32CubeIDE_1.10.1/STM32CubeIDE/plugins/com.st.stm32cube.ide.mcu.externaltools.gnu-tools-for-stm32.11.3.rel1.win32_1.1.1.202309131626/tools/bin/../lib/gcc/arm-none-eabi/11.3.1/thumb/v7-m/nofp\libgcc.a(_arm_unordsf2.o)
                              ./Src/System/filter.o (__aeabi_fcmpun)
D:/Program Files/STM32CubeIDE_1.10.1/STM32CubeIDE/plugins/com.st.stm32cube.ide.mcu.externaltools.gnu-tools-for-stm32.11.3.rel1.win32_1.1.1.202309131626/tools/bin/../lib/gcc/arm-none-eabi/11.3.1/thumb/v7-m/nofp\libgcc.a(_arm_fixsfsi.o)
                              ./Src/EKF/fast_math.o (__aeabi_f2iz)
D:/Program Files/STM32CubeIDE_1.10.1/STM32CubeIDE/plugins/com.st.stm32cube.ide.mcu.externaltools.gnu-tools-for-stm32.11.3.rel1.win32_1.1.1.202309131626/tools/bin/../lib/gcc/arm-none-eabi/11.3.1/thumb/v7-m/nofp\libgcc.a(_arm_fixunssfsi.o)
                              ./Src/BSP/servo.o (__aeabi_f2uiz)
D:/Program Files/STM32CubeIDE_1.10.1/STM32CubeIDE/plugins/com.st.stm32cube.ide.mcu.externaltools.gnu-tools-for-stm32.11.3.rel1.win32_1.1.1.202309131626/tools/bin/../lib/gcc/arm-none-eabi/11.3.1/thumb/v7-m/nofp\libgcc.a(_fixdfdi.o)
                              D:/Program Files/STM32CubeIDE_1.10.1/STM32CubeIDE/plugins/com.st.stm32cube.ide.mcu.externaltools.gnu-tools-for-stm32.11.3.rel1.win32_1.1.1.202309131626/tools/bin/../lib/gcc/arm-none-eabi/11.3.1/../../../../arm-none-eabi/lib/thumb/v7-m/nofp\libc_nano.a(libc_a-strtod.o) (__aeabi_d2lz)
D:/Program Files/STM32CubeIDE_1.10.1/STM32CubeIDE/plugins/com.st.stm32cube.ide.mcu.externaltools.gnu-tools-for-stm32.11.3.rel1.win32_1.1.1.202309131626/tools/bin/../lib/gcc/arm-none-eabi/11.3.1/thumb/v7-m/nofp\libgcc.a(_fixunsdfdi.o)
                              D:/Program Files/STM32CubeIDE_1.10.1/STM32CubeIDE/plugins/com.st.stm32cube.ide.mcu.externaltools.gnu-tools-for-stm32.11.3.rel1.win32_1.1.1.202309131626/tools/bin/../lib/gcc/arm-none-eabi/11.3.1/thumb/v7-m/nofp\libgcc.a(_fixdfdi.o) (__aeabi_d2ulz)
D:/Program Files/STM32CubeIDE_1.10.1/STM32CubeIDE/plugins/com.st.stm32cube.ide.mcu.externaltools.gnu-tools-for-stm32.11.3.rel1.win32_1.1.1.202309131626/tools/bin/../lib/gcc/arm-none-eabi/11.3.1/../../../../arm-none-eabi/lib/thumb/v7-m/nofp\libnosys.a(sbrk.o)
                              D:/Program Files/STM32CubeIDE_1.10.1/STM32CubeIDE/plugins/com.st.stm32cube.ide.mcu.externaltools.gnu-tools-for-stm32.11.3.rel1.win32_1.1.1.202309131626/tools/bin/../lib/gcc/arm-none-eabi/11.3.1/../../../../arm-none-eabi/lib/thumb/v7-m/nofp\libc_nano.a(libc_a-sbrkr.o) (_sbrk)
D:/Program Files/STM32CubeIDE_1.10.1/STM32CubeIDE/plugins/com.st.stm32cube.ide.mcu.externaltools.gnu-tools-for-stm32.11.3.rel1.win32_1.1.1.202309131626/tools/bin/../lib/gcc/arm-none-eabi/11.3.1/../../../../arm-none-eabi/lib/thumb/v7-m/nofp\libnosys.a(_exit.o)
                              D:/Program Files/STM32CubeIDE_1.10.1/STM32CubeIDE/plugins/com.st.stm32cube.ide.mcu.externaltools.gnu-tools-for-stm32.11.3.rel1.win32_1.1.1.202309131626/tools/bin/../lib/gcc/arm-none-eabi/11.3.1/../../../../arm-none-eabi/lib/thumb/v7-m/nofp\libc_nano.a(libc_a-exit.o) (_exit)

Discarded input sections

 .text          0x0000000000000000        0x0 D:/Program Files/STM32CubeIDE_1.10.1/STM32CubeIDE/plugins/com.st.stm32cube.ide.mcu.externaltools.gnu-tools-for-stm32.11.3.rel1.win32_1.1.1.202309131626/tools/bin/../lib/gcc/arm-none-eabi/11.3.1/thumb/v7-m/nofp/crti.o
 .data          0x0000000000000000        0x0 D:/Program Files/STM32CubeIDE_1.10.1/STM32CubeIDE/plugins/com.st.stm32cube.ide.mcu.externaltools.gnu-tools-for-stm32.11.3.rel1.win32_1.1.1.202309131626/tools/bin/../lib/gcc/arm-none-eabi/11.3.1/thumb/v7-m/nofp/crti.o
 .bss           0x0000000000000000        0x0 D:/Program Files/STM32CubeIDE_1.10.1/STM32CubeIDE/plugins/com.st.stm32cube.ide.mcu.externaltools.gnu-tools-for-stm32.11.3.rel1.win32_1.1.1.202309131626/tools/bin/../lib/gcc/arm-none-eabi/11.3.1/thumb/v7-m/nofp/crti.o
 .data          0x0000000000000000        0x4 D:/Program Files/STM32CubeIDE_1.10.1/STM32CubeIDE/plugins/com.st.stm32cube.ide.mcu.externaltools.gnu-tools-for-stm32.11.3.rel1.win32_1.1.1.202309131626/tools/bin/../lib/gcc/arm-none-eabi/11.3.1/thumb/v7-m/nofp/crtbegin.o
 .rodata        0x0000000000000000       0x24 D:/Program Files/STM32CubeIDE_1.10.1/STM32CubeIDE/plugins/com.st.stm32cube.ide.mcu.externaltools.gnu-tools-for-stm32.11.3.rel1.win32_1.1.1.202309131626/tools/bin/../lib/gcc/arm-none-eabi/11.3.1/thumb/v7-m/nofp/crtbegin.o
 .text          0x0000000000000000       0x7c D:/Program Files/STM32CubeIDE_1.10.1/STM32CubeIDE/plugins/com.st.stm32cube.ide.mcu.externaltools.gnu-tools-for-stm32.11.3.rel1.win32_1.1.1.202309131626/tools/bin/../lib/gcc/arm-none-eabi/11.3.1/../../../../arm-none-eabi/lib/thumb/v7-m/nofp/crt0.o
 .data          0x0000000000000000        0x0 D:/Program Files/STM32CubeIDE_1.10.1/STM32CubeIDE/plugins/com.st.stm32cube.ide.mcu.externaltools.gnu-tools-for-stm32.11.3.rel1.win32_1.1.1.202309131626/tools/bin/../lib/gcc/arm-none-eabi/11.3.1/../../../../arm-none-eabi/lib/thumb/v7-m/nofp/crt0.o
 .bss           0x0000000000000000        0x0 D:/Program Files/STM32CubeIDE_1.10.1/STM32CubeIDE/plugins/com.st.stm32cube.ide.mcu.externaltools.gnu-tools-for-stm32.11.3.rel1.win32_1.1.1.202309131626/tools/bin/../lib/gcc/arm-none-eabi/11.3.1/../../../../arm-none-eabi/lib/thumb/v7-m/nofp/crt0.o
 .ARM.extab     0x0000000000000000        0x0 D:/Program Files/STM32CubeIDE_1.10.1/STM32CubeIDE/plugins/com.st.stm32cube.ide.mcu.externaltools.gnu-tools-for-stm32.11.3.rel1.win32_1.1.1.202309131626/tools/bin/../lib/gcc/arm-none-eabi/11.3.1/../../../../arm-none-eabi/lib/thumb/v7-m/nofp/crt0.o
 .ARM.exidx     0x0000000000000000       0x10 D:/Program Files/STM32CubeIDE_1.10.1/STM32CubeIDE/plugins/com.st.stm32cube.ide.mcu.externaltools.gnu-tools-for-stm32.11.3.rel1.win32_1.1.1.202309131626/tools/bin/../lib/gcc/arm-none-eabi/11.3.1/../../../../arm-none-eabi/lib/thumb/v7-m/nofp/crt0.o
 .debug_line    0x0000000000000000       0x76 D:/Program Files/STM32CubeIDE_1.10.1/STM32CubeIDE/plugins/com.st.stm32cube.ide.mcu.externaltools.gnu-tools-for-stm32.11.3.rel1.win32_1.1.1.202309131626/tools/bin/../lib/gcc/arm-none-eabi/11.3.1/../../../../arm-none-eabi/lib/thumb/v7-m/nofp/crt0.o
 .debug_line_str
                0x0000000000000000       0xd9 D:/Program Files/STM32CubeIDE_1.10.1/STM32CubeIDE/plugins/com.st.stm32cube.ide.mcu.externaltools.gnu-tools-for-stm32.11.3.rel1.win32_1.1.1.202309131626/tools/bin/../lib/gcc/arm-none-eabi/11.3.1/../../../../arm-none-eabi/lib/thumb/v7-m/nofp/crt0.o
 .debug_info    0x0000000000000000       0x24 D:/Program Files/STM32CubeIDE_1.10.1/STM32CubeIDE/plugins/com.st.stm32cube.ide.mcu.externaltools.gnu-tools-for-stm32.11.3.rel1.win32_1.1.1.202309131626/tools/bin/../lib/gcc/arm-none-eabi/11.3.1/../../../../arm-none-eabi/lib/thumb/v7-m/nofp/crt0.o
 .debug_abbrev  0x0000000000000000       0x14 D:/Program Files/STM32CubeIDE_1.10.1/STM32CubeIDE/plugins/com.st.stm32cube.ide.mcu.externaltools.gnu-tools-for-stm32.11.3.rel1.win32_1.1.1.202309131626/tools/bin/../lib/gcc/arm-none-eabi/11.3.1/../../../../arm-none-eabi/lib/thumb/v7-m/nofp/crt0.o
 .debug_aranges
                0x0000000000000000       0x20 D:/Program Files/STM32CubeIDE_1.10.1/STM32CubeIDE/plugins/com.st.stm32cube.ide.mcu.externaltools.gnu-tools-for-stm32.11.3.rel1.win32_1.1.1.202309131626/tools/bin/../lib/gcc/arm-none-eabi/11.3.1/../../../../arm-none-eabi/lib/thumb/v7-m/nofp/crt0.o
 .debug_str     0x0000000000000000       0xde D:/Program Files/STM32CubeIDE_1.10.1/STM32CubeIDE/plugins/com.st.stm32cube.ide.mcu.externaltools.gnu-tools-for-stm32.11.3.rel1.win32_1.1.1.202309131626/tools/bin/../lib/gcc/arm-none-eabi/11.3.1/../../../../arm-none-eabi/lib/thumb/v7-m/nofp/crt0.o
Memory Configuration

Name             Origin             Length             Attributes
RAM              0x0000000020000000 0x000000000000c000 xrw
FLASH            0x0000000008000000 0x0000000000040000 xr
*default*        0x0000000000000000 0xffffffffffffffff

Linker script and memory map

LOAD D:/Program Files/STM32CubeIDE_1.10.1/STM32CubeIDE/plugins/com.st.stm32cube.ide.mcu.externaltools.gnu-tools-for-stm32.11.3.rel1.win32_1.1.1.202309131626/tools/bin/../lib/gcc/arm-none-eabi/11.3.1/thumb/v7-m/nofp/crti.o
LOAD D:/Program Files/STM32CubeIDE_1.10.1/STM32CubeIDE/plugins/com.st.stm32cube.ide.mcu.externaltools.gnu-tools-for-stm32.11.3.rel1.win32_1.1.1.202309131626/tools/bin/../lib/gcc/arm-none-eabi/11.3.1/thumb/v7-m/nofp/crtbegin.o
LOAD D:/Program Files/STM32CubeIDE_1.10.1/STM32CubeIDE/plugins/com.st.stm32cube.ide.mcu.externaltools.gnu-tools-for-stm32.11.3.rel1.win32_1.1.1.202309131626/tools/bin/../lib/gcc/arm-none-eabi/11.3.1/../../../../arm-none-eabi/lib/thumb/v7-m/nofp/crt0.o
LOAD ./Src/BSP/CMSIS/CM3/CoreSupport/core_cm3.o
LOAD ./Src/BSP/CMSIS/CM3/DeviceSupport/ST/STM32F10x/startup/startup_stm32f10x_hd.o
LOAD ./Src/BSP/CMSIS/CM3/DeviceSupport/ST/STM32F10x/system_stm32f10x.o
LOAD ./Src/BSP/adc.o
LOAD ./Src/BSP/ak8963.o
LOAD ./Src/BSP/buzzer.o
LOAD ./Src/BSP/can.o
LOAD ./Src/BSP/delay.o
LOAD ./Src/BSP/flash.o
LOAD ./Src/BSP/i2c_device.o
LOAD ./Src/BSP/i2c_driver.o
LOAD ./Src/BSP/i2c_oled.o
LOAD ./Src/BSP/key.o
LOAD ./Src/BSP/led.o
LOAD ./Src/BSP/motor.o
LOAD ./Src/BSP/mpu9250.o
LOAD ./Src/BSP/nrf24l01.o
LOAD ./Src/BSP/power_control.o
LOAD ./Src/BSP/servo.o
LOAD ./Src/BSP/spi_flash.o
LOAD ./Src/BSP/uart4.o
LOAD ./Src/BSP/uart5.o
LOAD ./Src/BSP/usart1.o
LOAD ./Src/BSP/watchdog.o
LOAD ./Src/EKF/double_matrix.o
LOAD ./Src/EKF/ekf.o
LOAD ./Src/EKF/ekf2.o
LOAD ./Src/EKF/fast_math.o
LOAD ./Src/EKF/matrix.o
LOAD ./Src/EKF/mini_matrix.o
LOAD ./Src/EKF/quaternion.o
LOAD ./Src/FatFs/diskio.o
LOAD ./Src/FatFs/ff.o
LOAD ./Src/FatFs/option/cc936.o
LOAD ./Src/FatFs/option/syscall.o
LOAD ./Src/FreeRTOS/croutine.o
LOAD ./Src/FreeRTOS/event_groups.o
LOAD ./Src/FreeRTOS/list.o
LOAD ./Src/FreeRTOS/queue.o
LOAD ./Src/FreeRTOS/tasks.o
LOAD ./Src/FreeRTOS/timers.o
LOAD ./Src/FreeRTOS/portable/GCC/ARM_CM3/port.o
LOAD ./Src/FreeRTOS/portable/MemMang/heap_4.o
LOAD ./Src/STM32F10x_StdPeriph_Driver/src/misc.o
LOAD ./Src/STM32F10x_StdPeriph_Driver/src/stm32f10x_adc.o
LOAD ./Src/STM32F10x_StdPeriph_Driver/src/stm32f10x_bkp.o
LOAD ./Src/STM32F10x_StdPeriph_Driver/src/stm32f10x_can.o
LOAD ./Src/STM32F10x_StdPeriph_Driver/src/stm32f10x_cec.o
LOAD ./Src/STM32F10x_StdPeriph_Driver/src/stm32f10x_crc.o
LOAD ./Src/STM32F10x_StdPeriph_Driver/src/stm32f10x_dac.o
LOAD ./Src/STM32F10x_StdPeriph_Driver/src/stm32f10x_dbgmcu.o
LOAD ./Src/STM32F10x_StdPeriph_Driver/src/stm32f10x_dma.o
LOAD ./Src/STM32F10x_StdPeriph_Driver/src/stm32f10x_exti.o
LOAD ./Src/STM32F10x_StdPeriph_Driver/src/stm32f10x_flash.o
LOAD ./Src/STM32F10x_StdPeriph_Driver/src/stm32f10x_fsmc.o
LOAD ./Src/STM32F10x_StdPeriph_Driver/src/stm32f10x_gpio.o
LOAD ./Src/STM32F10x_StdPeriph_Driver/src/stm32f10x_i2c.o
LOAD ./Src/STM32F10x_StdPeriph_Driver/src/stm32f10x_iwdg.o
LOAD ./Src/STM32F10x_StdPeriph_Driver/src/stm32f10x_pwr.o
LOAD ./Src/STM32F10x_StdPeriph_Driver/src/stm32f10x_rcc.o
LOAD ./Src/STM32F10x_StdPeriph_Driver/src/stm32f10x_rtc.o
LOAD ./Src/STM32F10x_StdPeriph_Driver/src/stm32f10x_sdio.o
LOAD ./Src/STM32F10x_StdPeriph_Driver/src/stm32f10x_spi.o
LOAD ./Src/STM32F10x_StdPeriph_Driver/src/stm32f10x_tim.o
LOAD ./Src/STM32F10x_StdPeriph_Driver/src/stm32f10x_usart.o
LOAD ./Src/STM32F10x_StdPeriph_Driver/src/stm32f10x_wwdg.o
LOAD ./Src/System/filter.o
LOAD ./Src/System/obstacle.o
LOAD ./Src/System/radio.o
LOAD ./Src/System/sensors.o
LOAD ./Src/System/utils.o
LOAD ./Src/User/main.o
LOAD ./Src/User/stm32f10x_it.o
START GROUP
LOAD D:/Program Files/STM32CubeIDE_1.10.1/STM32CubeIDE/plugins/com.st.stm32cube.ide.mcu.externaltools.gnu-tools-for-stm32.11.3.rel1.win32_1.1.1.202309131626/tools/bin/../lib/gcc/arm-none-eabi/11.3.1/../../../../arm-none-eabi/lib/thumb/v7-m/nofp\libstdc++_nano.a
LOAD D:/Program Files/STM32CubeIDE_1.10.1/STM32CubeIDE/plugins/com.st.stm32cube.ide.mcu.externaltools.gnu-tools-for-stm32.11.3.rel1.win32_1.1.1.202309131626/tools/bin/../lib/gcc/arm-none-eabi/11.3.1/../../../../arm-none-eabi/lib/thumb/v7-m/nofp\libsupc++_nano.a
END GROUP
LOAD D:/Program Files/STM32CubeIDE_1.10.1/STM32CubeIDE/plugins/com.st.stm32cube.ide.mcu.externaltools.gnu-tools-for-stm32.11.3.rel1.win32_1.1.1.202309131626/tools/bin/../lib/gcc/arm-none-eabi/11.3.1/../../../../arm-none-eabi/lib/thumb/v7-m/nofp\libstdc++_nano.a
LOAD D:/Program Files/STM32CubeIDE_1.10.1/STM32CubeIDE/plugins/com.st.stm32cube.ide.mcu.externaltools.gnu-tools-for-stm32.11.3.rel1.win32_1.1.1.202309131626/tools/bin/../lib/gcc/arm-none-eabi/11.3.1/../../../../arm-none-eabi/lib/thumb/v7-m/nofp\libm.a
LOAD D:/Program Files/STM32CubeIDE_1.10.1/STM32CubeIDE/plugins/com.st.stm32cube.ide.mcu.externaltools.gnu-tools-for-stm32.11.3.rel1.win32_1.1.1.202309131626/tools/bin/../lib/gcc/arm-none-eabi/11.3.1/../../../../arm-none-eabi/lib/thumb/v7-m/nofp\libc_nano.a
START GROUP
LOAD D:/Program Files/STM32CubeIDE_1.10.1/STM32CubeIDE/plugins/com.st.stm32cube.ide.mcu.externaltools.gnu-tools-for-stm32.11.3.rel1.win32_1.1.1.202309131626/tools/bin/../lib/gcc/arm-none-eabi/11.3.1/thumb/v7-m/nofp\libgcc.a
LOAD D:/Program Files/STM32CubeIDE_1.10.1/STM32CubeIDE/plugins/com.st.stm32cube.ide.mcu.externaltools.gnu-tools-for-stm32.11.3.rel1.win32_1.1.1.202309131626/tools/bin/../lib/gcc/arm-none-eabi/11.3.1/../../../../arm-none-eabi/lib/thumb/v7-m/nofp\libc_nano.a
END GROUP
START GROUP
LOAD D:/Program Files/STM32CubeIDE_1.10.1/STM32CubeIDE/plugins/com.st.stm32cube.ide.mcu.externaltools.gnu-tools-for-stm32.11.3.rel1.win32_1.1.1.202309131626/tools/bin/../lib/gcc/arm-none-eabi/11.3.1/thumb/v7-m/nofp\libgcc.a
LOAD D:/Program Files/STM32CubeIDE_1.10.1/STM32CubeIDE/plugins/com.st.stm32cube.ide.mcu.externaltools.gnu-tools-for-stm32.11.3.rel1.win32_1.1.1.202309131626/tools/bin/../lib/gcc/arm-none-eabi/11.3.1/../../../../arm-none-eabi/lib/thumb/v7-m/nofp\libc_nano.a
LOAD D:/Program Files/STM32CubeIDE_1.10.1/STM32CubeIDE/plugins/com.st.stm32cube.ide.mcu.externaltools.gnu-tools-for-stm32.11.3.rel1.win32_1.1.1.202309131626/tools/bin/../lib/gcc/arm-none-eabi/11.3.1/../../../../arm-none-eabi/lib/thumb/v7-m/nofp\libnosys.a
END GROUP
START GROUP
LOAD D:/Program Files/STM32CubeIDE_1.10.1/STM32CubeIDE/plugins/com.st.stm32cube.ide.mcu.externaltools.gnu-tools-for-stm32.11.3.rel1.win32_1.1.1.202309131626/tools/bin/../lib/gcc/arm-none-eabi/11.3.1/thumb/v7-m/nofp\libgcc.a
LOAD D:/Program Files/STM32CubeIDE_1.10.1/STM32CubeIDE/plugins/com.st.stm32cube.ide.mcu.externaltools.gnu-tools-for-stm32.11.3.rel1.win32_1.1.1.202309131626/tools/bin/../lib/gcc/arm-none-eabi/11.3.1/../../../../arm-none-eabi/lib/thumb/v7-m/nofp\libc_nano.a
LOAD D:/Program Files/STM32CubeIDE_1.10.1/STM32CubeIDE/plugins/com.st.stm32cube.ide.mcu.externaltools.gnu-tools-for-stm32.11.3.rel1.win32_1.1.1.202309131626/tools/bin/../lib/gcc/arm-none-eabi/11.3.1/../../../../arm-none-eabi/lib/thumb/v7-m/nofp\libnosys.a
END GROUP
LOAD D:/Program Files/STM32CubeIDE_1.10.1/STM32CubeIDE/plugins/com.st.stm32cube.ide.mcu.externaltools.gnu-tools-for-stm32.11.3.rel1.win32_1.1.1.202309131626/tools/bin/../lib/gcc/arm-none-eabi/11.3.1/thumb/v7-m/nofp/crtend.o
LOAD D:/Program Files/STM32CubeIDE_1.10.1/STM32CubeIDE/plugins/com.st.stm32cube.ide.mcu.externaltools.gnu-tools-for-stm32.11.3.rel1.win32_1.1.1.202309131626/tools/bin/../lib/gcc/arm-none-eabi/11.3.1/thumb/v7-m/nofp/crtn.o
                0x000000002000c000                _estack = (ORIGIN (RAM) + LENGTH (RAM))
                0x0000000000000200                _Min_Heap_Size = 0x200
                0x0000000000000400                _Min_Stack_Size = 0x400

.isr_vector     0x0000000008000000      0x1e4
                0x0000000008000000                . = ALIGN (0x4)
 *(.isr_vector)
 .isr_vector    0x0000000008000000      0x1e4 ./Src/BSP/CMSIS/CM3/DeviceSupport/ST/STM32F10x/startup/startup_stm32f10x_hd.o
                0x0000000008000000                g_pfnVectors
                0x00000000080001e4                . = ALIGN (0x4)

.text           0x00000000080001f0    0x10f98
                0x00000000080001f0                . = ALIGN (0x4)
 *(.text)
 .text          0x00000000080001f0       0x40 D:/Program Files/STM32CubeIDE_1.10.1/STM32CubeIDE/plugins/com.st.stm32cube.ide.mcu.externaltools.gnu-tools-for-stm32.11.3.rel1.win32_1.1.1.202309131626/tools/bin/../lib/gcc/arm-none-eabi/11.3.1/thumb/v7-m/nofp/crtbegin.o
 .text          0x0000000008000230       0x10 D:/Program Files/STM32CubeIDE_1.10.1/STM32CubeIDE/plugins/com.st.stm32cube.ide.mcu.externaltools.gnu-tools-for-stm32.11.3.rel1.win32_1.1.1.202309131626/tools/bin/../lib/gcc/arm-none-eabi/11.3.1/../../../../arm-none-eabi/lib/thumb/v7-m/nofp\libc_nano.a(libc_a-strlen.o)
                0x0000000008000230                strlen
 .text          0x0000000008000240      0x378 D:/Program Files/STM32CubeIDE_1.10.1/STM32CubeIDE/plugins/com.st.stm32cube.ide.mcu.externaltools.gnu-tools-for-stm32.11.3.rel1.win32_1.1.1.202309131626/tools/bin/../lib/gcc/arm-none-eabi/11.3.1/thumb/v7-m/nofp\libgcc.a(_arm_addsubdf3.o)
                0x0000000008000240                __aeabi_drsub
                0x0000000008000248                __aeabi_dsub
                0x0000000008000248                __subdf3
                0x000000000800024c                __aeabi_dadd
                0x000000000800024c                __adddf3
                0x00000000080004c4                __floatunsidf
                0x00000000080004c4                __aeabi_ui2d
                0x00000000080004e4                __floatsidf
                0x00000000080004e4                __aeabi_i2d
                0x0000000008000508                __aeabi_f2d
                0x0000000008000508                __extendsfdf2
                0x000000000800054c                __floatundidf
                0x000000000800054c                __aeabi_ul2d
                0x000000000800055c                __floatdidf
                0x000000000800055c                __aeabi_l2d
 .text          0x00000000080005b8      0x424 D:/Program Files/STM32CubeIDE_1.10.1/STM32CubeIDE/plugins/com.st.stm32cube.ide.mcu.externaltools.gnu-tools-for-stm32.11.3.rel1.win32_1.1.1.202309131626/tools/bin/../lib/gcc/arm-none-eabi/11.3.1/thumb/v7-m/nofp\libgcc.a(_arm_muldivdf3.o)
                0x00000000080005b8                __aeabi_dmul
                0x00000000080005b8                __muldf3
                0x000000000800080c                __divdf3
                0x000000000800080c                __aeabi_ddiv
 .text          0x00000000080009dc      0x110 D:/Program Files/STM32CubeIDE_1.10.1/STM32CubeIDE/plugins/com.st.stm32cube.ide.mcu.externaltools.gnu-tools-for-stm32.11.3.rel1.win32_1.1.1.202309131626/tools/bin/../lib/gcc/arm-none-eabi/11.3.1/thumb/v7-m/nofp\libgcc.a(_arm_cmpdf2.o)
                0x00000000080009dc                __gtdf2
                0x00000000080009dc                __gedf2
                0x00000000080009e4                __ltdf2
                0x00000000080009e4                __ledf2
                0x00000000080009ec                __nedf2
                0x00000000080009ec                __eqdf2
                0x00000000080009ec                __cmpdf2
                0x0000000008000a68                __aeabi_cdrcmple
                0x0000000008000a78                __aeabi_cdcmpeq
                0x0000000008000a78                __aeabi_cdcmple
                0x0000000008000a88                __aeabi_dcmpeq
                0x0000000008000a9c                __aeabi_dcmplt
                0x0000000008000ab0                __aeabi_dcmple
                0x0000000008000ac4                __aeabi_dcmpge
                0x0000000008000ad8                __aeabi_dcmpgt
 .text          0x0000000008000aec       0x2c D:/Program Files/STM32CubeIDE_1.10.1/STM32CubeIDE/plugins/com.st.stm32cube.ide.mcu.externaltools.gnu-tools-for-stm32.11.3.rel1.win32_1.1.1.202309131626/tools/bin/../lib/gcc/arm-none-eabi/11.3.1/thumb/v7-m/nofp\libgcc.a(_arm_unorddf2.o)
                0x0000000008000aec                __unorddf2
                0x0000000008000aec                __aeabi_dcmpun
 .text          0x0000000008000b18       0x50 D:/Program Files/STM32CubeIDE_1.10.1/STM32CubeIDE/plugins/com.st.stm32cube.ide.mcu.externaltools.gnu-tools-for-stm32.11.3.rel1.win32_1.1.1.202309131626/tools/bin/../lib/gcc/arm-none-eabi/11.3.1/thumb/v7-m/nofp\libgcc.a(_arm_fixdfsi.o)
                0x0000000008000b18                __aeabi_d2iz
                0x0000000008000b18                __fixdfsi
 .text          0x0000000008000b68       0x40 D:/Program Files/STM32CubeIDE_1.10.1/STM32CubeIDE/plugins/com.st.stm32cube.ide.mcu.externaltools.gnu-tools-for-stm32.11.3.rel1.win32_1.1.1.202309131626/tools/bin/../lib/gcc/arm-none-eabi/11.3.1/thumb/v7-m/nofp\libgcc.a(_arm_fixunsdfsi.o)
                0x0000000008000b68                __aeabi_d2uiz
                0x0000000008000b68                __fixunsdfsi
 .text          0x0000000008000ba8       0xa0 D:/Program Files/STM32CubeIDE_1.10.1/STM32CubeIDE/plugins/com.st.stm32cube.ide.mcu.externaltools.gnu-tools-for-stm32.11.3.rel1.win32_1.1.1.202309131626/tools/bin/../lib/gcc/arm-none-eabi/11.3.1/thumb/v7-m/nofp\libgcc.a(_arm_truncdfsf2.o)
                0x0000000008000ba8                __truncdfsf2
                0x0000000008000ba8                __aeabi_d2f
 .text          0x0000000008000c48      0x21c D:/Program Files/STM32CubeIDE_1.10.1/STM32CubeIDE/plugins/com.st.stm32cube.ide.mcu.externaltools.gnu-tools-for-stm32.11.3.rel1.win32_1.1.1.202309131626/tools/bin/../lib/gcc/arm-none-eabi/11.3.1/thumb/v7-m/nofp\libgcc.a(_arm_addsubsf3.o)
                0x0000000008000c48                __aeabi_frsub
                0x0000000008000c50                __subsf3
                0x0000000008000c50                __aeabi_fsub
                0x0000000008000c54                __aeabi_fadd
                0x0000000008000c54                __addsf3
                0x0000000008000db4                __aeabi_ui2f
                0x0000000008000db4                __floatunsisf
                0x0000000008000dbc                __aeabi_i2f
                0x0000000008000dbc                __floatsisf
                0x0000000008000dd8                __aeabi_ul2f
                0x0000000008000dd8                __floatundisf
                0x0000000008000de8                __aeabi_l2f
                0x0000000008000de8                __floatdisf
 .text          0x0000000008000e64      0x2a0 D:/Program Files/STM32CubeIDE_1.10.1/STM32CubeIDE/plugins/com.st.stm32cube.ide.mcu.externaltools.gnu-tools-for-stm32.11.3.rel1.win32_1.1.1.202309131626/tools/bin/../lib/gcc/arm-none-eabi/11.3.1/thumb/v7-m/nofp\libgcc.a(_arm_muldivsf3.o)
                0x0000000008000e64                __mulsf3
                0x0000000008000e64                __aeabi_fmul
                0x0000000008000fcc                __aeabi_fdiv
                0x0000000008000fcc                __divsf3
 .text          0x0000000008001104       0xec D:/Program Files/STM32CubeIDE_1.10.1/STM32CubeIDE/plugins/com.st.stm32cube.ide.mcu.externaltools.gnu-tools-for-stm32.11.3.rel1.win32_1.1.1.202309131626/tools/bin/../lib/gcc/arm-none-eabi/11.3.1/thumb/v7-m/nofp\libgcc.a(_arm_cmpsf2.o)
                0x0000000008001104                __gesf2
                0x0000000008001104                __gtsf2
                0x000000000800110c                __lesf2
                0x000000000800110c                __ltsf2
                0x0000000008001114                __nesf2
                0x0000000008001114                __eqsf2
                0x0000000008001114                __cmpsf2
                0x0000000008001174                __aeabi_cfrcmple
                0x000000000800117c                __aeabi_cfcmpeq
                0x000000000800117c                __aeabi_cfcmple
                0x000000000800118c                __aeabi_fcmpeq
                0x00000000080011a0                __aeabi_fcmplt
                0x00000000080011b4                __aeabi_fcmple
                0x00000000080011c8                __aeabi_fcmpge
                0x00000000080011dc                __aeabi_fcmpgt
 .text          0x00000000080011f0       0x4c D:/Program Files/STM32CubeIDE_1.10.1/STM32CubeIDE/plugins/com.st.stm32cube.ide.mcu.externaltools.gnu-tools-for-stm32.11.3.rel1.win32_1.1.1.202309131626/tools/bin/../lib/gcc/arm-none-eabi/11.3.1/thumb/v7-m/nofp\libgcc.a(_arm_fixsfsi.o)
                0x00000000080011f0                __aeabi_f2iz
                0x00000000080011f0                __fixsfsi
 .text          0x000000000800123c       0x40 D:/Program Files/STM32CubeIDE_1.10.1/STM32CubeIDE/plugins/com.st.stm32cube.ide.mcu.externaltools.gnu-tools-for-stm32.11.3.rel1.win32_1.1.1.202309131626/tools/bin/../lib/gcc/arm-none-eabi/11.3.1/thumb/v7-m/nofp\libgcc.a(_arm_fixunssfsi.o)
                0x000000000800123c                __fixunssfsi
                0x000000000800123c                __aeabi_f2uiz
 .text          0x000000000800127c       0x34 D:/Program Files/STM32CubeIDE_1.10.1/STM32CubeIDE/plugins/com.st.stm32cube.ide.mcu.externaltools.gnu-tools-for-stm32.11.3.rel1.win32_1.1.1.202309131626/tools/bin/../lib/gcc/arm-none-eabi/11.3.1/thumb/v7-m/nofp\libgcc.a(_fixdfdi.o)
                0x000000000800127c                __fixdfdi
                0x000000000800127c                __aeabi_d2lz
 .text          0x00000000080012b0       0x3c D:/Program Files/STM32CubeIDE_1.10.1/STM32CubeIDE/plugins/com.st.stm32cube.ide.mcu.externaltools.gnu-tools-for-stm32.11.3.rel1.win32_1.1.1.202309131626/tools/bin/../lib/gcc/arm-none-eabi/11.3.1/thumb/v7-m/nofp\libgcc.a(_fixunsdfdi.o)
                0x00000000080012b0                __fixunsdfdi
                0x00000000080012b0                __aeabi_d2ulz
 *(.text*)
 .text.__set_FAULTMASK
                0x00000000080012ec        0x6 ./Src/BSP/CMSIS/CM3/CoreSupport/core_cm3.o
                0x00000000080012ec                __set_FAULTMASK
 *fill*         0x00000000080012f2        0x2 
 .text.Reset_Handler
                0x00000000080012f4       0x44 ./Src/BSP/CMSIS/CM3/DeviceSupport/ST/STM32F10x/startup/startup_stm32f10x_hd.o
                0x00000000080012f4                Reset_Handler
 .text.Default_Handler
                0x0000000008001338        0x2 ./Src/BSP/CMSIS/CM3/DeviceSupport/ST/STM32F10x/startup/startup_stm32f10x_hd.o
                0x0000000008001338                TIM8_TRG_COM_IRQHandler
                0x0000000008001338                TIM8_CC_IRQHandler
                0x0000000008001338                TIM1_CC_IRQHandler
                0x0000000008001338                HardFault_Handler
                0x0000000008001338                PVD_IRQHandler
                0x0000000008001338                SDIO_IRQHandler
                0x0000000008001338                EXTI3_IRQHandler
                0x0000000008001338                EXTI0_IRQHandler
                0x0000000008001338                ADC1_2_IRQHandler
                0x0000000008001338                SPI1_IRQHandler
                0x0000000008001338                TAMPER_IRQHandler
                0x0000000008001338                TIM8_UP_IRQHandler
                0x0000000008001338                DMA2_Channel2_IRQHandler
                0x0000000008001338                DMA1_Channel4_IRQHandler
                0x0000000008001338                USART3_IRQHandler
                0x0000000008001338                RTC_IRQHandler
                0x0000000008001338                DMA1_Channel7_IRQHandler
                0x0000000008001338                CAN1_RX1_IRQHandler
                0x0000000008001338                ADC3_IRQHandler
                0x0000000008001338                DMA2_Channel1_IRQHandler
                0x0000000008001338                I2C1_EV_IRQHandler
                0x0000000008001338                DMA1_Channel6_IRQHandler
                0x0000000008001338                TIM3_IRQHandler
                0x0000000008001338                RCC_IRQHandler
                0x0000000008001338                TIM1_TRG_COM_IRQHandler
                0x0000000008001338                DMA1_Channel1_IRQHandler
                0x0000000008001338                Default_Handler
                0x0000000008001338                TIM7_IRQHandler
                0x0000000008001338                EXTI9_5_IRQHandler
                0x0000000008001338                SPI2_IRQHandler
                0x0000000008001338                EXTI4_IRQHandler
                0x0000000008001338                USB_LP_CAN1_RX0_IRQHandler
                0x0000000008001338                USB_HP_CAN1_TX_IRQHandler
                0x0000000008001338                DMA1_Channel3_IRQHandler
                0x0000000008001338                FSMC_IRQHandler
                0x0000000008001338                TIM1_UP_IRQHandler
                0x0000000008001338                WWDG_IRQHandler
                0x0000000008001338                TIM2_IRQHandler
                0x0000000008001338                TIM1_BRK_IRQHandler
                0x0000000008001338                EXTI1_IRQHandler
                0x0000000008001338                RTCAlarm_IRQHandler
                0x0000000008001338                DMA2_Channel4_5_IRQHandler
                0x0000000008001338                USART2_IRQHandler
                0x0000000008001338                DMA1_Channel2_IRQHandler
                0x0000000008001338                TIM8_BRK_IRQHandler
                0x0000000008001338                CAN1_SCE_IRQHandler
                0x0000000008001338                FLASH_IRQHandler
                0x0000000008001338                SPI3_IRQHandler
                0x0000000008001338                I2C1_ER_IRQHandler
                0x0000000008001338                USBWakeUp_IRQHandler
                0x0000000008001338                DMA2_Channel3_IRQHandler
 *fill*         0x000000000800133a        0x2 
 .text.SystemInit
                0x000000000800133c       0xf0 ./Src/BSP/CMSIS/CM3/DeviceSupport/ST/STM32F10x/system_stm32f10x.o
                0x000000000800133c                SystemInit
 .text.ADCx_Init
                0x000000000800142c      0x108 ./Src/BSP/adc.o
                0x000000000800142c                ADCx_Init
 .text.ak8963Init
                0x0000000008001534       0x14 ./Src/BSP/ak8963.o
                0x0000000008001534                ak8963Init
 .text.ak8963TestConnection
                0x0000000008001548       0x30 ./Src/BSP/ak8963.o
                0x0000000008001548                ak8963TestConnection
 .text.ak8963SetMode
                0x0000000008001578       0x18 ./Src/BSP/ak8963.o
                0x0000000008001578                ak8963SetMode
 .text.TIM6_Init
                0x0000000008001590       0x60 ./Src/BSP/buzzer.o
                0x0000000008001590                TIM6_Init
 .text.TIM6_IRQHandler
                0x00000000080015f0       0x28 ./Src/BSP/buzzer.o
                0x00000000080015f0                TIM6_IRQHandler
 .text.Buzzer_Init
                0x0000000008001618       0x34 ./Src/BSP/buzzer.o
                0x0000000008001618                Buzzer_Init
 .text.PlayMusic
                0x000000000800164c       0xb0 ./Src/BSP/buzzer.o
                0x000000000800164c                PlayMusic
 .text.CAN_Mode_Init
                0x00000000080016fc       0xa0 ./Src/BSP/can.o
                0x00000000080016fc                CAN_Mode_Init
 .text.CanSendMsg
                0x000000000800179c       0x58 ./Src/BSP/can.o
                0x000000000800179c                CanSendMsg
 .text.Delay_Init
                0x00000000080017f4       0x3c ./Src/BSP/delay.o
                0x00000000080017f4                Delay_Init
 .text.delay_us
                0x0000000008001830       0x34 ./Src/BSP/delay.o
                0x0000000008001830                delay_us
 .text.delay_ms
                0x0000000008001864       0x3c ./Src/BSP/delay.o
                0x0000000008001864                delay_ms
 .text.SaveConfigData
                0x00000000080018a0       0xc0 ./Src/BSP/flash.o
                0x00000000080018a0                SaveConfigData
 .text.LoadConfigData
                0x0000000008001960       0x84 ./Src/BSP/flash.o
                0x0000000008001960                LoadConfigData
 .text.i2cdevInit
                0x00000000080019e4        0xa ./Src/BSP/i2c_device.o
                0x00000000080019e4                i2cdevInit
 .text.i2cdevRead
                0x00000000080019ee       0x36 ./Src/BSP/i2c_device.o
                0x00000000080019ee                i2cdevRead
 .text.i2cdevReadByte
                0x0000000008001a24       0x10 ./Src/BSP/i2c_device.o
                0x0000000008001a24                i2cdevReadByte
 .text.i2cdevWrite
                0x0000000008001a34       0x36 ./Src/BSP/i2c_device.o
                0x0000000008001a34                i2cdevWrite
 .text.i2cdevWriteByte
                0x0000000008001a6a       0x18 ./Src/BSP/i2c_device.o
                0x0000000008001a6a                i2cdevWriteByte
 .text.i2cdevWriteBit
                0x0000000008001a82       0x46 ./Src/BSP/i2c_device.o
                0x0000000008001a82                i2cdevWriteBit
 .text.i2cdevWriteBits
                0x0000000008001ac8       0x52 ./Src/BSP/i2c_device.o
                0x0000000008001ac8                i2cdevWriteBits
 .text.i2cdrvClearDMA
                0x0000000008001b1a       0x3a ./Src/BSP/i2c_driver.o
 .text.i2cNotifyClient.constprop.0
                0x0000000008001b54       0x34 ./Src/BSP/i2c_driver.o
 .text.i2cTryNextMessage.constprop.0
                0x0000000008001b88       0x20 ./Src/BSP/i2c_driver.o
 .text.i2cdrvRoughLoopDelay.constprop.0
                0x0000000008001ba8       0x1e ./Src/BSP/i2c_driver.o
 *fill*         0x0000000008001bc6        0x2 
 .text.i2cdrvInitBus
                0x0000000008001bc8      0x1f0 ./Src/BSP/i2c_driver.o
 .text.i2cdrvInit
                0x0000000008001db8        0x4 ./Src/BSP/i2c_driver.o
                0x0000000008001db8                i2cdrvInit
 .text.i2cdrvCreateMessage
                0x0000000008001dbc       0x1c ./Src/BSP/i2c_driver.o
                0x0000000008001dbc                i2cdrvCreateMessage
 .text.i2cdrvCreateMessageIntAddr
                0x0000000008001dd8       0x1e ./Src/BSP/i2c_driver.o
                0x0000000008001dd8                i2cdrvCreateMessageIntAddr
 *fill*         0x0000000008001df6        0x2 
 .text.i2cdrvMessageTransfer
                0x0000000008001df8       0xb8 ./Src/BSP/i2c_driver.o
                0x0000000008001df8                i2cdrvMessageTransfer
 .text.I2C2_ER_IRQHandler
                0x0000000008001eb0       0x98 ./Src/BSP/i2c_driver.o
                0x0000000008001eb0                I2C2_ER_IRQHandler
 .text.I2C2_EV_IRQHandler
                0x0000000008001f48      0x178 ./Src/BSP/i2c_driver.o
                0x0000000008001f48                I2C2_EV_IRQHandler
 .text.DMA1_Channel5_IRQHandler
                0x00000000080020c0       0x44 ./Src/BSP/i2c_driver.o
                0x00000000080020c0                DMA1_Channel5_IRQHandler
 .text.OLED_WriteCmd
                0x0000000008002104       0x10 ./Src/BSP/i2c_oled.o
                0x0000000008002104                OLED_WriteCmd
 .text.OLED_Init
                0x0000000008002114       0xbe ./Src/BSP/i2c_oled.o
                0x0000000008002114                OLED_Init
 .text.OLED_SetPos
                0x00000000080021d2       0x24 ./Src/BSP/i2c_oled.o
                0x00000000080021d2                OLED_SetPos
 *fill*         0x00000000080021f6        0x2 
 .text.OLED_CLS
                0x00000000080021f8       0x48 ./Src/BSP/i2c_oled.o
                0x00000000080021f8                OLED_CLS
 .text.OLED_ShowStr
                0x0000000008002240       0xe0 ./Src/BSP/i2c_oled.o
                0x0000000008002240                OLED_ShowStr
 .text.OLED_DrawBMP
                0x0000000008002320       0x3c ./Src/BSP/i2c_oled.o
                0x0000000008002320                OLED_DrawBMP
 .text.OLED_ShowParm
                0x000000000800235c       0xd8 ./Src/BSP/i2c_oled.o
                0x000000000800235c                OLED_ShowParm
 .text.MenuTask
                0x0000000008002434      0x170 ./Src/BSP/i2c_oled.o
                0x0000000008002434                MenuTask
 .text.UserKey_Init
                0x00000000080025a4       0x24 ./Src/BSP/key.o
                0x00000000080025a4                UserKey_Init
 .text.PowerKey_Init
                0x00000000080025c8       0x24 ./Src/BSP/key.o
                0x00000000080025c8                PowerKey_Init
 .text.LED_Init
                0x00000000080025ec       0x2c ./Src/BSP/led.o
                0x00000000080025ec                LED_Init
 .text.TIM1_Init
                0x0000000008002618       0x88 ./Src/BSP/motor.o
                0x0000000008002618                TIM1_Init
 .text.TIM2_Init
                0x00000000080026a0       0x8c ./Src/BSP/motor.o
                0x00000000080026a0                TIM2_Init
 .text.Motor1_Encoder_Init
                0x000000000800272c       0x94 ./Src/BSP/motor.o
                0x000000000800272c                Motor1_Encoder_Init
 .text.Motor2_Encoder_Init
                0x00000000080027c0       0x94 ./Src/BSP/motor.o
                0x00000000080027c0                Motor2_Encoder_Init
 .text.TIM5_IRQHandler
                0x0000000008002854       0x20 ./Src/BSP/motor.o
                0x0000000008002854                TIM5_IRQHandler
 .text.TIM4_IRQHandler
                0x0000000008002874       0x20 ./Src/BSP/motor.o
                0x0000000008002874                TIM4_IRQHandler
 .text.Read_Encoder
                0x0000000008002894       0x24 ./Src/BSP/motor.o
                0x0000000008002894                Read_Encoder
 .text.Set_Motor1_PWM
                0x00000000080028b8       0x3c ./Src/BSP/motor.o
                0x00000000080028b8                Set_Motor1_PWM
 .text.Set_Motor2_PWM
                0x00000000080028f4       0x40 ./Src/BSP/motor.o
                0x00000000080028f4                Set_Motor2_PWM
 .text.Motor_Init
                0x0000000008002934       0x22 ./Src/BSP/motor.o
                0x0000000008002934                Motor_Init
 *fill*         0x0000000008002956        0x2 
 .text.Motor1_Brake
                0x0000000008002958       0x14 ./Src/BSP/motor.o
                0x0000000008002958                Motor1_Brake
 .text.Motor2_Brake
                0x000000000800296c       0x10 ./Src/BSP/motor.o
                0x000000000800296c                Motor2_Brake
 *fill*         0x000000000800297c        0x4 
 .text.Motor1_Speed_Control
                0x0000000008002980       0xc8 ./Src/BSP/motor.o
                0x0000000008002980                Motor1_Speed_Control
 .text.Motor2_Speed_Control
                0x0000000008002a48       0xc8 ./Src/BSP/motor.o
                0x0000000008002a48                Motor2_Speed_Control
 .text.Motor_Speed_Calculate
                0x0000000008002b10       0xa8 ./Src/BSP/motor.o
                0x0000000008002b10                Motor_Speed_Calculate
 .text.MotorTask
                0x0000000008002bb8       0xd4 ./Src/BSP/motor.o
                0x0000000008002bb8                MotorTask
 .text.mpu6500Init
                0x0000000008002c8c       0x24 ./Src/BSP/mpu9250.o
                0x0000000008002c8c                mpu6500Init
 .text.mpu6500SetRate
                0x0000000008002cb0       0x18 ./Src/BSP/mpu9250.o
                0x0000000008002cb0                mpu6500SetRate
 .text.mpu6500SetDLPFMode
                0x0000000008002cc8       0x28 ./Src/BSP/mpu9250.o
                0x0000000008002cc8                mpu6500SetDLPFMode
 .text.mpu6500SetFullScaleGyroRange
                0x0000000008002cf0       0x28 ./Src/BSP/mpu9250.o
                0x0000000008002cf0                mpu6500SetFullScaleGyroRange
 .text.mpu6500SetFullScaleAccelRange
                0x0000000008002d18       0x28 ./Src/BSP/mpu9250.o
                0x0000000008002d18                mpu6500SetFullScaleAccelRange
 .text.mpu6500SetAccelDLPF
                0x0000000008002d40       0x28 ./Src/BSP/mpu9250.o
                0x0000000008002d40                mpu6500SetAccelDLPF
 .text.mpu6500SetWaitForExternalSensorEnabled
                0x0000000008002d68       0x24 ./Src/BSP/mpu9250.o
                0x0000000008002d68                mpu6500SetWaitForExternalSensorEnabled
 .text.mpu6500SetSlaveReadWriteTransitionEnabled
                0x0000000008002d8c       0x24 ./Src/BSP/mpu9250.o
                0x0000000008002d8c                mpu6500SetSlaveReadWriteTransitionEnabled
 .text.mpu6500SetMasterClockSpeed
                0x0000000008002db0       0x28 ./Src/BSP/mpu9250.o
                0x0000000008002db0                mpu6500SetMasterClockSpeed
 .text.mpu6500SetSlaveAddress
                0x0000000008002dd8       0x28 ./Src/BSP/mpu9250.o
                0x0000000008002dd8                mpu6500SetSlaveAddress
 .text.mpu6500SetSlaveRegister
                0x0000000008002e00       0x28 ./Src/BSP/mpu9250.o
                0x0000000008002e00                mpu6500SetSlaveRegister
 .text.mpu6500SetSlaveEnabled
                0x0000000008002e28       0x30 ./Src/BSP/mpu9250.o
                0x0000000008002e28                mpu6500SetSlaveEnabled
 .text.mpu6500SetSlaveDataLength
                0x0000000008002e58       0x34 ./Src/BSP/mpu9250.o
                0x0000000008002e58                mpu6500SetSlaveDataLength
 .text.mpu6500SetSlave4MasterDelay
                0x0000000008002e8c       0x28 ./Src/BSP/mpu9250.o
                0x0000000008002e8c                mpu6500SetSlave4MasterDelay
 .text.mpu6500SetInterruptMode
                0x0000000008002eb4       0x24 ./Src/BSP/mpu9250.o
                0x0000000008002eb4                mpu6500SetInterruptMode
 .text.mpu6500SetInterruptDrive
                0x0000000008002ed8       0x24 ./Src/BSP/mpu9250.o
                0x0000000008002ed8                mpu6500SetInterruptDrive
 .text.mpu6500SetInterruptLatch
                0x0000000008002efc       0x24 ./Src/BSP/mpu9250.o
                0x0000000008002efc                mpu6500SetInterruptLatch
 .text.mpu6500SetInterruptLatchClear
                0x0000000008002f20       0x24 ./Src/BSP/mpu9250.o
                0x0000000008002f20                mpu6500SetInterruptLatchClear
 .text.mpu6500SetI2CBypassEnabled
                0x0000000008002f44       0x24 ./Src/BSP/mpu9250.o
                0x0000000008002f44                mpu6500SetI2CBypassEnabled
 .text.mpu6500SetIntEnabled
                0x0000000008002f68       0x18 ./Src/BSP/mpu9250.o
                0x0000000008002f68                mpu6500SetIntEnabled
 .text.mpu6500SetIntDataReadyEnabled
                0x0000000008002f80       0x24 ./Src/BSP/mpu9250.o
                0x0000000008002f80                mpu6500SetIntDataReadyEnabled
 .text.mpu6500SetSlaveDelayEnabled
                0x0000000008002fa4       0x24 ./Src/BSP/mpu9250.o
                0x0000000008002fa4                mpu6500SetSlaveDelayEnabled
 .text.mpu6500SetI2CMasterModeEnabled
                0x0000000008002fc8       0x24 ./Src/BSP/mpu9250.o
                0x0000000008002fc8                mpu6500SetI2CMasterModeEnabled
 .text.mpu6500Reset
                0x0000000008002fec       0x24 ./Src/BSP/mpu9250.o
                0x0000000008002fec                mpu6500Reset
 .text.mpu6500SetSleepEnabled
                0x0000000008003010       0x24 ./Src/BSP/mpu9250.o
                0x0000000008003010                mpu6500SetSleepEnabled
 .text.mpu6500SetTempSensorEnabled
                0x0000000008003034       0x28 ./Src/BSP/mpu9250.o
                0x0000000008003034                mpu6500SetTempSensorEnabled
 .text.mpu6500SetClockSource
                0x000000000800305c       0x28 ./Src/BSP/mpu9250.o
                0x000000000800305c                mpu6500SetClockSource
 .text.mpu6500GetDeviceID
                0x0000000008003084       0x24 ./Src/BSP/mpu9250.o
                0x0000000008003084                mpu6500GetDeviceID
 .text.NRF_LowLevel_Init
                0x00000000080030a8      0x100 ./Src/BSP/nrf24l01.o
 .text.SPI_RWByte.constprop.0
                0x00000000080031a8       0x34 ./Src/BSP/nrf24l01.o
 .text.writeReg
                0x00000000080031dc       0x34 ./Src/BSP/nrf24l01.o
 .text.readReg  0x0000000008003210       0x30 ./Src/BSP/nrf24l01.o
 .text.writeBuf
                0x0000000008003240       0x3c ./Src/BSP/nrf24l01.o
 .text.readBuf.isra.0
                0x000000000800327c       0x3c ./Src/BSP/nrf24l01.o
 .text.nrf_txPacket_AP
                0x00000000080032b8       0x2c ./Src/BSP/nrf24l01.o
                0x00000000080032b8                nrf_txPacket_AP
 .text.nrf_setAddress
                0x00000000080032e4       0x24 ./Src/BSP/nrf24l01.o
                0x00000000080032e4                nrf_setAddress
 .text.nrf_setChannel
                0x0000000008003308        0xe ./Src/BSP/nrf24l01.o
                0x0000000008003308                nrf_setChannel
 .text.nrf_setDataRate
                0x0000000008003316       0x2a ./Src/BSP/nrf24l01.o
                0x0000000008003316                nrf_setDataRate
 .text.nrf_setPower
                0x0000000008003340       0x34 ./Src/BSP/nrf24l01.o
                0x0000000008003340                nrf_setPower
 .text.nrf_setArd
                0x0000000008003374       0x28 ./Src/BSP/nrf24l01.o
                0x0000000008003374                nrf_setArd
 .text.NRF_Init
                0x000000000800339c       0x90 ./Src/BSP/nrf24l01.o
                0x000000000800339c                NRF_Init
 .text.nrf_check
                0x000000000800342c       0x50 ./Src/BSP/nrf24l01.o
                0x000000000800342c                nrf_check
 .text.nrf_rxPacket
                0x000000000800347c       0x44 ./Src/BSP/nrf24l01.o
                0x000000000800347c                nrf_rxPacket
 .text.nrf_checkEventandRxPacket
                0x00000000080034c0       0x48 ./Src/BSP/nrf24l01.o
                0x00000000080034c0                nrf_checkEventandRxPacket
 .text.nrf_setIterruptCallback
                0x0000000008003508        0xc ./Src/BSP/nrf24l01.o
                0x0000000008003508                nrf_setIterruptCallback
 .text.EXTI15_10_IRQHandler
                0x0000000008003514       0x28 ./Src/BSP/nrf24l01.o
                0x0000000008003514                EXTI15_10_IRQHandler
 .text.ADJ_Outpt_Init
                0x000000000800353c       0x30 ./Src/BSP/power_control.o
                0x000000000800353c                ADJ_Outpt_Init
 .text.MAIN_Output_Init
                0x000000000800356c       0x30 ./Src/BSP/power_control.o
                0x000000000800356c                MAIN_Output_Init
 .text.PowerControl_Init
                0x000000000800359c       0x24 ./Src/BSP/power_control.o
                0x000000000800359c                PowerControl_Init
 .text.PowerTask
                0x00000000080035c0      0x208 ./Src/BSP/power_control.o
                0x00000000080035c0                PowerTask
 .text.TIM3_Init
                0x00000000080037c8       0xd0 ./Src/BSP/servo.o
                0x00000000080037c8                TIM3_Init
 .text.TIM8_Init
                0x0000000008003898       0xb4 ./Src/BSP/servo.o
                0x0000000008003898                TIM8_Init
 .text.Servo_Init
                0x000000000800394c        0xe ./Src/BSP/servo.o
                0x000000000800394c                Servo_Init
 *fill*         0x000000000800395a        0x2 
 .text.Duty_to_PWM
                0x000000000800395c       0x20 ./Src/BSP/servo.o
                0x000000000800395c                Duty_to_PWM
 .text.Set_Servo_PWM
                0x000000000800397c       0x48 ./Src/BSP/servo.o
                0x000000000800397c                Set_Servo_PWM
 .text.PWM      0x00000000080039c4       0x28 ./Src/BSP/servo.o
                0x00000000080039c4                PWM
 .text.SPI_FLASH_Init
                0x00000000080039ec       0xa4 ./Src/BSP/spi_flash.o
                0x00000000080039ec                SPI_FLASH_Init
 .text.SPI_FLASH_SendByte
                0x0000000008003a90       0x70 ./Src/BSP/spi_flash.o
                0x0000000008003a90                SPI_FLASH_SendByte
 .text.SPI_FLASH_BufferRead
                0x0000000008003b00       0x54 ./Src/BSP/spi_flash.o
                0x0000000008003b00                SPI_FLASH_BufferRead
 .text.SPI_FLASH_ReadID
                0x0000000008003b54       0x48 ./Src/BSP/spi_flash.o
                0x0000000008003b54                SPI_FLASH_ReadID
 .text.SPI_FLASH_WriteEnable
                0x0000000008003b9c       0x28 ./Src/BSP/spi_flash.o
                0x0000000008003b9c                SPI_FLASH_WriteEnable
 .text.SPI_FLASH_WaitForWriteEnd
                0x0000000008003bc4       0x30 ./Src/BSP/spi_flash.o
                0x0000000008003bc4                SPI_FLASH_WaitForWriteEnd
 .text.SPI_FLASH_SectorErase
                0x0000000008003bf4       0x4c ./Src/BSP/spi_flash.o
                0x0000000008003bf4                SPI_FLASH_SectorErase
 .text.SPI_FLASH_PageWrite
                0x0000000008003c40       0x6c ./Src/BSP/spi_flash.o
                0x0000000008003c40                SPI_FLASH_PageWrite
 .text.SPI_FLASH_BufferWrite
                0x0000000008003cac       0xb0 ./Src/BSP/spi_flash.o
                0x0000000008003cac                SPI_FLASH_BufferWrite
 .text.SPI_Flash_WAKEUP
                0x0000000008003d5c       0x28 ./Src/BSP/spi_flash.o
                0x0000000008003d5c                SPI_Flash_WAKEUP
 .text.UART4_Init
                0x0000000008003d84       0x98 ./Src/BSP/uart4.o
                0x0000000008003d84                UART4_Init
 .text.Uart4Task
                0x0000000008003e1c       0x68 ./Src/BSP/uart4.o
                0x0000000008003e1c                Uart4Task
 .text.UART4_IRQHandler
                0x0000000008003e84       0x84 ./Src/BSP/uart4.o
                0x0000000008003e84                UART4_IRQHandler
 .text.UART5_Init
                0x0000000008003f08       0x98 ./Src/BSP/uart5.o
                0x0000000008003f08                UART5_Init
 .text.Uart5Task
                0x0000000008003fa0       0x68 ./Src/BSP/uart5.o
                0x0000000008003fa0                Uart5Task
 .text.UART5_IRQHandler
                0x0000000008004008       0x84 ./Src/BSP/uart5.o
                0x0000000008004008                UART5_IRQHandler
 .text.USART1_Init
                0x000000000800408c       0x80 ./Src/BSP/usart1.o
                0x000000000800408c                USART1_Init
 .text.USART1_IRQHandler
                0x000000000800410c       0xac ./Src/BSP/usart1.o
                0x000000000800410c                USART1_IRQHandler
 .text.Usart1LinkStatus
                0x00000000080041b8        0xc ./Src/BSP/usart1.o
                0x00000000080041b8                Usart1LinkStatus
 .text.ProcessMsg
                0x00000000080041c4      0x2ec ./Src/BSP/usart1.o
                0x00000000080041c4                ProcessMsg
 .text.Usart1Task
                0x00000000080044b0       0x64 ./Src/BSP/usart1.o
                0x00000000080044b0                Usart1Task
 .text._isatty  0x0000000008004514       0x16 ./Src/BSP/usart1.o
                0x0000000008004514                _isatty
 .text._getpid  0x000000000800452a        0x4 ./Src/BSP/usart1.o
                0x000000000800452a                _getpid
 .text._kill    0x000000000800452e       0x10 ./Src/BSP/usart1.o
                0x000000000800452e                _kill
 *fill*         0x000000000800453e        0x2 
 .text._write   0x0000000008004540       0x30 ./Src/BSP/usart1.o
                0x0000000008004540                _write
 .text._read    0x0000000008004570       0x30 ./Src/BSP/usart1.o
                0x0000000008004570                _read
 .text._close   0x00000000080045a0       0x18 ./Src/BSP/usart1.o
                0x00000000080045a0                _close
 .text._lseek   0x00000000080045b8       0x10 ./Src/BSP/usart1.o
                0x00000000080045b8                _lseek
 .text._fstat   0x00000000080045c8       0x1a ./Src/BSP/usart1.o
                0x00000000080045c8                _fstat
 *fill*         0x00000000080045e2        0x2 
 .text.watchdogInit
                0x00000000080045e4       0x3c ./Src/BSP/watchdog.o
                0x00000000080045e4                watchdogInit
 .text.EKF_AHRSInit
                0x0000000008004620      0x1d0 ./Src/EKF/ekf.o
                0x0000000008004620                EKF_AHRSInit
 .text.EKF_AHRSUpdate
                0x00000000080047f0      0x940 ./Src/EKF/ekf.o
                0x00000000080047f0                EKF_AHRSUpdate
 .text.EKF_AHRSGetAngle
                0x0000000008005130      0x180 ./Src/EKF/ekf.o
                0x0000000008005130                EKF_AHRSGetAngle
 .text.FastAtan2
                0x00000000080052b0      0x19c ./Src/EKF/fast_math.o
                0x00000000080052b0                FastAtan2
 .text.FastSqrtI
                0x000000000800544c       0x38 ./Src/EKF/fast_math.o
                0x000000000800544c                FastSqrtI
 .text.FastSqrt
                0x0000000008005484       0x10 ./Src/EKF/fast_math.o
                0x0000000008005484                FastSqrt
 .text.FastAsin
                0x0000000008005494      0x118 ./Src/EKF/fast_math.o
                0x0000000008005494                FastAsin
 .text.Maxtrix_Add
                0x00000000080055ac       0xb2 ./Src/EKF/mini_matrix.o
                0x00000000080055ac                Maxtrix_Add
 .text.Maxtrix_Sub
                0x000000000800565e       0xb2 ./Src/EKF/mini_matrix.o
                0x000000000800565e                Maxtrix_Sub
 .text.Matrix_Multiply
                0x0000000008005710      0x130 ./Src/EKF/mini_matrix.o
                0x0000000008005710                Matrix_Multiply
 .text.Matrix_Multiply_With_Transpose
                0x0000000008005840       0x80 ./Src/EKF/mini_matrix.o
                0x0000000008005840                Matrix_Multiply_With_Transpose
 .text.Matrix_Inverse
                0x00000000080058c0      0x1c2 ./Src/EKF/mini_matrix.o
                0x00000000080058c0                Matrix_Inverse
 *fill*         0x0000000008005a82        0x2 
 .text.Quaternion_FromRotationMatrix
                0x0000000008005a84      0x1e0 ./Src/EKF/quaternion.o
                0x0000000008005a84                Quaternion_FromRotationMatrix
 .text.disk_status
                0x0000000008005c64       0x1c ./Src/FatFs/diskio.o
                0x0000000008005c64                disk_status
 .text.disk_initialize
                0x0000000008005c80       0x24 ./Src/FatFs/diskio.o
                0x0000000008005c80                disk_initialize
 .text.disk_read
                0x0000000008005ca4       0x20 ./Src/FatFs/diskio.o
                0x0000000008005ca4                disk_read
 .text.disk_write
                0x0000000008005cc4       0x2a ./Src/FatFs/diskio.o
                0x0000000008005cc4                disk_write
 .text.disk_ioctl
                0x0000000008005cee       0x2a ./Src/FatFs/diskio.o
                0x0000000008005cee                disk_ioctl
 .text.get_fattime
                0x0000000008005d18        0x8 ./Src/FatFs/diskio.o
                0x0000000008005d18                get_fattime
 .text.mem_cpy  0x0000000008005d20       0x14 ./Src/FatFs/ff.o
 .text.mem_set  0x0000000008005d34        0xe ./Src/FatFs/ff.o
 .text.sum_sfn  0x0000000008005d42       0x1e ./Src/FatFs/ff.o
 .text.get_ldnumber
                0x0000000008005d60       0x3a ./Src/FatFs/ff.o
 .text.validate
                0x0000000008005d9a       0x24 ./Src/FatFs/ff.o
 .text.get_fileinfo
                0x0000000008005dbe       0xc2 ./Src/FatFs/ff.o
 .text.sync_window.part.0
                0x0000000008005e80       0x4c ./Src/FatFs/ff.o
 .text.sync_window
                0x0000000008005ecc        0xc ./Src/FatFs/ff.o
 .text.move_window
                0x0000000008005ed8       0x32 ./Src/FatFs/ff.o
 *fill*         0x0000000008005f0a        0x2 
 .text.check_fs
                0x0000000008005f0c       0x4c ./Src/FatFs/ff.o
 .text.find_volume
                0x0000000008005f58      0x244 ./Src/FatFs/ff.o
 .text.sync_fs  0x000000000800619c       0x74 ./Src/FatFs/ff.o
 .text.ld_clust.isra.0
                0x0000000008006210       0x10 ./Src/FatFs/ff.o
 .text.clust2sect
                0x0000000008006220       0x16 ./Src/FatFs/ff.o
                0x0000000008006220                clust2sect
 .text.get_fat  0x0000000008006236       0xf4 ./Src/FatFs/ff.o
                0x0000000008006236                get_fat
 .text.dir_sdi  0x000000000800632a       0x94 ./Src/FatFs/ff.o
 .text.put_fat  0x00000000080063be      0x124 ./Src/FatFs/ff.o
                0x00000000080063be                put_fat
 .text.create_chain
                0x00000000080064e2       0xa0 ./Src/FatFs/ff.o
 .text.dir_next
                0x0000000008006582      0x100 ./Src/FatFs/ff.o
 *fill*         0x0000000008006682        0x2 
 .text.dir_find
                0x0000000008006684      0x138 ./Src/FatFs/ff.o
 .text.follow_path
                0x00000000080067bc      0x2a8 ./Src/FatFs/ff.o
 .text.dir_register
                0x0000000008006a64      0x264 ./Src/FatFs/ff.o
 .text.dir_read.constprop.0
                0x0000000008006cc8       0xf8 ./Src/FatFs/ff.o
 .text.remove_chain
                0x0000000008006dc0       0x5a ./Src/FatFs/ff.o
 *fill*         0x0000000008006e1a        0x2 
 .text.f_mount  0x0000000008006e1c       0x4c ./Src/FatFs/ff.o
                0x0000000008006e1c                f_mount
 .text.f_open   0x0000000008006e68      0x144 ./Src/FatFs/ff.o
                0x0000000008006e68                f_open
 .text.f_read   0x0000000008006fac      0x162 ./Src/FatFs/ff.o
                0x0000000008006fac                f_read
 .text.f_sync   0x000000000800710e       0xa2 ./Src/FatFs/ff.o
                0x000000000800710e                f_sync
 .text.f_close  0x00000000080071b0       0x16 ./Src/FatFs/ff.o
                0x00000000080071b0                f_close
 .text.f_lseek  0x00000000080071c6      0x136 ./Src/FatFs/ff.o
                0x00000000080071c6                f_lseek
 .text.f_opendir
                0x00000000080072fc       0x6c ./Src/FatFs/ff.o
                0x00000000080072fc                f_opendir
 .text.f_readdir
                0x0000000008007368       0x60 ./Src/FatFs/ff.o
                0x0000000008007368                f_readdir
 .text.f_getfree
                0x00000000080073c8       0xbe ./Src/FatFs/ff.o
                0x00000000080073c8                f_getfree
 *fill*         0x0000000008007486        0x2 
 .text.f_mkfs   0x0000000008007488      0x5a8 ./Src/FatFs/ff.o
                0x0000000008007488                f_mkfs
 .text.ff_convert
                0x0000000008007a30       0x48 ./Src/FatFs/option/cc936.o
                0x0000000008007a30                ff_convert
 .text.ff_wtoupper
                0x0000000008007a78       0x48 ./Src/FatFs/option/cc936.o
                0x0000000008007a78                ff_wtoupper
 .text.vListInitialise
                0x0000000008007ac0       0x16 ./Src/FreeRTOS/list.o
                0x0000000008007ac0                vListInitialise
 .text.vListInitialiseItem
                0x0000000008007ad6        0x6 ./Src/FreeRTOS/list.o
                0x0000000008007ad6                vListInitialiseItem
 .text.vListInsertEnd
                0x0000000008007adc       0x16 ./Src/FreeRTOS/list.o
                0x0000000008007adc                vListInsertEnd
 .text.vListInsert
                0x0000000008007af2       0x2e ./Src/FreeRTOS/list.o
                0x0000000008007af2                vListInsert
 .text.uxListRemove
                0x0000000008007b20       0x22 ./Src/FreeRTOS/list.o
                0x0000000008007b20                uxListRemove
 .text.prvCopyDataToQueue
                0x0000000008007b42       0x6a ./Src/FreeRTOS/queue.o
 .text.prvNotifyQueueSetContainer
                0x0000000008007bac       0x7c ./Src/FreeRTOS/queue.o
 .text.prvCopyDataFromQueue
                0x0000000008007c28       0x28 ./Src/FreeRTOS/queue.o
 .text.prvUnlockQueue
                0x0000000008007c50       0x7e ./Src/FreeRTOS/queue.o
 *fill*         0x0000000008007cce        0x2 
 .text.xQueueGenericReset
                0x0000000008007cd0       0x80 ./Src/FreeRTOS/queue.o
                0x0000000008007cd0                xQueueGenericReset
 .text.xQueueGenericCreate
                0x0000000008007d50       0x50 ./Src/FreeRTOS/queue.o
                0x0000000008007d50                xQueueGenericCreate
 .text.xQueueGenericSend
                0x0000000008007da0      0x174 ./Src/FreeRTOS/queue.o
                0x0000000008007da0                xQueueGenericSend
 .text.xQueueCreateMutex
                0x0000000008007f14       0x24 ./Src/FreeRTOS/queue.o
                0x0000000008007f14                xQueueCreateMutex
 .text.xQueueGenericSendFromISR
                0x0000000008007f38       0xd4 ./Src/FreeRTOS/queue.o
                0x0000000008007f38                xQueueGenericSendFromISR
 .text.xQueueGiveFromISR
                0x000000000800800c       0xb4 ./Src/FreeRTOS/queue.o
                0x000000000800800c                xQueueGiveFromISR
 .text.xQueueGenericReceive
                0x00000000080080c0      0x180 ./Src/FreeRTOS/queue.o
                0x00000000080080c0                xQueueGenericReceive
 .text.vQueueAddToRegistry
                0x0000000008008240       0x24 ./Src/FreeRTOS/queue.o
                0x0000000008008240                vQueueAddToRegistry
 .text.vQueueWaitForMessageRestricted
                0x0000000008008264       0x46 ./Src/FreeRTOS/queue.o
                0x0000000008008264                vQueueWaitForMessageRestricted
 *fill*         0x00000000080082aa        0x2 
 .text.prvAddCurrentTaskToDelayedList
                0x00000000080082ac       0x88 ./Src/FreeRTOS/tasks.o
 .text.prvResetNextTaskUnblockTime
                0x0000000008008334       0x24 ./Src/FreeRTOS/tasks.o
 .text.xTaskCreate
                0x0000000008008358      0x1b0 ./Src/FreeRTOS/tasks.o
                0x0000000008008358                xTaskCreate
 .text.vTaskDelete
                0x0000000008008508       0xdc ./Src/FreeRTOS/tasks.o
                0x0000000008008508                vTaskDelete
 .text.vTaskStartScheduler
                0x00000000080085e4       0x88 ./Src/FreeRTOS/tasks.o
                0x00000000080085e4                vTaskStartScheduler
 .text.vTaskSuspendAll
                0x000000000800866c       0x10 ./Src/FreeRTOS/tasks.o
                0x000000000800866c                vTaskSuspendAll
 .text.xTaskGetTickCount
                0x000000000800867c        0xc ./Src/FreeRTOS/tasks.o
                0x000000000800867c                xTaskGetTickCount
 .text.xTaskIncrementTick
                0x0000000008008688      0x124 ./Src/FreeRTOS/tasks.o
                0x0000000008008688                xTaskIncrementTick
 .text.xTaskResumeAll
                0x00000000080087ac       0xf0 ./Src/FreeRTOS/tasks.o
                0x00000000080087ac                xTaskResumeAll
 .text.vTaskDelay
                0x000000000800889c       0x50 ./Src/FreeRTOS/tasks.o
                0x000000000800889c                vTaskDelay
 .text.prvIdleTask
                0x00000000080088ec       0x58 ./Src/FreeRTOS/tasks.o
 .text.vTaskSwitchContext
                0x0000000008008944       0x90 ./Src/FreeRTOS/tasks.o
                0x0000000008008944                vTaskSwitchContext
 .text.vTaskPlaceOnEventList
                0x00000000080089d4       0x38 ./Src/FreeRTOS/tasks.o
                0x00000000080089d4                vTaskPlaceOnEventList
 .text.vTaskPlaceOnEventListRestricted
                0x0000000008008a0c       0x44 ./Src/FreeRTOS/tasks.o
                0x0000000008008a0c                vTaskPlaceOnEventListRestricted
 .text.xTaskRemoveFromEventList
                0x0000000008008a50       0x84 ./Src/FreeRTOS/tasks.o
                0x0000000008008a50                xTaskRemoveFromEventList
 .text.vTaskSetTimeOutState
                0x0000000008008ad4       0x30 ./Src/FreeRTOS/tasks.o
                0x0000000008008ad4                vTaskSetTimeOutState
 .text.xTaskCheckForTimeOut
                0x0000000008008b04       0x74 ./Src/FreeRTOS/tasks.o
                0x0000000008008b04                xTaskCheckForTimeOut
 .text.vTaskMissedYield
                0x0000000008008b78        0xc ./Src/FreeRTOS/tasks.o
                0x0000000008008b78                vTaskMissedYield
 .text.xTaskGetSchedulerState
                0x0000000008008b84       0x20 ./Src/FreeRTOS/tasks.o
                0x0000000008008b84                xTaskGetSchedulerState
 .text.vTaskPriorityInherit
                0x0000000008008ba4       0x94 ./Src/FreeRTOS/tasks.o
                0x0000000008008ba4                vTaskPriorityInherit
 .text.xTaskPriorityDisinherit
                0x0000000008008c38       0xa4 ./Src/FreeRTOS/tasks.o
                0x0000000008008c38                xTaskPriorityDisinherit
 .text.pvTaskIncrementMutexHeldCount
                0x0000000008008cdc       0x18 ./Src/FreeRTOS/tasks.o
                0x0000000008008cdc                pvTaskIncrementMutexHeldCount
 .text.prvCheckForValidListAndQueue
                0x0000000008008cf4       0x58 ./Src/FreeRTOS/timers.o
 .text.prvInsertTimerInActiveList
                0x0000000008008d4c       0x3c ./Src/FreeRTOS/timers.o
 .text.xTimerCreateTimerTask
                0x0000000008008d88       0x54 ./Src/FreeRTOS/timers.o
                0x0000000008008d88                xTimerCreateTimerTask
 .text.xTimerGenericCommand
                0x0000000008008ddc       0x60 ./Src/FreeRTOS/timers.o
                0x0000000008008ddc                xTimerGenericCommand
 .text.prvSampleTimeNow
                0x0000000008008e3c       0xb0 ./Src/FreeRTOS/timers.o
 .text.prvTimerTask
                0x0000000008008eec      0x1a8 ./Src/FreeRTOS/timers.o
 .text.prvPortStartFirstTask
                0x0000000008009094       0x20 ./Src/FreeRTOS/portable/GCC/ARM_CM3/port.o
 .text.prvTaskExitError
                0x00000000080090b4       0x40 ./Src/FreeRTOS/portable/GCC/ARM_CM3/port.o
 .text.pxPortInitialiseStack
                0x00000000080090f4       0x24 ./Src/FreeRTOS/portable/GCC/ARM_CM3/port.o
                0x00000000080090f4                pxPortInitialiseStack
 *fill*         0x0000000008009118        0x8 
 .text.SVC_Handler
                0x0000000008009120       0x24 ./Src/FreeRTOS/portable/GCC/ARM_CM3/port.o
                0x0000000008009120                SVC_Handler
 .text.vPortEnterCritical
                0x0000000008009144       0x44 ./Src/FreeRTOS/portable/GCC/ARM_CM3/port.o
                0x0000000008009144                vPortEnterCritical
 .text.vPortExitCritical
                0x0000000008009188       0x30 ./Src/FreeRTOS/portable/GCC/ARM_CM3/port.o
                0x0000000008009188                vPortExitCritical
 *fill*         0x00000000080091b8        0x8 
 .text.PendSV_Handler
                0x00000000080091c0       0x44 ./Src/FreeRTOS/portable/GCC/ARM_CM3/port.o
                0x00000000080091c0                PendSV_Handler
 .text.xPortSysTickHandler
                0x0000000008009204       0x2c ./Src/FreeRTOS/portable/GCC/ARM_CM3/port.o
                0x0000000008009204                xPortSysTickHandler
 .text.vPortSetupTimerInterrupt
                0x0000000008009230       0x18 ./Src/FreeRTOS/portable/GCC/ARM_CM3/port.o
                0x0000000008009230                vPortSetupTimerInterrupt
 .text.xPortStartScheduler
                0x0000000008009248       0xd4 ./Src/FreeRTOS/portable/GCC/ARM_CM3/port.o
                0x0000000008009248                xPortStartScheduler
 .text.vPortValidateInterruptPriority
                0x000000000800931c       0x60 ./Src/FreeRTOS/portable/GCC/ARM_CM3/port.o
                0x000000000800931c                vPortValidateInterruptPriority
 .text.prvInsertBlockIntoFreeList
                0x000000000800937c       0x4c ./Src/FreeRTOS/portable/MemMang/heap_4.o
 .text.pvPortMalloc
                0x00000000080093c8      0x138 ./Src/FreeRTOS/portable/MemMang/heap_4.o
                0x00000000080093c8                pvPortMalloc
 .text.vPortFree
                0x0000000008009500       0x80 ./Src/FreeRTOS/portable/MemMang/heap_4.o
                0x0000000008009500                vPortFree
 .text.xPortGetFreeHeapSize
                0x0000000008009580        0xc ./Src/FreeRTOS/portable/MemMang/heap_4.o
                0x0000000008009580                xPortGetFreeHeapSize
 .text.NVIC_PriorityGroupConfig
                0x000000000800958c       0x14 ./Src/STM32F10x_StdPeriph_Driver/src/misc.o
                0x000000000800958c                NVIC_PriorityGroupConfig
 .text.NVIC_Init
                0x00000000080095a0       0x64 ./Src/STM32F10x_StdPeriph_Driver/src/misc.o
                0x00000000080095a0                NVIC_Init
 .text.SysTick_CLKSourceConfig
                0x0000000008009604       0x16 ./Src/STM32F10x_StdPeriph_Driver/src/misc.o
                0x0000000008009604                SysTick_CLKSourceConfig
 *fill*         0x000000000800961a        0x2 
 .text.ADC_Init
                0x000000000800961c       0x48 ./Src/STM32F10x_StdPeriph_Driver/src/stm32f10x_adc.o
                0x000000000800961c                ADC_Init
 .text.ADC_Cmd  0x0000000008009664       0x12 ./Src/STM32F10x_StdPeriph_Driver/src/stm32f10x_adc.o
                0x0000000008009664                ADC_Cmd
 .text.ADC_DMACmd
                0x0000000008009676       0x12 ./Src/STM32F10x_StdPeriph_Driver/src/stm32f10x_adc.o
                0x0000000008009676                ADC_DMACmd
 .text.ADC_ResetCalibration
                0x0000000008009688        0xa ./Src/STM32F10x_StdPeriph_Driver/src/stm32f10x_adc.o
                0x0000000008009688                ADC_ResetCalibration
 .text.ADC_GetResetCalibrationStatus
                0x0000000008009692        0x8 ./Src/STM32F10x_StdPeriph_Driver/src/stm32f10x_adc.o
                0x0000000008009692                ADC_GetResetCalibrationStatus
 .text.ADC_StartCalibration
                0x000000000800969a        0xa ./Src/STM32F10x_StdPeriph_Driver/src/stm32f10x_adc.o
                0x000000000800969a                ADC_StartCalibration
 .text.ADC_GetCalibrationStatus
                0x00000000080096a4        0x8 ./Src/STM32F10x_StdPeriph_Driver/src/stm32f10x_adc.o
                0x00000000080096a4                ADC_GetCalibrationStatus
 .text.ADC_SoftwareStartConvCmd
                0x00000000080096ac       0x12 ./Src/STM32F10x_StdPeriph_Driver/src/stm32f10x_adc.o
                0x00000000080096ac                ADC_SoftwareStartConvCmd
 .text.ADC_RegularChannelConfig
                0x00000000080096be       0x8a ./Src/STM32F10x_StdPeriph_Driver/src/stm32f10x_adc.o
                0x00000000080096be                ADC_RegularChannelConfig
 .text.CAN_Init
                0x0000000008009748       0xd2 ./Src/STM32F10x_StdPeriph_Driver/src/stm32f10x_can.o
                0x0000000008009748                CAN_Init
 *fill*         0x000000000800981a        0x2 
 .text.CAN_FilterInit
                0x000000000800981c       0xe4 ./Src/STM32F10x_StdPeriph_Driver/src/stm32f10x_can.o
                0x000000000800981c                CAN_FilterInit
 .text.CAN_Transmit
                0x0000000008009900       0xa2 ./Src/STM32F10x_StdPeriph_Driver/src/stm32f10x_can.o
                0x0000000008009900                CAN_Transmit
 *fill*         0x00000000080099a2        0x2 
 .text.CAN_TransmitStatus
                0x00000000080099a4       0x58 ./Src/STM32F10x_StdPeriph_Driver/src/stm32f10x_can.o
                0x00000000080099a4                CAN_TransmitStatus
 .text.DMA_DeInit
                0x00000000080099fc       0xf4 ./Src/STM32F10x_StdPeriph_Driver/src/stm32f10x_dma.o
                0x00000000080099fc                DMA_DeInit
 .text.DMA_Init
                0x0000000008009af0       0x3c ./Src/STM32F10x_StdPeriph_Driver/src/stm32f10x_dma.o
                0x0000000008009af0                DMA_Init
 .text.DMA_Cmd  0x0000000008009b2c       0x16 ./Src/STM32F10x_StdPeriph_Driver/src/stm32f10x_dma.o
                0x0000000008009b2c                DMA_Cmd
 .text.DMA_ITConfig
                0x0000000008009b42       0x10 ./Src/STM32F10x_StdPeriph_Driver/src/stm32f10x_dma.o
                0x0000000008009b42                DMA_ITConfig
 *fill*         0x0000000008009b52        0x2 
 .text.DMA_GetFlagStatus
                0x0000000008009b54       0x1c ./Src/STM32F10x_StdPeriph_Driver/src/stm32f10x_dma.o
                0x0000000008009b54                DMA_GetFlagStatus
 .text.DMA_ClearFlag
                0x0000000008009b70       0x14 ./Src/STM32F10x_StdPeriph_Driver/src/stm32f10x_dma.o
                0x0000000008009b70                DMA_ClearFlag
 .text.DMA_ClearITPendingBit
                0x0000000008009b84        0x4 ./Src/STM32F10x_StdPeriph_Driver/src/stm32f10x_dma.o
                0x0000000008009b84                DMA_ClearITPendingBit
 .text.EXTI_Init
                0x0000000008009b88       0x80 ./Src/STM32F10x_StdPeriph_Driver/src/stm32f10x_exti.o
                0x0000000008009b88                EXTI_Init
 .text.EXTI_GetITStatus
                0x0000000008009c08       0x1c ./Src/STM32F10x_StdPeriph_Driver/src/stm32f10x_exti.o
                0x0000000008009c08                EXTI_GetITStatus
 .text.EXTI_ClearITPendingBit
                0x0000000008009c24        0xc ./Src/STM32F10x_StdPeriph_Driver/src/stm32f10x_exti.o
                0x0000000008009c24                EXTI_ClearITPendingBit
 .text.FLASH_Unlock
                0x0000000008009c30       0x18 ./Src/STM32F10x_StdPeriph_Driver/src/stm32f10x_flash.o
                0x0000000008009c30                FLASH_Unlock
 .text.FLASH_Lock
                0x0000000008009c48       0x10 ./Src/STM32F10x_StdPeriph_Driver/src/stm32f10x_flash.o
                0x0000000008009c48                FLASH_Lock
 .text.FLASH_ClearFlag
                0x0000000008009c58        0xc ./Src/STM32F10x_StdPeriph_Driver/src/stm32f10x_flash.o
                0x0000000008009c58                FLASH_ClearFlag
 .text.FLASH_GetBank1Status
                0x0000000008009c64       0x28 ./Src/STM32F10x_StdPeriph_Driver/src/stm32f10x_flash.o
                0x0000000008009c64                FLASH_GetBank1Status
 .text.FLASH_WaitForLastOperation
                0x0000000008009c8c       0x22 ./Src/STM32F10x_StdPeriph_Driver/src/stm32f10x_flash.o
                0x0000000008009c8c                FLASH_WaitForLastOperation
 *fill*         0x0000000008009cae        0x2 
 .text.FLASH_ErasePage
                0x0000000008009cb0       0x40 ./Src/STM32F10x_StdPeriph_Driver/src/stm32f10x_flash.o
                0x0000000008009cb0                FLASH_ErasePage
 .text.FLASH_ProgramWord
                0x0000000008009cf0       0x58 ./Src/STM32F10x_StdPeriph_Driver/src/stm32f10x_flash.o
                0x0000000008009cf0                FLASH_ProgramWord
 .text.GPIO_Init
                0x0000000008009d48       0x9e ./Src/STM32F10x_StdPeriph_Driver/src/stm32f10x_gpio.o
                0x0000000008009d48                GPIO_Init
 .text.GPIO_StructInit
                0x0000000008009de6        0xe ./Src/STM32F10x_StdPeriph_Driver/src/stm32f10x_gpio.o
                0x0000000008009de6                GPIO_StructInit
 .text.GPIO_ReadInputDataBit
                0x0000000008009df4        0xc ./Src/STM32F10x_StdPeriph_Driver/src/stm32f10x_gpio.o
                0x0000000008009df4                GPIO_ReadInputDataBit
 .text.GPIO_SetBits
                0x0000000008009e00        0x4 ./Src/STM32F10x_StdPeriph_Driver/src/stm32f10x_gpio.o
                0x0000000008009e00                GPIO_SetBits
 .text.GPIO_ResetBits
                0x0000000008009e04        0x4 ./Src/STM32F10x_StdPeriph_Driver/src/stm32f10x_gpio.o
                0x0000000008009e04                GPIO_ResetBits
 .text.GPIO_PinRemapConfig
                0x0000000008009e08       0x60 ./Src/STM32F10x_StdPeriph_Driver/src/stm32f10x_gpio.o
                0x0000000008009e08                GPIO_PinRemapConfig
 .text.GPIO_EXTILineConfig
                0x0000000008009e68       0x2a ./Src/STM32F10x_StdPeriph_Driver/src/stm32f10x_gpio.o
                0x0000000008009e68                GPIO_EXTILineConfig
 *fill*         0x0000000008009e92        0x2 
 .text.I2C_DeInit
                0x0000000008009e94       0x34 ./Src/STM32F10x_StdPeriph_Driver/src/stm32f10x_i2c.o
                0x0000000008009e94                I2C_DeInit
 .text.I2C_Init
                0x0000000008009ec8       0xd4 ./Src/STM32F10x_StdPeriph_Driver/src/stm32f10x_i2c.o
                0x0000000008009ec8                I2C_Init
 .text.I2C_DMACmd
                0x0000000008009f9c       0x18 ./Src/STM32F10x_StdPeriph_Driver/src/stm32f10x_i2c.o
                0x0000000008009f9c                I2C_DMACmd
 .text.I2C_DMALastTransferCmd
                0x0000000008009fb4       0x18 ./Src/STM32F10x_StdPeriph_Driver/src/stm32f10x_i2c.o
                0x0000000008009fb4                I2C_DMALastTransferCmd
 .text.I2C_AcknowledgeConfig
                0x0000000008009fcc       0x18 ./Src/STM32F10x_StdPeriph_Driver/src/stm32f10x_i2c.o
                0x0000000008009fcc                I2C_AcknowledgeConfig
 .text.I2C_ITConfig
                0x0000000008009fe4       0x12 ./Src/STM32F10x_StdPeriph_Driver/src/stm32f10x_i2c.o
                0x0000000008009fe4                I2C_ITConfig
 .text.I2C_SendData
                0x0000000008009ff6        0x4 ./Src/STM32F10x_StdPeriph_Driver/src/stm32f10x_i2c.o
                0x0000000008009ff6                I2C_SendData
 .text.I2C_ReceiveData
                0x0000000008009ffa        0x6 ./Src/STM32F10x_StdPeriph_Driver/src/stm32f10x_i2c.o
                0x0000000008009ffa                I2C_ReceiveData
 .text.I2C_Send7bitAddress
                0x000000000800a000       0x12 ./Src/STM32F10x_StdPeriph_Driver/src/stm32f10x_i2c.o
                0x000000000800a000                I2C_Send7bitAddress
 .text.I2C_GetFlagStatus
                0x000000000800a012       0x34 ./Src/STM32F10x_StdPeriph_Driver/src/stm32f10x_i2c.o
                0x000000000800a012                I2C_GetFlagStatus
 .text.I2C_ClearFlag
                0x000000000800a046        0x8 ./Src/STM32F10x_StdPeriph_Driver/src/stm32f10x_i2c.o
                0x000000000800a046                I2C_ClearFlag
 *fill*         0x000000000800a04e        0x2 
 .text.IWDG_WriteAccessCmd
                0x000000000800a050        0xc ./Src/STM32F10x_StdPeriph_Driver/src/stm32f10x_iwdg.o
                0x000000000800a050                IWDG_WriteAccessCmd
 .text.IWDG_SetPrescaler
                0x000000000800a05c        0xc ./Src/STM32F10x_StdPeriph_Driver/src/stm32f10x_iwdg.o
                0x000000000800a05c                IWDG_SetPrescaler
 .text.IWDG_SetReload
                0x000000000800a068        0xc ./Src/STM32F10x_StdPeriph_Driver/src/stm32f10x_iwdg.o
                0x000000000800a068                IWDG_SetReload
 .text.IWDG_ReloadCounter
                0x000000000800a074       0x10 ./Src/STM32F10x_StdPeriph_Driver/src/stm32f10x_iwdg.o
                0x000000000800a074                IWDG_ReloadCounter
 .text.IWDG_Enable
                0x000000000800a084       0x10 ./Src/STM32F10x_StdPeriph_Driver/src/stm32f10x_iwdg.o
                0x000000000800a084                IWDG_Enable
 .text.RCC_ADCCLKConfig
                0x000000000800a094       0x14 ./Src/STM32F10x_StdPeriph_Driver/src/stm32f10x_rcc.o
                0x000000000800a094                RCC_ADCCLKConfig
 .text.RCC_GetClocksFreq
                0x000000000800a0a8       0x80 ./Src/STM32F10x_StdPeriph_Driver/src/stm32f10x_rcc.o
                0x000000000800a0a8                RCC_GetClocksFreq
 .text.RCC_AHBPeriphClockCmd
                0x000000000800a128       0x18 ./Src/STM32F10x_StdPeriph_Driver/src/stm32f10x_rcc.o
                0x000000000800a128                RCC_AHBPeriphClockCmd
 .text.RCC_APB2PeriphClockCmd
                0x000000000800a140       0x18 ./Src/STM32F10x_StdPeriph_Driver/src/stm32f10x_rcc.o
                0x000000000800a140                RCC_APB2PeriphClockCmd
 .text.RCC_APB1PeriphClockCmd
                0x000000000800a158       0x18 ./Src/STM32F10x_StdPeriph_Driver/src/stm32f10x_rcc.o
                0x000000000800a158                RCC_APB1PeriphClockCmd
 .text.RCC_APB1PeriphResetCmd
                0x000000000800a170       0x18 ./Src/STM32F10x_StdPeriph_Driver/src/stm32f10x_rcc.o
                0x000000000800a170                RCC_APB1PeriphResetCmd
 .text.SPI_Init
                0x000000000800a188       0x3e ./Src/STM32F10x_StdPeriph_Driver/src/stm32f10x_spi.o
                0x000000000800a188                SPI_Init
 .text.SPI_Cmd  0x000000000800a1c6       0x18 ./Src/STM32F10x_StdPeriph_Driver/src/stm32f10x_spi.o
                0x000000000800a1c6                SPI_Cmd
 .text.SPI_I2S_SendData
                0x000000000800a1de        0x4 ./Src/STM32F10x_StdPeriph_Driver/src/stm32f10x_spi.o
                0x000000000800a1de                SPI_I2S_SendData
 .text.SPI_I2S_ReceiveData
                0x000000000800a1e2        0x6 ./Src/STM32F10x_StdPeriph_Driver/src/stm32f10x_spi.o
                0x000000000800a1e2                SPI_I2S_ReceiveData
 .text.SPI_I2S_GetFlagStatus
                0x000000000800a1e8        0xc ./Src/STM32F10x_StdPeriph_Driver/src/stm32f10x_spi.o
                0x000000000800a1e8                SPI_I2S_GetFlagStatus
 .text.TI1_Config
                0x000000000800a1f4       0x6c ./Src/STM32F10x_StdPeriph_Driver/src/stm32f10x_tim.o
 .text.TI2_Config
                0x000000000800a260       0x78 ./Src/STM32F10x_StdPeriph_Driver/src/stm32f10x_tim.o
 .text.TIM_TimeBaseInit
                0x000000000800a2d8       0x94 ./Src/STM32F10x_StdPeriph_Driver/src/stm32f10x_tim.o
                0x000000000800a2d8                TIM_TimeBaseInit
 .text.TIM_OC1Init
                0x000000000800a36c       0x88 ./Src/STM32F10x_StdPeriph_Driver/src/stm32f10x_tim.o
                0x000000000800a36c                TIM_OC1Init
 .text.TIM_OC2Init
                0x000000000800a3f4       0x80 ./Src/STM32F10x_StdPeriph_Driver/src/stm32f10x_tim.o
                0x000000000800a3f4                TIM_OC2Init
 .text.TIM_OC3Init
                0x000000000800a474       0x7c ./Src/STM32F10x_StdPeriph_Driver/src/stm32f10x_tim.o
                0x000000000800a474                TIM_OC3Init
 .text.TIM_OC4Init
                0x000000000800a4f0       0x68 ./Src/STM32F10x_StdPeriph_Driver/src/stm32f10x_tim.o
                0x000000000800a4f0                TIM_OC4Init
 .text.TIM_TimeBaseStructInit
                0x000000000800a558       0x12 ./Src/STM32F10x_StdPeriph_Driver/src/stm32f10x_tim.o
                0x000000000800a558                TIM_TimeBaseStructInit
 .text.TIM_ICStructInit
                0x000000000800a56a       0x10 ./Src/STM32F10x_StdPeriph_Driver/src/stm32f10x_tim.o
                0x000000000800a56a                TIM_ICStructInit
 .text.TIM_Cmd  0x000000000800a57a       0x18 ./Src/STM32F10x_StdPeriph_Driver/src/stm32f10x_tim.o
                0x000000000800a57a                TIM_Cmd
 .text.TIM_CtrlPWMOutputs
                0x000000000800a592       0x1c ./Src/STM32F10x_StdPeriph_Driver/src/stm32f10x_tim.o
                0x000000000800a592                TIM_CtrlPWMOutputs
 .text.TIM_ITConfig
                0x000000000800a5ae       0x12 ./Src/STM32F10x_StdPeriph_Driver/src/stm32f10x_tim.o
                0x000000000800a5ae                TIM_ITConfig
 .text.TIM_EncoderInterfaceConfig
                0x000000000800a5c0       0x3e ./Src/STM32F10x_StdPeriph_Driver/src/stm32f10x_tim.o
                0x000000000800a5c0                TIM_EncoderInterfaceConfig
 .text.TIM_OC1PreloadConfig
                0x000000000800a5fe       0x10 ./Src/STM32F10x_StdPeriph_Driver/src/stm32f10x_tim.o
                0x000000000800a5fe                TIM_OC1PreloadConfig
 .text.TIM_OC2PreloadConfig
                0x000000000800a60e       0x14 ./Src/STM32F10x_StdPeriph_Driver/src/stm32f10x_tim.o
                0x000000000800a60e                TIM_OC2PreloadConfig
 .text.TIM_OC3PreloadConfig
                0x000000000800a622       0x10 ./Src/STM32F10x_StdPeriph_Driver/src/stm32f10x_tim.o
                0x000000000800a622                TIM_OC3PreloadConfig
 .text.TIM_OC4PreloadConfig
                0x000000000800a632       0x14 ./Src/STM32F10x_StdPeriph_Driver/src/stm32f10x_tim.o
                0x000000000800a632                TIM_OC4PreloadConfig
 .text.TIM_SetCounter
                0x000000000800a646        0x4 ./Src/STM32F10x_StdPeriph_Driver/src/stm32f10x_tim.o
                0x000000000800a646                TIM_SetCounter
 .text.TIM_SetIC1Prescaler
                0x000000000800a64a       0x16 ./Src/STM32F10x_StdPeriph_Driver/src/stm32f10x_tim.o
                0x000000000800a64a                TIM_SetIC1Prescaler
 .text.TIM_SetIC2Prescaler
                0x000000000800a660       0x1a ./Src/STM32F10x_StdPeriph_Driver/src/stm32f10x_tim.o
                0x000000000800a660                TIM_SetIC2Prescaler
 .text.TIM_SetIC3Prescaler
                0x000000000800a67a       0x16 ./Src/STM32F10x_StdPeriph_Driver/src/stm32f10x_tim.o
                0x000000000800a67a                TIM_SetIC3Prescaler
 .text.TIM_SetIC4Prescaler
                0x000000000800a690       0x1a ./Src/STM32F10x_StdPeriph_Driver/src/stm32f10x_tim.o
                0x000000000800a690                TIM_SetIC4Prescaler
 *fill*         0x000000000800a6aa        0x2 
 .text.TIM_ICInit
                0x000000000800a6ac      0x12c ./Src/STM32F10x_StdPeriph_Driver/src/stm32f10x_tim.o
                0x000000000800a6ac                TIM_ICInit
 .text.TIM_ClearFlag
                0x000000000800a7d8        0x8 ./Src/STM32F10x_StdPeriph_Driver/src/stm32f10x_tim.o
                0x000000000800a7d8                TIM_ClearFlag
 .text.TIM_GetITStatus
                0x000000000800a7e0       0x16 ./Src/STM32F10x_StdPeriph_Driver/src/stm32f10x_tim.o
                0x000000000800a7e0                TIM_GetITStatus
 .text.TIM_ClearITPendingBit
                0x000000000800a7f6        0x8 ./Src/STM32F10x_StdPeriph_Driver/src/stm32f10x_tim.o
                0x000000000800a7f6                TIM_ClearITPendingBit
 *fill*         0x000000000800a7fe        0x2 
 .text.USART_Init
                0x000000000800a800       0xa4 ./Src/STM32F10x_StdPeriph_Driver/src/stm32f10x_usart.o
                0x000000000800a800                USART_Init
 .text.USART_ClockInit
                0x000000000800a8a4       0x20 ./Src/STM32F10x_StdPeriph_Driver/src/stm32f10x_usart.o
                0x000000000800a8a4                USART_ClockInit
 .text.USART_Cmd
                0x000000000800a8c4       0x18 ./Src/STM32F10x_StdPeriph_Driver/src/stm32f10x_usart.o
                0x000000000800a8c4                USART_Cmd
 .text.USART_ITConfig
                0x000000000800a8dc       0x32 ./Src/STM32F10x_StdPeriph_Driver/src/stm32f10x_usart.o
                0x000000000800a8dc                USART_ITConfig
 .text.USART_SendData
                0x000000000800a90e        0x8 ./Src/STM32F10x_StdPeriph_Driver/src/stm32f10x_usart.o
                0x000000000800a90e                USART_SendData
 .text.USART_ReceiveData
                0x000000000800a916        0x8 ./Src/STM32F10x_StdPeriph_Driver/src/stm32f10x_usart.o
                0x000000000800a916                USART_ReceiveData
 .text.USART_GetFlagStatus
                0x000000000800a91e        0xc ./Src/STM32F10x_StdPeriph_Driver/src/stm32f10x_usart.o
                0x000000000800a91e                USART_GetFlagStatus
 .text.USART_GetITStatus
                0x000000000800a92a       0x3c ./Src/STM32F10x_StdPeriph_Driver/src/stm32f10x_usart.o
                0x000000000800a92a                USART_GetITStatus
 *fill*         0x000000000800a966        0x2 
 .text.lpf2pSetCutoffFreq
                0x000000000800a968       0x98 ./Src/System/filter.o
                0x000000000800a968                lpf2pSetCutoffFreq
 .text.lpf2pInit
                0x000000000800aa00       0x24 ./Src/System/filter.o
                0x000000000800aa00                lpf2pInit
 .text.nrf_interruptCallback
                0x000000000800aa24       0x1c ./Src/System/radio.o
 .text.radiolinkInit
                0x000000000800aa40       0x64 ./Src/System/radio.o
                0x000000000800aa40                radiolinkInit
 *fill*         0x000000000800aaa4        0x4 
 .text.ParseRadioMsg
                0x000000000800aaa8      0x2e4 ./Src/System/radio.o
                0x000000000800aaa8                ParseRadioMsg
 .text.RadioTask
                0x000000000800ad8c      0x100 ./Src/System/radio.o
                0x000000000800ad8c                RadioTask
 .text.radiolinkConnectStatus
                0x000000000800ae8c        0xc ./Src/System/radio.o
                0x000000000800ae8c                radiolinkConnectStatus
 .text.sensorsReadGyro
                0x000000000800ae98       0x1c ./Src/System/sensors.o
                0x000000000800ae98                sensorsReadGyro
 .text.sensorsReadAcc
                0x000000000800aeb4       0x1c ./Src/System/sensors.o
                0x000000000800aeb4                sensorsReadAcc
 .text.sensorsReadMag
                0x000000000800aed0       0x1c ./Src/System/sensors.o
                0x000000000800aed0                sensorsReadMag
 .text.sensorsInterruptInit
                0x000000000800aeec       0x70 ./Src/System/sensors.o
                0x000000000800aeec                sensorsInterruptInit
 .text.sensorsDeviceInit
                0x000000000800af5c      0x128 ./Src/System/sensors.o
                0x000000000800af5c                sensorsDeviceInit
 .text.sensorsInit
                0x000000000800b084       0x3c ./Src/System/sensors.o
                0x000000000800b084                sensorsInit
 .text.sensorsSetupSlaveRead
                0x000000000800b0c0       0x7c ./Src/System/sensors.o
                0x000000000800b0c0                sensorsSetupSlaveRead
 .text.Get_AccGyroData
                0x000000000800b13c       0xdc ./Src/System/sensors.o
                0x000000000800b13c                Get_AccGyroData
 .text.Get_MagData
                0x000000000800b218       0x40 ./Src/System/sensors.o
                0x000000000800b218                Get_MagData
 .text.sensorsAcquire
                0x000000000800b258       0x1c ./Src/System/sensors.o
                0x000000000800b258                sensorsAcquire
 *fill*         0x000000000800b274        0x4 
 .text.SensorTask
                0x000000000800b278      0x2f0 ./Src/System/sensors.o
                0x000000000800b278                SensorTask
 .text.EXTI2_IRQHandler
                0x000000000800b568       0x44 ./Src/System/sensors.o
                0x000000000800b568                EXTI2_IRQHandler
 .text.scan_files
                0x000000000800b5ac       0x88 ./Src/System/utils.o
                0x000000000800b5ac                scan_files
 .text.FileSystem_Init
                0x000000000800b634      0x134 ./Src/System/utils.o
                0x000000000800b634                FileSystem_Init
 .text.assertFail
                0x000000000800b768       0x30 ./Src/System/utils.o
                0x000000000800b768                assertFail
 .text.CRC_Table
                0x000000000800b798       0x2c ./Src/System/utils.o
                0x000000000800b798                CRC_Table
 .text.startTask
                0x000000000800b7c4      0x120 ./Src/User/main.o
 .text.startup.main
                0x000000000800b8e4       0xb4 ./Src/User/main.o
                0x000000000800b8e4                main
 .text.vApplicationIdleHook
                0x000000000800b998        0x4 ./Src/User/main.o
                0x000000000800b998                vApplicationIdleHook
 .text.vApplicationMallocFailedHook
                0x000000000800b99c       0x2c ./Src/User/main.o
                0x000000000800b99c                vApplicationMallocFailedHook
 .text.vApplicationStackOverflowHook
                0x000000000800b9c8       0x2c ./Src/User/main.o
                0x000000000800b9c8                vApplicationStackOverflowHook
 .text.NMI_Handler
                0x000000000800b9f4        0x2 ./Src/User/stm32f10x_it.o
                0x000000000800b9f4                NMI_Handler
 .text.MemManage_Handler
                0x000000000800b9f6        0x2 ./Src/User/stm32f10x_it.o
                0x000000000800b9f6                MemManage_Handler
 .text.BusFault_Handler
                0x000000000800b9f8        0x2 ./Src/User/stm32f10x_it.o
                0x000000000800b9f8                BusFault_Handler
 .text.UsageFault_Handler
                0x000000000800b9fa        0x2 ./Src/User/stm32f10x_it.o
                0x000000000800b9fa                UsageFault_Handler
 .text.DebugMon_Handler
                0x000000000800b9fc        0x2 ./Src/User/stm32f10x_it.o
                0x000000000800b9fc                DebugMon_Handler
 *fill*         0x000000000800b9fe        0x2 
 .text.SysTick_Handler
                0x000000000800ba00       0x20 ./Src/User/stm32f10x_it.o
                0x000000000800ba00                SysTick_Handler
 .text.getSysTickCnt
                0x000000000800ba20       0x1c ./Src/User/stm32f10x_it.o
                0x000000000800ba20                getSysTickCnt
 *fill*         0x000000000800ba3c        0x4 
 .text.atan     0x000000000800ba40      0x314 D:/Program Files/STM32CubeIDE_1.10.1/STM32CubeIDE/plugins/com.st.stm32cube.ide.mcu.externaltools.gnu-tools-for-stm32.11.3.rel1.win32_1.1.1.202309131626/tools/bin/../lib/gcc/arm-none-eabi/11.3.1/../../../../arm-none-eabi/lib/thumb/v7-m/nofp\libm.a(libm_a-s_atan.o)
                0x000000000800ba40                atan
 .text.fabs     0x000000000800bd54        0x8 D:/Program Files/STM32CubeIDE_1.10.1/STM32CubeIDE/plugins/com.st.stm32cube.ide.mcu.externaltools.gnu-tools-for-stm32.11.3.rel1.win32_1.1.1.202309131626/tools/bin/../lib/gcc/arm-none-eabi/11.3.1/../../../../arm-none-eabi/lib/thumb/v7-m/nofp\libm.a(libm_a-s_fabs.o)
                0x000000000800bd54                fabs
 .text.tanf     0x000000000800bd5c       0x4c D:/Program Files/STM32CubeIDE_1.10.1/STM32CubeIDE/plugins/com.st.stm32cube.ide.mcu.externaltools.gnu-tools-for-stm32.11.3.rel1.win32_1.1.1.202309131626/tools/bin/../lib/gcc/arm-none-eabi/11.3.1/../../../../arm-none-eabi/lib/thumb/v7-m/nofp\libm.a(libm_a-sf_tan.o)
                0x000000000800bd5c                tanf
 .text.__kernel_tanf
                0x000000000800bda8      0x258 D:/Program Files/STM32CubeIDE_1.10.1/STM32CubeIDE/plugins/com.st.stm32cube.ide.mcu.externaltools.gnu-tools-for-stm32.11.3.rel1.win32_1.1.1.202309131626/tools/bin/../lib/gcc/arm-none-eabi/11.3.1/../../../../arm-none-eabi/lib/thumb/v7-m/nofp\libm.a(libm_a-kf_tan.o)
                0x000000000800bda8                __kernel_tanf
 .text.__ieee754_rem_pio2f
                0x000000000800c000      0x2bc D:/Program Files/STM32CubeIDE_1.10.1/STM32CubeIDE/plugins/com.st.stm32cube.ide.mcu.externaltools.gnu-tools-for-stm32.11.3.rel1.win32_1.1.1.202309131626/tools/bin/../lib/gcc/arm-none-eabi/11.3.1/../../../../arm-none-eabi/lib/thumb/v7-m/nofp\libm.a(libm_a-ef_rem_pio2.o)
                0x000000000800c000                __ieee754_rem_pio2f
 .text.fabsf    0x000000000800c2bc        0x6 D:/Program Files/STM32CubeIDE_1.10.1/STM32CubeIDE/plugins/com.st.stm32cube.ide.mcu.externaltools.gnu-tools-for-stm32.11.3.rel1.win32_1.1.1.202309131626/tools/bin/../lib/gcc/arm-none-eabi/11.3.1/../../../../arm-none-eabi/lib/thumb/v7-m/nofp\libm.a(libm_a-sf_fabs.o)
                0x000000000800c2bc                fabsf
 *fill*         0x000000000800c2c2        0x2 
 .text.__kernel_rem_pio2f
                0x000000000800c2c4      0x568 D:/Program Files/STM32CubeIDE_1.10.1/STM32CubeIDE/plugins/com.st.stm32cube.ide.mcu.externaltools.gnu-tools-for-stm32.11.3.rel1.win32_1.1.1.202309131626/tools/bin/../lib/gcc/arm-none-eabi/11.3.1/../../../../arm-none-eabi/lib/thumb/v7-m/nofp\libm.a(libm_a-kf_rem_pio2.o)
                0x000000000800c2c4                __kernel_rem_pio2f
 .text.scalbnf  0x000000000800c82c       0x98 D:/Program Files/STM32CubeIDE_1.10.1/STM32CubeIDE/plugins/com.st.stm32cube.ide.mcu.externaltools.gnu-tools-for-stm32.11.3.rel1.win32_1.1.1.202309131626/tools/bin/../lib/gcc/arm-none-eabi/11.3.1/../../../../arm-none-eabi/lib/thumb/v7-m/nofp\libm.a(libm_a-sf_scalbn.o)
                0x000000000800c82c                scalbnf
 .text.floorf   0x000000000800c8c4       0x80 D:/Program Files/STM32CubeIDE_1.10.1/STM32CubeIDE/plugins/com.st.stm32cube.ide.mcu.externaltools.gnu-tools-for-stm32.11.3.rel1.win32_1.1.1.202309131626/tools/bin/../lib/gcc/arm-none-eabi/11.3.1/../../../../arm-none-eabi/lib/thumb/v7-m/nofp\libm.a(libm_a-sf_floor.o)
                0x000000000800c8c4                floorf
 .text.__cvt    0x000000000800c944       0xbe D:/Program Files/STM32CubeIDE_1.10.1/STM32CubeIDE/plugins/com.st.stm32cube.ide.mcu.externaltools.gnu-tools-for-stm32.11.3.rel1.win32_1.1.1.202309131626/tools/bin/../lib/gcc/arm-none-eabi/11.3.1/../../../../arm-none-eabi/lib/thumb/v7-m/nofp\libc_nano.a(libc_a-nano-vfprintf_float.o)
                0x000000000800c944                __cvt
 .text.__exponent
                0x000000000800ca02       0x7a D:/Program Files/STM32CubeIDE_1.10.1/STM32CubeIDE/plugins/com.st.stm32cube.ide.mcu.externaltools.gnu-tools-for-stm32.11.3.rel1.win32_1.1.1.202309131626/tools/bin/../lib/gcc/arm-none-eabi/11.3.1/../../../../arm-none-eabi/lib/thumb/v7-m/nofp\libc_nano.a(libc_a-nano-vfprintf_float.o)
                0x000000000800ca02                __exponent
 .text._printf_float
                0x000000000800ca7c      0x45c D:/Program Files/STM32CubeIDE_1.10.1/STM32CubeIDE/plugins/com.st.stm32cube.ide.mcu.externaltools.gnu-tools-for-stm32.11.3.rel1.win32_1.1.1.202309131626/tools/bin/../lib/gcc/arm-none-eabi/11.3.1/../../../../arm-none-eabi/lib/thumb/v7-m/nofp\libc_nano.a(libc_a-nano-vfprintf_float.o)
                0x000000000800ca7c                _printf_float
 .text._printf_common
                0x000000000800ced8       0xe4 D:/Program Files/STM32CubeIDE_1.10.1/STM32CubeIDE/plugins/com.st.stm32cube.ide.mcu.externaltools.gnu-tools-for-stm32.11.3.rel1.win32_1.1.1.202309131626/tools/bin/../lib/gcc/arm-none-eabi/11.3.1/../../../../arm-none-eabi/lib/thumb/v7-m/nofp\libc_nano.a(libc_a-nano-vfprintf_i.o)
                0x000000000800ced8                _printf_common
 .text._printf_i
                0x000000000800cfbc      0x244 D:/Program Files/STM32CubeIDE_1.10.1/STM32CubeIDE/plugins/com.st.stm32cube.ide.mcu.externaltools.gnu-tools-for-stm32.11.3.rel1.win32_1.1.1.202309131626/tools/bin/../lib/gcc/arm-none-eabi/11.3.1/../../../../arm-none-eabi/lib/thumb/v7-m/nofp\libc_nano.a(libc_a-nano-vfprintf_i.o)
                0x000000000800cfbc                _printf_i
 .text._scanf_float
                0x000000000800d200      0x41c D:/Program Files/STM32CubeIDE_1.10.1/STM32CubeIDE/plugins/com.st.stm32cube.ide.mcu.externaltools.gnu-tools-for-stm32.11.3.rel1.win32_1.1.1.202309131626/tools/bin/../lib/gcc/arm-none-eabi/11.3.1/../../../../arm-none-eabi/lib/thumb/v7-m/nofp\libc_nano.a(libc_a-nano-vfscanf_float.o)
                0x000000000800d200                _scanf_float
 .text.std      0x000000000800d61c       0x6c D:/Program Files/STM32CubeIDE_1.10.1/STM32CubeIDE/plugins/com.st.stm32cube.ide.mcu.externaltools.gnu-tools-for-stm32.11.3.rel1.win32_1.1.1.202309131626/tools/bin/../lib/gcc/arm-none-eabi/11.3.1/../../../../arm-none-eabi/lib/thumb/v7-m/nofp\libc_nano.a(libc_a-findfp.o)
 .text.stdio_exit_handler
                0x000000000800d688       0x18 D:/Program Files/STM32CubeIDE_1.10.1/STM32CubeIDE/plugins/com.st.stm32cube.ide.mcu.externaltools.gnu-tools-for-stm32.11.3.rel1.win32_1.1.1.202309131626/tools/bin/../lib/gcc/arm-none-eabi/11.3.1/../../../../arm-none-eabi/lib/thumb/v7-m/nofp\libc_nano.a(libc_a-findfp.o)
 .text.cleanup_stdio
                0x000000000800d6a0       0x40 D:/Program Files/STM32CubeIDE_1.10.1/STM32CubeIDE/plugins/com.st.stm32cube.ide.mcu.externaltools.gnu-tools-for-stm32.11.3.rel1.win32_1.1.1.202309131626/tools/bin/../lib/gcc/arm-none-eabi/11.3.1/../../../../arm-none-eabi/lib/thumb/v7-m/nofp\libc_nano.a(libc_a-findfp.o)
 .text.global_stdio_init.part.0
                0x000000000800d6e0       0x3c D:/Program Files/STM32CubeIDE_1.10.1/STM32CubeIDE/plugins/com.st.stm32cube.ide.mcu.externaltools.gnu-tools-for-stm32.11.3.rel1.win32_1.1.1.202309131626/tools/bin/../lib/gcc/arm-none-eabi/11.3.1/../../../../arm-none-eabi/lib/thumb/v7-m/nofp\libc_nano.a(libc_a-findfp.o)
 .text.__sfp_lock_acquire
                0x000000000800d71c        0xc D:/Program Files/STM32CubeIDE_1.10.1/STM32CubeIDE/plugins/com.st.stm32cube.ide.mcu.externaltools.gnu-tools-for-stm32.11.3.rel1.win32_1.1.1.202309131626/tools/bin/../lib/gcc/arm-none-eabi/11.3.1/../../../../arm-none-eabi/lib/thumb/v7-m/nofp\libc_nano.a(libc_a-findfp.o)
                0x000000000800d71c                __sfp_lock_acquire
 .text.__sfp_lock_release
                0x000000000800d728        0xc D:/Program Files/STM32CubeIDE_1.10.1/STM32CubeIDE/plugins/com.st.stm32cube.ide.mcu.externaltools.gnu-tools-for-stm32.11.3.rel1.win32_1.1.1.202309131626/tools/bin/../lib/gcc/arm-none-eabi/11.3.1/../../../../arm-none-eabi/lib/thumb/v7-m/nofp\libc_nano.a(libc_a-findfp.o)
                0x000000000800d728                __sfp_lock_release
 .text.__sinit  0x000000000800d734       0x30 D:/Program Files/STM32CubeIDE_1.10.1/STM32CubeIDE/plugins/com.st.stm32cube.ide.mcu.externaltools.gnu-tools-for-stm32.11.3.rel1.win32_1.1.1.202309131626/tools/bin/../lib/gcc/arm-none-eabi/11.3.1/../../../../arm-none-eabi/lib/thumb/v7-m/nofp\libc_nano.a(libc_a-findfp.o)
                0x000000000800d734                __sinit
 .text._fwalk_sglue
                0x000000000800d764       0x3c D:/Program Files/STM32CubeIDE_1.10.1/STM32CubeIDE/plugins/com.st.stm32cube.ide.mcu.externaltools.gnu-tools-for-stm32.11.3.rel1.win32_1.1.1.202309131626/tools/bin/../lib/gcc/arm-none-eabi/11.3.1/../../../../arm-none-eabi/lib/thumb/v7-m/nofp\libc_nano.a(libc_a-fwalk.o)
                0x000000000800d764                _fwalk_sglue
 .text.printf   0x000000000800d7a0       0x24 D:/Program Files/STM32CubeIDE_1.10.1/STM32CubeIDE/plugins/com.st.stm32cube.ide.mcu.externaltools.gnu-tools-for-stm32.11.3.rel1.win32_1.1.1.202309131626/tools/bin/../lib/gcc/arm-none-eabi/11.3.1/../../../../arm-none-eabi/lib/thumb/v7-m/nofp\libc_nano.a(libc_a-printf.o)
                0x000000000800d7a0                iprintf
                0x000000000800d7a0                printf
 .text._puts_r  0x000000000800d7c4       0xa8 D:/Program Files/STM32CubeIDE_1.10.1/STM32CubeIDE/plugins/com.st.stm32cube.ide.mcu.externaltools.gnu-tools-for-stm32.11.3.rel1.win32_1.1.1.202309131626/tools/bin/../lib/gcc/arm-none-eabi/11.3.1/../../../../arm-none-eabi/lib/thumb/v7-m/nofp\libc_nano.a(libc_a-puts.o)
                0x000000000800d7c4                _puts_r
 .text.puts     0x000000000800d86c       0x10 D:/Program Files/STM32CubeIDE_1.10.1/STM32CubeIDE/plugins/com.st.stm32cube.ide.mcu.externaltools.gnu-tools-for-stm32.11.3.rel1.win32_1.1.1.202309131626/tools/bin/../lib/gcc/arm-none-eabi/11.3.1/../../../../arm-none-eabi/lib/thumb/v7-m/nofp\libc_nano.a(libc_a-puts.o)
                0x000000000800d86c                puts
 .text.sprintf  0x000000000800d87c       0x40 D:/Program Files/STM32CubeIDE_1.10.1/STM32CubeIDE/plugins/com.st.stm32cube.ide.mcu.externaltools.gnu-tools-for-stm32.11.3.rel1.win32_1.1.1.202309131626/tools/bin/../lib/gcc/arm-none-eabi/11.3.1/../../../../arm-none-eabi/lib/thumb/v7-m/nofp\libc_nano.a(libc_a-sprintf.o)
                0x000000000800d87c                siprintf
                0x000000000800d87c                sprintf
 .text.__sread  0x000000000800d8bc       0x22 D:/Program Files/STM32CubeIDE_1.10.1/STM32CubeIDE/plugins/com.st.stm32cube.ide.mcu.externaltools.gnu-tools-for-stm32.11.3.rel1.win32_1.1.1.202309131626/tools/bin/../lib/gcc/arm-none-eabi/11.3.1/../../../../arm-none-eabi/lib/thumb/v7-m/nofp\libc_nano.a(libc_a-stdio.o)
                0x000000000800d8bc                __sread
 .text.__swrite
                0x000000000800d8de       0x38 D:/Program Files/STM32CubeIDE_1.10.1/STM32CubeIDE/plugins/com.st.stm32cube.ide.mcu.externaltools.gnu-tools-for-stm32.11.3.rel1.win32_1.1.1.202309131626/tools/bin/../lib/gcc/arm-none-eabi/11.3.1/../../../../arm-none-eabi/lib/thumb/v7-m/nofp\libc_nano.a(libc_a-stdio.o)
                0x000000000800d8de                __swrite
 .text.__sseek  0x000000000800d916       0x24 D:/Program Files/STM32CubeIDE_1.10.1/STM32CubeIDE/plugins/com.st.stm32cube.ide.mcu.externaltools.gnu-tools-for-stm32.11.3.rel1.win32_1.1.1.202309131626/tools/bin/../lib/gcc/arm-none-eabi/11.3.1/../../../../arm-none-eabi/lib/thumb/v7-m/nofp\libc_nano.a(libc_a-stdio.o)
                0x000000000800d916                __sseek
 .text.__sclose
                0x000000000800d93a        0x8 D:/Program Files/STM32CubeIDE_1.10.1/STM32CubeIDE/plugins/com.st.stm32cube.ide.mcu.externaltools.gnu-tools-for-stm32.11.3.rel1.win32_1.1.1.202309131626/tools/bin/../lib/gcc/arm-none-eabi/11.3.1/../../../../arm-none-eabi/lib/thumb/v7-m/nofp\libc_nano.a(libc_a-stdio.o)
                0x000000000800d93a                __sclose
 .text.__swbuf_r
                0x000000000800d942       0x7a D:/Program Files/STM32CubeIDE_1.10.1/STM32CubeIDE/plugins/com.st.stm32cube.ide.mcu.externaltools.gnu-tools-for-stm32.11.3.rel1.win32_1.1.1.202309131626/tools/bin/../lib/gcc/arm-none-eabi/11.3.1/../../../../arm-none-eabi/lib/thumb/v7-m/nofp\libc_nano.a(libc_a-wbuf.o)
                0x000000000800d942                __swbuf_r
 .text.__swsetup_r
                0x000000000800d9bc       0xb0 D:/Program Files/STM32CubeIDE_1.10.1/STM32CubeIDE/plugins/com.st.stm32cube.ide.mcu.externaltools.gnu-tools-for-stm32.11.3.rel1.win32_1.1.1.202309131626/tools/bin/../lib/gcc/arm-none-eabi/11.3.1/../../../../arm-none-eabi/lib/thumb/v7-m/nofp\libc_nano.a(libc_a-wsetup.o)
                0x000000000800d9bc                __swsetup_r
 .text.memset   0x000000000800da6c       0x10 D:/Program Files/STM32CubeIDE_1.10.1/STM32CubeIDE/plugins/com.st.stm32cube.ide.mcu.externaltools.gnu-tools-for-stm32.11.3.rel1.win32_1.1.1.202309131626/tools/bin/../lib/gcc/arm-none-eabi/11.3.1/../../../../arm-none-eabi/lib/thumb/v7-m/nofp\libc_nano.a(libc_a-memset.o)
                0x000000000800da6c                memset
 .text._localeconv_r
                0x000000000800da7c        0x8 D:/Program Files/STM32CubeIDE_1.10.1/STM32CubeIDE/plugins/com.st.stm32cube.ide.mcu.externaltools.gnu-tools-for-stm32.11.3.rel1.win32_1.1.1.202309131626/tools/bin/../lib/gcc/arm-none-eabi/11.3.1/../../../../arm-none-eabi/lib/thumb/v7-m/nofp\libc_nano.a(libc_a-localeconv.o)
                0x000000000800da7c                _localeconv_r
 .text._close_r
                0x000000000800da84       0x20 D:/Program Files/STM32CubeIDE_1.10.1/STM32CubeIDE/plugins/com.st.stm32cube.ide.mcu.externaltools.gnu-tools-for-stm32.11.3.rel1.win32_1.1.1.202309131626/tools/bin/../lib/gcc/arm-none-eabi/11.3.1/../../../../arm-none-eabi/lib/thumb/v7-m/nofp\libc_nano.a(libc_a-closer.o)
                0x000000000800da84                _close_r
 .text._lseek_r
                0x000000000800daa4       0x24 D:/Program Files/STM32CubeIDE_1.10.1/STM32CubeIDE/plugins/com.st.stm32cube.ide.mcu.externaltools.gnu-tools-for-stm32.11.3.rel1.win32_1.1.1.202309131626/tools/bin/../lib/gcc/arm-none-eabi/11.3.1/../../../../arm-none-eabi/lib/thumb/v7-m/nofp\libc_nano.a(libc_a-lseekr.o)
                0x000000000800daa4                _lseek_r
 .text._read_r  0x000000000800dac8       0x24 D:/Program Files/STM32CubeIDE_1.10.1/STM32CubeIDE/plugins/com.st.stm32cube.ide.mcu.externaltools.gnu-tools-for-stm32.11.3.rel1.win32_1.1.1.202309131626/tools/bin/../lib/gcc/arm-none-eabi/11.3.1/../../../../arm-none-eabi/lib/thumb/v7-m/nofp\libc_nano.a(libc_a-readr.o)
                0x000000000800dac8                _read_r
 .text._write_r
                0x000000000800daec       0x24 D:/Program Files/STM32CubeIDE_1.10.1/STM32CubeIDE/plugins/com.st.stm32cube.ide.mcu.externaltools.gnu-tools-for-stm32.11.3.rel1.win32_1.1.1.202309131626/tools/bin/../lib/gcc/arm-none-eabi/11.3.1/../../../../arm-none-eabi/lib/thumb/v7-m/nofp\libc_nano.a(libc_a-writer.o)
                0x000000000800daec                _write_r
 .text.__errno  0x000000000800db10        0xc D:/Program Files/STM32CubeIDE_1.10.1/STM32CubeIDE/plugins/com.st.stm32cube.ide.mcu.externaltools.gnu-tools-for-stm32.11.3.rel1.win32_1.1.1.202309131626/tools/bin/../lib/gcc/arm-none-eabi/11.3.1/../../../../arm-none-eabi/lib/thumb/v7-m/nofp\libc_nano.a(libc_a-errno.o)
                0x000000000800db10                __errno
 .text.__retarget_lock_init_recursive
                0x000000000800db1c        0x2 D:/Program Files/STM32CubeIDE_1.10.1/STM32CubeIDE/plugins/com.st.stm32cube.ide.mcu.externaltools.gnu-tools-for-stm32.11.3.rel1.win32_1.1.1.202309131626/tools/bin/../lib/gcc/arm-none-eabi/11.3.1/../../../../arm-none-eabi/lib/thumb/v7-m/nofp\libc_nano.a(libc_a-lock.o)
                0x000000000800db1c                __retarget_lock_init_recursive
 .text.__retarget_lock_acquire_recursive
                0x000000000800db1e        0x2 D:/Program Files/STM32CubeIDE_1.10.1/STM32CubeIDE/plugins/com.st.stm32cube.ide.mcu.externaltools.gnu-tools-for-stm32.11.3.rel1.win32_1.1.1.202309131626/tools/bin/../lib/gcc/arm-none-eabi/11.3.1/../../../../arm-none-eabi/lib/thumb/v7-m/nofp\libc_nano.a(libc_a-lock.o)
                0x000000000800db1e                __retarget_lock_acquire_recursive
 .text.__retarget_lock_release_recursive
                0x000000000800db20        0x2 D:/Program Files/STM32CubeIDE_1.10.1/STM32CubeIDE/plugins/com.st.stm32cube.ide.mcu.externaltools.gnu-tools-for-stm32.11.3.rel1.win32_1.1.1.202309131626/tools/bin/../lib/gcc/arm-none-eabi/11.3.1/../../../../arm-none-eabi/lib/thumb/v7-m/nofp\libc_nano.a(libc_a-lock.o)
                0x000000000800db20                __retarget_lock_release_recursive
 .text.strcpy   0x000000000800db22       0x10 D:/Program Files/STM32CubeIDE_1.10.1/STM32CubeIDE/plugins/com.st.stm32cube.ide.mcu.externaltools.gnu-tools-for-stm32.11.3.rel1.win32_1.1.1.202309131626/tools/bin/../lib/gcc/arm-none-eabi/11.3.1/../../../../arm-none-eabi/lib/thumb/v7-m/nofp\libc_nano.a(libc_a-strcpy.o)
                0x000000000800db22                strcpy
 .text.memchr   0x000000000800db32       0x1c D:/Program Files/STM32CubeIDE_1.10.1/STM32CubeIDE/plugins/com.st.stm32cube.ide.mcu.externaltools.gnu-tools-for-stm32.11.3.rel1.win32_1.1.1.202309131626/tools/bin/../lib/gcc/arm-none-eabi/11.3.1/../../../../arm-none-eabi/lib/thumb/v7-m/nofp\libc_nano.a(libc_a-memchr-stub.o)
                0x000000000800db32                memchr
 .text.memcpy   0x000000000800db4e       0x1c D:/Program Files/STM32CubeIDE_1.10.1/STM32CubeIDE/plugins/com.st.stm32cube.ide.mcu.externaltools.gnu-tools-for-stm32.11.3.rel1.win32_1.1.1.202309131626/tools/bin/../lib/gcc/arm-none-eabi/11.3.1/../../../../arm-none-eabi/lib/thumb/v7-m/nofp\libc_nano.a(libc_a-memcpy-stub.o)
                0x000000000800db4e                memcpy
 *fill*         0x000000000800db6a        0x2 
 .text.nanf     0x000000000800db6c        0x8 D:/Program Files/STM32CubeIDE_1.10.1/STM32CubeIDE/plugins/com.st.stm32cube.ide.mcu.externaltools.gnu-tools-for-stm32.11.3.rel1.win32_1.1.1.202309131626/tools/bin/../lib/gcc/arm-none-eabi/11.3.1/../../../../arm-none-eabi/lib/thumb/v7-m/nofp\libc_nano.a(libm_a-sf_nan.o)
                0x000000000800db6c                nanf
 .text.quorem   0x000000000800db74      0x112 D:/Program Files/STM32CubeIDE_1.10.1/STM32CubeIDE/plugins/com.st.stm32cube.ide.mcu.externaltools.gnu-tools-for-stm32.11.3.rel1.win32_1.1.1.202309131626/tools/bin/../lib/gcc/arm-none-eabi/11.3.1/../../../../arm-none-eabi/lib/thumb/v7-m/nofp\libc_nano.a(libc_a-dtoa.o)
 *fill*         0x000000000800dc86        0x2 
 .text._dtoa_r  0x000000000800dc88      0xbc8 D:/Program Files/STM32CubeIDE_1.10.1/STM32CubeIDE/plugins/com.st.stm32cube.ide.mcu.externaltools.gnu-tools-for-stm32.11.3.rel1.win32_1.1.1.202309131626/tools/bin/../lib/gcc/arm-none-eabi/11.3.1/../../../../arm-none-eabi/lib/thumb/v7-m/nofp\libc_nano.a(libc_a-dtoa.o)
                0x000000000800dc88                _dtoa_r
 .text._free_r  0x000000000800e850       0x90 D:/Program Files/STM32CubeIDE_1.10.1/STM32CubeIDE/plugins/com.st.stm32cube.ide.mcu.externaltools.gnu-tools-for-stm32.11.3.rel1.win32_1.1.1.202309131626/tools/bin/../lib/gcc/arm-none-eabi/11.3.1/../../../../arm-none-eabi/lib/thumb/v7-m/nofp\libc_nano.a(libc_a-freer.o)
                0x000000000800e850                _free_r
 .text.malloc   0x000000000800e8e0       0x10 D:/Program Files/STM32CubeIDE_1.10.1/STM32CubeIDE/plugins/com.st.stm32cube.ide.mcu.externaltools.gnu-tools-for-stm32.11.3.rel1.win32_1.1.1.202309131626/tools/bin/../lib/gcc/arm-none-eabi/11.3.1/../../../../arm-none-eabi/lib/thumb/v7-m/nofp\libc_nano.a(libc_a-malloc.o)
                0x000000000800e8e0                malloc
 .text.sbrk_aligned
                0x000000000800e8f0       0x40 D:/Program Files/STM32CubeIDE_1.10.1/STM32CubeIDE/plugins/com.st.stm32cube.ide.mcu.externaltools.gnu-tools-for-stm32.11.3.rel1.win32_1.1.1.202309131626/tools/bin/../lib/gcc/arm-none-eabi/11.3.1/../../../../arm-none-eabi/lib/thumb/v7-m/nofp\libc_nano.a(libc_a-mallocr.o)
 .text._malloc_r
                0x000000000800e930      0x100 D:/Program Files/STM32CubeIDE_1.10.1/STM32CubeIDE/plugins/com.st.stm32cube.ide.mcu.externaltools.gnu-tools-for-stm32.11.3.rel1.win32_1.1.1.202309131626/tools/bin/../lib/gcc/arm-none-eabi/11.3.1/../../../../arm-none-eabi/lib/thumb/v7-m/nofp\libc_nano.a(libc_a-mallocr.o)
                0x000000000800e930                _malloc_r
 .text.__malloc_lock
                0x000000000800ea30        0xc D:/Program Files/STM32CubeIDE_1.10.1/STM32CubeIDE/plugins/com.st.stm32cube.ide.mcu.externaltools.gnu-tools-for-stm32.11.3.rel1.win32_1.1.1.202309131626/tools/bin/../lib/gcc/arm-none-eabi/11.3.1/../../../../arm-none-eabi/lib/thumb/v7-m/nofp\libc_nano.a(libc_a-mlock.o)
                0x000000000800ea30                __malloc_lock
 .text.__malloc_unlock
                0x000000000800ea3c        0xc D:/Program Files/STM32CubeIDE_1.10.1/STM32CubeIDE/plugins/com.st.stm32cube.ide.mcu.externaltools.gnu-tools-for-stm32.11.3.rel1.win32_1.1.1.202309131626/tools/bin/../lib/gcc/arm-none-eabi/11.3.1/../../../../arm-none-eabi/lib/thumb/v7-m/nofp\libc_nano.a(libc_a-mlock.o)
                0x000000000800ea3c                __malloc_unlock
 .text._Balloc  0x000000000800ea48       0x80 D:/Program Files/STM32CubeIDE_1.10.1/STM32CubeIDE/plugins/com.st.stm32cube.ide.mcu.externaltools.gnu-tools-for-stm32.11.3.rel1.win32_1.1.1.202309131626/tools/bin/../lib/gcc/arm-none-eabi/11.3.1/../../../../arm-none-eabi/lib/thumb/v7-m/nofp\libc_nano.a(libc_a-mprec.o)
                0x000000000800ea48                _Balloc
 .text._Bfree   0x000000000800eac8       0x44 D:/Program Files/STM32CubeIDE_1.10.1/STM32CubeIDE/plugins/com.st.stm32cube.ide.mcu.externaltools.gnu-tools-for-stm32.11.3.rel1.win32_1.1.1.202309131626/tools/bin/../lib/gcc/arm-none-eabi/11.3.1/../../../../arm-none-eabi/lib/thumb/v7-m/nofp\libc_nano.a(libc_a-mprec.o)
                0x000000000800eac8                _Bfree
 .text.__multadd
                0x000000000800eb0c       0x8c D:/Program Files/STM32CubeIDE_1.10.1/STM32CubeIDE/plugins/com.st.stm32cube.ide.mcu.externaltools.gnu-tools-for-stm32.11.3.rel1.win32_1.1.1.202309131626/tools/bin/../lib/gcc/arm-none-eabi/11.3.1/../../../../arm-none-eabi/lib/thumb/v7-m/nofp\libc_nano.a(libc_a-mprec.o)
                0x000000000800eb0c                __multadd
 .text.__s2b    0x000000000800eb98       0x94 D:/Program Files/STM32CubeIDE_1.10.1/STM32CubeIDE/plugins/com.st.stm32cube.ide.mcu.externaltools.gnu-tools-for-stm32.11.3.rel1.win32_1.1.1.202309131626/tools/bin/../lib/gcc/arm-none-eabi/11.3.1/../../../../arm-none-eabi/lib/thumb/v7-m/nofp\libc_nano.a(libc_a-mprec.o)
                0x000000000800eb98                __s2b
 .text.__hi0bits
                0x000000000800ec2c       0x40 D:/Program Files/STM32CubeIDE_1.10.1/STM32CubeIDE/plugins/com.st.stm32cube.ide.mcu.externaltools.gnu-tools-for-stm32.11.3.rel1.win32_1.1.1.202309131626/tools/bin/../lib/gcc/arm-none-eabi/11.3.1/../../../../arm-none-eabi/lib/thumb/v7-m/nofp\libc_nano.a(libc_a-mprec.o)
                0x000000000800ec2c                __hi0bits
 .text.__lo0bits
                0x000000000800ec6c       0x5a D:/Program Files/STM32CubeIDE_1.10.1/STM32CubeIDE/plugins/com.st.stm32cube.ide.mcu.externaltools.gnu-tools-for-stm32.11.3.rel1.win32_1.1.1.202309131626/tools/bin/../lib/gcc/arm-none-eabi/11.3.1/../../../../arm-none-eabi/lib/thumb/v7-m/nofp\libc_nano.a(libc_a-mprec.o)
                0x000000000800ec6c                __lo0bits
 *fill*         0x000000000800ecc6        0x2 
 .text.__i2b    0x000000000800ecc8       0x2c D:/Program Files/STM32CubeIDE_1.10.1/STM32CubeIDE/plugins/com.st.stm32cube.ide.mcu.externaltools.gnu-tools-for-stm32.11.3.rel1.win32_1.1.1.202309131626/tools/bin/../lib/gcc/arm-none-eabi/11.3.1/../../../../arm-none-eabi/lib/thumb/v7-m/nofp\libc_nano.a(libc_a-mprec.o)
                0x000000000800ecc8                __i2b
 .text.__multiply
                0x000000000800ecf4      0x150 D:/Program Files/STM32CubeIDE_1.10.1/STM32CubeIDE/plugins/com.st.stm32cube.ide.mcu.externaltools.gnu-tools-for-stm32.11.3.rel1.win32_1.1.1.202309131626/tools/bin/../lib/gcc/arm-none-eabi/11.3.1/../../../../arm-none-eabi/lib/thumb/v7-m/nofp\libc_nano.a(libc_a-mprec.o)
                0x000000000800ecf4                __multiply
 .text.__pow5mult
                0x000000000800ee44       0xb4 D:/Program Files/STM32CubeIDE_1.10.1/STM32CubeIDE/plugins/com.st.stm32cube.ide.mcu.externaltools.gnu-tools-for-stm32.11.3.rel1.win32_1.1.1.202309131626/tools/bin/../lib/gcc/arm-none-eabi/11.3.1/../../../../arm-none-eabi/lib/thumb/v7-m/nofp\libc_nano.a(libc_a-mprec.o)
                0x000000000800ee44                __pow5mult
 .text.__lshift
                0x000000000800eef8       0xd8 D:/Program Files/STM32CubeIDE_1.10.1/STM32CubeIDE/plugins/com.st.stm32cube.ide.mcu.externaltools.gnu-tools-for-stm32.11.3.rel1.win32_1.1.1.202309131626/tools/bin/../lib/gcc/arm-none-eabi/11.3.1/../../../../arm-none-eabi/lib/thumb/v7-m/nofp\libc_nano.a(libc_a-mprec.o)
                0x000000000800eef8                __lshift
 .text.__mcmp   0x000000000800efd0       0x36 D:/Program Files/STM32CubeIDE_1.10.1/STM32CubeIDE/plugins/com.st.stm32cube.ide.mcu.externaltools.gnu-tools-for-stm32.11.3.rel1.win32_1.1.1.202309131626/tools/bin/../lib/gcc/arm-none-eabi/11.3.1/../../../../arm-none-eabi/lib/thumb/v7-m/nofp\libc_nano.a(libc_a-mprec.o)
                0x000000000800efd0                __mcmp
 *fill*         0x000000000800f006        0x2 
 .text.__mdiff  0x000000000800f008      0x118 D:/Program Files/STM32CubeIDE_1.10.1/STM32CubeIDE/plugins/com.st.stm32cube.ide.mcu.externaltools.gnu-tools-for-stm32.11.3.rel1.win32_1.1.1.202309131626/tools/bin/../lib/gcc/arm-none-eabi/11.3.1/../../../../arm-none-eabi/lib/thumb/v7-m/nofp\libc_nano.a(libc_a-mprec.o)
                0x000000000800f008                __mdiff
 .text.__ulp    0x000000000800f120       0x40 D:/Program Files/STM32CubeIDE_1.10.1/STM32CubeIDE/plugins/com.st.stm32cube.ide.mcu.externaltools.gnu-tools-for-stm32.11.3.rel1.win32_1.1.1.202309131626/tools/bin/../lib/gcc/arm-none-eabi/11.3.1/../../../../arm-none-eabi/lib/thumb/v7-m/nofp\libc_nano.a(libc_a-mprec.o)
                0x000000000800f120                __ulp
 .text.__b2d    0x000000000800f160       0x90 D:/Program Files/STM32CubeIDE_1.10.1/STM32CubeIDE/plugins/com.st.stm32cube.ide.mcu.externaltools.gnu-tools-for-stm32.11.3.rel1.win32_1.1.1.202309131626/tools/bin/../lib/gcc/arm-none-eabi/11.3.1/../../../../arm-none-eabi/lib/thumb/v7-m/nofp\libc_nano.a(libc_a-mprec.o)
                0x000000000800f160                __b2d
 .text.__d2b    0x000000000800f1f0       0xac D:/Program Files/STM32CubeIDE_1.10.1/STM32CubeIDE/plugins/com.st.stm32cube.ide.mcu.externaltools.gnu-tools-for-stm32.11.3.rel1.win32_1.1.1.202309131626/tools/bin/../lib/gcc/arm-none-eabi/11.3.1/../../../../arm-none-eabi/lib/thumb/v7-m/nofp\libc_nano.a(libc_a-mprec.o)
                0x000000000800f1f0                __d2b
 .text.__ratio  0x000000000800f29c       0x5c D:/Program Files/STM32CubeIDE_1.10.1/STM32CubeIDE/plugins/com.st.stm32cube.ide.mcu.externaltools.gnu-tools-for-stm32.11.3.rel1.win32_1.1.1.202309131626/tools/bin/../lib/gcc/arm-none-eabi/11.3.1/../../../../arm-none-eabi/lib/thumb/v7-m/nofp\libc_nano.a(libc_a-mprec.o)
                0x000000000800f29c                __ratio
 .text.__copybits
                0x000000000800f2f8       0x46 D:/Program Files/STM32CubeIDE_1.10.1/STM32CubeIDE/plugins/com.st.stm32cube.ide.mcu.externaltools.gnu-tools-for-stm32.11.3.rel1.win32_1.1.1.202309131626/tools/bin/../lib/gcc/arm-none-eabi/11.3.1/../../../../arm-none-eabi/lib/thumb/v7-m/nofp\libc_nano.a(libc_a-mprec.o)
                0x000000000800f2f8                __copybits
 .text.__any_on
                0x000000000800f33e       0x42 D:/Program Files/STM32CubeIDE_1.10.1/STM32CubeIDE/plugins/com.st.stm32cube.ide.mcu.externaltools.gnu-tools-for-stm32.11.3.rel1.win32_1.1.1.202309131626/tools/bin/../lib/gcc/arm-none-eabi/11.3.1/../../../../arm-none-eabi/lib/thumb/v7-m/nofp\libc_nano.a(libc_a-mprec.o)
                0x000000000800f33e                __any_on
 .text.sulp     0x000000000800f380       0x42 D:/Program Files/STM32CubeIDE_1.10.1/STM32CubeIDE/plugins/com.st.stm32cube.ide.mcu.externaltools.gnu-tools-for-stm32.11.3.rel1.win32_1.1.1.202309131626/tools/bin/../lib/gcc/arm-none-eabi/11.3.1/../../../../arm-none-eabi/lib/thumb/v7-m/nofp\libc_nano.a(libc_a-strtod.o)
 *fill*         0x000000000800f3c2        0x6 
 .text._strtod_l
                0x000000000800f3c8      0xbe8 D:/Program Files/STM32CubeIDE_1.10.1/STM32CubeIDE/plugins/com.st.stm32cube.ide.mcu.externaltools.gnu-tools-for-stm32.11.3.rel1.win32_1.1.1.202309131626/tools/bin/../lib/gcc/arm-none-eabi/11.3.1/../../../../arm-none-eabi/lib/thumb/v7-m/nofp\libc_nano.a(libc_a-strtod.o)
                0x000000000800f3c8                _strtod_l
 .text._strtod_r
                0x000000000800ffb0        0xc D:/Program Files/STM32CubeIDE_1.10.1/STM32CubeIDE/plugins/com.st.stm32cube.ide.mcu.externaltools.gnu-tools-for-stm32.11.3.rel1.win32_1.1.1.202309131626/tools/bin/../lib/gcc/arm-none-eabi/11.3.1/../../../../arm-none-eabi/lib/thumb/v7-m/nofp\libc_nano.a(libc_a-strtod.o)
                0x000000000800ffb0                _strtod_r
 .text._strtol_l.constprop.0
                0x000000000800ffbc       0xfc D:/Program Files/STM32CubeIDE_1.10.1/STM32CubeIDE/plugins/com.st.stm32cube.ide.mcu.externaltools.gnu-tools-for-stm32.11.3.rel1.win32_1.1.1.202309131626/tools/bin/../lib/gcc/arm-none-eabi/11.3.1/../../../../arm-none-eabi/lib/thumb/v7-m/nofp\libc_nano.a(libc_a-strtol.o)
 .text._strtol_r
                0x00000000080100b8        0x4 D:/Program Files/STM32CubeIDE_1.10.1/STM32CubeIDE/plugins/com.st.stm32cube.ide.mcu.externaltools.gnu-tools-for-stm32.11.3.rel1.win32_1.1.1.202309131626/tools/bin/../lib/gcc/arm-none-eabi/11.3.1/../../../../arm-none-eabi/lib/thumb/v7-m/nofp\libc_nano.a(libc_a-strtol.o)
                0x00000000080100b8                _strtol_r
 .text.__ssputs_r
                0x00000000080100bc       0xb4 D:/Program Files/STM32CubeIDE_1.10.1/STM32CubeIDE/plugins/com.st.stm32cube.ide.mcu.externaltools.gnu-tools-for-stm32.11.3.rel1.win32_1.1.1.202309131626/tools/bin/../lib/gcc/arm-none-eabi/11.3.1/../../../../arm-none-eabi/lib/thumb/v7-m/nofp\libc_nano.a(libc_a-nano-svfprintf.o)
                0x00000000080100bc                __ssputs_r
 .text._svfprintf_r
                0x0000000008010170      0x1fc D:/Program Files/STM32CubeIDE_1.10.1/STM32CubeIDE/plugins/com.st.stm32cube.ide.mcu.externaltools.gnu-tools-for-stm32.11.3.rel1.win32_1.1.1.202309131626/tools/bin/../lib/gcc/arm-none-eabi/11.3.1/../../../../arm-none-eabi/lib/thumb/v7-m/nofp\libc_nano.a(libc_a-nano-svfprintf.o)
                0x0000000008010170                _svfiprintf_r
                0x0000000008010170                _svfprintf_r
 .text.__sfputc_r
                0x000000000801036c       0x2a D:/Program Files/STM32CubeIDE_1.10.1/STM32CubeIDE/plugins/com.st.stm32cube.ide.mcu.externaltools.gnu-tools-for-stm32.11.3.rel1.win32_1.1.1.202309131626/tools/bin/../lib/gcc/arm-none-eabi/11.3.1/../../../../arm-none-eabi/lib/thumb/v7-m/nofp\libc_nano.a(libc_a-nano-vfprintf.o)
 .text.__sfputs_r
                0x0000000008010396       0x24 D:/Program Files/STM32CubeIDE_1.10.1/STM32CubeIDE/plugins/com.st.stm32cube.ide.mcu.externaltools.gnu-tools-for-stm32.11.3.rel1.win32_1.1.1.202309131626/tools/bin/../lib/gcc/arm-none-eabi/11.3.1/../../../../arm-none-eabi/lib/thumb/v7-m/nofp\libc_nano.a(libc_a-nano-vfprintf.o)
                0x0000000008010396                __sfputs_r
 *fill*         0x00000000080103ba        0x2 
 .text._vfprintf_r
                0x00000000080103bc      0x234 D:/Program Files/STM32CubeIDE_1.10.1/STM32CubeIDE/plugins/com.st.stm32cube.ide.mcu.externaltools.gnu-tools-for-stm32.11.3.rel1.win32_1.1.1.202309131626/tools/bin/../lib/gcc/arm-none-eabi/11.3.1/../../../../arm-none-eabi/lib/thumb/v7-m/nofp\libc_nano.a(libc_a-nano-vfprintf.o)
                0x00000000080103bc                _vfprintf_r
                0x00000000080103bc                _vfiprintf_r
 .text.__sflush_r
                0x00000000080105f0      0x104 D:/Program Files/STM32CubeIDE_1.10.1/STM32CubeIDE/plugins/com.st.stm32cube.ide.mcu.externaltools.gnu-tools-for-stm32.11.3.rel1.win32_1.1.1.202309131626/tools/bin/../lib/gcc/arm-none-eabi/11.3.1/../../../../arm-none-eabi/lib/thumb/v7-m/nofp\libc_nano.a(libc_a-fflush.o)
                0x00000000080105f0                __sflush_r
 .text._fflush_r
                0x00000000080106f4       0x50 D:/Program Files/STM32CubeIDE_1.10.1/STM32CubeIDE/plugins/com.st.stm32cube.ide.mcu.externaltools.gnu-tools-for-stm32.11.3.rel1.win32_1.1.1.202309131626/tools/bin/../lib/gcc/arm-none-eabi/11.3.1/../../../../arm-none-eabi/lib/thumb/v7-m/nofp\libc_nano.a(libc_a-fflush.o)
                0x00000000080106f4                _fflush_r
 .text.__swhatbuf_r
                0x0000000008010744       0x4a D:/Program Files/STM32CubeIDE_1.10.1/STM32CubeIDE/plugins/com.st.stm32cube.ide.mcu.externaltools.gnu-tools-for-stm32.11.3.rel1.win32_1.1.1.202309131626/tools/bin/../lib/gcc/arm-none-eabi/11.3.1/../../../../arm-none-eabi/lib/thumb/v7-m/nofp\libc_nano.a(libc_a-makebuf.o)
                0x0000000008010744                __swhatbuf_r
 .text.__smakebuf_r
                0x000000000801078e       0x78 D:/Program Files/STM32CubeIDE_1.10.1/STM32CubeIDE/plugins/com.st.stm32cube.ide.mcu.externaltools.gnu-tools-for-stm32.11.3.rel1.win32_1.1.1.202309131626/tools/bin/../lib/gcc/arm-none-eabi/11.3.1/../../../../arm-none-eabi/lib/thumb/v7-m/nofp\libc_nano.a(libc_a-makebuf.o)
                0x000000000801078e                __smakebuf_r
 .text.memmove  0x0000000008010806       0x34 D:/Program Files/STM32CubeIDE_1.10.1/STM32CubeIDE/plugins/com.st.stm32cube.ide.mcu.externaltools.gnu-tools-for-stm32.11.3.rel1.win32_1.1.1.202309131626/tools/bin/../lib/gcc/arm-none-eabi/11.3.1/../../../../arm-none-eabi/lib/thumb/v7-m/nofp\libc_nano.a(libc_a-memmove.o)
                0x0000000008010806                memmove
 .text.strncmp  0x000000000801083a       0x24 D:/Program Files/STM32CubeIDE_1.10.1/STM32CubeIDE/plugins/com.st.stm32cube.ide.mcu.externaltools.gnu-tools-for-stm32.11.3.rel1.win32_1.1.1.202309131626/tools/bin/../lib/gcc/arm-none-eabi/11.3.1/../../../../arm-none-eabi/lib/thumb/v7-m/nofp\libc_nano.a(libc_a-strncmp.o)
                0x000000000801083a                strncmp
 *fill*         0x000000000801085e        0x2 
 .text._fstat_r
                0x0000000008010860       0x24 D:/Program Files/STM32CubeIDE_1.10.1/STM32CubeIDE/plugins/com.st.stm32cube.ide.mcu.externaltools.gnu-tools-for-stm32.11.3.rel1.win32_1.1.1.202309131626/tools/bin/../lib/gcc/arm-none-eabi/11.3.1/../../../../arm-none-eabi/lib/thumb/v7-m/nofp\libc_nano.a(libc_a-fstatr.o)
                0x0000000008010860                _fstat_r
 .text._isatty_r
                0x0000000008010884       0x20 D:/Program Files/STM32CubeIDE_1.10.1/STM32CubeIDE/plugins/com.st.stm32cube.ide.mcu.externaltools.gnu-tools-for-stm32.11.3.rel1.win32_1.1.1.202309131626/tools/bin/../lib/gcc/arm-none-eabi/11.3.1/../../../../arm-none-eabi/lib/thumb/v7-m/nofp\libc_nano.a(libc_a-isattyr.o)
                0x0000000008010884                _isatty_r
 .text._sbrk_r  0x00000000080108a4       0x20 D:/Program Files/STM32CubeIDE_1.10.1/STM32CubeIDE/plugins/com.st.stm32cube.ide.mcu.externaltools.gnu-tools-for-stm32.11.3.rel1.win32_1.1.1.202309131626/tools/bin/../lib/gcc/arm-none-eabi/11.3.1/../../../../arm-none-eabi/lib/thumb/v7-m/nofp\libc_nano.a(libc_a-sbrkr.o)
                0x00000000080108a4                _sbrk_r
 .text.nan      0x00000000080108c4        0xc D:/Program Files/STM32CubeIDE_1.10.1/STM32CubeIDE/plugins/com.st.stm32cube.ide.mcu.externaltools.gnu-tools-for-stm32.11.3.rel1.win32_1.1.1.202309131626/tools/bin/../lib/gcc/arm-none-eabi/11.3.1/../../../../arm-none-eabi/lib/thumb/v7-m/nofp\libc_nano.a(libm_a-s_nan.o)
                0x00000000080108c4                nan
 .text.__assert_func
                0x00000000080108d0       0x3c D:/Program Files/STM32CubeIDE_1.10.1/STM32CubeIDE/plugins/com.st.stm32cube.ide.mcu.externaltools.gnu-tools-for-stm32.11.3.rel1.win32_1.1.1.202309131626/tools/bin/../lib/gcc/arm-none-eabi/11.3.1/../../../../arm-none-eabi/lib/thumb/v7-m/nofp\libc_nano.a(libc_a-assert.o)
                0x00000000080108d0                __assert_func
 .text._calloc_r
                0x000000000801090c       0x28 D:/Program Files/STM32CubeIDE_1.10.1/STM32CubeIDE/plugins/com.st.stm32cube.ide.mcu.externaltools.gnu-tools-for-stm32.11.3.rel1.win32_1.1.1.202309131626/tools/bin/../lib/gcc/arm-none-eabi/11.3.1/../../../../arm-none-eabi/lib/thumb/v7-m/nofp\libc_nano.a(libc_a-callocr.o)
                0x000000000801090c                _calloc_r
 .text.rshift   0x0000000008010934       0xa6 D:/Program Files/STM32CubeIDE_1.10.1/STM32CubeIDE/plugins/com.st.stm32cube.ide.mcu.externaltools.gnu-tools-for-stm32.11.3.rel1.win32_1.1.1.202309131626/tools/bin/../lib/gcc/arm-none-eabi/11.3.1/../../../../arm-none-eabi/lib/thumb/v7-m/nofp\libc_nano.a(libc_a-gdtoa-gethex.o)
 .text.__hexdig_fun
                0x00000000080109da       0x2a D:/Program Files/STM32CubeIDE_1.10.1/STM32CubeIDE/plugins/com.st.stm32cube.ide.mcu.externaltools.gnu-tools-for-stm32.11.3.rel1.win32_1.1.1.202309131626/tools/bin/../lib/gcc/arm-none-eabi/11.3.1/../../../../arm-none-eabi/lib/thumb/v7-m/nofp\libc_nano.a(libc_a-gdtoa-gethex.o)
                0x00000000080109da                __hexdig_fun
 .text.__gethex
                0x0000000008010a04      0x460 D:/Program Files/STM32CubeIDE_1.10.1/STM32CubeIDE/plugins/com.st.stm32cube.ide.mcu.externaltools.gnu-tools-for-stm32.11.3.rel1.win32_1.1.1.202309131626/tools/bin/../lib/gcc/arm-none-eabi/11.3.1/../../../../arm-none-eabi/lib/thumb/v7-m/nofp\libc_nano.a(libc_a-gdtoa-gethex.o)
                0x0000000008010a04                __gethex
 .text.L_shift  0x0000000008010e64       0x24 D:/Program Files/STM32CubeIDE_1.10.1/STM32CubeIDE/plugins/com.st.stm32cube.ide.mcu.externaltools.gnu-tools-for-stm32.11.3.rel1.win32_1.1.1.202309131626/tools/bin/../lib/gcc/arm-none-eabi/11.3.1/../../../../arm-none-eabi/lib/thumb/v7-m/nofp\libc_nano.a(libc_a-gdtoa-hexnan.o)
 .text.__match  0x0000000008010e88       0x28 D:/Program Files/STM32CubeIDE_1.10.1/STM32CubeIDE/plugins/com.st.stm32cube.ide.mcu.externaltools.gnu-tools-for-stm32.11.3.rel1.win32_1.1.1.202309131626/tools/bin/../lib/gcc/arm-none-eabi/11.3.1/../../../../arm-none-eabi/lib/thumb/v7-m/nofp\libc_nano.a(libc_a-gdtoa-hexnan.o)
                0x0000000008010e88                __match
 .text.__hexnan
                0x0000000008010eb0      0x136 D:/Program Files/STM32CubeIDE_1.10.1/STM32CubeIDE/plugins/com.st.stm32cube.ide.mcu.externaltools.gnu-tools-for-stm32.11.3.rel1.win32_1.1.1.202309131626/tools/bin/../lib/gcc/arm-none-eabi/11.3.1/../../../../arm-none-eabi/lib/thumb/v7-m/nofp\libc_nano.a(libc_a-gdtoa-hexnan.o)
                0x0000000008010eb0                __hexnan
 .text.__ascii_mbtowc
                0x0000000008010fe6       0x24 D:/Program Files/STM32CubeIDE_1.10.1/STM32CubeIDE/plugins/com.st.stm32cube.ide.mcu.externaltools.gnu-tools-for-stm32.11.3.rel1.win32_1.1.1.202309131626/tools/bin/../lib/gcc/arm-none-eabi/11.3.1/../../../../arm-none-eabi/lib/thumb/v7-m/nofp\libc_nano.a(libc_a-mbtowc_r.o)
                0x0000000008010fe6                __ascii_mbtowc
 .text._realloc_r
                0x000000000801100a       0x5e D:/Program Files/STM32CubeIDE_1.10.1/STM32CubeIDE/plugins/com.st.stm32cube.ide.mcu.externaltools.gnu-tools-for-stm32.11.3.rel1.win32_1.1.1.202309131626/tools/bin/../lib/gcc/arm-none-eabi/11.3.1/../../../../arm-none-eabi/lib/thumb/v7-m/nofp\libc_nano.a(libc_a-reallocr.o)
                0x000000000801100a                _realloc_r
 .text.__ascii_wctomb
                0x0000000008011068       0x1a D:/Program Files/STM32CubeIDE_1.10.1/STM32CubeIDE/plugins/com.st.stm32cube.ide.mcu.externaltools.gnu-tools-for-stm32.11.3.rel1.win32_1.1.1.202309131626/tools/bin/../lib/gcc/arm-none-eabi/11.3.1/../../../../arm-none-eabi/lib/thumb/v7-m/nofp\libc_nano.a(libc_a-wctomb_r.o)
                0x0000000008011068                __ascii_wctomb
 *fill*         0x0000000008011082        0x2 
 .text.fprintf  0x0000000008011084       0x24 D:/Program Files/STM32CubeIDE_1.10.1/STM32CubeIDE/plugins/com.st.stm32cube.ide.mcu.externaltools.gnu-tools-for-stm32.11.3.rel1.win32_1.1.1.202309131626/tools/bin/../lib/gcc/arm-none-eabi/11.3.1/../../../../arm-none-eabi/lib/thumb/v7-m/nofp\libc_nano.a(libc_a-fprintf.o)
                0x0000000008011084                fiprintf
                0x0000000008011084                fprintf
 .text.abort    0x00000000080110a8        0xe D:/Program Files/STM32CubeIDE_1.10.1/STM32CubeIDE/plugins/com.st.stm32cube.ide.mcu.externaltools.gnu-tools-for-stm32.11.3.rel1.win32_1.1.1.202309131626/tools/bin/../lib/gcc/arm-none-eabi/11.3.1/../../../../arm-none-eabi/lib/thumb/v7-m/nofp\libc_nano.a(libc_a-abort.o)
                0x00000000080110a8                abort
 .text._malloc_usable_size_r
                0x00000000080110b6       0x10 D:/Program Files/STM32CubeIDE_1.10.1/STM32CubeIDE/plugins/com.st.stm32cube.ide.mcu.externaltools.gnu-tools-for-stm32.11.3.rel1.win32_1.1.1.202309131626/tools/bin/../lib/gcc/arm-none-eabi/11.3.1/../../../../arm-none-eabi/lib/thumb/v7-m/nofp\libc_nano.a(libc_a-msizer.o)
                0x00000000080110b6                _malloc_usable_size_r
 .text._raise_r
                0x00000000080110c6       0x50 D:/Program Files/STM32CubeIDE_1.10.1/STM32CubeIDE/plugins/com.st.stm32cube.ide.mcu.externaltools.gnu-tools-for-stm32.11.3.rel1.win32_1.1.1.202309131626/tools/bin/../lib/gcc/arm-none-eabi/11.3.1/../../../../arm-none-eabi/lib/thumb/v7-m/nofp\libc_nano.a(libc_a-signal.o)
                0x00000000080110c6                _raise_r
 *fill*         0x0000000008011116        0x2 
 .text.raise    0x0000000008011118       0x10 D:/Program Files/STM32CubeIDE_1.10.1/STM32CubeIDE/plugins/com.st.stm32cube.ide.mcu.externaltools.gnu-tools-for-stm32.11.3.rel1.win32_1.1.1.202309131626/tools/bin/../lib/gcc/arm-none-eabi/11.3.1/../../../../arm-none-eabi/lib/thumb/v7-m/nofp\libc_nano.a(libc_a-signal.o)
                0x0000000008011118                raise
 .text._kill_r  0x0000000008011128       0x24 D:/Program Files/STM32CubeIDE_1.10.1/STM32CubeIDE/plugins/com.st.stm32cube.ide.mcu.externaltools.gnu-tools-for-stm32.11.3.rel1.win32_1.1.1.202309131626/tools/bin/../lib/gcc/arm-none-eabi/11.3.1/../../../../arm-none-eabi/lib/thumb/v7-m/nofp\libc_nano.a(libc_a-signalr.o)
                0x0000000008011128                _kill_r
 .text._getpid_r
                0x000000000801114c        0x4 D:/Program Files/STM32CubeIDE_1.10.1/STM32CubeIDE/plugins/com.st.stm32cube.ide.mcu.externaltools.gnu-tools-for-stm32.11.3.rel1.win32_1.1.1.202309131626/tools/bin/../lib/gcc/arm-none-eabi/11.3.1/../../../../arm-none-eabi/lib/thumb/v7-m/nofp\libc_nano.a(libc_a-signalr.o)
                0x000000000801114c                _getpid_r
 .text._sbrk    0x0000000008011150       0x1c D:/Program Files/STM32CubeIDE_1.10.1/STM32CubeIDE/plugins/com.st.stm32cube.ide.mcu.externaltools.gnu-tools-for-stm32.11.3.rel1.win32_1.1.1.202309131626/tools/bin/../lib/gcc/arm-none-eabi/11.3.1/../../../../arm-none-eabi/lib/thumb/v7-m/nofp\libnosys.a(sbrk.o)
                0x0000000008011150                _sbrk
 .text._exit    0x000000000801116c        0x2 D:/Program Files/STM32CubeIDE_1.10.1/STM32CubeIDE/plugins/com.st.stm32cube.ide.mcu.externaltools.gnu-tools-for-stm32.11.3.rel1.win32_1.1.1.202309131626/tools/bin/../lib/gcc/arm-none-eabi/11.3.1/../../../../arm-none-eabi/lib/thumb/v7-m/nofp\libnosys.a(_exit.o)
                0x000000000801116c                _exit
 *(.glue_7)
 .glue_7        0x000000000801116e        0x0 linker stubs
 *(.glue_7t)
 .glue_7t       0x000000000801116e        0x0 linker stubs
 *(.eh_frame)
 *fill*         0x000000000801116e        0x2 
 .eh_frame      0x0000000008011170        0x0 D:/Program Files/STM32CubeIDE_1.10.1/STM32CubeIDE/plugins/com.st.stm32cube.ide.mcu.externaltools.gnu-tools-for-stm32.11.3.rel1.win32_1.1.1.202309131626/tools/bin/../lib/gcc/arm-none-eabi/11.3.1/thumb/v7-m/nofp/crtbegin.o
 *(.init)
 .init          0x0000000008011170        0x4 D:/Program Files/STM32CubeIDE_1.10.1/STM32CubeIDE/plugins/com.st.stm32cube.ide.mcu.externaltools.gnu-tools-for-stm32.11.3.rel1.win32_1.1.1.202309131626/tools/bin/../lib/gcc/arm-none-eabi/11.3.1/thumb/v7-m/nofp/crti.o
                0x0000000008011170                _init
 .init          0x0000000008011174        0x8 D:/Program Files/STM32CubeIDE_1.10.1/STM32CubeIDE/plugins/com.st.stm32cube.ide.mcu.externaltools.gnu-tools-for-stm32.11.3.rel1.win32_1.1.1.202309131626/tools/bin/../lib/gcc/arm-none-eabi/11.3.1/thumb/v7-m/nofp/crtn.o
 *(.fini)
 .fini          0x000000000801117c        0x4 D:/Program Files/STM32CubeIDE_1.10.1/STM32CubeIDE/plugins/com.st.stm32cube.ide.mcu.externaltools.gnu-tools-for-stm32.11.3.rel1.win32_1.1.1.202309131626/tools/bin/../lib/gcc/arm-none-eabi/11.3.1/thumb/v7-m/nofp/crti.o
                0x000000000801117c                _fini
 .fini          0x0000000008011180        0x8 D:/Program Files/STM32CubeIDE_1.10.1/STM32CubeIDE/plugins/com.st.stm32cube.ide.mcu.externaltools.gnu-tools-for-stm32.11.3.rel1.win32_1.1.1.202309131626/tools/bin/../lib/gcc/arm-none-eabi/11.3.1/thumb/v7-m/nofp/crtn.o
                0x0000000008011188                . = ALIGN (0x4)
                0x0000000008011188                _etext = .

.vfp11_veneer   0x0000000008011188        0x0
 .vfp11_veneer  0x0000000008011188        0x0 linker stubs

.v4_bx          0x0000000008011188        0x0
 .v4_bx         0x0000000008011188        0x0 linker stubs

.iplt           0x0000000008011188        0x0
 .iplt          0x0000000008011188        0x0 D:/Program Files/STM32CubeIDE_1.10.1/STM32CubeIDE/plugins/com.st.stm32cube.ide.mcu.externaltools.gnu-tools-for-stm32.11.3.rel1.win32_1.1.1.202309131626/tools/bin/../lib/gcc/arm-none-eabi/11.3.1/thumb/v7-m/nofp/crtbegin.o

.rodata         0x0000000008011188    0x2cfa0
                0x0000000008011188                . = ALIGN (0x4)
 *(.rodata)
 *(.rodata*)
 .rodata.LoadConfigData.str1.1
                0x0000000008011188       0x63 ./Src/BSP/flash.o
 .rodata.i2cdrvMessageTransfer.str1.1
                0x00000000080111eb       0x10 ./Src/BSP/i2c_driver.o
 *fill*         0x00000000080111fb        0x1 
 .rodata.sensorsBusDef
                0x00000000080111fc       0x60 ./Src/BSP/i2c_driver.o
 .rodata.PlayAnimation.str1.1
                0x000000000801125c       0x51 ./Src/BSP/i2c_oled.o
 .rodata.OLED_ShowParm.str1.1
                0x00000000080112ad       0x66 ./Src/BSP/i2c_oled.o
 .rodata.MenuTask.str1.1
                0x0000000008011313       0x2d ./Src/BSP/i2c_oled.o
 .rodata.F6x8   0x0000000008011340      0x228 ./Src/BSP/i2c_oled.o
                0x0000000008011340                F6x8
 .rodata.F8X16  0x0000000008011568      0x5f0 ./Src/BSP/i2c_oled.o
                0x0000000008011568                F8X16
 .rodata.nrf_check.str1.1
                0x0000000008011b58        0x6 ./Src/BSP/nrf24l01.o
 .rodata.SPI_FLASH_SendByte.str1.1
                0x0000000008011b5e       0x2f ./Src/BSP/spi_flash.o
 .rodata.SPI_FLASH_PageWrite.str1.1
                0x0000000008011b8d       0x31 ./Src/BSP/spi_flash.o
 .rodata.Uart4Task.str1.1
                0x0000000008011bbe       0x1c ./Src/BSP/uart4.o
 .rodata.Uart5Task.str1.1
                0x0000000008011bda       0x1c ./Src/BSP/uart5.o
 .rodata.Usart1Task.str1.1
                0x0000000008011bda       0x53 ./Src/BSP/usart1.o
 *fill*         0x0000000008011c2d        0x3 
 .rodata.a.0    0x0000000008011c30       0x10 ./Src/EKF/fast_math.o
 .rodata.follow_path.str1.1
                0x0000000008011c40       0x10 ./Src/FatFs/ff.o
 .rodata.f_mkfs.str1.1
                0x0000000008011c50       0x34 ./Src/FatFs/ff.o
 .rodata.LfnOfs
                0x0000000008011c84        0xd ./Src/FatFs/ff.o
 *fill*         0x0000000008011c91        0x1 
 .rodata.cst.0  0x0000000008011c92       0x16 ./Src/FatFs/ff.o
 .rodata.vst.1  0x0000000008011ca8       0x16 ./Src/FatFs/ff.o
 .rodata.lower.1
                0x0000000008011cbe      0x3dc ./Src/FatFs/option/cc936.o
 .rodata.oem2uni
                0x000000000801209a    0x15484 ./Src/FatFs/option/cc936.o
 .rodata.uni2oem
                0x000000000802751e    0x15484 ./Src/FatFs/option/cc936.o
 .rodata.upper.0
                0x000000000803c9a2      0x3dc ./Src/FatFs/option/cc936.o
 .rodata.prvNotifyQueueSetContainer.str1.1
                0x000000000803cd7e       0x73 ./Src/FreeRTOS/queue.o
 .rodata.xQueueGenericReset.str1.1
                0x000000000803cdf1        0x8 ./Src/FreeRTOS/queue.o
 .rodata.xQueueGenericCreate.str1.1
                0x000000000803cdf9       0x22 ./Src/FreeRTOS/queue.o
 .rodata.xQueueGenericSend.str1.1
                0x000000000803ce1b       0xed ./Src/FreeRTOS/queue.o
 .rodata.xQueueGiveFromISR.str1.1
                0x000000000803cf08       0x74 ./Src/FreeRTOS/queue.o
 .rodata.xQueueGenericReceive.str1.1
                0x000000000803cf7c       0x4b ./Src/FreeRTOS/queue.o
 .rodata.prvTaskIsTaskSuspended.str1.1
                0x000000000803cfc7       0x1e ./Src/FreeRTOS/tasks.o
 .rodata.vTaskDelete.str1.1
                0x000000000803cfe5       0x1a ./Src/FreeRTOS/tasks.o
 .rodata.vTaskStartScheduler.str1.1
                0x000000000803cfff       0x36 ./Src/FreeRTOS/tasks.o
 .rodata.xTaskIncrementTick.str1.1
                0x000000000803d035       0x2b ./Src/FreeRTOS/tasks.o
 .rodata.xTaskResumeAll.str1.1
                0x000000000803d060       0x15 ./Src/FreeRTOS/tasks.o
 .rodata.vTaskSwitchContext.str1.1
                0x000000000803d075       0x47 ./Src/FreeRTOS/tasks.o
 .rodata.vTaskPlaceOnEventList.str1.1
                0x000000000803d0bc        0xc ./Src/FreeRTOS/tasks.o
 .rodata.xTaskRemoveFromEventList.str1.1
                0x000000000803d0c8        0xf ./Src/FreeRTOS/tasks.o
 .rodata.vTaskSetTimeOutState.str1.1
                0x000000000803d0d7        0xa ./Src/FreeRTOS/tasks.o
 .rodata.xTaskCheckForTimeOut.str1.1
                0x000000000803d0e1        0xe ./Src/FreeRTOS/tasks.o
 .rodata.xTaskPriorityDisinherit.str1.1
                0x000000000803d0ef       0x2b ./Src/FreeRTOS/tasks.o
 .rodata.prvCheckForValidListAndQueue.str1.1
                0x000000000803d11a        0x5 ./Src/FreeRTOS/timers.o
 .rodata.xTimerCreateTimerTask.str1.1
                0x000000000803d11f       0x29 ./Src/FreeRTOS/timers.o
 .rodata.xTimerGenericCommand.str1.1
                0x000000000803d148        0x7 ./Src/FreeRTOS/timers.o
 .rodata.prvSampleTimeNow.str1.1
                0x000000000803d14f        0x8 ./Src/FreeRTOS/timers.o
 .rodata.prvTimerTask.str1.1
                0x000000000803d157       0x25 ./Src/FreeRTOS/timers.o
 .rodata.prvTaskExitError.str1.1
                0x000000000803d17c       0x46 ./Src/FreeRTOS/portable/GCC/ARM_CM3/port.o
 .rodata.vPortEnterCritical.str1.1
                0x000000000803d1c2       0x35 ./Src/FreeRTOS/portable/GCC/ARM_CM3/port.o
 .rodata.vPortExitCritical.str1.1
                0x000000000803d1f7       0x12 ./Src/FreeRTOS/portable/GCC/ARM_CM3/port.o
 .rodata.xPortStartScheduler.str1.1
                0x000000000803d209       0x85 ./Src/FreeRTOS/portable/GCC/ARM_CM3/port.o
 .rodata.vPortValidateInterruptPriority.str1.1
                0x000000000803d28e       0x6c ./Src/FreeRTOS/portable/GCC/ARM_CM3/port.o
 .rodata.pvPortMalloc.str1.1
                0x000000000803d2fa       0xb1 ./Src/FreeRTOS/portable/MemMang/heap_4.o
 .rodata.vPortFree.str1.1
                0x000000000803d3ab       0x51 ./Src/FreeRTOS/portable/MemMang/heap_4.o
 .rodata.radiolinkInit.str1.1
                0x000000000803d3fc       0x37 ./Src/System/radio.o
 .rodata.sensorsDeviceInit.str1.1
                0x000000000803d433       0x76 ./Src/System/sensors.o
 .rodata.scan_files.str1.1
                0x000000000803d4a9        0xc ./Src/System/utils.o
 .rodata.FileSystem_Init.str1.1
                0x000000000803d4b5      0x15e ./Src/System/utils.o
 .rodata.assertFail.str1.1
                0x000000000803d613       0x15 ./Src/System/utils.o
 .rodata.str1.1
                0x000000000803d628       0x15 ./Src/System/utils.o
                                          0x1 (size before relaxing)
 .rodata.crcTableHigh
                0x000000000803d628      0x100 ./Src/System/utils.o
                0x000000000803d628                crcTableHigh
 .rodata.crcTableLow
                0x000000000803d728      0x100 ./Src/System/utils.o
                0x000000000803d728                crcTableLow
 .rodata.startTask.str1.1
                0x000000000803d828       0x85 ./Src/User/main.o
 .rodata.main.str1.1
                0x000000000803d8ad       0x1b ./Src/User/main.o
                                         0x1e (size before relaxing)
 .rodata.vApplicationMallocFailedHook.str1.1
                0x000000000803d8c8       0x10 ./Src/User/main.o
 .rodata.vApplicationStackOverflowHook.str1.1
                0x000000000803d8d8       0x11 ./Src/User/main.o
 *fill*         0x000000000803d8e9        0x7 
 .rodata.atanhi
                0x000000000803d8f0       0x20 D:/Program Files/STM32CubeIDE_1.10.1/STM32CubeIDE/plugins/com.st.stm32cube.ide.mcu.externaltools.gnu-tools-for-stm32.11.3.rel1.win32_1.1.1.202309131626/tools/bin/../lib/gcc/arm-none-eabi/11.3.1/../../../../arm-none-eabi/lib/thumb/v7-m/nofp\libm.a(libm_a-s_atan.o)
 .rodata.atanlo
                0x000000000803d910       0x20 D:/Program Files/STM32CubeIDE_1.10.1/STM32CubeIDE/plugins/com.st.stm32cube.ide.mcu.externaltools.gnu-tools-for-stm32.11.3.rel1.win32_1.1.1.202309131626/tools/bin/../lib/gcc/arm-none-eabi/11.3.1/../../../../arm-none-eabi/lib/thumb/v7-m/nofp\libm.a(libm_a-s_atan.o)
 .rodata.npio2_hw
                0x000000000803d930       0x80 D:/Program Files/STM32CubeIDE_1.10.1/STM32CubeIDE/plugins/com.st.stm32cube.ide.mcu.externaltools.gnu-tools-for-stm32.11.3.rel1.win32_1.1.1.202309131626/tools/bin/../lib/gcc/arm-none-eabi/11.3.1/../../../../arm-none-eabi/lib/thumb/v7-m/nofp\libm.a(libm_a-ef_rem_pio2.o)
 .rodata.two_over_pi
                0x000000000803d9b0      0x318 D:/Program Files/STM32CubeIDE_1.10.1/STM32CubeIDE/plugins/com.st.stm32cube.ide.mcu.externaltools.gnu-tools-for-stm32.11.3.rel1.win32_1.1.1.202309131626/tools/bin/../lib/gcc/arm-none-eabi/11.3.1/../../../../arm-none-eabi/lib/thumb/v7-m/nofp\libm.a(libm_a-ef_rem_pio2.o)
 .rodata.PIo2   0x000000000803dcc8       0x2c D:/Program Files/STM32CubeIDE_1.10.1/STM32CubeIDE/plugins/com.st.stm32cube.ide.mcu.externaltools.gnu-tools-for-stm32.11.3.rel1.win32_1.1.1.202309131626/tools/bin/../lib/gcc/arm-none-eabi/11.3.1/../../../../arm-none-eabi/lib/thumb/v7-m/nofp\libm.a(libm_a-kf_rem_pio2.o)
 .rodata.init_jk
                0x000000000803dcf4        0xc D:/Program Files/STM32CubeIDE_1.10.1/STM32CubeIDE/plugins/com.st.stm32cube.ide.mcu.externaltools.gnu-tools-for-stm32.11.3.rel1.win32_1.1.1.202309131626/tools/bin/../lib/gcc/arm-none-eabi/11.3.1/../../../../arm-none-eabi/lib/thumb/v7-m/nofp\libm.a(libm_a-kf_rem_pio2.o)
 .rodata._printf_float.str1.1
                0x000000000803dd00       0x10 D:/Program Files/STM32CubeIDE_1.10.1/STM32CubeIDE/plugins/com.st.stm32cube.ide.mcu.externaltools.gnu-tools-for-stm32.11.3.rel1.win32_1.1.1.202309131626/tools/bin/../lib/gcc/arm-none-eabi/11.3.1/../../../../arm-none-eabi/lib/thumb/v7-m/nofp\libc_nano.a(libc_a-nano-vfprintf_float.o)
                                         0x12 (size before relaxing)
 .rodata._printf_i.str1.1
                0x000000000803dd10       0x22 D:/Program Files/STM32CubeIDE_1.10.1/STM32CubeIDE/plugins/com.st.stm32cube.ide.mcu.externaltools.gnu-tools-for-stm32.11.3.rel1.win32_1.1.1.202309131626/tools/bin/../lib/gcc/arm-none-eabi/11.3.1/../../../../arm-none-eabi/lib/thumb/v7-m/nofp\libc_nano.a(libc_a-nano-vfprintf_i.o)
 .rodata._scanf_float.str1.1
                0x000000000803dd32        0x5 D:/Program Files/STM32CubeIDE_1.10.1/STM32CubeIDE/plugins/com.st.stm32cube.ide.mcu.externaltools.gnu-tools-for-stm32.11.3.rel1.win32_1.1.1.202309131626/tools/bin/../lib/gcc/arm-none-eabi/11.3.1/../../../../arm-none-eabi/lib/thumb/v7-m/nofp\libc_nano.a(libc_a-nano-vfscanf_float.o)
                                          0x6 (size before relaxing)
 .rodata._dtoa_r.str1.1
                0x000000000803dd37       0x8d D:/Program Files/STM32CubeIDE_1.10.1/STM32CubeIDE/plugins/com.st.stm32cube.ide.mcu.externaltools.gnu-tools-for-stm32.11.3.rel1.win32_1.1.1.202309131626/tools/bin/../lib/gcc/arm-none-eabi/11.3.1/../../../../arm-none-eabi/lib/thumb/v7-m/nofp\libc_nano.a(libc_a-dtoa.o)
                                         0x8f (size before relaxing)
 .rodata._Balloc.str1.1
                0x000000000803ddc4       0x59 D:/Program Files/STM32CubeIDE_1.10.1/STM32CubeIDE/plugins/com.st.stm32cube.ide.mcu.externaltools.gnu-tools-for-stm32.11.3.rel1.win32_1.1.1.202309131626/tools/bin/../lib/gcc/arm-none-eabi/11.3.1/../../../../arm-none-eabi/lib/thumb/v7-m/nofp\libc_nano.a(libc_a-mprec.o)
                                         0x70 (size before relaxing)
 .rodata.__multadd.str1.1
                0x000000000803de1d       0x11 D:/Program Files/STM32CubeIDE_1.10.1/STM32CubeIDE/plugins/com.st.stm32cube.ide.mcu.externaltools.gnu-tools-for-stm32.11.3.rel1.win32_1.1.1.202309131626/tools/bin/../lib/gcc/arm-none-eabi/11.3.1/../../../../arm-none-eabi/lib/thumb/v7-m/nofp\libc_nano.a(libc_a-mprec.o)
 *fill*         0x000000000803de1d        0x3 
 .rodata.__mprec_bigtens
                0x000000000803de20       0x28 D:/Program Files/STM32CubeIDE_1.10.1/STM32CubeIDE/plugins/com.st.stm32cube.ide.mcu.externaltools.gnu-tools-for-stm32.11.3.rel1.win32_1.1.1.202309131626/tools/bin/../lib/gcc/arm-none-eabi/11.3.1/../../../../arm-none-eabi/lib/thumb/v7-m/nofp\libc_nano.a(libc_a-mprec.o)
                0x000000000803de20                __mprec_bigtens
 .rodata.__mprec_tens
                0x000000000803de48       0xc8 D:/Program Files/STM32CubeIDE_1.10.1/STM32CubeIDE/plugins/com.st.stm32cube.ide.mcu.externaltools.gnu-tools-for-stm32.11.3.rel1.win32_1.1.1.202309131626/tools/bin/../lib/gcc/arm-none-eabi/11.3.1/../../../../arm-none-eabi/lib/thumb/v7-m/nofp\libc_nano.a(libc_a-mprec.o)
                0x000000000803de48                __mprec_tens
 .rodata.p05.0  0x000000000803df10        0xc D:/Program Files/STM32CubeIDE_1.10.1/STM32CubeIDE/plugins/com.st.stm32cube.ide.mcu.externaltools.gnu-tools-for-stm32.11.3.rel1.win32_1.1.1.202309131626/tools/bin/../lib/gcc/arm-none-eabi/11.3.1/../../../../arm-none-eabi/lib/thumb/v7-m/nofp\libc_nano.a(libc_a-mprec.o)
 .rodata._strtod_l.str1.1
                0x000000000803df1c       0x59 D:/Program Files/STM32CubeIDE_1.10.1/STM32CubeIDE/plugins/com.st.stm32cube.ide.mcu.externaltools.gnu-tools-for-stm32.11.3.rel1.win32_1.1.1.202309131626/tools/bin/../lib/gcc/arm-none-eabi/11.3.1/../../../../arm-none-eabi/lib/thumb/v7-m/nofp\libc_nano.a(libc_a-strtod.o)
                                          0xf (size before relaxing)
 .rodata.fpi.1  0x000000000803df1c       0x14 D:/Program Files/STM32CubeIDE_1.10.1/STM32CubeIDE/plugins/com.st.stm32cube.ide.mcu.externaltools.gnu-tools-for-stm32.11.3.rel1.win32_1.1.1.202309131626/tools/bin/../lib/gcc/arm-none-eabi/11.3.1/../../../../arm-none-eabi/lib/thumb/v7-m/nofp\libc_nano.a(libc_a-strtod.o)
 .rodata.fpinan.0
                0x000000000803df30       0x14 D:/Program Files/STM32CubeIDE_1.10.1/STM32CubeIDE/plugins/com.st.stm32cube.ide.mcu.externaltools.gnu-tools-for-stm32.11.3.rel1.win32_1.1.1.202309131626/tools/bin/../lib/gcc/arm-none-eabi/11.3.1/../../../../arm-none-eabi/lib/thumb/v7-m/nofp\libc_nano.a(libc_a-strtod.o)
 *fill*         0x000000000803df44        0x4 
 .rodata.tinytens
                0x000000000803df48       0x28 D:/Program Files/STM32CubeIDE_1.10.1/STM32CubeIDE/plugins/com.st.stm32cube.ide.mcu.externaltools.gnu-tools-for-stm32.11.3.rel1.win32_1.1.1.202309131626/tools/bin/../lib/gcc/arm-none-eabi/11.3.1/../../../../arm-none-eabi/lib/thumb/v7-m/nofp\libc_nano.a(libc_a-strtod.o)
 .rodata._ctype_
                0x000000000803df70      0x101 D:/Program Files/STM32CubeIDE_1.10.1/STM32CubeIDE/plugins/com.st.stm32cube.ide.mcu.externaltools.gnu-tools-for-stm32.11.3.rel1.win32_1.1.1.202309131626/tools/bin/../lib/gcc/arm-none-eabi/11.3.1/../../../../arm-none-eabi/lib/thumb/v7-m/nofp\libc_nano.a(libc_a-ctype_.o)
                0x000000000803df70                _ctype_
 .rodata._svfprintf_r.str1.1
                0x000000000803e071       0x11 D:/Program Files/STM32CubeIDE_1.10.1/STM32CubeIDE/plugins/com.st.stm32cube.ide.mcu.externaltools.gnu-tools-for-stm32.11.3.rel1.win32_1.1.1.202309131626/tools/bin/../lib/gcc/arm-none-eabi/11.3.1/../../../../arm-none-eabi/lib/thumb/v7-m/nofp\libc_nano.a(libc_a-nano-svfprintf.o)
 .rodata._vfprintf_r.str1.1
                0x000000000803e082       0x11 D:/Program Files/STM32CubeIDE_1.10.1/STM32CubeIDE/plugins/com.st.stm32cube.ide.mcu.externaltools.gnu-tools-for-stm32.11.3.rel1.win32_1.1.1.202309131626/tools/bin/../lib/gcc/arm-none-eabi/11.3.1/../../../../arm-none-eabi/lib/thumb/v7-m/nofp\libc_nano.a(libc_a-nano-vfprintf.o)
 .rodata._setlocale_r.str1.1
                0x000000000803e082        0x8 D:/Program Files/STM32CubeIDE_1.10.1/STM32CubeIDE/plugins/com.st.stm32cube.ide.mcu.externaltools.gnu-tools-for-stm32.11.3.rel1.win32_1.1.1.202309131626/tools/bin/../lib/gcc/arm-none-eabi/11.3.1/../../../../arm-none-eabi/lib/thumb/v7-m/nofp\libc_nano.a(libc_a-locale.o)
                                          0x9 (size before relaxing)
 .rodata.str1.1
                0x000000000803e08a        0x2 D:/Program Files/STM32CubeIDE_1.10.1/STM32CubeIDE/plugins/com.st.stm32cube.ide.mcu.externaltools.gnu-tools-for-stm32.11.3.rel1.win32_1.1.1.202309131626/tools/bin/../lib/gcc/arm-none-eabi/11.3.1/../../../../arm-none-eabi/lib/thumb/v7-m/nofp\libc_nano.a(libc_a-locale.o)
 .rodata.__assert_func.str1.1
                0x000000000803e08a       0x3c D:/Program Files/STM32CubeIDE_1.10.1/STM32CubeIDE/plugins/com.st.stm32cube.ide.mcu.externaltools.gnu-tools-for-stm32.11.3.rel1.win32_1.1.1.202309131626/tools/bin/../lib/gcc/arm-none-eabi/11.3.1/../../../../arm-none-eabi/lib/thumb/v7-m/nofp\libc_nano.a(libc_a-assert.o)
                                         0x3d (size before relaxing)
 .rodata.__gethex.str1.1
