:020000040800F2
:1000000000C00020F5120008F5B9000839130008F7
:10001000F7B90008F9B90008FBB9000800000000B2
:100020000000000000000000000000002191000816
:10003000FDB9000800000000C191000801BA0008E5
:100040003913000839130008391300083913000860
:100050003913000839130008391300083913000850
:1000600069B500083913000839130008391300086E
:10007000391300083913000839130008C12000089B
:100080003913000839130008391300083913000820
:100090003913000839130008391300083913000810
:1000A0003913000839130008391300083913000800
:1000B000391300083913000875280008391300089F
:1000C00039130008491F0008B11E00083913000841
:1000D000391300080D4100083913000839130008CE
:1000E00015350008391300083913000839130008C2
:1000F00039130008391300083913000839130008B0
:10010000391300083913000855280008391300086E
:10011000853E000809400008F11500083913000861
:10012000391300083913000839130008391300087F
:1001300000000000000000000000000000000000BF
:1001400000000000000000000000000000000000AF
:10015000000000000000000000000000000000009F
:10016000000000000000000000000000000000008F
:10017000000000000000000000000000000000007F
:10018000000000000000000000000000000000006F
:10019000000000000000000000000000000000005F
:1001A000000000000000000000000000000000004F
:1001B000000000000000000000000000000000003F
:1001C000000000000000000000000000000000002F
:1001D000000000000000000000000000000000001F
:0401E0005FF8E0F1F3
:1001F00010B5054C237833B9044B13B10448AFF361
:1002000000800123237010BD5C0600200000000068
:100210007011010808B5034B1BB103490348AFF344
:10022000008008BD00000000600600207011010879
:10023000034613F8012B002AFBD1181A0138704726
:1002400081F0004102E000BF83F0004330B54FEA87
:1002500041044FEA430594EA050F08BF90EA020FF4
:100260001FBF54EA000C55EA020C7FEA645C7FEA87
:10027000655C00F0E2804FEA5454D4EB5555B8BFAA
:100280006D420CDD2C4480EA020281EA030382EA1B
:10029000000083EA010180EA020281EA0303362DAD
:1002A00088BF30BD11F0004F4FEA01314FF4801C80
:1002B0004CEA113102D0404261EB410113F0004F92
:1002C0004FEA03334CEA133302D0524263EB430349
:1002D00094EA050F00F0A780A4F10104D5F1200EE7
:1002E0000DDB02FA0EFC22FA05F2801841F1000142
:1002F00003FA0EF2801843FA05F359410EE0A5F116
:1003000020050EF1200E012A03FA0EFC28BF4CF046
:10031000020C43FA05F3C01851EBE37101F00045FC
:1003200007D54FF0000EDCF1000C7EEB00006EEB09
:100330000101B1F5801F1BD3B1F5001F0CD3490893
:100340005FEA30004FEA3C0C04F101044FEA4452EA
:1003500012F5800F80F09A80BCF1004F08BF5FEA71
:10036000500C50F1000041EB045141EA050130BD51
:100370005FEA4C0C404141EB0101013C28BFB1F563
:10038000801FE9D291F0000F04BF01460020B1FAAE
:1003900081F308BF2033A3F10B03B3F120020CDA81
:1003A0000C3208DD02F1140CC2F10C0201FA0CF05F
:1003B00021FA02F10CE002F11402D8BFC2F1200CC4
:1003C00001FA02F120FA0CFCDCBF41EA0C0190407A
:1003D000E41AA2BF01EB0451294330BD6FEA0404C3
:1003E0001F3C1CDA0C340EDC04F11404C4F12002AE
:1003F00020FA04F001FA02F340EA030021FA04F3C0
:1004000045EA030130BDC4F10C04C4F1200220FA16
:1004100002F001FA04F340EA0300294630BD21FA54
:1004200004F0294630BD94F0000F83F4801306BF1A
:1004300081F480110134013D4EE77FEA645C18BF0E
:100440007FEA655C29D094EA050F08BF90EA020FA5
:1004500005D054EA000C04BF1946104630BD91EA9D
:10046000030F1EBF0021002030BD5FEA545C05D1A0
:100470004000494128BF41F0004130BD14F58004DF
:100480003CBF01F5801130BD01F0004545F0FE4153
:1004900041F470014FF0000030BD7FEA645C1ABF88
:1004A000194610467FEA655C1CBF0B46024650EABF
:1004B000013406BF52EA033591EA030F41F40021EB
:1004C00030BD00BF90F0000F04BF0021704730B571
:1004D0004FF4806404F132044FF000054FF0000146
:1004E00050E700BF90F0000F04BF0021704730B507
:1004F0004FF4806404F1320410F0004548BF4042DC
:100500004FF000013EE700BF42004FEAE2014FEA30
:1005100031014FEA02701FBF12F07F4393F07F4F0B
:1005200081F06051704732F07F4208BF704793F00E
:100530007F4F04BF41F40021704730B54FF4607421
:1005400001F0004521F000411CE700BF50EA010224
:1005500008BF704730B54FF000050AE050EA0102CD
:1005600008BF704730B511F0004502D5404261EB3D
:1005700041014FF4806404F132045FEA915C3FF47E
:10058000D8AE4FF003025FEADC0C18BF03325FEA1B
:10059000DC0C18BF033202EBDC02C2F1200300FACC
:1005A00003FC20FA02F001FA03FE40EA0E0021FAF1
:1005B00002F11444BDE600BF70B54FF0FF0C4CF4DF
:1005C000E06C1CEA11541DBF1CEA135594EA0C0F91
:1005D00095EA0C0F00F0DEF82C4481EA030621EACC
:1005E0004C5123EA4C5350EA013518BF52EA033507
:1005F00041F4801143F4801338D0A0FB02CE4FF0B9
:100600000005E1FB02E506F00042E0FB03E54FF0E8
:100610000006E1FB03569CF0000F18BF4EF0010EE0
:10062000A4F1FF04B6F5007F64F5407404D25FEADC
:100630004E0E6D4146EB060642EAC62141EA55518F
:100640004FEAC52040EA5E504FEACE2EB4F1FD0CD1
:1006500088BFBCF5E06F1ED8BEF1004F08BF5FEA4F
:10066000500E50F1000041EB045170BD06F0004601
:1006700046EA010140EA020081EA0301B4EB5C04AE
:10068000C2BFD4EB0C0541EA045170BD41F48011A6
:100690004FF0000E013C00F3AB8014F1360FDEBFCB
:1006A000002001F0004170BDC4F10004203C35DAA7
:1006B0000C341BDC04F11404C4F1200500FA05F32A
:1006C00020FA04F001FA05F240EA020001F00042CB
:1006D00021F0004110EBD37021FA04F642EB060141
:1006E0005EEA430E08BF20EAD37070BDC4F10C046B
:1006F000C4F1200500FA04F320FA05F001FA04F22F
:1007000040EA020001F0004110EBD37041F100011A
:100710005EEA430E08BF20EAD37070BDC4F1200525
:1007200000FA05F24EEA020E20FA04F301FA05F28D
:1007300043EA020321FA04F001F0004121FA04F235
:1007400020EA020000EBD3705EEA430E08BF20EA05
:10075000D37070BD94F0000F0FD101F0004640003F
:1007600041EB010111F4801F08BF013CF7D041EAC1
:10077000060195F0000F18BF704703F000465200C5
:1007800043EB030313F4801F08BF013DF7D043EA96
:100790000603704794EA0C0F0CEA135518BF95EA4C
:1007A0000C0F0CD050EA410618BF52EA4306D1D1D3
:1007B00081EA030101F000414FF0000070BD50EAF2
:1007C000410606BF1046194652EA430619D094EA7C
:1007D0000C0F02D150EA013613D195EA0C0F05D166
:1007E00052EA03361CBF104619460AD181EA0301BA
:1007F00001F0004141F0FE4141F470014FF0000072
:1008000070BD41F0FE4141F4780170BD70B54FF00C
:10081000FF0C4CF4E06C1CEA11541DBF1CEA13558C
:1008200094EA0C0F95EA0C0F00F0A7F8A4EB05046E
:1008300081EA030E52EA03354FEA013100F0888065
:100840004FEA03334FF0805545EA131343EA12632E
:100850004FEA022245EA111545EA10654FEA0026E3
:100860000EF000419D4208BF964244F1FD0404F59C
:10087000407402D25B084FEA3202B61A65EB0305F8
:100880005B084FEA32024FF480104FF4002CB6EBB5
:10089000020E75EB030E22BFB61A754640EA0C0035
:1008A0005B084FEA3202B6EB020E75EB030E22BF75
:1008B000B61A754640EA5C005B084FEA3202B6EBB6
:1008C000020E75EB030E22BFB61A754640EA9C0075
:1008D0005B084FEA3202B6EB020E75EB030E22BF45
:1008E000B61A754640EADC0055EA060E18D04FEA03
:1008F000051545EA16754FEA06164FEAC30343EAA3
:1009000052734FEAC2025FEA1C1CC0D111F4801F6F
:100910000BD141EA00014FF000004FF0004CB6E768
:1009200011F4801F04BF01430020B4F1FD0C88BF07
:10093000BCF5E06F3FF6AFAEB5EB030C04BFB6EB12
:10094000020C5FEA500C50F1000041EB045170BD05
:100950000EF0004E4EEA113114EB5C04C2BFD4EB32
:100960000C0541EA045170BD41F480114FF0000EB6
:10097000013C90E645EA060E8DE60CEA135594EA32
:100980000C0F08BF95EA0C0F3FF43BAF94EA0C0F35
:100990000AD150EA01347FF434AF95EA0C0F7FF4AA
:1009A00025AF104619462CE795EA0C0F06D152EAFE
:1009B00003353FF4FDAE1046194622E750EA4106E2
:1009C00018BF52EA43067FF4C5AE50EA41047FF4F3
:1009D0000DAF52EA43057FF4EBAE12E74FF0FF3C58
:1009E00006E000BF4FF0010C02E000BF4FF0010C29
:1009F0004DF804CD4FEA410C7FEA6C5C4FEA430CA2
:100A000018BF7FEA6C5C1BD001B050EA410C0CBFF0
:100A100052EA430C91EA030F02BF90EA020F002052
:100A2000704710F1000F91EA030F58BF994208BFB9
:100A300090422CBFD8176FEAE37040F00100704776
:100A40004FEA410C7FEA6C5C02D150EA013C07D1CD
:100A50004FEA430C7FEA6C5CD6D152EA033CD3D018
:100A60005DF8040B704700BF8446104662468C4612
:100A70001946634600E000BF01B5FFF7B7FF002845
:100A800048BF10F1000F01BD4DF808EDFFF7F4FF6E
:100A90000CBF012000205DF808FB00BF4DF808EDF9
:100AA000FFF7EAFF34BF012000205DF808FB00BF1C
:100AB0004DF808EDFFF7E0FF94BF012000205DF83E
:100AC00008FB00BF4DF808EDFFF7CEFF94BF0120F3
:100AD00000205DF808FB00BF4DF808EDFFF7C4FFEC
:100AE00034BF012000205DF808FB00BF4FEA410C35
:100AF0007FEA6C5C02D150EA013C0AD14FEA430C18
:100B00007FEA6C5C02D152EA033C02D14FF0000054
:100B100070474FF0010070474FEA410212F5001292
:100B200015D211D56FF47873B3EB625212D94FEA34
:100B3000C12343F0004343EA505311F0004F23FA1E
:100B400002F018BF404270474FF00000704750EA73
:100B5000013005D111F0004008BF6FF00040704730
:100B60004FF00000704700BF4A0011D212F500128A
:100B700011D20DD56FF47873B3EB62520ED44FEAF5
:100B8000C12343F0004343EA505323FA02F0704775
:100B90004FF00000704750EA013002D14FF0FF30B3
:100BA00070474FF0000070474FEA4102B2F1E04356
:100BB00024BFB3F5001CDCF1FE5C0DD901F0004C44
:100BC0004FEAC0024CEA5070B2F1004F40EB830094
:100BD00008BF20F00100704711F0804F21D113F1C0
:100BE0003872BCBF01F00040704741F480114FEAF9
:100BF0005252C2F11802C2F1200C10FA0CF320FA82
:100C000002F018BF40F001004FEAC1234FEAD3239E
:100C100003FA0CFC40EA0C0023FA02F34FEA430308
:100C2000CCE77FEA625307D150EA01331EBF4FF091
:100C3000FE4040F44000704701F0004040F0FE40AC
:100C400040F40000704700BF80F0004002E000BFA9
:100C500081F0004142001FBF5FEA410392EA030FA7
:100C60007FEA226C7FEA236C6AD04FEA1262D2EBF1
:100C70001363C1BFD218414048404140B8BF5B42F6
:100C8000192B88BF704710F0004F40F4000020F08F
:100C90007F4018BF404211F0004F41F4000121F0A5
:100CA0007F4118BF494292EA030F3FD0A2F10102EF
:100CB00041FA03FC10EB0C00C3F1200301FA03F12D
:100CC00000F0004302D5494260EB4000B0F5000F50
:100CD00013D3B0F1807F06D340084FEA310102F10F
:100CE0000102FE2A51D2B1F1004F40EBC25008BFC1
:100CF00020F0010040EA03007047490040EB00008B
:100D0000013A28BFB0F5000FEDD2B0FA80FCACF18B
:100D1000080CB2EB0C0200FA0CF0AABF00EBC250B8
:100D200052421843BCBFD0401843704792F0000FA6
:100D300081F4000106BF80F400000132013BB5E7F9
:100D40004FEA41037FEA226C18BF7FEA236C21D06F
:100D500092EA030F04D092F0000F08BF08467047D4
:100D600090EA010F1CBF0020704712F07F4F04D1A2
:100D7000400028BF40F00040704712F100723CBFB5
:100D800000F50000704700F0004343F0FE4040F4DF
:100D9000000070477FEA226216BF08467FEA23639D
:100DA0000146420206BF5FEA412390EA010F40F488
:100DB000800070474FF0000304E000BF10F00043D4
:100DC00048BF40425FEA000C08BF704743F09643BB
:100DD00001464FF000001CE050EA010208BF7047D6
:100DE0004FF000030AE000BF50EA010208BF70475D
:100DF00011F0004302D5404261EB41015FEA010C72
:100E000002BF84460146002043F0B64308BFA3F169
:100E10008053A3F50003BCFA8CF2083AA3EBC2534B
:100E200010DB01FA02FC634400FA02FCC2F120026A
:100E3000BCF1004F20FA02F243EB020008BF20F0A1
:100E40000100704702F1200201FA02FCC2F1200207
:100E500050EA4C0021FA02F243EB020008BF20EAFC
:100E6000DC7070474FF0FF0C1CEAD0521EBF1CEA2A
:100E7000D15392EA0C0F93EA0C0F6FD01A4480EA18
:100E8000010C400218BF5FEA41211ED04FF0006301
:100E900043EA501043EA5111A0FB01310CF000402D
:100EA000B1F5000F3EBF490041EAD3715B0040EA53
:100EB000010062F17F02FD2A1DD8B3F1004F40EB23
:100EC000C25008BF20F00100704790F0000F0CF0F6
:100ED000004C08BF49024CEA502040EA51207F3ABA
:100EE000C2BFD2F1FF0340EAC250704740F4000095
:100EF0004FF00003013A5DDC12F1190FDCBF00F086
:100F000000407047C2F10002410021FA02F1C2F133
:100F1000200200FA02FC5FEA310040F1000053EACF
:100F20004C0308BF20EADC70704792F0000F00F01D
:100F3000004C02BF400010F4000F013AF9D040EA23
:100F40000C0093F0000F01F0004C02BF490011F4B7
:100F5000000F013BF9D041EA0C018FE70CEAD153B5
:100F600092EA0C0F18BF93EA0C0F0AD030F0004C35
:100F700018BF31F0004CD8D180EA010000F00040E9
:100F8000704790F0000F17BF90F0004F084691F0A7
:100F9000000F91F0004F14D092EA0C0F01D14202E1
:100FA0000FD193EA0C0F03D14B0218BF084608D1AA
:100FB00080EA010000F0004040F0FE4040F40000F4
:100FC000704740F0FE4040F4400070474FF0FF0C87
:100FD0001CEAD0521EBF1CEAD15392EA0C0F93EACE
:100FE0000C0F69D0A2EB030280EA010C49024FEA20
:100FF000402037D04FF0805343EA111143EA1013D9
:101000000CF000408B4238BF5B0042F17D024FF490
:10101000000C8B4224BF5B1A40EA0C00B3EB510F6B
:1010200024BFA3EB510340EA5C00B3EB910F24BF54
:10103000A3EB910340EA9C00B3EBD10F24BFA3EBD9
:10104000D10340EADC001B0118BF5FEA1C1CE0D1A1
:10105000FD2A3FF650AF8B4240EBC25008BF20F054
:10106000010070470CF0004C4CEA50207F32C2BFA8
:10107000D2F1FF0340EAC250704740F400004FF045
:101080000003013A37E792F0000F00F0004C02BF76
:10109000400010F4000F013AF9D040EA0C0093F040
:1010A000000F01F0004C02BF490011F4000F013B9A
:1010B000F9D041EA0C0195E70CEAD15392EA0C0F02
:1010C00008D142027FF47DAF93EA0C0F7FF470AF3A
:1010D000084676E793EA0C0F04D14B023FF44CAF7D
:1010E00008466EE730F0004C18BF31F0004CCAD112
:1010F00030F000427FF45CAF31F000437FF43CAF4E
:101100005FE700BF4FF0FF3C06E000BF4FF0010C6F
:1011100002E000BF4FF0010C4DF804CD4FEA400251
:101120004FEA41037FEA226C18BF7FEA236C11D09B
:1011300001B052EA530C18BF90EA010F58BFB2EB4E
:10114000030088BFC81738BF6FEAE17018BF40F0CE
:10115000010070477FEA226C02D15FEA402C05D182
:101160007FEA236CE4D15FEA412CE1D05DF8040B07
:10117000704700BF844608466146FFE70FB5FFF79A
:10118000C9FF002848BF10F1000F0FBD4DF808ED52
:10119000FFF7F4FF0CBF012000205DF808FB00BF43
:1011A0004DF808EDFFF7EAFF34BF012000205DF89D
:1011B00008FB00BF4DF808EDFFF7E0FF94BF0120EA
:1011C00000205DF808FB00BF4DF808EDFFF7D2FFE7
:1011D00094BF012000205DF808FB00BF4DF808ED2A
:1011E000FFF7C8FF34BF012000205DF808FB00BFF7
:1011F0004FEA4002B2F1FE4F0FD34FF09E03B3EB24
:1012000012620DD94FEA002343F0004310F0004F63
:1012100023FA02F018BF404270474FF000007047B9
:1012200012F1610F01D1420205D110F0004008BF58
:101230006FF0004070474FF00000704742000ED240
:10124000B2F1FE4F0BD34FF09E03B3EB126209D401
:101250004FEA002343F0004323FA02F070474FF0B7
:101260000000704712F1610F01D1420202D14FF02C
:10127000FF3070474FF00000704700BF38B505469B
:101280000C460022002328462146FFF707FC28B918
:1012900028462146BDE8384000F00AB8284604F147
:1012A000004100F005F8404261EB410138BD00BF4C
:1012B000D0B500220B4B06460F46FFF77DF9FFF72E
:1012C00053FC0446FFF7FEF80022074BFFF774F9C2
:1012D00002460B4630463946FEF7B6FFFFF744FCA0
:1012E0002146D0BD0000F03D0000F04180F313889E
:1012F00070470000002103E00A4B5B584350043163
:1013000009480A4B42189A42F6D3094A02E00023E0
:1013100042F8043B074B9A42F9D300F00FF80AF069
:10132000E1FA704730E10308000000205006002079
:101330005C0600203C9B0020FEE70000374B82B09B
:101340001A6842F001021A605968354A0A405A6028
:101350001A6822F0847222F480321A601A6822F429
:1013600080221A605A6822F4FE025A604FF41F026B
:101370009A600022009201921A6842F480321A6048
:101380001A6802F400320192009A01320092019A26
:101390001AB9009AB2F5A06FF2D11A6812F40032AD
:1013A00018BF01220192019A012A30D11D4A116809
:1013B00041F010011160116821F003011160116802
:1013C00041F0020111605A685A605A685A605A68BE
:1013D00042F480625A605A6822F47C125A605A6859
:1013E00042F4E8125A601A6842F080721A601A6871
:1013F0009201FCD55A6822F003025A605A6842F002
:1014000002025A605A6802F00C02082AFAD14FF020
:101410000062054B9A6002B0704700BF00100240A6
:101420000000FFF80020024000ED00E030B501218F
:1014300091B0042008F084FE00243023384805A928
:10144000ADF814308DF8174008F07EFC01210846F5
:1014500008F06AFE01214FF4007008F071FE314877
:1014600008F0CCFA304B80220593304B4FF480616A
:10147000CDE906344FF48073CDE90A2320230225F9
:10148000CDE90C134FF48053264805A9CDE90E345D
:10149000CDE9085408F02CFB0121224808F046FB56
:1014A00040F20113ADF804304FF460236946204840
:1014B000CDE9023400948DF8105008F0AFF84FF4E5
:1014C000404008F0E7FD052301220421184808F0F8
:1014D000F6F805232A461946154808F0F0F80121C8
:1014E000134808F0C8F80121114808F0BBF810486B
:1014F00008F0CAF80E4C204608F0CBF80028FAD1C4
:101500000B4808F0CAF80A4C204608F0CBF800282F
:10151000FAD10121064808F0C9F811B030BD00BF6A
:1015200000080140080002404C24014078060020D9
:10153000002401400C22024B1860024B1A707047C5
:10154000840600208E06002010B50849084C094882
:10155000234600220978006800F064FA20B1207860
:10156000A0F148035842584110BD00BF8E0600202C
:1015700088060020840600200346034903480A2207
:101580000978006800F071BA8E06002084060020F9
:1015900030B5012185B0102008F0DEFD002541F6B0
:1015A0001F420A23104C01A92046CDE901238DF8E2
:1015B0000C5008F091FE0D4B6846009307F0F0FFC9
:1015C0002046012109F008F901222046114608F0C1
:1015D000EEFF2946204609F036F82946204608F055
:1015E000CCFF05B030BD00BF00100040360900013F
:1015F00008B50121064809F0F3F840B1012104487B
:1016000009F0F9F8034AD36883F48053D36008BD26
:10161000001000400008014013B50A4C01210420CD
:1016200008F08EFD084B204601A9019308F08CFBC1
:101630004FF48051204608F0E5FBFFF7A9FF02B008
:1016400010BD00BF000801400010031008B5FFF7EF
:10165000E3FF0121264808F090FF642007F01EF9FF
:101660000021234808F089FF642007F017F90121C1
:101670001F4808F082FF642007F010F900211C4881
:1016800008F07BFF642007F009F90121184808F0F1
:1016900074FF642007F002F90021154808F06DFF7F
:1016A0004FF48051134808F0ADFB642007F0F6F8C2
:1016B000114C0F4D0F4E23781BB9142007F0EEF894
:1016C000F9E70121284608F058FF642007F0E6F802
:1016D0000021284608F051FF4FF48051304608F0B1
:1016E00091FB642007F0DAF8002332202370E5E74D
:1016F00000100040000801408F0600202DE9F04353
:10170000804689B00E460820012117461D46204C10
:1017100008F016FD01214FF0007008F01DFD1D4B73
:10172000694620464FF48079009308F00DFB48236A
:101730002046002469468DF80330ADF8009008F08B
:1017400003FB01214FF4EA1008F05EFB9DF84030E6
:1017500001A911488DF80630ADF80A40CDF80C907B
:101760008DF807808DF808708DF80960ADF8045089
:1017700007F0EAFF40F2011304A8CDE904440694FF
:10178000ADF81C3008F04AF8204609B0BDE8F083F7
:10179000000C01400002031800640040F0B5122361
:1017A000002487B00A468DF80E1001460DF10F0097
:1017B000CDE90133ADF80C400CF0C9F90C4801A992
:1017C00008F09EF806460A4F31463846A5B208F0A2
:1017D000E9F830B90134B4F5805FF5D1012007B0E4
:1017E000F0BD40F6FF73EB1A58425841F7E700BFCF
:1017F0000064004010B50446042007F003FF0A4BC4
:1018000001221C604FF47A735C43084B1A804FF03E
:10181000E0231A6942F002021A615C611A6942F01F
:1018200001021A6110BD00BF94060020900600203E
:1018300070B50B4B4FF0E0241B68656958430023DB
:10184000A169A2699142FCD095BFAE1A5B189B19A1
:101850009B1A98BF5B18834200D370BD1146F0E716
:101860009406002038B5044607F08CF901280DD005
:101870000A4D2888A04203D8B4FBF0F007F00EF818
:101880002B88B4FBF3F203FB1244A4B24FF47A703A
:101890006043BDE83840FFF7CBBF00BF9006002093
:1018A0000023F0B585B003932A4B01A81A7A596832
:1018B0008DF808209A7801918DF80920DA689B89C3
:1018C0000A21ADF80A30130C120E8DF80C308DF889
:1018D0000D2009F061FFADF80E0008F0A9F93420E1
:1018E00008F0BAF901AC1C4808F0E2F926461A4F94
:1018F0001A4D042811D1B37872781B0443EA0223ED
:101900003278F1781343384643EA0161043708F02E
:10191000EFF9AF4206F10406EBD108F095F90E4A53
:10192000A37861781B0443EA0123217852F8040B61
:101930000B43E178AA4243EA016306D0984204F1DE
:101940000404EDD0002005B0F0BDC31A5842584140
:10195000F9E700BFB06D002000F803080CF8030899
:1019600030B5002585B0CDE901551A4B0395D3F864
:1019700000280A210192D3F8042801A80292D3F882
:101980000838154C039309F007FF9DF80E20C3B2E9
:101990009A4205D19DF80F30C0F30F2083420AD040
:1019A0000E480BF0FDFE0E4B0FCB84E80F00FFF747
:1019B00077FF05B030BD9DF80830019A23729DF87D
:1019C00009306260A3709DF80D30E5701B06E3607E
:1019D000EFE700BF00F00308B06D00208811010898
:1019E0005004002008B500F0E7F9012008BD30B52B
:1019F000FF2A8BB004460E9D0AD10122009505A84E
:101A000000F0DCF9204605A900F0F6F90BB030BD76
:101A1000CDE90135012305A800931346002200F00B
:101A2000DBF9EFE707B500930123FFF7E0FF03B011
:101A30005DF804FB30B514468BB0FF2C05460E98BC
:101A40000AD10090002205A800F0B8F9284605A99F
:101A500000F0D2F90BB030BD0022CDE90130009288
:101A6000234605A800F0B8F9F0E71FB58DF80F3050
:101A70000DF10F0300930123FFF7DCFF05B05DF8C4
:101A800004FB2DE9F743984601249DF828900DF1B9
:101A9000070305460E46174604FA08F4FFF7C2FF8F
:101AA0009DF80730B9F1000F0BD02343DBB23A4663
:101AB000314628468DF80730FFF7D7FF03B0BDE861
:101AC000F08323EA0403F2E72DE9F3411C460DF10C
:101AD000070305460E4617469DF82080FFF7A2FF34
:101AE000C0B1A4EB080301249DF8242004FA08F4F3
:101AF0000133013C9C409A409DF80730D2B222400D
:101B000023EA0403134331463A4628468DF807304A
:101B1000FFF7ABFF02B0BDE8F08110B504460368E3
:101B20000021186C08F002F82368986C08F02AF875
:101B300023680021186808F031FA2368002118682A
:101B400008F038FA23680022BDE810400A21186C1A
:101B500007F0F7BF002307B501930A4B01A9186AE4
:101B600006F054FA019B4BB14FF0E0234FF0805246
:101B7000C3F8042DBFF34F8FBFF36F8F03B05DF831
:101B800004FB00BF0000002040F20121054B1A6851
:101B9000126811801B6800224FF4C061186808F0B9
:101BA00021BA00BF00000020002342F20F7282B071
:101BB00001930193019B934201D902B07047019BAD
:101BC00001330193F6E700002DE9F0430446036872
:101BD00089B0586A012108F0B3FA236801215869D5
:101BE00008F0AEFA23680121586808F0B5FA02A897
:101BF00008F0F9F841F20343ADF80A30236802A96E
:101C0000DA699869ADF8082008F09EF8236802A9FF
:101C1000DA6A986AADF8082008F096F823689F6A97
:101C2000B3F82C80384641469D699E8B08F0E8F851
:101C30004146384608F0DEF83146002800F09A8028
:101C4000284608F0DDF841463846FFF7ADFF08F0BA
:101C5000D9F841463846FFF7A7FF08F0D3F84146C8
:101C60003846FFF7A1FF08F0CBF83146284608F0C8
:101C7000C7F8DFF838913146284608F0BBF810B9AC
:101C8000B9F10109F7D1494D4146384608F0B2F89B
:101C900008B9013DF8D11C238DF80B30236802A947
:101CA000DA699869ADF8082008F04EF8236802A9AF
:101CB000DA6A986AADF8082008F046F82368072722
:101CC000186808F0E7F83A4A3A4B4FF48076CDE9C5
:101CD00005234FF48043ADF81C30236804A91A692A
:101CE00000250492186808F0EFF8236801224FF4E9
:101CF0008071186808F076F9236801A89B688DF850
:101D000005708DF80430ADF8066007F049FC2368D3
:101D100001A8DB688DF8043007F042FC236801213C
:101D2000986B08F001FA226803A81368C4E90B5500
:101D30001033A3628023C4E90F354FF40053C4E984
:101D40000D55C4E91155E364536C8DF80D708DF891
:101D50000C30ADF80E6007F023FC03222946012069
:101D600005F0F6FF2062012006F0D4F8606209B0A9
:101D7000BDE8F083284608F043F8DFF8309031469C
:101D8000284608F037F810B9B9F10109F7D1314602
:101D90002846FFF709FF08F035F831462846FFF7D7
:101DA00003FF08F02DF8FFF7FFFE41E7A1860100D1
:101DB0000000FFBF30000004FFF706BF0360009B78
:101DC000017182714FF6FF710022036102230273D9
:101DD000C181C27143717047C381019B017103606E
:101DE0000023C371029B9DF80010036102238171DF
:101DF000027343717047000038B500230D46044656
:101E000019464FF0FF32406A06F05AF92946231D61
:101E100005F1140251F8040B914243F8040BF9D177
:101E2000A57A012D0ED12146636863636369E3627D
:101E300051F8283B186C07F05BFE23682946186CA4
:101E400007F074FE2368002218684FF4806108F0E0
:101E5000C9F82368012218684FF4007108F0C2F82D
:101E600040F2011223681B681A8000234FF47A7233
:101E70001946206A06F024F901280BD1E57AB5FA53
:101E800085F56D090023606A1A46194605F088FF3A
:101E9000284638BD2046FFF740FE2046FFF794FE57
:101EA00002480BF0E3FC0025ECE700BFEB11010852
:101EB00010B5204C20492368186808F0AAF870B1C2
:101EC000637A5A1E6272002B2CD040F201122368F2
:101ED0001B681A8023681849186808F0B4F823684A
:101EE0001649186808F095F820B123681349186856
:101EF00008F0A9F823681249186808F08AF820B198
:101F000023680F49186808F09EF823680D4918687F
:101F100008F07FF868B123680A491868BDE81040E6
:101F200008F091B80123E372FFF714FEFFF72CFECF
:101F3000D0E710BD000000200004001000010010D8
:101F40000008001000020010F8B55C4C25682868F5
:101F5000818A8BB211F001011ED00023A361A37A04
:101F600023B14FF6FF73628A9A4209D00022217A88
:101F70002868490001F0FE01BDE8F84008F040B8CB
:101F80000121286808F022F8217A236849000122FB
:101F9000186801F0FE01EFE79E0741D5A27A638A37
:101FA0001AB14FF6FF72934219D0028B4FF6FF72AF
:101FB00093420CD0227C82B1190A08F01CF82368E5
:101FC000A17C186808F017F84FF6FF7363820122AE
:101FD00023684FF4806118685DE0D9B2F2E7636866
:101FE000012B19D107F0F2FF2368002218684FF483
:101FF000C06107F0F7FF23680122186C0A2107F07F
:10200000A0FD23680121186807F0C8FFBFF35F8FA8
:1020100023681B681B8BF8BD012107F0CBFFE3E7AA
:1020200013F004061ED0038B5D070BD5A37A012B9A
:1020300013D140F20113038023681A681388D9056D
:10204000FCD4E8E7D4E905656B1CA36107F0D5FF74
:102050007055A26963689A42EED1FFF77BFDFFF7E6
:1020600093FDE9E713F040050DD0D4E905756B1C2D
:10207000A36107F0C2FF7855A26963689A42CAD18A
:1020800032462368A5E71B06C5D5A37A012B06D1E6
:102090002A464FF48061BDE8F84007F0A3BFD4E9B9
:1020A0000523591CA161D15C07F0A5FFA2696368F3
:1020B0009A42B0D12A4623688BE700BF0000002077
:1020C00010B50F4C2368986C07F044FD30B12046E2
:1020D000FFF723FDFFF73EFDFFF756FD2368D86CA1
:1020E00007F038FD58B12368D86C07F04BFD012389
:1020F000E372FFF72FFDBDE81040FFF745BD10BDAF
:1021000000000020034600223C210148FFF7ADBC3F
:102110000000002008B54FF4FA70FFF7A3FB4FF45E
:10212000FA70FFF79FFBAE20FFF7ECFF2020FFF7D0
:10213000E9FF1020FFF7E6FFB020FFF7E3FFC8201C
:10214000FFF7E0FF0020FFF7DDFF1020FFF7DAFFC9
:102150004020FFF7D7FF8120FFF7D4FFFF20FFF7D4
:10216000D1FFA120FFF7CEFFA620FFF7CBFFA820CD
:10217000FFF7C8FF3F20FFF7C5FFA420FFF7C2FF0E
:10218000D320FFF7BFFF0020FFF7BCFFD520FFF7EC
:10219000B9FFF020FFF7B6FFD920FFF7B3FF2220E9
:1021A000FFF7B0FFDA20FFF7ADFF1220FFF7AAFF1D
:1021B000DB20FFF7A7FF2020FFF7A4FF8D20FFF70C
:1021C000A1FF1420FFF79EFFBDE80840AF20FFF7F6
:1021D00099BF10B50446A1F15000C0B2FFF792FFBD
:1021E000200940F01000FFF78DFF04F00F00BDE85C
:1021F0001040FFF787BF0000002130B5A3B07C225C
:1022000003A80291B0240BF031FC0C4D2046FFF7DF
:1022100079FF0020FFF776FF1020FFF773FF0134EE
:1022200002AB0093402280233C212846E4B2FFF712
:1022300001FCB82CEAD123B030BD00BF0000002063
:10224000012B2DE9F74F04460D46174622D0022BED
:1022500059D003B0BDE8F08F7E2C82BF0024013539
:10226000EDB22046203B2946DEB2FFF7B2FF06233F
:1022700003FB069640223C2150460096FFF7DAFB0E
:102280000634E4B208F101085FFA88F3FB5C002B26
:10229000E2D1DEE74FF00008DFF87890DFF878A0B1
:1022A000F2E7782C84BF00240135A6F1200688BF10
:1022B000EDB2F6B2204629464FEA061B09EB061698
:1022C000FFF787FF082340223C2150460096FFF786
:1022D000B1FB691C2046C9B20BF1080BFFF779FF6F
:1022E00009EB0B030093402208233C215046FFF7E3
:1022F000A1FB0834E4B208F101085FFA88F3FE5C40
:10230000002ECED1A5E74FF00008DFF81090DFF8DF
:1023100008A0F2E74013010800000020681501083A
:102320002DE9F34107460C461D46089EDFF828803C
:10233000AC4202D302B0BDE8F08121463846FFF737
:1023400048FF01340096802340223C214046FFF79D
:1023500071FBE4B28036EBE70000002010B52B4C97
:102360009EB06068FEF7D0F802460B4605A82849E3
:102370000BF084FA002105AA01230846FFF760FF4D
:102380002068FEF7C1F802460B46684621490BF06B
:1023900075FA01236A4619460020FFF751FF1E4BCC
:1023A0001E491A880AA80BF069FA0AAA0123022119
:1023B0000020FFF745FF1A4B1A4C1A881A490FA83C
:1023C0000BF05CFA01230FAA03210020FFF738FF6E
:1023D000B4F90020154914A80BF050FA012314AAEF
:1023E00004210020FFF72CFFB4F90220104919A89E
:1023F0000BF044FA0123052119AA0020FFF720FF62
:10240000322006F04BFA1EB010BD00BF7C06002043
:10241000AD120108C1120108D4060020D51201082E
:10242000DA0600209C060020E5120108F5120108DA
:10243000041301082DE9F041554EADF5A15D84B0BE
:102440003378052B0AD0FFF765FE524C3378042B06
:10245000FDD8DFE803F0074170949800322006F0C1
:102460001DFAEDE74C4901220DF20C4004F0FCFC92
:1024700005464FF420310DF20C4004F0A4FE1DBBC4
:102480004FF4897745480BF0F1F904AB0DF10808DA
:102490001D1F013F08D10DF20C4004F089FEFFF72B
:1024A000ABFE04233370D1E7434629464FF48062E4
:1024B0000DF20C4004F07AFD00210823802208462A
:1024C0000095FFF72DFFE4E7E368354883F010033C
:1024D000E3600BF0CBF9DEE701222F490DF20C404F
:1024E00004F0C2FCF8B9A1272C480BF0BFF904ABEB
:1024F0000DF108081D1F013F05D10DF20C4004F03D
:1025000057FE0323CEE7434629464FF480620DF27F
:102510000C4004F04BFD0021082380220846009562
:10252000FFF7FEFEE7E7E3681D4883F01003E36072
:102530000BF09CF9E1E7184901220DF20C4004F080
:1025400093FC05464FF4D9210DF20C4004F03BFEFC
:10255000002DE8D111480BF089F903AF04AB3946DF
:102560004FF48062083B0DF20C4004F01FFD08237D
:102570008022294628460097FFF7D2FEBDE7642057
:1025800006F08CF962E7FFF7E9FE3220F8E700BFBA
:10259000800000200010014075120108131301088B
:1025A0002A13010807B50121082007F0C9FD044BD3
:1025B000044801A9019307F0C7FB03B05DF804FBD1
:1025C00004000328000C014007B50121102007F08A
:1025D000B7FD044B044801A9019307F0B5FB03B014
:1025E0005DF804FB020003480010014013B5084CDD
:1025F0000121102007F0A4FD064B204601A90193FC
:1026000007F0A2FB1021204607F0FAFB02B010BD34
:10261000001001401000031030B5012189B040F6D0
:10262000040007F08DFD1A4B69461A4800250093F7
:1026300007F08AFB47224FF47A73174C01A9204612
:10264000CDE901238DF80C5007F046FE134B2046D0
:1026500004A90493ADF81850ADF8165007F086FEA3
:102660002046082107F0CBFF204604A9ADF81650FC
:1026700007F03EFF2046082107F0DBFF204601213E
:1026800007F07BFF0121204607F083FF09B030BD32
:102690000009031800080140002C014060000100FF
:1026A00010B5012188B0042007F04AFD1C4B694693
:1026B0001C48009307F048FB0121084607F04CFD39
:1026C000002447224FF47A7301A94FF08040CDE9EE
:1026D00001238DF80C4007F0FFFD134B04A94FF0C8
:1026E00080400493ADF81840ADF8164007F0C2FEE4
:1026F00008214FF0804007F094FF04A94FF080407C
:10270000ADF8164007F0F4FE08214FF0804007F0C6
:1027100090FF01214FF0804007F02FFF08B010BD5F
:102720000C000318000801406000010070B5012191
:1027300088B0082007F010FD0121052007F000FDFA
:10274000042303260DEB03011B488DF80730ADF879
:10275000046007F0F9FA02A807F0FEFE00254FF624
:10276000FF73164C02A92046CDE9025307F0B4FDD1
:102770002A462B463146204607F022FF05A807F0DF
:10278000F4FE0A23204605A9ADF81C3007F08EFFA1
:102790002046012108F020F801222046114607F0CA
:1027A00006FF2946204607F04EFF0121204607F08C
:1027B000E4FE08B070BD00BF00080140000C0040FE
:1027C00030B5012189B0042007F0C6FC01210920A1
:1027D00007F0B6FCC023ADF8043004231B480DEB12
:1027E00003018DF8073007F0AFFA02A807F0B4FE36
:1027F00000254FF6FF73164C02A92046CDE902537F
:1028000007F06AFD2A462B460321204607F0D8FE32
:1028100005A807F0AAFE0A23204605A9ADF81C303A
:1028200007F044FF2046012107F0D6FF0122204691
:10283000114607F0BCFE2946204607F004FF01219F
:10284000204607F09AFE09B030BD00BF000C0140E1
:102850000008004008B50121054807F0C1FF28B174
:10286000BDE808400121024807F0C5BF08BD00BF10
:10287000000C004008B50121054807F0B1FF28B160
:10288000BDE808400121024807F0B5BF08BD00BF00
:1028900000080040002205480549838C5B428B817B
:1028A000044B8284988CC8819A847047000C004045
:1028B0009C06002000080040B0F57A7F0B4B0BDC33
:1028C00010F57A7F10DB002808DA0022404280B23F
:1028D0009A86A3F8400070474FF47A70002280B2C5
:1028E0009886A3F8402070470148EEE7002C01408D
:1028F00018FCFFFFB0F57A7F0DDC10F57A7F14DB52
:1029000000280ADA4FF080430022404280B29887C4
:10291000A3F8402070474FF47A704FF080430022B4
:1029200080B29A87A3F8400070470148EAE700BFE9
:1029300018FCFFFF08B5FFF76FFEFFF7B1FE0020A0
:10294000FFF7BAFF0020FFF7D5FFFFF7EFFEBDE866
:102950000840FFF735BF00004FF47A72024B9A86A9
:10296000A3F84020704700BF002C01404FF0804387
:102970004FF47A729A87A3F8402070470000000055
:10298000F8B52D4CA388980B4FEA933204D12080E0
:10299000BDE8F840FFF790BF032805D1002323804E
:1029A000BDE8F840FFF7D8BF012AC3F30D000CBF04
:1029B00001254FF0FF35FDF795FD1BA3D3E900235B
:1029C000FDF724FF1AA3D3E90023FDF7F5FD064622
:1029D00028460F46FDF786FD02460B46304639462F
:1029E000FDF7EAFD0022154BFDF710FFFEF794F806
:1029F000A3891349C21A0B8892B2C3EB033003EBCD
:102A0000001023880A80184402EB820300EB830045
:102A10000C4B00B29842B8BF1846B0F57A7FA8BFF9
:102A20004FF47A702080B3E7A11B924183866940FE
:102A30000000000000A074409C06002000004940F7
:102A40009806002018FCFFFFF8B52D4CE388980B82
:102A50004FEA933204D16080BDE8F840FFF74ABFE7
:102A6000032805D100236380BDE8F840FFF77EBF4F
:102A7000012AC3F30D000CBF01254FF0FF35FDF710
:102A800031FD1BA3D3E90023FDF7C0FE1AA3D3E950
:102A90000023FDF791FD064628460F46FDF722FD6F
:102AA00002460B4630463946FDF786FD0022154B9F
:102AB000FDF7ACFEFEF730F8E3891349C21A0B8824
:102AC00092B2C3EB033003EB001063880A80184412
:102AD00002EB820300EB83000C4B00B29842B8BFBC
:102AE0001846B0F57A7FA8BF4FF47A706080B3E7DC
:102AF000A11B9241838669400000000000A0744041
:102B00009C060020000049409A06002018FCFFFFA8
:102B1000322010B5264CB4F90C305843FEF74EF96C
:102B20002449FEF753FAFDF7EFFC1FA3D3E9002376
:102B3000FDF742FDFDF7F0FF00B200281FDDC0F3F6
:102B40000D0040F4804020813220B4F90E3058430B
:102B5000FEF734F91749FEF739FAFDF7D5FC12A351
:102B6000D3E90023FDF728FDFDF7D6FF00B20028CA
:102B70000EDDC0F30D0040F48040608110BD0DBF3C
:102B8000A088C0F30D0040F4004000F44040DAE7B4
:102B90000DBFE088C0F30D0040F4004000F4404059
:102BA000EBE700BFAFF30080A11B92418386694031
:102BB0009C0600200000A54308B5304E3378042B56
:102BC00016D1FFF7B7FE2E4D2E4C3378052B01D0D2
:102BD000012B11D80020FFF76FFE0020FFF78AFEBF
:102BE000322005F05BFE08212748FEF7D7FDECE711
:102BF000642005F053FEE1E7FFF74CFEFFF788FF86
:102C000008F044F948B3B5F90000FFF755FEB5F9EF
:102C10000200FFF76FFE0120218800F0AFFE0220C6
:102C2000618800F0ABFE0320A18800F0A7FE04201D
:102C3000E18800F0A3FE0520218900F09FFE062018
:102C4000618900F09BFE0720A18900F097FE082013
:102C5000E18900F093FE1420C3E701F0ADFA0146CC
:102C600020B1FFF78DFEFFF7EFFED4E72860FFF7F6
:102C700023FE0846FFF73EFEEDE700BF8000002080
:102C80009C0600208200002080040020054B1A785A
:102C900032B96821044A1060044A117001221A7086
:102CA000704700BFCB060020B8060020CA060020EF
:102CB000034603490348192209780068FEF7D5BE88
:102CC000CA060020B8060020032307B50649019074
:102CD000064800931A22002309780068FEF7F4FEE4
:102CE00003B05DF804FB00BFCA060020B806002050
:102CF000022307B506490190064800931B220423CE
:102D000009780068FEF7E0FE03B05DF804FB00BF41
:102D1000CA060020B8060020022307B50649019024
:102D2000064800931C22042309780068FEF7CCFEB5
:102D300003B05DF804FB00BFCA060020B8060020FF
:102D4000032307B506490190064800931D2200237E
:102D500009780068FEF7B8FE03B05DF804FB00BF19
:102D6000CA060020B806002007B5064900900648AC
:102D70000623242209780068FEF783FE03B05DF87D
:102D800004FB00BFCA060020B806002007B50649AC
:102D9000009006480423242209780068FEF771FE9B
:102DA00003B05DF804FB00BFCA060020B80600208F
:102DB000042307B506490190064800932422032303
:102DC00009780068FEF780FE03B05DF804FB00BFE1
:102DD000CA060020B806002003280B460AD800EBDC
:102DE000400000F125020449044809780068D2B285
:102DF000FEF73BBE704700BFCA060020B8060020A1
:102E000003280B460AD800EB400000F126020449D3
:102E1000044809780068D2B2FEF727BE704700BFA9
:102E2000CA060020B8060020032807B50CD800EB1E
:102E30004000009100F12702054906480723097860
:102E40000068D2B2FEF71DFE03B05DF804FB00BFC0
:102E5000CA060020B8060020032807B50ED80423B0
:102E600000EB4000019100F127020649064800935B
:102E7000097803230068D2B2FEF726FE03B05DF89E
:102E800004FB00BFCA060020B8060020052307B5D2
:102E9000064901900648009334220423097800680B
:102EA000FEF712FE03B05DF804FB00BFCA06002067
:102EB000B806002007B506490090064807233722C8
:102EC00009780068FEF7DDFD03B05DF804FB00BF84
:102ED000CA060020B806002007B50649009006483B
:102EE0000623372209780068FEF7CBFD03B05DF8B2
:102EF00004FB00BFCA060020B806002007B506493B
:102F0000009006480523372209780068FEF7B9FDCE
:102F100003B05DF804FB00BFCA060020B80600201D
:102F200007B506490090064804233722097800684F
:102F3000FEF7A7FD03B05DF804FB00BFCA06002042
:102F4000B806002007B5064900900648012337223D
:102F500009780068FEF795FD03B05DF804FB00BF3B
:102F6000CA060020B8060020034603490348382259
:102F700009780068FEF779BDCA060020B80600206F
:102F800007B50649009006480023382209780068F2
:102F9000FEF777FD03B05DF804FB00BFCA06002012
:102FA000B806002007B50346009105480549672289
:102FB00009780068FEF765FD03B05DF804FB00BF0B
:102FC000B8060020CA06002007B50649009006484A
:102FD00005236A2209780068FEF753FD03B05DF807
:102FE00004FB00BFCA060020B8060020012307B575
:102FF0000549064800936B22072309780068FEF70D
:1030000040FD03B05DF804FBCA060020B8060020AE
:1030100007B506490090064806236B220978006828
:10302000FEF72FFD03B05DF804FB00BFCA060020C9
:10303000B806002007B580F0010000900549064859
:1030400003236B2209780068FEF71BFD03B05DF8CF
:1030500004FB00BFCA060020B8060020032307B502
:1030600006490190064800936B2202230978006804
:10307000FEF72AFD03B05DF804FB00BFCA0600207E
:10308000B806002010B50549054C064823467522B0
:1030900009780068FEF7C6FC207810BDCA0600203B
:1030A000BC060020B80600202DE9F04320254FF093
:1030B00010084FF400478BB001210D2007F040F8B5
:1030C0000121324806F0A0FE0121102007F038F857
:1030D00001214FF4004007F03FF82D4C2D4B2E4EB0
:1030E00002A92E48029306F02FFE204602A98DF871
:1030F0000B80ADF8085006F027FE304602A94FF4C9
:103100000059ADF8087006F01FFE4823204602A9BA
:103110008DF80B30ADF8089006F016FE0D21022058
:1031200006F0A2FE4FF44063CDF80C904FF0010979
:1031300003A8ADF810308DF8129006F025FD184B5D
:1031400001A8019306F02CFA4FF082720023CDE91A
:1031500005234FF00073CDE907380723DFF84480DB
:1031600005A94046ADF8243007F00EF84946404620
:1031700007F029F83946304606F042FE2946204637
:1031800006F040FE0BB0BDE8F08300BF0002300047
:10319000001001403800031800080140000C0140F5
:1031A00028060001003C0040014610B50A4807F01F
:1031B00016F8094C0221204607F016F80028F9D02D
:1031C0000121054807F010F80028F9D0024807F05F
:1031D00008F8C0B210BD00BF003C004070B5044606
:1031E0000A4E0D4630464FF4004106F00BFE44F007
:1031F0002000FFF7D9FF04462846FFF7D5FF3046E9
:103200004FF4004106F0FCFD204670BD000801406F
:1032100038B50446094D4FF40041284606F0F2FD4A
:103220002046FFF7C1FFA520FFF7BEFF04464FF47D
:103230000041284606F0E4FD204638BD0008014064
:1032400070B506460C460C484FF40041154606F092
:10325000D9FD3046FFF7A8FF06462544AC4206D10B
:103260004FF40041044806F0CBFD304670BD14F821
:10327000010BFFF799FFF1E70008014070B5064622
:103280000C460C484FF40041154606F0BBFD304695
:10329000FFF78AFF2544AC4206D1BDE870404FF4E9
:1032A0000041044806F0ACBDFF20FFF77DFF04F8A5
:1032B000010BF0E70008014070B504460D46084ECA
:1032C0002021304606F09EFD21462A46A820FFF721
:1032D000B7FF3046BDE87040202106F091BD00BF29
:1032E00000100140032110B504460846FFF776FFA1
:1032F000214605222A20FFF7A3FF2146BDE8104002
:1033000005223020FFF79CBF7D28014602D805200A
:10331000FFF764BF704710B504460620FFF778FF3B
:1033200000F0D70134B1022C07D0BDE810400620D0
:10333000FFF754BF41F02001F7E741F00801F4E73F
:1033400010B504460620FFF763FF022C00F0F801D9
:103350000AD0032C0BD0012C01D141F00201062030
:10336000BDE81040FFF73ABF41F00401F7E741F034
:103370000701F4E710B50620FFF74AFF04460420D2
:10338000FFF746FFA30654BF40F0100140F0500184
:10339000C9B20420BDE81040FFF720BF38B5214D69
:1033A0000446FFF781FE2048FFF79CFFA878FFF74F
:1033B000ABFFE878FFF7AFFF0320FFF7C1FFFFF790
:1033C000D9FF0420FFF724FF40F00301C9B2042015
:1033D000FFF704FF012C19D10F210020FFF7FEFE9B
:1033E00021461C20FFF7FAFE06211D20FFF7F6FEFE
:1033F00021462046FFF7F2FEFF21E120FFF7EEFE17
:10340000BDE83840FF21E220FFF7E8BE0E21002092
:10341000FFF7E4FE01211C20FFF7E0FE06211D203E
:10342000E8E700BFB06D0020B46D00201FB5124B5F
:1034300018681B7900908DF80430FFF735FE0522DF
:1034400069463020FFF7FCFE052202A91020FFF795
:1034500015FF6B46052202A913F8014B11F8010B69
:10346000844206D1013A12F0FF02F5D1012004B0E6
:1034700010BD0020FBE700BF581B010838B505460A
:103480006020FFF7C5FE431EDBB21F2B044612D897
:1034900020210A4806F0B6FC294661202246FFF7A3
:1034A000EDFE2021054806F0ABFCFF21E220FFF7EE
:1034B00095FE204638BD0024F7E700BF001001400C
:1034C00038B5002305460B7007200C46FFF7A0FE19
:1034D000C2060DD5FF21E120FFF780FE01247021F7
:1034E0000720FFF77BFE0720FFF792FE204638BD3E
:1034F000430605D52846FFF7C1FF20700324EEE7F9
:10350000C0F340104400EAE7014B1860704700BF69
:10351000CC0600204FF4005008B506F075FB0128DA
:1035200009D1054B1B6803B19847BDE808404FF42B
:10353000005006F077BB08BDCC06002013B5094C3F
:103540000121102006F0FCFD074B204601A9019344
:1035500006F0FAFB4FF40041204606F053FC02B09F
:1035600010BD00BF001001400080021013B5094CCF
:103570000121102006F0E4FD074B204601A901932C
:1035800006F0E2FB4FF48041204606F03BFC02B01F
:1035900010BD00BF001001400040021007B501211E
:1035A000102006F0CDFD044B044801A9019306F05C
:1035B000CBFB03B05DF804FB0100031000100140D9
:1035C0002DE98848FFF7BAFFFFF7D0FFFFF7E6FFC6
:1035D000FEF7FAFF764C4FF47A7005F05FF902219E
:1035E000204606F007FC0028F5D100F180400121BB
:1035F00000F5883006F004FC4FF400416C4806F0FA
:10360000FFFB4FF480416A4806F0FAFB684C022148
:10361000204606F0EFFB60B3DFF8988198F80030A1
:103620005BB30FF26C1BDBE900AB4FF06655022178
:103630005F4806F0DFFB20BB40F2DC5005F02EF9BE
:1036400002215B4806F0D6FB0028F0D1012341F2AD
:10365000707088F8003005F021F9554C02212046A1
:1036600006F0C8FB0028F9D00121514806F0CAFB3A
:10367000DDE7642005F012F9C9E7642005F00EF9D2
:10368000CCE74D4B1B78002B65D14FF400414848E7
:1036900006F0B8FB4FF48041454806F0B3FBDFF875
:1036A0001C91474CB9F8000080B2FDF783FB294616
:1036B000FDF7D8FBFCF728FF52465B46FCF77CFF82
:1036C0000022404BFCF778FF33A3D3E90023FCF73B
:1036D00073FF064620680F46FCF716FF30A3D3E9B8
:1036E0000023FCF769FF02460B4630463946FCF7DB
:1036F000ADFDFDF759FA2060B9F8020080B2FDF780
:1037000059FB2946FDF7AEFBFCF7FEFE52465B4631
:10371000FCF752FF24A3D3E90023FCF74DFF1EA3BF
:10372000D3E90023FCF748FF064660680F46FCF724
:10373000EBFE1BA3D3E90023FCF73EFF02460B463A
:1037400030463946FCF782FDFDF72EFA6060142002
:1037500005F0A4F86BE7012B05D14FF400411448A4
:1037600006F04EFB96E7022B0AD14FF400411048B9
:1037700006F048FB4FF480410D4806F041FB8EE710
:10378000032B8CD14FF40041094806F039FBF1E7D7
:103790006666666666660A409A9999999999C93FDC
:1037A0009A9999999999E93FCFF753E3A59B3440AA
:1037B0000010014080000020D00600207806002084
:1037C0007C0600200000264030B5012189B004208D
:1037D00006F0B6FC2A4B69462A48009306F0B4FA74
:1037E0000121082006F0ACFC274B694627480093CE
:1037F00006F0AAFA0121022006F0AEFC00254722BD
:1038000044F62063224C01A92046CDE901238DF81E
:103810000C5006F061FDADF8185040F2DC551D4B20
:10382000204604A90493ADF8165006F09FFD2046EB
:10383000082106F0E4FE204604A9ADF8165006F073
:10384000D9FD2046082106F0E2FE204604A9ADF885
:10385000165006F00FFE2046082106F0E2FE204634
:1038600004A9ADF8165006F043FE2046082106F0E4
:10387000E0FE0121204606F080FE09B030BD00BF09
:10388000C00003180008014003000318000C0140A9
:10389000000400406000010030B5012189B042F20F
:1038A000100006F04DFC254B694625480025009385
:1038B00006F04AFA472244F62063224C01A920462A
:1038C000CDE901238DF80C5006F006FDADF8185037
:1038D00040F2DC551C4B204604A90493ADF8165069
:1038E00006F044FD2046082106F089FE204604A982
:1038F000ADF8165006F07EFD2046082106F087FE42
:10390000204604A9ADF8165006F0B4FD2046082163
:1039100006F087FE204604A9ADF8165006F0E8FD33
:103920002046082106F085FE2046012106F025FEEE
:103930000121204606F02DFE09B030BDC00303185A
:1039400000100140003401406000010008B5FFF79D
:103950003BFFBDE80840FFF79FBF000008B50549E1
:10396000FDF780FA0449FDF775F9FDF767FC80B2B1
:1039700008BD00BF0000FA440000FA4308281BD825
:10398000A1F5FA73B3F5FA6F16D8042884BF04388A
:10399000C0B200F1FF308CBF084B094B03280BD895
:1039A000DFE800F00204060899867047198770471F
:1039B00099877047A3F84010704700BF003401405A
:1039C0000004004070B54FF07E5506680446294655
:1039D0003046FDF703FC08B1256006E000253046BF
:1039E0002946FDF7DDFB0028F6D170BD10B5012199
:1039F00086B04FF4804006F0AFFB224C01214CF220
:103A0000080006F09DFB204B69462046009306F017
:103A10009BF94FF40053ADF8003018236946204657
:103A20008DF8033006F090F94FF480436946204644
:103A3000ADF8003006F088F94FF40043694620469F
:103A4000ADF8003006F080F920464FF4805106F0C2
:103A5000D7F94FF082724FF40033CDE901230023F0
:103A60000A49A4F55444CDE903130723204601A9CC
:103A7000ADF8143006F088FB0121204606F0A3FBC8
:103A800006B010BD000C0140001003100100000240
:103A9000F8B54FF480530646164D174F2B600221A0
:103AA000384606F0A1FB044690B13146124806F0B4
:103AB00096FB4FF48053104E2B600121304606F0E8
:103AC00093FB044678B10C4806F08BFBC4B208E0C7
:103AD0002B685A1E2A60002BE1D12146074809F0C5
:103AE0005FFE2046F8BD2B685A1E2A60002BE4D1E9
:103AF0000121F3E794000020003800405E1B01081C
:103B000070B50E4604464FF480511148154606F034
:103B100079F90320FFF7BCFFC6F30740FFF7B8FFB2
:103B2000C6F30720FFF7B4FFF0B2FFF7B1FF25445B
:103B3000AC4206D1BDE870404FF48051044806F015
:103B40005FB9FF20FFF7A4FF04F8010BF0E700BF07
:103B5000000C0140F8B5104F4FF48051384606F084
:103B600051F99F20FFF794FFFF20FFF791FF0646D2
:103B7000FF20FFF78DFF0446FF20FFF789FF054672
:103B8000240238464FF4805144EA064406F038F9DE
:103B900044EA0500F8BD00BF000C014010B5084C18
:103BA0004FF48051204606F02DF90620FFF770FFF4
:103BB0002046BDE810404FF4805106F021B900BF07
:103BC000000C01400A484FF4805108B506F01AF97C
:103BD0000520FFF75DFFFF20FFF75AFFC307FAD468
:103BE000BDE808404FF48051014806F009B900BF14
:103BF000000C014038B50446104DFFF7CFFFFFF72A
:103C0000E1FF4FF48051284606F0FCF82020FFF732
:103C10003FFFC4F30740FFF73BFFC4F30720FFF764
:103C200037FFE0B2FFF734FF28464FF4805106F02B
:103C3000E7F8BDE83840FFF7C5BF00BF000C014002
:103C400070B50E4614460546FFF7A8FF4FF48051A5
:103C5000144806F0D7F80220FFF71AFFC6F3074012
:103C6000FFF716FFC6F30720FFF712FFF0B2FFF7CA
:103C70000FFFB4F5807F04D90B4809F0F7FD4FF42E
:103C800080742C44A54208D14FF48051054806F0B9
:103C9000B7F8BDE87040FFF795BF15F8010BFFF7C7
:103CA000F7FEEFE7000C01408D1B01082DE9F843FA
:103CB00011F0FF03154604460F464FEA12221AD1AF
:103CC0006AB14FEA022800EB0226A1EB0009B442D8
:103CD00004EB090107D1EAB207EB080101E02A462B
:103CE0003946204615E020464FF48072FFF7A8FFC2
:103CF00004F58074EBE75E42F6B272B9EAB296421E
:103D0000EDD21344DDB23246FFF79AFF2A46F1198D
:103D1000A019BDE8F843FFF793BF3246FFF790FFC5
:103D2000AD1B1FFA85F83444374408F47F46EDB2E2
:103D300004EB0608A7EB0409444504EB090103D191
:103D4000B9194DB12A46CCE720464FF48072FFF7EF
:103D500077FF04F58074EFE7BDE8F88310B5084CF1
:103D60004FF48051204606F04DF8AB20FFF790FE4F
:103D70002046BDE810404FF4805106F041B800BF26
:103D8000000C014030B5012189B00446112006F035
:103D9000D7F91E4D01214FF4002006F0DDF91C4B30
:103DA00069462846009305F0CFFF4FF40063ADF855
:103DB00000300423694628468DF80330002505F0BD
:103DC000C3FF4FF440230494124C04A92046CDE9CC
:103DD0000553ADF81C5006F013FD4FF4007302A913
:103DE00020460393029506F05DFD0B4B01A801935D
:103DF00005F0D6FB0122204640F2255106F06EFD6B
:103E00000121204606F05EFD09B030BD00100140E2
:103E100000040318004C00403406000180B5154C26
:103E20008021204606F07BFD0028F9D0552111485D
:103E300006F06DFD0023104C6420237004F02EFD6D
:103E40000E4E0F4F0B4D2378022B09D13846318887
:103E500009F0A6FC8021284606F061FD0028F9D073
:103E60002846552106F053FD00236420237004F0FA
:103E700015FDE8E7004C0040D6060020D4060020DF
:103E8000BE1B010838B540F225511B4806F04DFD18
:103E900090B11A4C237883B9174D2021284606F09B
:103EA0003EFD0028F9D0144806F035FD144B000201
:103EB000188023780133237038BD012B0BD00E4CB2
:103EC0002021204606F02BFD0028F9D0BDE838401F
:103ED000094806F020BD084D2021284606F01FFDA8
:103EE0000028F9D0044806F016FD054B1A88104347
:103EF00080B21880034BDBE7004C0040D606002060
:103F0000D2060020D406002030B5012189B0044635
:103F1000312006F015F901214FF4801006F01CF94C
:103F20001A4B69461A48009305F00EFF04236946B0
:103F300018480025ADF800308DF8033005F004FF77
:103F40004FF440230494144C04A92046CDE90553B2
:103F5000ADF81C5006F054FC4FF4007302A9204643
:103F60000393029506F09EFC0C4B01A8019305F00B
:103F700017FB0122204640F2255106F0AFFC01213B
:103F8000204606F09FFC09B030BD00BF00100318AA
:103F900000100140001401400050004035060001AF
:103FA00080B5154C8021204606F0B9FC0028F9D0D8
:103FB0005521114806F0ABFC0023104C64202370FF
:103FC00004F06CFC0E4E0F4F0B4D2378022B09D1E1
:103FD0003846318809F0E4FB8021284606F09FFC32
:103FE0000028F9D02846552106F091FC00236420D2
:103FF000237004F053FCE8E700500040DC0600208A
:10400000DA060020BE1B010838B540F225511B48D6
:1040100006F08BFC90B11A4C237883B9174D202100
:10402000284606F07CFC0028F9D0144806F073FC02
:10403000144B0002188023780133237038BD012B04
:104040000BD00E4C2021204606F069FC0028F9D048
:10405000BDE83840094806F05EBC084D20212846DE
:1040600006F05DFC0028F9D0044806F054FC054B2E
:104070001A88104380B21880034BDBE700500040E1
:10408000DC060020D8060020DA06002030B5012129
:1040900087B00446194D44F2040006F051F8184B5D
:1040A00069462846009305F04FFE4FF48063ADF853
:1040B00000300423694628468DF8033005F044FE9D
:1040C00000234FF4402202940E4C02A92046CDE971
:1040D0000332ADF8143006F093FB0B4B01A80193AB
:1040E00005F05EFA0122204640F2255106F0F6FB6B
:1040F0000121204606F0E6FB07B030BD0008014074
:1041000000020318003801402506000138B540F2CE
:104110002551254806F009FCA8B1234806F0FBFB11
:10412000224DC0B22B8823B9AA280CD101232B80A1
:1041300009E0012B0AD1AA2806D102234AF6AA22B5
:104140002B801B4B1A8038BD0023F0E7022B184C44
:1041500003D10323A0702B80F5E7032B05D10423A3
:1041600020282B801BD8E070EDE7E278911E8B426F
:1041700002DAE0540133DAE702F1FF3202D1A0841F
:104180002A80E0E793420AD1A38C214643EA002328
:10419000A384002307481A46006803F0CDFE0023DD
:1041A0002B80E370CFE700BF00380140DE0600201F
:1041B000E4060020E0060020014B1878704700BF9D
:1041C000DD06002070B583788AB0112B40D1AD4B4D
:1041D00068460093AC4B6C4659681A7A9B780191FB
:1041E0000A218DF808208DF8093007F0D5FA00254E
:1041F000A64EADF824009DF80330023BAB421ADC1A
:10420000A24C8021204606F08AFB0028F9D0BDF898
:1042100024109E4806F07BFB9C4C8021204606F033
:104220007EFB0028F9D0BDF824109848090A06F052
:104230006EFB0AB070BD8021304606F070FB00288E
:10424000F9D0304614F8011B06F061FB0135D2E7C6
:10425000092B00F00C81123BDAB20F2AE9D80F2BA0
:10426000E7D801A252F823F0A94200082943000828
:104270003342000899430008A34300083342000872
:10428000334200083342000833420008334200083A
:10429000334200086F4400083342000833420008EC
:1042A00033420008574400080279774B6C461A7174
:1042B000427900255A718279744E9A71C279DA7105
:1042C000027A1A72FDF7ECFA714B8DF804000521A1
:1042D0006846009307F060FAADF824009DF80330BB
:1042E000023BAB4213DC694C8021204606F017FBF1
:1042F0000028F9D0BDF82410644806F008FB634C90
:104300008021204606F00BFB0028F9D08BE78021A6
:10431000304606F004FB0028F9D0304614F8011BA3
:1043200006F0F5FA0135D9E70279574B6C469A70D9
:10433000FDF7B6FA574B8DF8040005216846009347
:1043400007F02AFA0025514EADF824009DF80330FD
:10435000023BAB4213DC4D4C8021204606F0DFFAD5
:104360000028F9D0BDF82410484806F0D0FA474C90
:104370008021204606F0D3FA0028F9D053E78021A7
:10438000304606F0CCFA0028F9D0304614F8011B6C
:1043900006F0BDFA0135D9E70AB0BDE8704006F075
:1043A00083BB002482883C4B017E1A80C2888DF832
:1043B00004405A8002896D469A804289334EDA80E1
:1043C00082891A81C2895A81028A9A81428ADA8153
:1043D000828A324B52BA9A80C28A684652BADA80CE
:1043E0002F4A11702F4A00921A895B89110A8DF8A1
:1043F00005108DF806200F211A0A8DF807208DF878
:10440000083007F0C9F9ADF824009DF80330023BED
:10441000A34213DC1D4C8021204606F080FA0028C0
:10442000F9D0BDF82410194806F071FA174C802114
:10443000204606F074FA0028F9D0F4E680213046D0
:1044400006F06DFA0028F9D0304615F8011B06F089
:104450005EFA0134D9E70379134A012B01D11370B5
:10446000E7E6022BFBD0032B18BF0023F7E700235E
:1044700001461A460D4800680AB0BDE8704003F0D6
:104480008FBC00BFAAAA190CB06D002000380140F3
:10449000AAAA1A07AAAA1B07820000209C060020CD
:1044A000D0060020AAAA1E11286E0020CC6D002084
:1044B000F0B5002226210A208BB003F049FC124EF1
:1044C000124D134F30600023C8226946306803F054
:1044D000F7FD0128044614D19DF8031068460239FF
:1044E00089B207F059F9BDF824100246814204D17F
:1044F0006846FFF767FE2C70E5E7384609F050F98B
:10450000E1E700232B70DEE7E0060020DD06002057
:10451000DA1B0108022808B505D909F0F9FA0923C0
:104520000360002008BD0120FCE70020704708B5AB
:1045300009F0EEFA162303604FF0FF3008BD0000CB
:10454000F8B50E4614460025084FABB2A34201DB76
:104550002046F8BD3846F15C06F0D9F9802138468E
:1045600006F0DDF90028F9D00135EEE7003801400A
:10457000F8B50E4614460025084FA54201DB20463B
:10458000F8BD2021054806F0CAF90028F9D03846C0
:1045900006F0C1F970550135EFE700BF0038014062
:1045A000022808B506D909F0B3FA092303604FF0D1
:1045B000FF3008BD0020FCE708B509F0A9FA09237F
:1045C00003604FF0FF3008BD022808B504D84FF44F
:1045D00000534B60002008BD09F09AFA09230360DC
:1045E000F8E7000010B5044645F2555005F030FDDF
:1045F000032005F033FD2046FBF774FF0022074B34
:10460000FBF7DAFFFCF7B0FA80B205F02DFD05F0FC
:1046100031FDBDE8104005F035BD00BF0000F43F9E
:104620002DE9F04F4568D1F808B0066884688BB072
:10463000D1F800A0D1F80490284659460396069573
:104640000994FCF70FFC494607462046FCF70AFC94
:1046500001463846FCF7FCFA514680460290204657
:10466000FCF700FC594607463046FCF7FBFB0146C9
:104670003846FCF7EDFA4946074605903046FCF708
:10468000F1FB514681462846FCF7ECFB01464846C3
:10469000FCF7DEFA3946814608902046FCF7E2FB3B
:1046A000494682462846FCF7DDFB01465046FCF7AA
:1046B000CFFA494601903046FCF7D4FB414681468B
:1046C0002046FCF7CFFB01464846FCF7C1FA4146BD
:1046D00004902846FCF7C6FB394680463046FCF776
:1046E000C1FB01464046FCF7B3FA3146079030461D
:1046F000FCF7B8FB294606462846FCF7B3FB014603
:104700003046FCF7A7FA214605462046FCF7AAFBEF
:1047100001462846FCF79EFA00F098FE01990446EF
:104720000846FCF79FFB049905460846FCF79AFBF0
:1047300001462846FCF78EFA079905460846FCF71D
:1047400091FB01462846FCF785FA00F07FFE0299AE
:1047500006460846FCF786FB059905460846FCF721
:1047600081FB01462846FCF775FA0899054608467C
:10477000FCF778FB01462846FCF76CFA00F066FE71
:10478000314605460198FCF76DFB314601900498CF
:10479000FCF768FB314604900798FCF763FB294659
:1047A00007900298FCF75EFB294602900598FCF7FB
:1047B00059FB294605900898FCF754FB21460890C0
:1047C0000398FCF74FFB214603900698FCF74AFB41
:1047D000214606900998FCF745FB0449099001A879
:1047E00001F050F90BB0BDE8F08F00BF5C0B00206A
:1047F0002DE9F04FB9B00446CDE9031218464FF049
:104800007C51FCF72FFB0646DFF8C4B29022002152
:1048100014A809F02BF9DBF810102068FCF718FA3F
:104820003146FCF71FFBDBF8141005466068FCF707
:104830000FFA3146FCF716FBDBF818108246A06829
:10484000FCF706FA3146FCF70DFB05F10043079330
:104850000AF10043089300F100430993DBF80030AC
:10486000DBF804800593DBF80C300446414628460B
:104870000693FCF7F7FA01460598FCF7E9F9DBF82F
:104880000870814639465046FCF7ECFA0146484626
:10489000FCF7DEF9069981462046FCF7E3FA01466B
:1048A0004846FCF7D5F90599CBF800000B9028464F
:1048B000FCF7D8FA4146FCF7CDF9069981465046F7
:1048C000FCF7D0FA01464846FCF7C2F93946814662
:1048D0002046FCF7C7FA01464846FCF7BBF90A90A8
:1048E0000699CBF804002846FCF7BCFA3946FCF7D9
:1048F000B1F9059981465046FCF7B4FA014648469D
:10490000FCF7A8F9414681462046FCF7ABFA014680
:104910004846FCF79DF93946CBF808000C9028462C
:10492000FCF7A0FA01460698FCF792F94146814649
:104930005046FCF797FA01464846FCF78BF9059973
:1049400081462046FCF78EFA01464846FCF782F97C
:104950000B9B81461946CBF80C001846FCF782FAEF
:104960000A990B900846FCF77DFA0B9B0146184606
:10497000FCF770F90C9A0A9011461046FCF772FA8F
:104980000A9B01461846FCF765F949460A904846D5
:10499000FCF768FA0A9B01461846FCF75BF900F041
:1049A00055FD81460146DBF80000FCF75BFA4946FD
:1049B000CBF80000DBF80400FCF754FA4946CBF8CA
:1049C0000400DBF80800FCF74DFA4946CBF8080074
:1049D000DBF80C00FCF746FA4146CBF80C003046F9
:1049E000FCF740FA394680463046FCF73BFA069918
:1049F00007463046FCF736FA059981463046FCF703
:104A000031FA344E079B00F100407360089BC6F8F2
:104A10001080B360099B7761F360089BC6F818901B
:104A2000B36207F100437363099BF5617462F0623E
:104A3000C6F83090C6F838A0F36374650724C6F84A
:104A400058A0079BDFF890A0C6F8508009F10049F4
:104A500008F100487564C6F84890F064F36577661D
:104A6000C6F86880F06622462146CDF804A030469C
:104A70001A4B009400F04CFE184B22461D4621466E
:104A80005046CDE90043334600F0DAFE144B22468F
:104A900021460095284600F089FD039A1168576861
:104AA00008469668FCF7DEF9394605463846FCF7B5
:104AB000D9F901462846FCF7CDF83146054630467F
:104AC000FCF7D0F901462846FCF7C4F80AE000BF1D
:104AD0005C0B0020980000209C0800202002002091
:104AE000E402002000F0B2FC039A0546014610687B
:104AF000FCF7B8F9039A294610605068FCF7B2F940
:104B0000039A294650609068FCF7ACF9039A9060CC
:104B1000049A1168576808469668FCF7A3F9394665
:104B200005463846FCF79EF901462846FCF792F800
:104B3000314605463046FCF795F901462846FCF714
:104B400089F800F083FC049A05461168FCF78AF99D
:104B5000049A0746516810602846FCF783F9049AC6
:104B60000646916850602846FCF77CF9049ADBF809
:104B70000080906041460F904046FCF76BF8DBF8F0
:104B80000450069029462846FCF764F8DBF808A094
:104B9000079051465046FCF75DF8DBF80C90059005
:104BA00049464846FCF756F8414609904046FCF70E
:104BB00059F9294613904046FCF754F951460A909A
:104BC0004046FCF74FF949460B904046FCF74AF93E
:104BD000294680462846FCF745F951460C90284660
:104BE000FCF740F949460D902846FCF73BF9514641
:104BF0000E905046FCF736F9494608905046FCF7AF
:104C000031F9494682464846FCF72CF93946814637
:104C10003846FCF71FF8314607463046FCF71AF8CD
:104C20000F9B064619461846FCF714F84146054600
:104C30000D98FCF70DF80E990F900B98FCF70AF8F9
:104C4000089910904FF07C50FCF702F84946FBF7AA
:104C5000FFFF3946FCF706F9314611900F98FCF733
:104C600001F9119B01461846FBF7F4FF2946119004
:104C70001098FCF7F7F8119B01461846FBF7EAFF7E
:104C80000C9912904FF07C50FBF7E2FF0D991190B8
:104C90004046FBF7DFFF3946FCF7E4F8494680461B
:104CA0001198FBF7D5FF3146FCF7DCF8014640468A
:104CB000FBF7D0FF0A9980465046FBF7C9FF29460B
:104CC000FCF7D0F801464046FBF7C4FF0B990D9066
:104CD0000E98FBF7BDFF514680460A98FBF7BAFFD6
:104CE000394682464046FCF7BDF8314607465046F5
:104CF000FCF7B8F801463846FBF7ACFF08990646C2
:104D00001198FBF7A5FF2946FCF7ACF801463046A1
:104D1000FBF7A0FF129907460846FCF7A3F80D9B86
:104D2000054619461846FCF79DF801462846FBF74C
:104D300091FF00F0A7FB4FF0404106464046FCF7CC
:104D400091F8B24B804618604FF040415046FCF756
:104D500089F8DFF8B8A2139A05464946CAF8040054
:104D60001046FBF777FF0146FBF774FF01464FF053
:104D70007E50FBF76DFF4946CAF808000B90089873
:104D8000FBF768FF0146FBF765FF01464FF07E50D9
:104D9000FBF75EFF3146FCF765F83946814608F1BE
:104DA0000040FCF75FF801464846FBF753FF0F99B8
:104DB000CAF80C000A900846FBF74CFF3146FCF796
:104DC00051F83946814605F10040FCF74BF80146A1
:104DD0004846FBF73FFF8D4B0899186182460C98B7
:104DE000FBF738FF0146FBF735FF01464FF07E50D9
:104DF000FBF72EFF3946FCF735F810998146084637
:104E0000FBF728FF3146FCF72DF801464846FBF733
:104E100021FF7E4B039A5861814641461068FBF79B
:104E200017FFDFF8E8812946C8F80000039A784D9B
:104E30005068FBF70DFF0B9B039A1946C8F8040056
:104E40009068FBF705FF0A9AC8F808001146049A13
:104E50001068FBF7FDFE049AC8F80C005068514634
:104E6000FBF7F6FE049AC8F8100090684946FBF775
:104E7000EFFE059A05992A60099A01F1004102F1B5
:104E80000043069A6B60AA60079A6B6202F10042C7
:104E9000EA60EA61069AC8F8140002F100422A6248
:104EA000A962AA63079A6B64EA63059A31462A6489
:104EB0000698FBF7D7FF394682460598FBF7D2FFE5
:104EC000814601465046FBF7C3FE314668650890AF
:104ED0000798FBF7C7FF394680460998FBF7C2FFE2
:104EE00001464046FBF7B6FE05990390A86506F11A
:104EF0000040FBF7B7FF394680460698FBF7B2FF44
:104F0000014604904046FBF7A3FE3946E865079842
:104F1000FBF7A8FF314607460998FBF7A3FF0646B3
:104F200001463846FBF794FE049B414628662867F5
:104F30001846FBF78DFE039A8046AA6751466867BC
:104F40004846FBF785FE3946E867C5F88C80304651
:104F5000FBF77EFE06264FF0010A089A2D4FC5F892
:104F60009420039ADFF8B0802B462146DFF8AC90FE
:104F7000C5F89000C5F89820294822460197009668
:104F800000F05EFC3B4622463146CDE900682846EB
:104F900000F0BEFB4B4632463146CDF8008040461D
:104FA00000F004FB314614AA4046DFF8788000F098
:104FB00087FC14AA1346214632463846CDE90068DC
:104FC00000F0A6FB184A21460192CDF800A0324617
:104FD00040460E4B00F09CFB52462146CDF800B0F7
:104FE0005846114B00F0E2FADBF80420DBF8001021
:104FF000DBF808300592DBF80C2008460493039296
:10500000FBF730FF059A824610E000BF780B0020C6
:1050100030070020240A0020CC0A0020A80300202A
:1050200020020020D80700208008002011461046EA
:10503000FBF718FF01465046FBF70CFE049B824627
:1050400019461846FBF70EFF01465046FBF702FED5
:10505000039982460846FBF705FF01465046FBF7D9
:10506000F9FD00F0F3F982460146DBF80000FBF79A
:10507000F9FE5146CBF80000DBF80400FBF7F2FE26
:105080005146CBF80400DBF80800FBF7EBFE514675
:10509000CBF80800DBF80C00FBF7E4FEDFF880A09B
:1050A000CBF80C002B46324621461E4D4046CDE93A
:1050B000004A00F02DFBDFF870B05346224621462F
:1050C000CDF800A0194800F0CAFA22462146504601
:1050D000CDE90045144B00F01BFB53462246214608
:1050E0002846CDE9004B00F0ABFB4B46324621464B
:1050F0004046CDE9006700F00BFB434632462146AF
:105100003846CDE9004A00F09BFB53462246214633
:105110005846CDF800B000F049FA39B0BDE8F08F3C
:105120009C08002060090020200200205C01002073
:105130002DE9F84FDFF854910446D9F80060544D3A
:1051400031463046FBF78EFE8046D9F8047039466A
:105150003846FBF787FE4146FBF77CFD0146FBF72F
:1051600079FD4FF07E51FBF773FDD9F808A0286058
:1051700051463846FBF776FED9F80C9083464946EF
:105180003046FBF76FFE01465846FBF763FD0146CC
:10519000FBF760FD494668603846FBF763FE514601
:1051A00083463046FBF75EFE01465846FBF750FD4E
:1051B0000146FBF74FFD4946A8605046FBF752FEFB
:1051C000394682463046FBF74DFE01465046FBF716
:1051D00041FD0146FBF73EFD4946064668614846EB
:1051E000FBF740FE4146FBF735FD0146FBF732FD7C
:1051F0004FF07E51FBF72CFD01462862304600F04F
:1052000057F824490646FBF7C1FF00B1224E26603D
:10521000AE684FF07E513046FBF7D6FF58BB3046A4
:105220001E49FBF7C7FF40BB06F1004000F032F912
:1052300029686060686800F03BF800210546FBF7CC
:10524000AFFFE0B9A560A56815492846FBF7BCFF8C
:1052500000B1002513492068FBF704FE11492060C6
:105260006068FBF7FFFD0F4960602846FBF7FAFD19
:10527000A060BDE8F88F0C48DAE70C48D8E728466C
:105280000749FBF7E7FCA060DDE700BF5C0B0020EF
:105290000C070020DB0F4940DB0F49C0000080BF36
:1052A000DB0FC940E12E6542DB0FC9BFDB0FC93FF1
:1052B0002DE9F8430E46054600213046FBF766FF10
:1052C000A0B100212846FBF761FF002840F0A08034
:1052D00000212846FBF782FF002840F09B80002138
:1052E0002846FBF75DFF002840F096800021284605
:1052F000FBF756FF002800F0838005F100440021F1
:105300003046FBF74DFF00287CD006F100484146AF
:105310002046FBF763FF002876D023460227444649
:10532000984641462046FBF751FE3C490446FBF7B0
:1053300055FFA8B120463A49FBF794FD4FF07E5146
:10534000FBF786FC2146FBF785FC36498046204664
:10535000FBF780FC01464046FBF738FE0446013768
:1053600000212046FBF71CFF00284FD004F100402D
:105370002D49FBF715FF20BB21462046FBF772FDA8
:1053800080462A49FBF76EFD2949FBF761FC41463F
:10539000FBF768FD274981464046FBF75BFC414629
:1053A000FBF760FD2449FBF755FC01464846FBF737
:1053B0000DFE2146FBF756FD01462046FBF74AFC51
:1053C0000446012F1D4BC8BF04F10044204653F88A
:1053D0002710FBF73FFC002104463046FBF7E0FEB8
:1053E00020B121461648FBF733FC0446002128462D
:1053F000FBF7D6FE08B104F100442046BDE8F8836F
:105400002C467CE7B04682E700278AE72046AFE7D4
:105410000024F2E70B4CF0E70B4CEEE7A330893E9B
:10542000AF673B3FD7B3DD3FF304B539AE5338BF69
:10543000A854B83F3C1298407E3F8A40301C010877
:10544000DB0F4940DB0FC93FDB0FC9BF10B50A4C6A
:105450000A49A4EB5004FBF705FD2146FBF702FDCA
:105460002146FBF7FFFC01460548FBF7F1FB21460F
:10547000FBF7F8FC10BD00BF12141F5F12D3363FBC
:10548000FF51D83F10B50446FFF7E0FF2146FBF778
:10549000E9FC10BD2DE9F04100210446FBF780FE38
:1054A000002855D0384F04F100444FF07C5120467D
:1054B000FBF794FE00284ED04FF07E512046FBF7BC
:1054C0008DFE00285DD121464FF07E50FBF7C0FBDA
:1054D0004FF07C51FBF7C6FC0546FFF7D3FF4FF0BA
:1054E0004041FBF7BFFC0126044628492846FBF74C
:1054F000B9FC2749FBF7AEFB2946FBF7B3FC25496E
:10550000FBF7A6FB2946FBF7ADFC2349804628465E
:10551000FBF79EFB2946FBF7A5FC2049FBF79AFB0E
:105520002946FBF79FFC1E49FBF792FB01464046CC
:10553000FBF74CFD2146FBF795FC01462046FBF7A7
:1055400089FB04466EB11749FBF784FB044608E06B
:105550004FF07E57A9E720461349FBF721FE064688
:1055600048B100213846FBF71BFE08B104F10044A6
:105570002046BDE8F08121462046FBF773FC054636
:10558000B3E70024F4E700BF000080BF3F3118BF3D
:10559000E0F93940201B304085572541F7EAC641E4
:1055A00058148441DB0FC93FF304B5394A432DE950
:1055B000F04F4FEA920904461D4680461F46CA46F0
:1055C00085B00E9E08F1100810371036BAF1000FA2
:1055D00010D10E9B04EB091402F0030605EB09152C
:1055E00004EB860603EB0919B4422FD1002005B065
:1055F000BDE8F08F58F8083C57F80C1C58F80C0C14
:1056000003920293FBF726FB57F8083C57F8101C4F
:10561000834658F8100C0193FBF71CFB46F80CBCB2
:1056200046F8100C57F8041C58F8040CFBF712FB52
:10563000029B834601991846FBF70CFB0AF1FF3ADF
:10564000039A46F8080C46F804BCBBE755F8041B5F
:1056500054F8040BFBF7FEFA49F8040BC4E74A437D
:105660002DE9F04F4FEA920904461D4680461F4639
:10567000CA4685B00E9E08F1100810371036BAF1F0
:10568000000F10D10E9B04EB091402F0030605EB8A
:10569000091504EB860603EB0919B4422FD100204B
:1056A00005B0BDE8F08F58F8083C57F80C1C58F8C6
:1056B0000C0C03920293FBF7CBFA57F8083C57F80F
:1056C000101C834658F8100C0193FBF7C1FA46F8FA
:1056D0000CBC46F8100C57F8041C58F8040CFBF7E7
:1056E000B7FA029B834601991846FBF7B1FA0AF113
:1056F000FF3A039A46F8080C46F804BCBBE755F895
:10570000041B54F8040BFBF7A3FA49F8040BC4E795
:105710002DE9F04F0D468FB0910806919100019050
:1057200003910146900802F0030292000A920C22B3
:105730000593BDF8603001EB00175A4308921A0137
:10574000099200224FEA830B00FB0BF189000791BD
:1057500002924FF00008199A0299059E02EB81020D
:1057600004920A9ABA180B92B2460024DDF804900B
:10577000069A09F110091ABBB946079A16440B9A02
:1057800091454FD1049A08F1010842F8044B1FFAE1
:1057900088F80492059A434502EB8806E4D1029A00
:1057A00003991A4492B20292019A013D0A44ADB2A1
:1057B00001920F44002DCCD128460FB0BDE8F08FE8
:1057C00059F8101CDAF80000CDE90C23FBF74AFB6E
:1057D0002146FBF73FFA04465AF80B1059F80C0C17
:1057E000FBF740FB2146FBF735FA044659F8081C45
:1057F0005AF81B00FBF736FB2146FBF72BFA044651
:10580000089B59F8041C5AF80300099B9A44FBF7BB
:1058100029FB2146FBF71EFA0C9A0446013A0D9B20
:1058200092B2A6E7316859F8040B0C93FBF71AFB08
:1058300001462046FBF70EFA5E4404460C9B9EE7A9
:105840002DE9F04F87B00393BDF8403017464FEA7B
:10585000820B9A00019204464FF000090022029147
:105860000299494527DC07B0BDE8F08F5AF82510AA
:1058700054F82500CDE90432FBF7F4FA014630462E
:10588000FBF7E8F9DDE90432064601351199AF422C
:1058900041F82860EADCDA4408F10108434507DCF6
:1058A000119901985C440144119109F10109D7E76C
:1058B00016460025EAE74FF00008DDF80CA0EDE7FA
:1058C0002DE9F04F0E460C4617464FF000094FF0F9
:1058D0007E584B1C8FB09B000893089B0A90043B9A
:1058E0000492151D0393FCB90025AA46049B069358
:1058F000B3000B93049B03EB860307930A9BCDE94C
:105900000163A3000C930A9B03EB84030593019BA3
:10591000F3B900212846FBF739FC003818BF0120F5
:1059200040420FB0BDE8F08F4A4600213846013CA6
:1059300008F09CF8284645F8048C0021A20008F0E5
:1059400095F8039B09F104091F44089B1D44CAE70D
:10595000029B27469846D3461D68B74234D351462A
:105960005846FBF713FC002840F088805146284633
:10597000FBF70CFC002840F08180DDE90178D8F8C5
:1059800000002946FBF722FB013F48F8040BF6D143
:10599000DDF81880079B98452AD1019BDDF810801F
:1059A0009B000993B7422BD1019B039A013B0193C2
:1059B000069B013413440693079B13440793089AEC
:1059C000029B134402939CE7D8F800905146484646
:1059D000FBF704FC48B159464846FBF7FFFB00B112
:1059E000CB46039B01379844B7E709F10049F2E73A
:1059F000D8F800002946FBF7E9FA48F8040BC9E794
:105A0000A74209D1099B059A1A44039B98440C9B11
:105A10000137D3180593C5E7DDF81490DDE901B22D
:105A200059F8045952F8041B28460D92FBF71AFA4C
:105A3000014659F8040FFBF70BF9BBF1010B0D9A66
:105A4000C9F80000EED1059A099BDDF818901A44B8
:105A5000A8F1040B079B994501D10B9BD6E759F898
:105A6000041B28460592FBF7FDF901465BF8040F7D
:105A7000FBF7EEF8059ACBF80000EBE74FF0FF30AC
:105A80004FE700002DE9F84305460C4600684FF04B
:105A90007E51FBF7DFF82969FBF7DCF8296AFBF791
:105AA000D9F84FF07A51FBF7DDF9064620F00040B7
:105AB000FFF7E8FC6A4920600746FBF78FFB0028E8
:105AC00059D039464FF07A50FBF780FA0646E9691B
:105AD0006869FBF7BDF83146FBF7C4F96060A96857
:105AE000A869FBF7B5F83146FBF7BCF9A060E96897
:105AF0006868FBF7ADF83146FBF7B4F9E060216860
:105B0000D4F804800846FBF7ADF941460546404607
:105B1000FBF7A8F901462846FBF79CF8A76805465D
:105B200039463846FBF79EF901462846FBF792F8BE
:105B3000E668054631463046FBF794F901462846AB
:105B4000FBF788F8FFF782FC054601462068FBF763
:105B500089F9294620606068FBF784F9294660606E
:105B6000A068FBF77FF92946A060E068FBF77AF9A7
:105B7000E060BDE8F8834FF07E512868FBF76AF8D3
:105B80004FF07C51FBF76EF93146FBF761F820F0DE
:105B90000040FFF777FC60604FF07E512869FBF70B
:105BA00059F84FF07C51FBF75DF93146FBF750F89F
:105BB00020F00040FFF766FCA0604FF07E51286A9D
:105BC000FBF748F84FF07C51FBF74CF93146FBF7F7
:105BD0003FF820F00040FFF755FCE060E96806461A
:105BE0006868FBF737F800210746FBF7D9FA28B3B6
:105BF000A36803F10043A360E9696869FBF72AF829
:105C00000021FBF7EBFA10B106F10046E660E96906
:105C10006869FBF71DF80021FBF7C2FA00283FF482
:105C20006EAFA268E368616802F1004201F10041D1
:105C300003F100436160A260E36060E70021384641
:105C4000D5F81480D5F81C90FBF7C8FA0028DED0F0
:105C500049464046FAF7FEFF0021FBF7A1FAD2E7DA
:105C60000AD7233C012808B506D1FDF773FF034B83
:105C7000C01A18BF012008BD0120FCE71740EF0043
:105C8000012808B50AD1FDF7B1FEFEF767F8FDF768
:105C900061FF034BC01A18BF012008BD0120FCE7BB
:105CA0001740EF0010B50446012C0846114607D1F5
:105CB0001B0303F470420903FDF722FF002010BD0F
:105CC0000420FCE770B50E461D4673B101280CD1C7
:105CD00014032046FDF78EFF2A033046214602F4C6
:105CE0007042FDF7E3FF002070BD0420FCE70128AF
:105CF00010D1022908D003290AD0012902D14FF47A
:105D000000631360002070474FF480531380F9E75D
:105D10001060F7E7042070470048704700002146F4
:105D200001380A44914200D1704711F8013B00F854
:105D3000013FF7E70244904200D1704700F8011B91
:105D4000F9E7034600F10B010020C20142EA5002CC
:105D500013F8010B02448B4202F0FF00F5D17047AB
:105D600010B50368014653B11846024610F8014BBE
:105D70001F2C10D93A2CF8D1581C824202D04FF077
:105D8000FF3007E01B78A3F13000C3B2012BF6D837
:105D900001320A6010BD0020FCE708B568B1036855
:105DA0005BB11A784AB1D9888288914205D1587876
:105DB000FFF758FF10F0010000D0092008BDF8B52A
:105DC00002690D4601F1090362B300242E274169DF
:105DD0004E1E16F8012F0134202A19D0052A4AD068
:105DE000092C01D103F8017BA2F1410CBCF1190F80
:105DF0000CD8082C8CBF4FF0100C4FF0080C91F809
:105E00000CE01EEA0C0F1CBF2032D2B203F8012BAB
:105E10000B2CDED1CA7A2A72CA692A600A8BAA8040
:105E2000CA8AEA8000241C70AE6926B103691BB9D6
:105E3000002400233355F8BDEB69002BF8D04FF652
:105E4000FF73028C9A42F3D0C76937F8020B00281F
:105E5000EFD0002101F0ECFD0028E9D0FF2884BF3D
:105E6000030A3355EB6988BF0134013BA342DFD9F4
:105E700030550134E9E7092C4FF0E502C6D1B1E70E
:105E80002DE9F041C66A00F130080446012332468C
:105E900041464078FFF716FF0546A8B9236AA26974
:105EA000F31A9342207102D2E778012F02D82846D4
:105EB000BDE8F081A36941461E4432460123607863
:105EC000FFF700FF013FF0E70125F0E703790BB191
:105ED000FFF7D6BF1846704738B5C36A05468B42F0
:105EE0000C4610D0FFF7F2FF60B922460123687814
:105EF00005F13001FFF7D6FE00281CBF4FF0FF343C
:105F00000120EC6238BD0020FCE70000002310B542
:105F100003714FF0FF33C3620446FFF7DDFFA0B902
:105F20004AF65523B4F82E229A4210D1D4F866309E
:105F3000084A23F07F43934206D0D4F8820020F031
:105F40007F40801A18BF012010BD0320FCE702200B
:105F5000FAE700BF4641540000232DE9F0430360F7
:105F6000074685B008461546FFF7FAFE061EC0F242
:105F70000981874B53F82640002C00F005813C60D6
:105F800023786BB16078FFF76DFEC10708D41DB1AF
:105F900010F0040500D00A25284605B0BDE8F083BE
:105FA0000023F0B223706070FFF76AFEC20700F1B1
:105FB000ED800DB14307EED40221607804F10A02AE
:105FC000FFF795FE054608B10125E5E76389A3F5CE
:105FD00000739BB2B3F5606FF6D801462046FFF719
:105FE00095FF012840F0B480E846414604F5F77378
:105FF00004F22E201A7902B19A681033834241F8D4
:10600000042BF7D1002658F8047B002F00F098806D
:1060100039462046FFF77AFF002840F09280B4F816
:106020000AC0B4F83B30634540F09680B4F846109F
:1060300001B9616D94F840E0A1610EF1FF33012BCD
:1060400084F803E000F2888094F83D60A670002E8A
:1060500000F08280731E33427ED1B4F841804FEA53
:106060005C13B8FBF3F203FB12839BB2A4F8088025
:10607000002B71D1B4F8433003B9236DE08F0028B1
:106080006AD001FB0EFE02447244934264D39B1A11
:10609000B342B3FBF6F95FD340F6F57399455FD988
:1060A0004FF6F576B14594BF0226032609F10203A7
:1060B00038443A44032E6361E7612062A26251D101
:1060C000B8F1000F48D1E06D9B000CF1FF32134492
:1060D000B3FBFCF38B4260623ED84FF0FF33C4E960
:1060E00003338023032E637122D1B4F86030012B77
:1060F0001ED12046791CFFF7EFFEC8B94AF655239A
:10610000B4F82E2260719A4212D1226B214B9A422E
:106110000ED103F1FF53D4F8142203F500532033BA
:106120009A4201BFD4F818322361D4F81C32E360DC
:10613000194A2670138801339BB21380E3802BE742
:1061400002200136042E7FF45EAF032804D13BE722
:1061500003283FF439AF08B10D251DE72F465EE750
:106160000126A3E7B8F1000FF6D0022E4FEA430252
:106170001ABFD21803F001031346704418BF03EB93
:106180005203A2E70B2507E70C2505E7032503E7E4
:10619000900B002052526141980B002070B50446CC
:1061A000FFF794FE054678BB2378032B24D163794F
:1061B000012B21D104F13006014662893046FFF7F8
:1061C000B9FD4AF65522A4F82E22104A3146226320
:1061D00002F1FF5202F500522032C4F81422226963
:1061E0006078C4F81822E268C4F81C22E26901321F
:1061F000E262FFF767FD6571002260781146FFF7E4
:1062000076FD003818BF012070BD00BF52526141B9
:1062100003284B8B04BF8A8A43EA0243184670471F
:1062200043690239023B8B4283BF8378806A01FB5A
:106230000300002070470129F8B506460D4672D9C3
:1062400043698B426FD90378022B32D0032B48D09D
:10625000012B68D1438901EB5104B4FBF3F3016ACC
:106260001944FFF739FE10B14FF0FF30F8BD7189C6
:10627000671CB4FBF1F301FB1344B7FBF1F1336A84
:1062800034443046194494F83040FFF725FE002886
:10629000EAD17389B7FBF3F203FB1277374497F81F
:1062A000303044EA0320EB074CBF0009C0F30B0079
:1062B000DCE743895B08B1FBF3F3016A1944FFF79C
:1062C0000BFE0028D0D173896D00B5FBF3F203FB00
:1062D0001255354495F8313095F8300040EA0320E6
:1062E000C4E743899B08B1FBF3F3016A1944FFF744
:1062F000F3FD0028B8D17389AD00B5FBF3F203FBC1
:10630000125505F1300232449078D378000440EA07
:106310000360731993F830301843537840EA032030
:1063200020F07040A2E70120A0E770B58268054622
:10633000012A0C46C18001D1022070BD0368596951
:106340009142F9D9FAB91978032901D1596AD9B911
:106350001989A142F0D9586AEA600028ECD029686E
:106360004B8901F130025B09B4FBF3F31844286157
:106370004B8900205B09B4FBF3F103FB114402EBF2
:1063800044126A61D9E711460A465E899B7876090C
:106390005E43B4421146286802D2FFF741FFDBE7B3
:1063A000FFF749FF431C024607D00128C4D92B68D8
:1063B0005B698342C0D9A41BEBE70120BDE701293B
:1063C0002DE9F04105460C46164640F288804369A7
:1063D0008B4240F284800378022B45D0032B5BD0A4
:1063E000012B7CD1438901EB5107B7FBF3F3016A21
:1063F0001944FFF771FD68BB698907F10108B7FB14
:10640000F1F301FB137714F001042F441FBF97F839
:106410003020330103F0F00302F00F0214BF1343E6
:10642000F3B287F830300123B8FBF1F12B712B6AFE
:1064300028461944FFF750FD60B96B89B8FBF3F2A9
:1064400003FB12832B443CB1C6F3071683F830607C
:1064500001232B71BDE8F08193F83020C6F30326A9
:1064600022F00F021643F1E743895B08B1FBF3F317
:10647000016A1944FFF730FD0028EBD16B896400F5
:10648000B4FBF3F203FB12442C4484F83060C6F3EF
:10649000072684F83160DBE743899B08B1FBF3F3FF
:1064A000016A1944FFF718FD0028D3D16B89A400B5
:1064B000B4FBF3F203FB124404F130022A44D37814
:1064C0002C441B0603F070433343C3F3072184F8C5
:1064D00030305170190C1B0E9170D370B8E7022048
:1064E000B8E7F8B505460F4671B9C668DEB143692D
:1064F0009E4228BF012634466B690134A34215D859
:10650000012E12D1002405E0FFF795FE0128044674
:1065100002D801242046F8BD601C2FD06B69A3422D
:10652000F8D83E46E7E70126E5E70224214628465B
:10653000FFF781FE30B1411C20D00128E9D0B442E0
:10654000DAD1DFE76FF0704221462846FFF737FFC8
:1065500090B957B92B69EC605A1CDBD0013B2B6119
:106560006B7943F001036B71D4E722463946284624
:10657000FFF725FF0028EDD00128CAD14FF0FF34E6
:10658000C8E72DE9F041C68804460136B3B2884613
:1065900013B90420BDE8F0810369002BF9D000682D
:1065A00042895209B6FBF2F102FB116232B9E1688D
:1065B0000133236189B90389B342EAD92368E680AC
:1065C00003F130025B8900205B09B6FBF3F103FBAA
:1065D000116602EB46126261DCE7478983787F0926
:1065E000B6FBF7F7013B1F40E8D1FFF724FE012877
:1065F000054601D80220CDE7421C01D10120C9E7A0
:1066000020684369AB4226D8B8F1000FC1D0E168D9
:10661000FFF767FF0546002831D00128EAD0431C68
:10662000ECD02068FFF752FC01460028E6D1206834
:106630004FF0010842893030FFF77CFB2268294681
:106640001046FFF7EDFDD06223689A78BA4209D868
:10665000DA6AD21BDA6229462068E560FFF7E0FDBE
:106660002061ABE783F804802068FFF72FFC002847
:10667000C4D122680137D36A0133D362E4E707202B
:1066800088E700002DE9F04F002185B00646FFF7AE
:106690004CFE074600286AD14FF0FF094FF6FF7AFB
:1066A0004C46A6F820A031693068FFF715FC074674
:1066B00000285CD175692A78002A79D0E52AE97A20
:1066C00005D001F03F03090704D50F2B04D0A6F82D
:1066D00020A052E00F2B55D1F369002B40D050067B
:1066E00049D502F0BF04F28895F80D9032846A7B98
:1066F0004A4542D16A8B002A3FD10D222F78DFF81C
:10670000B4B007F03F07013F574301221BF8011BBC
:106710006818407815F8018048EA00287AB3FE2FFF
:1067200001932AD8404601F0A7F9019B0390791CF8
:1067300033F81700029101F09FF9039A82421CD1AD
:10674000029942460F46019B1B495945DED12978E3
:10675000490603D512B133F8173073B9013CE4B2DE
:1067600000213046FFF70DFF074600289BD0384632
:1067700005B0BDE8F08FA242B9D0FF24F0E7D045C4
:10678000E2D0FAE724B92846FFF7DBFA4845EED015
:10679000B369DF7A17F0010799D105F10B00854243
:1067A000E5D015F8011B13F8012B9142F7D08EE7C5
:1067B0000427DCE7841C0108911C01082DE9F74F30
:1067C0000B7807462F2B884601D05C2B01D108F1AE
:1067D00001080023BB6098F800301F2B00F2ED8009
:1067E00000213846FFF7A1FD00237B6103B0BDE81F
:1067F000F08FC1460121204601F01AF9002800F06F
:106800000F817F2806D8954911F8012B12B18242D9
:10681000FAD105E12BF815000135DBE0B044ABF10E
:106820000206002D00F0FC8036F81520202A02D048
:106830002E2A40F0F980013DF3E701313BF81120A9
:10684000202AFAD02E2AF8D01F2C8CBF0024012435
:10685000A40009B144F0030436F815202E2A01D013
:10686000013DF9D14FF000094FF0080A4E463BF8C0
:1068700011004A1CD0B1202803D02E2806D1AA42EC
:1068800008D044F00304E4B21146F0E7D14505D244
:10689000AA424ED1BAF10B0F43D102E0BAF10B0F6D
:1068A00039D14FF00B0A44F00304E4B2BB691A7803
:1068B000E52A04BF05221A70BAF1080F04BFB6001A
:1068C000F6B206F00C030C2B03D006F00302032AE9
:1068D00002D144F00204E4B2A1070BD406F003068F
:1068E000012E04BF44F01004E4B2042B04BF44F0B2
:1068F0000804E4B2BB693846DC72FFF7C3FEBB692B
:10690000DB7A00284DD004287FF470AF13F0040F19
:1069100008BF05206AE7AA4203D044F00304E4B2AA
:10692000C4D8B6002A464FF00B0A4FF00809F6B259
:10693000AAE77F2830D9019201F09EF8002101F0EA
:1069400077F844F0020CFF28019A5FFA8CFC15D905
:106950000AF1FF31894504D344F00304D146E4B27F
:1069600092E7B969040A01F8094009F10109B96916
:10697000644601F8090009F1010985E730B1384C96
:1069800014F8011B00295AD08142F9D14CF0030CB4
:106990005F205FFA8CFCEAE7A446F0E746F00206C7
:1069A000E5E75A073FF522AF7969CB7ADB0639D59F
:1069B0003B681878FFF72CFCB86098F80030464622
:1069C0002F2B08F10108F8D05C2BF6D00025A94642
:1069D000D7F81CB016F8092009F101081F2A14463F
:1069E0007FF61CAF2F2A3FF419AF5C2A3FF416AF95
:1069F000FF2D15D07F32D2B27D2A3FF6FAAE16F8BF
:106A0000082009F10209A2F1400102EB04243E2909
:106A1000A4B27FF6EFAE82F080027E2A7FF6EAAE65
:106A20000620E3E60520E1E64FF000032BF81530E1
:106A300020210B22B869FFF77DF90021FEE6A0F1C5
:106A4000410189B21929A9D9A0F1610189B2192995
:106A50009EBF203846F0010680B288E7401C01083E
:106A6000491C01080C222DE9F04F87B0D0E90667D8
:106A7000054631460DEB0200FFF752F99DF817303D
:106A8000DB0740F18E8000234FF00109DFF83082F0
:106A9000F372EB610B22304603A9FFF741F9B9F11C
:106AA000050F54D94B46B81E30F8022F002A40D1AA
:106AB000072103AC03F00F0202F13000392888BF30
:106AC00002F137000F2B04F8010D01F1FF324FEAFC
:106AD00013103ED87E2002F118036B4403F8140C07
:106AE00000238C1E9A4206EB030002D9F15C202998
:106AF00032D10346072A8FBF202102F118016944D1
:106B000011F8141C98BF013203F8011B991B0729C7
:106B1000F0D92846FFF7B6FD044600283BD109F11D
:106B20000109B9F1640FB5D10724204607B0BDE8CB
:106B3000F08F102102F0010404EB4303DC0348BF93
:106B400083EA080301394FEA5202F3D1ACE74B461E
:106B5000AEE711460346ADE77F31C9B27D2902D8C1
:106B60009C42C6D001330133BCE7013637F81630FA
:106B7000002BFAD10D231936B6FBF3F616E00026EA
:106B8000F4E7074601212846FFF7FBFC0446A8B1BD
:106B9000042CC9D0C9E70428C7D19DF81730F37277
:106BA000EF619DF817309B07E9D4012600212846A4
:106BB000FFF7BBFB04460028EAD10746296928688D
:106BC000FFF78AF904460028E2D16B691B78E52BB0
:106BD00001D0002BD5D10137BE42D3D1013E52D0D6
:106BE000E9882846891BFFF7A0FB044600289CD1B2
:106BF000A869FFF7A6F84FF00F0807464FF6FF7990
:106C000029692868FFF768F90346044600288CD1F3
:106C10000D249A46F0B2411E61436A69DFF8A4E090
:106C2000D5F81CC0577382F80B8013739376D37614
:106C30004B4518BF3CF811301EF8014B0AF1010A10
:106C4000135518BF01314FEA132B1444002B08BF12
:106C50004B46BAF10D0F84F801B0E9D14B4502D093
:106C60003CF811300BB940F04000107001222B6845
:106C7000002128461A71FFF784FC044600287FF49F
:106C800054AF013EBCD129692868FFF725F90446B5
:106C900000287FF44AAF014620226869FFF74AF8CE
:106CA000D5E905010B22FFF73BF8D5E90523DB7A8F
:106CB00003F01803137301222B681A7135E700BF24
:106CC00021100100841C01082DE9F843FF27064626
:106CD0003C4604254FF6FF78316911B9002D63D089
:106CE00053E03068FFF7F8F8054600284DD1706989
:106CF0000378002B60D0E52BC27A4BD02E2B49D0E5
:106D000002F03F0102F01F02082A43D00F2946D1AA
:106D100059063DD503F0BF04F388477B3384437B9A
:106D2000BB4237D1428BAABB0D214FF0010C037837
:106D3000F56903F03F03013B4B43DFF880E01EF8A9
:106D4000011B00EB010999F80190415C41EA09211E
:106D5000BCF1000F20D0FE2B1CD88C4625F8131058
:106D6000013301320D2AEAD10278520604D5FE2BF6
:106D700010D8002225F81320013CE4B2002130464F
:106D8000FFF7FFFB05460028A6D0002333610CE087
:106D9000A342C4D0FF24F1E74145E2D0FAE73CB971
:106DA000FEF7CFFFB84203D100252846BDE8F8839F
:106DB0004FF6FF733384F8E70425E6E7841C0108E7
:106DC000012970B505460C4623D943698B4220D969
:106DD00021462846FFF72FFA2646044608B9002028
:106DE00070BD012815D0411C15D00022314628461F
:106DF000FFF7E5FA0028F3D12B695A1C05D00133BF
:106E00002B616B7943F001036B716B699C42DFD39B
:106E1000E5E70220E4E70120E2E700001FB5CDE945
:106E2000001003A814460391FEF79AFF031E15DB1A
:106E30000C4A52F8231009B100200870019808B1DB
:106E40000021017042F8230030B1012C08D100224A
:106E5000694601A8FFF780F804B010BD0B20FBE7DE
:106E60000020F9E7900B00202DE9F043ADF50F7DF0
:106E7000144605460191002800F09280002302F09C
:106E80001E02036001A905A8FFF766F8C0B902ABAE
:106E90000B9301990EAB05A80C93FFF78FFC0A9E8C
:106EA00010B9002E08BF062014F01C0F04F01F07B5
:106EB0006BD048B1042803D105A8FFF7D3FD60B11A
:106EC0000DF50F7DBDE8F083F37A13F0110F65D156
:106ED000610767D423073AD502E00A9E47F0080706
:106EE000FEF71AFF0024C0F30743C1B2C0F3072224
:106EF000DDF81480000EB1733374B1753376F4721B
:106F000034777477B477F477F2737074F2757076BF
:106F100098F800003146FFF77BF90123B476F47648
:106F200034757475044688F8043080B101464046D3
:106F3000D8F82C90FFF744FF0028C1D1013C494606
:106F40004046C8F80C40FEF7C7FF0028B8D100241F
:106F5000DDF814803A07D8F82C3048BF47F02007F6
:106F6000C5E90736AF71EC7198F800003146FFF7BC
:106F70004FF92861F369AC61C5E90243C5F80080A7
:106F8000B8F806302046AB809AE7002898D1F37A0B
:106F9000DA0609D4A007DAD5D907D8D507208FE7B4
:106FA00009208DE708208BE7042089E72DE9F74FBA
:106FB00099460023C9F80030044688461746FEF774
:106FC000ECFE054628BBE5791DBBA37913F0010350
:106FD000009300F09A80D4E90236F61ABE4228BF28
:106FE0003E4604F1240BA6B12068A1684389B1FB99
:106FF000F3F703FB1713002B75D18278013A3A405F
:1070000012F0FF0216D141B9206901280BD80225E0
:10701000E571284603B0BDE8F08F61690192FFF782
:107020000AF9019AF1E7411C03D10123009DE371A4
:10703000EFE76061D4F800A061695046FFF7F0F80F
:107040000028E4D0BAF80A308718B3422FD8B6FB2C
:10705000F3F39AF80210D018884288BF8B1A9AF876
:1070600001003A4641460193FEF71CFE0028DCD1A0
:10707000A279019B12F0400F0BD0A069C01B834284
:1070800007D922685946528902FB0080FEF748FE64
:10709000019B226857895F43A368B8443B44A360BF
:1070A000D9F80030F61B3B44C9F800309BE7A269D1
:1070B000974217D0A3799AF801005B0609D50123FE
:1070C0005946FEF7FFFD0028AFD1A37923F0400316
:1070D000A371206801233A4659464078FEF7E2FD45
:1070E0000028A2D1A7612368A1685F894046B1FB4F
:1070F000F7F307FB13117F1AB74228BF3746243135
:107100003A462144FEF70CFEC6E7072581E770B535
:107110000446FEF742FE002849D1A37913F020006F
:1071200045D05B0620680CD50123A269407804F1A4
:107130002401FEF7C7FD002838D1A37923F04003CE
:10714000A371E1692068FEF7C7FE064678BB256A91
:10715000EB7A43F02003EB72E3682B77A3891B0AD9
:107160006B77E389AB77E37BEB772369C3F3072284
:10717000AB761B0C2B751B0AEA766B75FEF7CCFD04
:107180000122C0F30723EB75030C2B76030EA875C1
:107190006B76AE74EE74A37923F02003A371236899
:1071A0001A712068BDE87040FEF7F8BF012070BD7D
:1071B00010B50446FFF7ABFF20B92046FEF7EDFD02
:1071C00000B9206010BDF8B504460D46FEF7E5FD98
:1071D000064600286FD1E679002E6CD1E368AB42F9
:1071E00004D2A27912F0020F08BF1D460022A36844
:1071F0002068A260002D2FD100252168A3684A894C
:10720000B3FBF2F002FB1033E3B1A269AA4219D03A
:10721000A37948785B0604F1240709D50123394690
:10722000FEF750FD00284AD1A37923F04003A37153
:10723000206801232A4639464078FEF733FD0028AE
:107240003DD1A561D4E90232934281BFE360A379C5
:1072500043F02003A3712EE08778428957430BB394
:10726000013B6A1EB2FBF7F2B3FBF7F18A4219D376
:107270007A4213406169A360ED1A0029BCD0BD4277
:10728000206821D8A36820682B44A3604389B5FBFC
:10729000F3F203FB1255002DAED0FEF7C1FF40B153
:1072A0001518AAE7216969B9FFF71BF901280146FA
:1072B00003D10226E6713046F8BD421C01D10126F9
:1072C000F8E720616161D8E7A3799B0705D5FFF74F
:1072D00008F9014620B93D46D4E7FEF7ACFF014668
:1072E0004A1CECD00129E4D923685B698B42E0D9C0
:1072F000A36861613B44A360ED1BC0E730B5ADF509
:10730000077D0446019150B3002201A902A8FEF7AF
:1073100023FE80B903AB029DA36106AB2046019911
:107320002560E361FFF74AFAD8B9616951B1CB7AB8
:10733000DB0603D40520002323600DE02878FEF748
:1073400067FFA060EB8800212046A380FEF7EDFFD9
:107350000428EFD00028EED10DF5077D30BD0920BF
:10736000FAE70428E6D0E6E770B5ADF5047D0446FB
:107370000E46FEF712FD0546F0B93EB931462046ED
:107380000DF5047DBDE87040FEF7CFBF01ABA361F2
:1073900004AB2046E361FFF797FC042810D1256178
:1073A00031462046FEF70BFD00212046FFF7E9F8A5
:1073B000042807D10023236128460DF5047D70BD04
:1073C0000028EDD00546F7E72DE9F3471446019074
:1073D0000F460022204601A9FEF7BEFD054638B93A
:1073E0002468D4E90438A8F10202934204D83B602F
:1073F000284602B0BDE8F08794F80090B9F1010F7B
:1074000018D14FF00208064641462046FEF713FF0A
:10741000431C32D0012832D000B90136636908F12B
:1074200001084345F0D86379266143F00103637195
:107430003E60DDE7034602460646216A4AB9204619
:1074400001F1010AFEF748FDD8B95146628904F1FD
:107450003003B9F1020F08D1188800B901360233A0
:10746000023AB8F10108E9D1DDE71868043A30F0D2
:10747000704008BF01360433F3E70125D3E7022546
:10748000D1E70546CFE700002DE9F04F012989B08B
:107490008B461546059000F2AE8205A8FEF760FC0B
:1074A000061EC0F2AA82634B53F82640002C00F05F
:1074B000A6820023F6B230462370FEF7E1FBC20736
:1074C00000F19F82430700F19E820221304604F1C1
:1074D0000A02FEF70CFC18B1012009B0BDE8F08FDC
:1074E0006389A3F500739BB2B3F5606FF4D80121F3
:1074F000304607AAFEF7FBFB0028EDD1079A7F2A4A
:10750000EAD9BBF1000F14BF4FF0000A4FF03F0A59
:107510006B1EA2EB0A022B426189079200D17DB952
:107520004FF4FA63480AB3FBF0F30020B2FBF3F325
:10753000414D35F8027BBB4229D3404B33F8105004
:10754000B5F5007F28BFB5FBF1F5802D28BF80255C
:10755000012D2B4638BF012340F6F5750193B2FB90
:10756000F3F3AB4201F1FF3000F24F82012703EB4E
:10757000430301335B08DD1C4FF48043B3FBF1F39D
:107580000544B5FBF1F54FF0010903930AE0013022
:10759000CFE7002300EB8505B5FBF1F503274FF09E
:1075A0002009039309EB0A030293039B05EB0308ED
:1075B00009EB0A039844019BA3EB0A0343449A4254
:1075C00001D20E2089E70321304606AAFEF78FFB81
:1075D00020B9069B013BB3F5004F01D3012306936D
:1075E000069A032F02F1FF334344C2F1000203EA7B
:1075F000020308BF029AA3EB080305BFD2189944FF
:10760000ED1802920693079A039B0199D31AA3EBF4
:1076100009035B1BB3FBF1F3022F049310D140F677
:10762000F57304999942CCD9B2F5803F2CBF06235B
:1076300004230EE0900B0020A81C0108921C0108F6
:10764000032F40F012814FF6F573049A9A42B8D98D
:107650000C23628904F13008BBF1000F40F00E8169
:1076600059464046FEF766FB84F8F231FE2384F863
:10767000F33143F6C163079A4FF0010C0AEB0200A5
:10768000B0FBF3F0830843F03F0384F8F4313F2369
:1076900084F8F631C2F3072384F8FB31130C84F825
:1076A000FC314AF6552384F8FA21120E069084F82C
:1076B000F50184F8FD21A4F82E325A46634641466E
:1076C000304684F8EFC184F8F0C184F8F1B184F851
:1076D000F7B184F8F8B184F8F9B1FEF7F3FA0028AD
:1076E0007FF4FAAE4FF0F80B002140466289FEF7B6
:1076F00021FB0B224046CA49FEF712FB638984F83E
:107700003E9084F83B301B0A84F83C30019BC9F35F
:10771000072984F83D30012384F84030002384F8A1
:107720004130FB1E18BF01235B0084F84230079BE9
:1077300084F83F90B3F5803F9AB280F0A280120A9D
:1077400084F8433084F844203F234FF0000984F844
:107750004830FF2384F845B084F84A3084F84990D3
:1077600084F84B9084F84CA084F84D9084F84E90A7
:1077700084F84F90FEF7D0FA032F0690E9B2C5F3D4
:10778000072283B240F089801B0A84F87430030C0E
:1077900084F875302B0C84F856302B0E84F8573053
:1077A000022384F85C30012384F86030062384F8D7
:1077B0006230802384F87030292384F85520132206
:1077C00084F8730084F85410000E964984F876000B
:1077D00084F85D9084F85E9084F85F9084F86190FE
:1077E00084F8639084F8723004F17700FEF798FA19
:1077F000552384F82E32AA23524684F82F3241466C
:1078000001233046FEF75EFA00287FF465AE032FB1
:1078100006D10123414630460AF10602FEF752FA2C
:10782000002140466289FEF785FA032F4FD16BF0A5
:10783000FF03069384F83030FF2384F8313084F856
:10784000323084F8333084F8343084F8353084F8BA
:10785000363084F8373084F8383084F8393084F89A
:107860003A300F2384F83B3043E0012F7FF4DCAE45
:10787000B2F5803F2CBF06230123EAE64FF0F00B60
:1078800032E7120A84F8503084F851201A0C1B0E8B
:1078900084F8522084F8533056E71B0A84F8583095
:1078A000030C84F85930802384F85430292384F859
:1078B0005700000E84F85A0084F8461084F84720D8
:1078C0005949132284F8563004F15B008EE7012FEA
:1078D000564B18BF6FF0FF03FF2243EA0B030693DA
:1078E00084F830301B0E84F8312084F8322084F87C
:1078F0003330029B41463046029A03F101090123CD
:10790000FEF7E0F9014600287FF4E6AD40466289C3
:10791000FEF710FA01239D42069309F1010B5DD891
:10792000019B039A032F18BF1346019309EB03052C
:1079300001234A46414630469944FEF7C3F90028E0
:107940007FF4CAADA945F3D1032F3ED1522384F869
:10795000303084F831306123412284F8323084F8A9
:107960001732049B84F83320013B84F81622C3F3BA
:10797000072284F8183284F819221A0C1B0E84F896
:107980001B32022384F81C32552384F82E32AA239A
:10799000722184F82F32012384F8141284F815120E
:1079A00084F81A2241460AEB030284F81D0284F887
:1079B0001E0284F81F023046FEF784F90123414677
:1079C00030460AF10702FEF77DF9002230461146E3
:1079D000FEF78DF9003818BF01207EE501234A46E5
:1079E00041463046FEF76EF900287FF475AD069BE0
:1079F000D94601338FE713206FE50B206DE50C208E
:107A00006BE5032069E50A2067E54FF6F577BB4291
:107A100003F102053FF6BDAD02276D00ACE500BFE6
:107A2000501C01085C1C0108701C010800FFFF00CD
:107A30007F28F0B518D90E4A0E4B45F22055002983
:107A400008BF1A46002410212B1B03EBD37304EB51
:107A5000630332F823709E00874206D034BF1C4671
:107A60001D460139F0D10846F0BD32445088FBE78D
:107A70009A2001081E7502087F2870B506D8A0F16B
:107A80006103192B01D8203880B270BD0C2200216F
:107A90004FF4F774084D631A01EB530335F8136084
:107AA000864205D02CBF1C461946013AF3D1ECE7BB
:107AB000024A32F81300E8E7BE1C0108A2C9030815
:107AC0004FF0FF3200F10803C0E902234360036175
:107AD00000230360704700230361704743684B60D5
:107AE0009A688A6051609960086103680133036095
:107AF000704730B50C68631C0AD103695A684A6044
:107B000091608B605960086103680133036030BD88
:107B100000F10802134652681568A542FAD9EDE74C
:107B20000369D0E901128A60416851605A68824253
:107B300004BF82685A600022026118680138186028
:107B40007047F8B51546026C0446866B52B9076853
:107B500047BB406801F070F805466760013628466B
:107B6000A663F8BD65B9806805F0F1FFA368226CD3
:107B700013446268A3609342F0D32368A360EDE7E7
:107B8000C06805F0E4FF226CE36851429B1A22684A
:107B9000E36093423EBF63685B18E360022D01D14E
:107BA00016B1013E0025D9E73546D7E773B5846C99
:107BB0000E4601902CB940F6CE121849184803F031
:107BC000D3FDA26BE36B9A4205D340F6CF12134963
:107BD000144803F0C9FDA26BE36B9A421BD23246F4
:107BE000204601A994F84550FFF7ABFF6DB26B1C1E
:107BF00006460BD1636A33B104F1240000F028FF7C
:107C0000002818BF0126304602B070BD01356DB2A4
:107C100084F84550F7E70026F5E700BF7ECD03085E
:107C200096CD0308AACD030803461A6C084610B483
:107C300062B1DC68596814448C4228BF1968DC6062
:107C400028BFD960D96810BC05F081BF10BC70474F
:107C500070B5044601F076FA94F8455004F1240614
:107C60006DB2002D14DCFF2384F8453001F08CFA4E
:107C700001F068FA94F8445004F110066DB2002D3A
:107C800019DCFF2384F84430BDE8704001F07CBA71
:107C9000A36C4BB100212046FFF788FF08B100F02C
:107CA0006BFF013D6DB2DCE7636A002BDBD0304631
:107CB00000F0CEFEF2E72369002BE2D0304600F060
:107CC000C7FE08B100F058FF013D6DB2D7E70000D4
:107CD00038B50D46044628B940F21B121A491B4814
:107CE00003F042FD01F02EFAD4E90F314B43226834
:107CF000D0185B1A6060A26000201A44FF23A063C2
:107D0000E26084F8443084F84530A5B9236973B142
:107D100004F1100000F09CFE48B14FF0E0234FF05A
:107D20008052C3F8042DBFF34F8FBFF36F8F01F064
:107D30002BFA012038BD04F11000FFF7C1FE04F159
:107D40002400FFF7BDFEF2E77ECD0308F1CD030866
:107D5000F8B50D461746064628B94FF4C4720E49C9
:107D60000E4803F001FD05FB06F0543001F02CFB3A
:107D7000044668B175B100F1540323600121204627
:107D8000C4E90F65FFF7A4FF002384F85070A364D3
:107D90002046F8BD0346F0E77ECD0308F9CD030881
:107DA0002DE9F04385B00F461E460446019228B9DE
:107DB00040F2D9225249534803F0D6FC3FB9236C14
:107DC0002BB140F2DA224E494F4803F0CDFC022E8F
:107DD00008D1E36B012B05D040F2DB2248494B4828
:107DE00003F0C2FC00F0CEFE38B9019B2BB140F28B
:107DF000DE224349464803F0B7FC4FF00008C14675
:107E000001F0A0F9A26BE36B9A4201D3022E23D1B9
:107E1000324639462046FFF794FEA36CA3B13146A3
:107E20002046FFF7C3FE48B14FF0E0234FF08052E9
:107E3000C3F8042DBFF34F8FBFF36F8F01F0A4F988
:107E4000012005B0BDE8F083636A002BEBD004F19C
:107E5000240000F0FDFDE6E7019D1DB901F094F955
:107E60000020EEE7B8F1000F02D102A800F032FEC8
:107E700001F08AF900F0FAFB01F064F994F844305B
:107E8000FF2B08BF84F8449094F84530FF2B08BFBF
:107E900084F8459001F078F901A902A800F032FEBB
:107EA00040BB01F04FF9A26BE36B9A420FD101F096
:107EB0006BF9019904F1100000F08CFD2046FFF7EA
:107EC000C7FE00F073FC50B14FF0010898E701F0D5
:107ED0005BF92046FFF7BCFE00F068FCF4E74FF0CA
:107EE000E0234FF08052C3F8042DBFF34F8FBFF350
:107EF0006F8FE9E72046FFF7ABFE00F057FCAFE7D6
:107F00007ECD0308F1CD03081BCE03086BCE03081A
:107F1000B2CE0308024610B500210120FFF718FF7A
:107F2000044638B100231A461946C0E90033C3603D
:107F3000FFF736FF204610BD2DE9F84389469046ED
:107F40001F46044628B940F29F322C492C4803F0C2
:107F50000BFCB9F1000F07D1236C2BB14FF4687201
:107F60002649284803F000FC022F08D1E36B012BBF
:107F700005D040F2A1322149234803F0F5FB01F07E
:107F8000CDF9EFF311864FF0500383F31188BFF35F
:107F90006F8FBFF34F8FA26BE36B9A4201D3022F17
:107FA00029D194F845503A46494620466DB2FFF72C
:107FB000C8FD6B1C1AD1A36C83B139462046FFF76C
:107FC000F5FD08B9012005E0B8F1000FFAD0012055
:107FD000C8F8000086F31188BDE8F883636A002BB7
:107FE000F0D004F1240000F033FDEAE701356DB272
:107FF00084F84550E6E70020ECE700BF7ECD03089B
:10800000F1CD03081BCE03086BCE030870B50D46F7
:10801000044628B940F23C422549264803F0A4FB17
:10802000236C2BB14FF488622149234803F09CFB59
:1080300023683BB963682BB140F245421C491F4895
:1080400003F092FB01F06AF9EFF311864FF0500351
:1080500083F31188BFF36F8FBFF34F8FA26BE36B76
:10806000934223D994F845100132FF294BB2A26301
:1080700017D1A36C6BB100212046FFF797FD08B91B
:10808000012003E0002DFBD00120286086F3118839
:1080900070BD636A002BF3D004F1240000F0D8FC1B
:1080A000EDE701335BB284F84530E9E70020EDE706
:1080B0007ECD0308F1CD030808CF030821CF0308C4
:1080C0002DE9F04385B00D461F460446019228B9BC
:1080D00040F2DC425649574803F046FB3DB9236C59
:1080E0002BB140F2DD425249534803F03DFB00F012
:1080F00049FD38B9019B2BB14FF49C624C494F4864
:1081000003F032FB4FF00008C14601F01BF8A66BEC
:1081100066B329462046D4F80C80FFF785FDEFB9F9
:108120002368013EA66313B900F0D8FD606023699F
:1081300073B104F1100000F08BFC48B14FF0E02364
:108140004FF08052C3F8042DBFF34F8FBFF36F8FF2
:1081500001F01AF8012005B0BDE8F083636AC4F8A5
:108160000C80002BF4D004F12400E4E7019B1BB940
:1081700001F00AF80020EEE7B8F1000F02D102A8E2
:1081800000F0A8FC01F000F800F070FA00F0DAFF4F
:1081900094F84430FF2B08BF84F8449094F845309D
:1081A000FF2B08BF84F8459000F0EEFF01A902A85C
:1081B00000F0A8FC70BB00F0C5FFA36B03BB00F090
:1081C000E3FF236833B900F0BDFF606800F0EAFC0C
:1081D00000F0DAFF019904F1240000F0FBFB2046D7
:1081E000FFF736FD00F0E2FA88B94FF0E0234FF0D8
:1081F0008052C3F8042DBFF34F8FBFF36F8F06E09B
:1082000000F0C2FF2046FFF723FD00F0CFFA4FF049
:1082100001087AE72046FFF71BFD00F0C7FA00F0DF
:1082200091FFA36B002BA3D000F0AEFFEFE700BFE0
:108230007ECD0308F1CD03087CCF0308B2CE03083E
:10824000002310B5064A52F833402CB942F83310D7
:1082500002EBC302506010BD01330A2BF3D1FAE7E1
:108260009C0B002070B504460D46164600F06AFFD0
:1082700094F84430FF2B04BF002384F8443094F872
:108280004530FF2B04BF002384F8453000F07CFF0D
:10829000A36B2BB93246294604F1240000F0B6FB4B
:1082A0002046BDE87040FFF7D3BC0000F8B51A4B7C
:1082B0001A4D06461C6828680F460430FFF730FC4C
:1082C00040B92A681649D06A01220B68824023EA25
:1082D00002030B60731C07D137B1296811480431C0
:1082E000BDE8F840FFF7FABB2B68A4195C6007D320
:1082F0000D4B18682968BDE8F8400431FFF7F9BB59
:108300000A4B186829680431FFF7F3FB084B1A6819
:10831000A24288BF1C60F8BD4C0D0020EC0B002071
:10832000D40C0020240D0020F40B0020F00B0020C2
:10833000040D0020064A13681968064B19B94FF05E
:10834000FF321A6070471268D268D2685268F8E744
:10835000F00B0020040D00202DE9F84F9500074692
:1083600028460E46984601F02FF88146002800F076
:10837000A380602001F028F80446002800F09980CE
:108380002A46C0F83090A521484605F06FFBD4F886
:1083900030B0731E04F133020F3613F8011F02F8D8
:1083A000011F09B1B342F8D10A9E4FF0000A092E0D
:1083B00028BF092604F104094846C4E9136AE662A5
:1083C00084F843A0FFF787FB043D04F11800FFF792
:1083D00082FBC6F10A060BEB0500C4F858A0424622
:1083E00039462461A6616462C4F854A084F85CA094
:1083F00020F0070000F07EFE0B9B206003B11C60A4
:1084000000F0A0FE334B344E1A68344F01321A602C
:108410003568002D53D134601B68012B1FD1B8463D
:1084200040460135FFF74CFB0A2D08F11408F7D13F
:10843000DFF8AC802B4D4046FFF742FB2846FFF7A4
:108440003FFB2948FFF73CFB2848FFF739FB28484A
:10845000FFF736FB274BC3F80080274B1D60012533
:10846000264A27491368086801331360E26A636487
:1084700005FA02F3034314200B6000FB0270494627
:10848000FFF72CFB00F080FE1E4B1B6873B13368B6
:10849000DA6AE36A9A4209D24FF0E0234FF0805241
:1084A000C3F8042DBFF34F8FBFF36F8F2846BDE88D
:1084B000F88F484601F024F84FF0FF35F6E7114BEE
:1084C0001A68E36A002ACAD13268D26A9A4298BF0F
:1084D0003460C4E7C00C0020EC0B0020F80B002037
:1084E000D80C0020EC0C00200C0D0020380D0020D2
:1084F000240D0020F00B0020F40B0020D00C0020F5
:10850000D40C0020200D002070B504462A4D00F048
:1085100019FE04B92C68261D3046FFF701FB60B92F
:108520001423E06A254A4343D35833B9012224492E
:1085300082400B6823EA02030B60A36A1BB104F1BB
:108540001800FFF7EDFA1F4A1368013313602B6818
:10855000A34223D131461C48FFF7C0FA1B4A1368D7
:108560000133136000F010FE194B1B68ABB12B6890
:10857000A34212D1174B1B682BB140F2654216493A
:10858000164803F0F1F84FF0E0234FF08052C3F8A3
:10859000042DBFF34F8FBFF36F8F70BD104A206B58
:1085A0001368013B136000F0ABFF204600F0A8FF0A
:1085B000FFF7C0FED6E700BFEC0B0020F80B002051
:1085C000D40C0020D00C0020380D0020C40C00205A
:1085D000200D0020CC0C0020C7CF0308E5CF0308F6
:1085E000C00C002013B50024184B962201931849A3
:1085F000234618480094FFF7AFFE012818D100F079
:10860000C3FB012814D14FF0500383F31188BFF34B
:108610006F8FBFF34F8F4FF0FF320F4B1A600F4B2E
:1086200018600F4B1C6002B0BDE8104000F00CBE9B
:10863000013008D140F284720A490B4802B0BDE80B
:10864000104003F091B802B010BD00BF000D002033
:10865000FFCF0308ED880008040D0020200D002046
:108660004C0D0020C7CF030804D00308024A13684A
:1086700001331360704700BFCC0C0020014B186819
:10868000704700BF4C0D00202DE9F84F3A4B1B6896
:10869000002B6BD1394B1D6801351D60A5B9384CD5
:1086A00023681B682BB140F6D9123649364803F0CF
:1086B0005BF8364B2268196821601A60344A1368E7
:1086C00001331360FFF736FE324E00243368324F19
:1086D000AB4210D91422314B1B68DB6A5343FB5861
:1086E000022B28BF01242E4B1B68002B0CBF2046F9
:1086F0000120BDE8F88FDFF888A0DFF8A890DAF84D
:1087000000301B681BB94FF0FF333360E2E7DAF843
:108710000030DB68D3F80CB0DBF80420954201D2BE
:108720003260D7E70BF104084046FFF7F9F9DBF8B0
:1087300028201AB10BF11800FFF7F2F90122DBF83B
:108740002C00D9F8003082401A43C9F800201422C6
:10875000414602FB0070FFF7C1F9104BDBF82C20FB
:108760001968CB6A9A4228BF0124C8E70E4A002440
:10877000136801331360B6E7CC0C00204C0D0020C9
:10878000F00B0020C7CF030835D00308F40B0020FE
:10879000080D0020040D0020F80B0020EC0B002039
:1087A000500D0020D40C0020C80C00202DE9F84307
:1087B000304C23682BB94FF4FD622F492F4802F04B
:1087C000D3FF00F0BFFC2368013B236024682CB179
:1087D000002400F0D9FC2046BDE8F883284B1B6834
:1087E000002BF5D0274D284EDFF8A0801FE0EB6866
:1087F0000127DC6804F1040904F11800FFF790F97F
:108800004846FFF78DF91420E26A316807FA02F34F
:108810000B4300FB028049463360FFF75FF91C4BB6
:10882000E26A1B68DB6A9A4201D31A4B1F602B680D
:10883000002BDCD10CB1FFF77DFD174D2C6844B146
:108840000127144EFFF720FF00B13760013CF9D13A
:108850002C60104B1B68002BBAD04FF0E0234FF078
:108860008052C3F8042DBFF34F8FBFF36F8F0124E5
:10887000AFE700BFCC0C0020C7CF030860D00308CF
:10888000C00C00200C0D0020D40C0020F80B0020A0
:10889000EC0B0020500D0020C80C002010B5044641
:1088A00050B94FF0E0234FF08052C3F8042DBFF3CE
:1088B0004F8FBFF36F8F10BD094B1B682BB140F278
:1088C000CF420849084802F04FFF00212046FFF739
:1088D000CDFEFFF7EBFCFFF769FF0028E1D0EAE7E8
:1088E000CC0C0020C7CF0308E5CF030808B5124E13
:1088F000124C236813B903F04FF8F9E7FFF7B6FEFF
:108900003568FFF753FF002DF3D000F01BFCF36830
:10891000DD68281DFFF704F9094A1368013B13605D
:108920002368013B236000F02FFC286B00F0E8FD7A
:10893000284600F0E5FDDCE7380D0020C40C0020DF
:10894000C00C002070B51C4B1A681C4B12B10122E0
:108950001A6070BD1A4E1A603268336812681B6B59
:108960009A4204D830683168343103F02DF8154B41
:108970001C68B4FA84F41423E4B2C4F11F04634302
:10898000114DEB582BB940F6F6221049104802F071
:10899000EBFE142000FB04F3EA1851680833496821
:1089A0002B445160994200FB045504BF4B6853604F
:1089B0006B68DB683360CCE7CC0C0020500D0020E6
:1089C000EC0B0020D40C0020F80B0020C7CF0308CC
:1089D00075D0030838B50D46044628B940F606326E
:1089E0000749084802F0C0FE074B204619681831B5
:1089F000FFF77FF82846BDE838400121FFF756BC55
:108A0000C7CF0308BCD00308EC0B002070B50E469E
:108A10001446054628B940F631320A490A4802F0A0
:108A2000A3FE0A4B284619681831FFF757F8002CA7
:108A3000214608BF3046BDE8704018BF4FF0FF30F8
:108A4000FFF734BCC7CF0308BCD00308EC0B0020F1
:108A500038B5C368DC682CB940F661321549164850
:108A600002F082FE04F118052846FFF759F8134B6F
:108A70001B68E3B9251D2846FFF752F8012310496A
:108A8000E26A08689340034314200B6029460D4BAB
:108A900000FB0230FFF722F80B4BE26A1B68DB6A2F
:108AA0009A4285BF0120094B0020186038BD294635
:108AB0000748EFE7C7CF0308C8D00308CC0C002055
:108AC000D40C0020F80B0020EC0B0020500D0020EF
:108AD0000C0D002010B5044628B940F6C1320549F6
:108AE000054802F041FE054B1B682360044B1B68E0
:108AF000636010BDC7CF0308D7D00308080D00205E
:108B00004C0D002070B50D46044628B940F6CB3216
:108B10001449154802F028FE2DB940F6CC3211490F
:108B2000124802F021FE00F00DFB114B19682B6872
:108B30005A1C10D00F4A1068D4E90062864201D056
:108B400091420DD2881A83420AD95B1A13442046F7
:108B50002B60FFF7BFFF002400F016FB204670BD1E
:108B60000124F9E7C7CF0308D7D00308E1D00308F1
:108B70004C0D0020080D00200122014B1A607047A7
:108B8000500D0020054B1B6833B1054B1868B0FA37
:108B900080F040094000704701207047200D002000
:108BA000CC0C00202DE9F041044600282FD01F4DA9
:108BB000C36A2A68D26A934229D2142682691C4F5A
:108BC000002AA8BF2A6806FB0373A2BFD26AC2F1BB
:108BD0000A02826142699A4216D100F104084046B5
:108BE000FEF79EFF134AA0B12B681168D86A0123D3
:108BF00083400B4313601423E062414603FB007083
:108C0000BDE8F041FEF76ABF2B68DB6AC362BDE8CE
:108C1000F081E06A4643BB59002BE5D1012113687E
:108C2000814023EA01031360DEE700BFEC0B002064
:108C3000F80B0020D40C0020F8B5044608B9002039
:108C4000F8BD204B1B68834205D040F6C7621E4921
:108C50001E4802F089FD236D2BB940F6C9621A49FE
:108C60001B4802F081FD236DE16AE26C013B9142F9
:108C70002365E4D0002BE2D1261D3046FEF750FFDD
:108C8000144F154A50B91423E16A4B43FB582BB9D2
:108C9000012513688D4023EA05031360E36C14205B
:108CA000C3F10A01A161E3620124116804FA03F52A
:108CB00000FB03700D4331461560FEF70FFF2046A1
:108CC000BEE700BFEC0B0020C7CF0308EFD00308BE
:108CD00005D10308F80B0020D40C0020044B1A68BF
:108CE0001AB119680A6D01320A651868704700BF29
:108CF000EC0B0020F8B50F4C00F024FA2568ADB954
:108D00000D4F0E4E3846FEF7DBFE3046FEF7D8FE1E
:108D10000B4B2A461F600B4B0C2114201E60FFF7E3
:108D200017F8206010B10849FFF78AFABDE8F8404B
:108D300000F02ABA880D00205C0D0020700D002084
:108D4000540D0020580D00201AD10308914208B597
:108D5000416000610AD8D21A83699A420DD2084B49
:108D6000011D1868FEF7C5FE002008BD9A4201D219
:108D7000994202D2034B011DF3E70120F5E700BF42
:108D8000580D0020540D002007B5FFF7B3FF0D4B21
:108D90001B684BB90C4840F233120C4902F0E4FC5A
:108DA000002003B05DF804FB094B962201930123D8
:108DB0000849009308480023FFF7CEFA0028E9D0BD
:108DC000EFE700BF880D002038D103081FD103084A
:108DD0008C0D002040D10308ED8E00082DE9FF41E5
:108DE0000C4690461E46054628B94FF4D3721049EA
:108DF000104802F0B9FC104F386878B1052CCDE965
:108E0000014803950DDCFFF7BDFE0023022814BFC7
:108E10001A460A9A386801A9FEF7C2FF04B0BDE8F5
:108E2000F0810023324601A9FFF786F8F6E700BF7C
:108E30001FD1030848D10308880D00202DE9F04F09
:108E400085B00646FFF71AFCDFF88C800546D8F897
:108E5000003083420DD9214FDFF88490DFF884A0E1
:108E60003B681A686AB9204A1168136039600123A7
:108E700000E0002328463360C8F8005005B0BDE884
:108E8000F08FDB68DC68D3F800B0211D0846039141
:108E9000FEF746FE636A20469847E3690399012B73
:108EA000DED1A3695B449B4505D2386863602461C9
:108EB000FEF71FFED4E700235A46194620460093CA
:108EC000FFF78CFF0028CBD140F292324946504642
:108ED00002F04AFCC4E700BF840D0020540D0020BE
:108EE0001FD103084FD10308580D00202DE9F0478A
:108EF000624F634E86B03B681D68002D66D0DB680C
:108F0000D3F80090FFF7B2FB03A8FFF797FF039C8D
:108F10008246DFF87081002C76D1002D58D048456C
:108F20005CD3FFF743FC3B68DB68DD68281DFEF778
:108F3000F7FDEB69012B15D1A9694B46524628462E
:108F40004944FFF703FF68B123464A4621462846B5
:108F50000094FFF743FF28B94FF4027231464A48A4
:108F600002F002FC28466B6A98470023D8F80000FC
:108F70001A4603A9FFF7A4F80028BCD0039B002BD6
:108F8000F3DB059C636913B1201DFEF7C9FD02A840
:108F9000FFF754FF039B0546092BE6D801A252F8C0
:108FA00023F000BF0F9000080F9000080F900008FA
:108FB0006B8F000851900008739000080F90000814
:108FC0000F9000086B8F000851900008A94699E7A0
:108FD0002E4B1B681C68B4FA84F464092246D8F846
:108FE0000000A9EB0A01FFF73DF9FFF7DFFB0028BE
:108FF000BBD14FF0E0234FF08052C3F8042DBFF3F4
:109000004F8FBFF36F8FB0E7FFF7D0FBADE7A169DC
:10901000049B024619442046FFF798FE0028A4D07E
:10902000636A20469847E369012B9ED10023A26919
:10903000049920460A4400931946FFF7CFFE002802
:1090400093D140F2213231460F4802F08DFB8CE77C
:10905000049BA3612BB94FF44E7231460C4802F0C9
:1090600083FBA1692B462A4620462944FFF76EFE62
:109070007BE7204600F044FA77E700BF540D00205C
:109080001FD10308880D00204FD10308580D002080
:1090900057D1030806480068006880F3088862B664
:1090A00061B6BFF34F8FBFF36F8F00DF00BF0000CB
:1090B00008ED00E0002307B501930B4B1B6801335B
:1090C00004D0CE2209490A4802F04EFB4FF050036B
:1090D00083F31188BFF36F8FBFF34F8F019B002B7A
:1090E000FCD003B05DF804FB380400207CD10308F9
:1090F000A8D103084FF0807340F8043C054B21F0E1
:10910000010140F8081C40F80C3C40F8202C403885
:10911000704700BFB590000800000000000000008C
:10912000074B19680868B0E8F00F80F30988BFF3AF
:109130006F8F4FF0000080F311884EF00D0E7047D6
:10914000EC0B00204FF0500383F31188BFF36F8FB7
:10915000BFF34F8F094A13680133012B13600BD102
:109160004FF0E023D3F8043DDBB22BB14FF4BE72D5
:109170000349044802F0F8BA704700BF38040020E1
:109180007CD10308C2D1030810B5084C23682BB961
:1091900040F283120649074802F0E6FA2368013BD1
:1091A00023600BB983F3118810BD00BF3804002081
:1091B0007CD10308F7D10308000000000000000084
:1091C000EFF30980BFF36F8F0D4B1A6820E9F00FA2
:1091D00010602DE908404FF0500080F31188FFF730
:1091E000B1FB4FF0000080F31188BDE8084019681A
:1091F0000868B0E8F00F80F30988BFF36F8F7047FD
:10920000EC0B002008B54FF0500383F31188BFF337
:109210006F8FBFF34F8FFFF737FA28B14FF0E0237E
:109220004FF08052C3F8042D002383F3118808BD4A
:109230004FF0E02300221A619A61024A5A61072224
:109240001A6170473F19010013B52D4B2D4C1A7848
:10925000D2B20192FF221A701B782B4ADBB28DF832
:1092600003309DF8033003F05003137007230022EE
:1092700023609DF80310581E090637D412B1032B42
:1092800023600ED04FF49A722049214802F06CFA04
:109290002368032B05D040F23D121C491D4802F003
:1092A00063FA2368164A1B0203F4E0632360019B00
:1092B0000024DBB213704FF0E023D3F8202D42F4EA
:1092C0007002C3F8202DD3F8202D42F07042C3F86D
:1092D000202DFFF7ADFF104B1C60FFF7DBFEFFF703
:1092E00031FBFFF7E7FE204602B010BD9DF80330CA
:1092F00001225B00DBB28DF803300346B9E700BF03
:1093000000E400E0940D0020900D00207CD10308C3
:1093100009D203084CD203083804002008B5EFF343
:1093200005830F2B0BD90F4A9B5C0F4A12789A4288
:1093300005D94FF42C720D490D4802F015FA4FF083
:10934000E0230C4AD3F80C3D126803F4E063934227
:1093500007D9BDE808404FF430720449064802F0CE
:1093600003BA08BDF0E300E0900D00207CD10308B3
:109370008ED20308940D0020B8D2030810B5104B0C
:109380001A461B688342FBD354681119884201BFF7
:109390004168104609195160446801198B420DD18A
:1093A000084909688B4204D05B6823444360136812
:1093B00019689042016018BF106010BD1946F8E7A7
:1093C000A86D0020980D00202DE9F8430446FFF712
:1093D0004DF94249424E0B680BBB424A424D500781
:1093E0001FBFD01D20F0070002F5C042131A0CBFAA
:1093F0004FF4C043024600201344083B23F0070308
:1094000068602A60C3E90000981AC2E900300B6066
:10941000364B1860364B18604FF0004333603368AA
:109420001C4207D0FFF7C2F9002702F0B7FA38460E
:10943000BDE8F883002CF5D004F1080562071CBFD5
:1094400025F007050835002DECD0DFF8A480D8F80A
:109450000030AB42E6D3244B1C686268AA4202D2B9
:109460002268002A37D10A68A242DBD022681F682E
:109470001A60636808375B1B102B11D904EB0509D0
:1094800019F0070F04D0EC221A491B4802F06CF9BE
:10949000636848465B1BC9F804306560FFF76EFFE0
:1094A00012496268D8F8003008689B1A834238BFB6
:1094B0000B60C8F8003033681343636000232360F7
:1094C000FFF774F97B07B2D04FF4967209490B4845
:1094D00002F04AF9ABE723461446BEE7980D002098
:1094E0009C6D00209C0D0020A86D0020A46D002024
:1094F000A06D0020FAD2030824D3030865D3030823
:1095000038B5044680B3194D50F8042C2B681A4224
:1095100005D14FF4A0721649164802F025F954F807
:10952000083C2BB140F241121149134802F01CF9DA
:1095300054F8043C2A68134216D054F8081C99B910
:1095400023EA020344F8043CFFF790F80B4A54F86E
:10955000043C1168A4F108000B441360FFF70EFFF0
:10956000BDE83840FFF722B938BD00BF9C6D002030
:10957000FAD20308ABD30308DCD30308A06D0020A4
:10958000014B1868704700BFA06D0020034B40F0EE
:10959000BF6040F40030D860704700BF00ED00E0CD
:1095A00030B5C3780278F3B1144B0F25D9684478ED
:1095B000C943C1F30221C1F104039C40837825FA19
:1095C00001F10B4023430E491B01DBB20A4482F830
:1095D000003301220378580903F01F0302FA03F352
:1095E00041F8203030BD0121530902F01F0201FA79
:1095F00002F20349203341F82320F3E700ED00E0B5
:1096000000E100E04FF0E0231A6904280CBF42F0AB
:10961000040222F004021A617047000043680A79CC
:1096200023F4702323F4807343EA02230A6810B5FD
:10963000134343608468D1E902231343084A22405C
:1096400013434A7943EA420383600A7CC36A013ABE
:1096500023F47003D2B243EA0253C36210BD00BFC9
:10966000FDF7F1FF836819B143F001038360704790
:1096700023F00103FAE7836819B143F48073836030
:10968000704723F48073FAE7836843F0080383602C
:1096900070478068C0F3C0007047836843F00403DC
:1096A000836070478068C0F380007047836819B199
:1096B00043F4A0038360704723F4A003FAE7092969
:1096C00070B51BD90726A1F10A04C56804EB440450
:1096D000A64025EA060503FA04F42C43C460062AD2
:1096E00017D81F24013A436B02EB8202944023EA0D
:1096F000040301FA02F21A43426370BD07250469AC
:1097000001EB4106B54024EA0504B340234303615D
:10971000E5E70C2A0CD81F24073A036B02EB820200
:10972000944023EA040301FA02F21A430263E4E7D5
:109730001F240D3AC36A02EB8202944023EA040319
:1097400091401943C162D8E70268034622F0020241
:109750000260026842F0010202604FF480325868F1
:10976000C00701D4013AFAD1586810F0010053D073
:109770008A79012A1A680CBF42F0800222F0800226
:109780001A60CA79012A1A680CBF42F0400222F01E
:1097900040021A600A7A012A1A680CBF42F02002BD
:1097A00022F020021A604A7A012A1A680CBF42F09D
:1097B000100222F010021A608A7A012A1A680CBF7D
:1097C00042F0080222F008021A60CA7A012A1A68D6
:1097D0000CBF42F0040222F004021A60CA788878B2
:1097E000120642EA8072087942EA00424879098802
:1097F00042EA005201390A43DA611A6822F0010292
:109800001A604FF480325968C90701D5013AFAD17C
:109810005868C04300F0010070470000012270B595
:10982000837A9A40354BD3F8001241F00101C3F816
:109830000012D3F81C42D14324EA0204C3F81C42AC
:10984000047BACB9D3F80C420C40C3F80C42C68878
:10985000847A4588483445EA064543F83450857A89
:1098600086880488483544EA064403EBC5035C60F7
:10987000037B012B16D1214BD3F80C421443C3F8C0
:109880000C420688847A4588483445EA064543F800
:109890003450857A8688C488483544EA064403EB08
:1098A000C5035C60C47A154B1CBBD3F804420C4062
:1098B000C3F80442048924B9D3F814422140C3F800
:1098C00014120389012B0D4B02BFD3F8141211435C
:1098D000C3F81412417B012902BFD3F81C120A43BA
:1098E000C3F81C22D3F8002222F00102C3F80022A0
:1098F00070BDD3F804421443DAE700BF00640040AF
:10990000F0B5836802465C013AD48368180139D403
:109910009368DB0043D5022002EB0013D3F88041AB
:10992000060104F00104C3F880410C7A4D7A5CBB57
:109930000F68D3F8804145EA47552543C3F8805165
:109940008C7A324404F00F048C72D3F8844124F0F2
:109950000F04C3F88441D3F884518C7A2C43C3F8A4
:109960008441D1F80B40C2F88841D1F80F10C2F8F9
:109970008C11D3F8802142F00102C3F88021F0BDA0
:109980000020C9E70120C7E7D1F804C0D3F88071EF
:1099900044EACC042C433C43C3F88041D0E7042084
:1099A000EDE700000129034608460ED0022913D036
:1099B000E1B99B6823F07B4323F47F0323F47F43C7
:1099C00023F0FC0393B10A480CE09968094A01EAC4
:1099D00002038A43F6D170479B680748054A034053
:1099E0009342EFD91B1A58425841704702207047E2
:1099F000030000040003000800000310036823F0C4
:109A000001031B041B0C036000230360436083609D
:109A1000C360294B984204D1284A536843F00F038E
:109A200026E0274B984204D1244A536843F0F003C0
:109A30001EE0244B984204D1204A536843F47063DB
:109A400016E0214B984204D11C4A536843F47043FA
:109A50000EE01E4B984204D1184A536843F4702319
:109A600006E01B4B984205D1144A536843F4700337
:109A700053607047174B984204D1104A536843F023
:109A80007063F5E7144B984201D1144AC5E7144BB3
:109A9000984201D1114AC8E7124B984201D10F4AAE
:109AA000CBE7114B984201D10C4ACEE70F4B9842BD
:109AB000DFD10A4AD1E700BF08000240000002409F
:109AC0001C000240300002404400024058000240A6
:109AD0006C00024080000240080402400004024082
:109AE0001C04024030040240440402405804024076
:109AF0008B6810B50C6A026823430C6922F4FF429C
:109B000023434C6922F0700223438C692343CC69C0
:109B100023434C6A23438C6A234313430360CB687B
:109B200043600B6883604B68C36010BD036819B164
:109B300043F001030360704723F001031B041B0C77
:109B4000F8E7036812B10B430360704723EA01038F
:109B5000FAE70000C3004CBF034B044B1B680342F1
:109B600014BF0120002070470004024000000240A2
:109B7000C3004CBF014B024B5860704700040240C9
:109B800000000240FFF7F4BF02688379D24310B5AA
:109B9000002B2FD01B4B19680A401A605A680168C5
:109BA00022EA01025A600279046802F1804202F559
:109BB00082321168214311609A68016822EA010229
:109BC0009A600168DA6822EA0102DA604279016883
:109BD000102A07D19A680A439A60DA6801680A4332
:109BE000DA6010BD02F1804303F582331A680A433C
:109BF0001A60F6E7037903F1804303F582331968AD
:109C00000A40F5E7000401400246054B196858690F
:109C1000104003D0114214BF01200020704700BF44
:109C200000040140014B5861704700BF000401402F
:109C3000034B044A5A6002F188325A60704700BFF1
:109C40000020024023016745024A136943F0800364
:109C50001361704700200240014BD860704700BF7D
:109C600000200240084BDA68D10709D4DA685207AD
:109C700008D4DB6813F0100F14BF032004207047D2
:109C800001207047022070470020024010B50446B2
:109C9000FFF7E8FF012806D10CB9052010BDFFF73A
:109CA000E1FF013CF6E7002C08BF0520F6E70000C5
:109CB00038B505464FF43020FFF7E8FF042813D1EC
:109CC0000A4C4FF43020236943F00203236165619D
:109CD000236943F040032361FFF7D8FF236923F092
:109CE0000203DB04DB0C236138BD00BF002002400F
:109CF000002373B506464FF400500D460193FFF75D
:109D0000C5FF04281BD10F4C4FF40050236943F0CA
:109D100001032361ABB23380FFF7B8FF042808D1F9
:109D200002360196019B2D0C4FF400501D80FFF769
:109D3000ADFF236923F00103DB04DB0C236102B0D8
:109D400070BD00BF00200240CB78F0B503F00F04D7
:109D5000DB0644BF8B781C430B78D3B1002201276C
:109D60004FF00F0C03680D8807FA02F636EA050576
:109D70000BD195000CFA05FE23EA0E0304FA05F553
:109D80002B43CD78282D2AD146610132082AEAD109
:109D900003600B88FF2B21D900234FF0010C4FF0FB
:109DA0000F0E46680D8803F108020CFA02F232EA3F
:109DB00005050FD19D000EFA05F726EA070604FAFD
:109DC00005F52E43CD78282D08BF4261CD78482D6A
:109DD00008BF02610133082BE4D14660F0BD482D75
:109DE00008BF0661D1E74FF6FF73038040F20243DC
:109DF000438070478368194214BF012000207047D8
:109E0000016170474161704730B50028154A00F480
:109E10004015B4BFD3695368B5F5401F84B210D163
:109E2000556823F0706325F07065556019B1420DD7
:109E30001201944023430B4A0028B4BFD3615360FE
:109E400030BDC2024DBF0322420D1201C0F30345D3
:109E50004CBFAA4004FA02F223EA020343F0706303
:109E6000E4E700BF0000014010B50F2401F0030338
:109E700001F0FC0101F1804101F580318A689B000D
:109E80009C4022EA04028A608A68984010438860F5
:109E900010BD000008B50B4B012198420AD14FF4C8
:109EA000001000F065F900214FF40010BDE80840F3
:109EB00000F05EB94FF4800000F05AF900214FF431
:109EC0008000F3E70054004070B586B004468688F1
:109ED00001A80D4600F0E8F8039B2E4926F03F0646
:109EE000B3FBF1F13604360C88B20643A680228813
:109EF000294E22F001021204120C22802A68B2427A
:109F000023D85200B3FBF2F293B2042B38BF0423E0
:109F1000013080B22084A38323889BB243F00103E5
:109F200023802388AA8823F48163698923F00203AC
:109F30001B040A431B0C13439BB22380AB892A8961
:109F400013439BB2238106B070BD4BF6FF70EE88C1
:109F500086421BBF1920424302EB4202B3FBF2F3DD
:109F60000BBFB3FBF2F29BB293B243F48043C3F353
:109F70000B020AB943F001034FF4967251434FF4B8
:109F80007A72B1FBF2F1013189B243F400432184CA
:109F9000C1E700BF40420F00A0860100838821B1C5
:109FA0009BB243F400638380704723F400631B0477
:109FB0001B0CF8E7838821B19BB243F48053838064
:109FC000704723F480531B041B0CF8E7038821B16E
:109FD0009BB243F480630380704723F480631B04C7
:109FE0001B0CF8E783889BB212B11943818070473C
:109FF00023EA0101FAE701827047008AC0B2704784
:10A0000022B141F0010189B20182704701F0FE01E5
:10A01000F9E7002382B0009301930B0F01900093A6
:10A02000009B21F07F4153B1019B14330193019BAD
:10A030001B680B4214BF0120002002B07047019B37
:10A04000090C1833F2E7C94389B2818270470000D6
:10A05000014B1860704700BF00300040014B586052
:10A06000704700BF00300040014B9860704700BF50
:10A07000003000404AF6AA22014B1A60704700BF28
:10A08000003000404CF6CC42014B1A60704700BFD4
:10A0900000300040034A536823F4404303435360B5
:10A0A000704700BF0010024010B51A4A536803F011
:10A0B0000C03082B2CD153685168C3F38343CC03A2
:10A0C00003F102031FD414494B4303605168134C3E
:10A0D000C1F30311615CCB4043605168C1F30221BD
:10A0E000615C23FA01F181605168C1F3C221615CB6
:10A0F000CB40C36052680A49C2F381328A5CB3FB29
:10A10000F2F3036110BD51688903DCD40549DBE734
:10A11000044BDAE70010024000093D004004002033
:10A120003C04002000127A00044B5A6911B102432A
:10A130005A61704722EA0002FAE700BF00100240AD
:10A14000044B9A6911B102439A61704722EA0002F6
:10A15000FAE700BF00100240044BDA6911B1024374
:10A16000DA61704722EA0002FAE700BF00100240FD
:10A17000044B1A6911B102431A61704722EA0002C6
:10A18000FAE700BF00100240038810B503F4415203
:10A190004C880B8823438C882343CC8823430C8929
:10A1A00023434C8923438C892343CC892343134382
:10A1B0009BB20380838B23F400631B041B0C8383FB
:10A1C0000B8A038210BD038821B19BB243F0400388
:10A1D0000380704723F040031B041B0CF8E78181C8
:10A1E0007047808980B270470389194214BF0120EB
:10A1F0000020704730B5048C42EA031224F00104B9
:10A200002404240C0484048B144B24F0F30424044D
:10A21000058C240C14439842ADB2A4B212D003F5BD
:10A22000006398420ED0B0F1804F0BD0A3F5983365
:10A23000984207D003F58063984203D003F580630A
:10A24000984207D125F00205294341F0010104831A
:10A25000018430BD25F00A05F6E700BF002C01405F
:10A2600070B5048C120224F010042404240C04841D
:10A27000058B42EA033225F44075164B2D05048CFC
:10A280002D0D0E0115439842A4B2B6B2ADB212D054
:10A2900003F5006398420ED0B0F1804F0BD0A3F5C8
:10A2A0009833984207D003F58063984203D003F5B2
:10A2B0008063984208D124F0200346EA030444F066
:10A2C00010010583018470BD24F0A004214341F0F6
:10A2D0001001F6E7002C0140224A038890429BB20D
:10A2E00012D002F5006290420ED0B0F1804F0BD038
:10A2F000A2F59832904207D002F58062904203D0D6
:10A3000002F58062904203D14A8823F07003134320
:10A31000154A904208D002F5806290421FBF23F494
:10A320004073CA889BB2134303808B8883850B8854
:10A3300003850C4B98420FD003F5006398420BD075
:10A3400003F54063984207D003F58063984203D039
:10A3500003F58063984201D10B7A0386012383823F
:10A36000704700BF002C014000100040038C70B506
:10A3700023F001031B041B0C0384038C8488028BD1
:10A380000D8822F073021204120C4E882A4323F027
:10A3900002030D891B0435431B0C2B43144DA4B23F
:10A3A000A8429BB20FD005F50065A8420BD005F579
:10A3B0004065A84207D005F58065A84203D005F5A1
:10A3C0008065A8420ED14D8923F008032B438D8868
:10A3D00023F00403CE892B438D8924F44074354344
:10A3E0002C43A4B284800283CA888286038470BD11
:10A3F000002C0140038C70B523F010031B041B0CD0
:10A400000384038C8488028B0D8822F4E6421204B4
:10A41000120C42EA05224E880D8923F020031B040A
:10A4200035431B0C43EA0513114DA4B2A84292B266
:10A430009BB203D005F50065A84213D14D8923F0E6
:10A44000800343EA05134FF6BF751D408B88CE8904
:10A4500045EA0315ABB28D8924F44064354344EAE0
:10A460008504A4B284800283CA880287038470BDF5
:10A47000002C0140038C70B523F480731B041B0C6B
:10A480000384038C8288848B0D8824F07304240455
:10A49000240C4E882C4323F400730D891B04354390
:10A4A0001B0C43EA0523114D92B2A8429BB203D084
:10A4B00005F50065A84213D14D8923F4006343EAF2
:10A4C00005234FF6FF351D408B88CE8945EA0325CD
:10A4D000ABB28D8922F44052354342EA051292B262
:10A4E00082808483CA888287038470BD002C0140E7
:10A4F000038C70B523F480531B041B0C0384038C62
:10A500008488828B0D8822F4E6421204120C42EAFF
:10A5100005224E880D8923F400531B0435431B0C80
:10A5200043EA05330B4DA4B2A84292B29BB203D0CA
:10A5300005F50065A84205D18D8924F4804444EADC
:10A540008514A4B284808283CA88A0F84020038442
:10A5500070BD00BF002C01404FF6FF7383800023C5
:10A560000380C3804380037270470023012203806D
:10A5700043808280C38003817047038821B19BB2EE
:10A5800043F001030380704723F001031B041B0CFD
:10A59000F8E7B0F8443039B16FEA43436FEA534308
:10A5A0009BB2A0F844307047C3F30E03F9E78389E8
:10A5B0009BB212B119438181704723EA0101FAE786
:10A5C00070B50689048B058C24F4407424F00304D0
:10A5D00025F0220526F0070624042D043604240C59
:10A5E0002D0C42EA0312360C44F4807415430E43DA
:10A5F00044F00104ADB206810483058470BD038B71
:10A6000023F008031B041B0C0B4303837047038BCD
:10A6100023F400631B041B0C43EA01239BB2038356
:10A620007047838B23F008031B041B0C0B438383AD
:10A630007047838B23F400631B041B0C43EA012344
:10A640009BB28383704781847047038B23F00C0394
:10A650001B041B0C0383038B9BB20B4303837047C8
:10A66000038B23F440631B041B0C0383038B9BB2FB
:10A6700043EA01239BB203837047838B23F00C03CF
:10A680001B041B0C8383838B9BB20B438383704718
:10A69000838B23F440631B041B0C8383838B9BB24B
:10A6A00043EA01239BB2838370470000F8B50D464F
:10A6B0000E8804464988AA882B8936B9FFF79AFD87
:10A6C000E988BDE8F840FFF7C0BF042E06D1FFF7C8
:10A6D000C7FDE988BDE8F840FFF7C2BF082E008C2F
:10A6E00038D120F480700004000C2084A68B208CCC
:10A6F000B6B226F0F306164346EA0316354B0F02B0
:10A700009C4280B2BFB2B6B212D003F500639C4245
:10A710000ED0B4F1804F0BD0A3F598339C4207D0F4
:10A7200003F580639C4203D003F580639C420DD106
:10A7300020F4007347EA030040F48070A68320846D
:10A74000E9882046BDE8F840FFF797BF20F4206075
:10A750000843F1E720F480500004000C2084A68B0D
:10A760001B0326F44076360543EA0223360D1E43CA
:10A77000184B208C0F039C4280B2BFB2B6B212D0ED
:10A7800003F500639C420ED0B4F1804F0BD0A3F5CB
:10A7900098339C4207D003F580639C4203D003F5B5
:10A7A00080639C420DD120F4005347EA030040F43B
:10A7B0008053A68323842046E988BDE8F840FFF74C
:10A7C00067BF20F400704004400C41EA000343F4EA
:10A7D0008053EEE7002C0140C94389B201827047E3
:10A7E000038A828911EA030092B203D00A4214BF9D
:10A7F000012000207047C94389B2018270470000E0
:10A8000030B50446038ACA889BB223F440531343ED
:10A81000038283898A8823F4B05323F00C031B043A
:10A820001B0C13430A8987B013434A890D4613430F
:10A830009BB28381838A8A899BB223F4407313433A
:10A84000838201A8FFF730FCDDE9033214498C4212
:10A8500008BF13461922A18953432A680D044CBF2F
:10A86000520092006421B3FBF2F3B3FBF1F001FB61
:10A8700010330201A08900044BBFDB001B013233FF
:10A8800032334BBFB3FBF1F3B3FBF1F303F0070338
:10A8900003F00F0313439BB2238107B030BD00BF09
:10A8A0000038014010B54C880B88028A23438C88FD
:10A8B000C98892B223430B4322F4706213439BB2C4
:10A8C000038210BD838921B19BB243F4005383817D
:10A8D000704723F400531B041B0CF8E7012310B549
:10A8E000C1F34214012C01F01F0103FA01F305D159
:10A8F0000C3042B102681343036010BD022C0CBF40
:10A9000010301430F5E7026822EA0303F4E7C1F3DC
:10A910000801818070478088C0F308007047038871
:10A92000194214BF01200020704703460120C1F3E3
:10A93000421210B5012A01F01F0400FA04F00DD1F3
:10A940009A8992B210401A8892B230B10123090A52
:10A950008B401A4214BF0120002010BD022A0CBFF8
:10A960001A8A9A8AEDE700002DE9F041044608466C
:10A970001146F6F72BFB01461F48F6F727FB01F0BF
:10A98000EDF91E490546F6F76DFA29468046284638
:10A99000F6F768FA05464FF07E514046F6F75AF949
:10A9A0002946F6F757F9064601462846F6F70EFB04
:10A9B0000146A0600746F6F74DF94FF07E51E06082
:10A9C00027612846F6F744F90146F6F743F9314680
:10A9D000F6F7FCFA414620604FF07E50F6F738F962
:10A9E0002946F6F737F93146F6F7F0FA00236060AA
:10A9F0006361A361BDE8F081DB0F4940F304B53F1B
:10AA000070B50E461546044658B100211046F6F7BB
:10AA1000D1FB30B92A4631462046BDE87040FFF7E9
:10AA2000A3BF70BD002307B50193044B01A91868AB
:10AA3000FDF7ECFA03B05DF804FB00BFC46D002025
:10AA400008B5F6F78DFFF8F7F1FC012819D1F8F7F2
:10AA5000A5FC0E48F8F758FD002226210320FDF73B
:10AA600077F90B4B186020B962220A490A4800F0B6
:10AA70007BFE032200210120FDF76AF9074B1860D5
:10AA800008BD074802F08CFEFEE700BF25AA0008BB
:10AA9000CC6D002010D4030826D40308C46D002018
:10AAA000FCD3030800000000F8B50646037AC2791B
:10AAB000C3F17F037F3ADB0002EB820292B2A64928
:10AAC0009BB29818088070799B1A4B807F38F6F7F4
:10AAD00075F9A24900F10040F6F778FAA049F6F7B7
:10AAE00075FA4FF07C51F6F7B5F89E4C9E4D2060FC
:10AAF0002046F8F767FF2068F8F730FFB6F809300E
:10AB000028805BBA9EB21FB223F47F5323F0370331
:10AB10005B045B0CB3F5804F40F0AC806068F5F7E8
:10AB2000F3FC87A3D3E90023F5F78EFBF6F73CF897
:10AB30000346204640F8043FF8F744FF6068F8F702
:10AB40000DFF6880002F06F0040380F29F80E3B9B8
:10AB5000A068F5F7D9FC7AA3D3E90023F5F774FBD5
:10AB6000F6F722F8A0608148F8F72CFFA068F5F707
:10AB7000CBFC75A3D3E90023F5F790FF08B17C4B1C
:10AB8000A360A068F8F7EAFEA88006F4A053B3F526
:10AB9000805F40F09980E068F5F7B6FC68A3D3E9E0
:10ABA0000023F5F751FBF5F7FFFFE0607148F8F778
:10ABB00009FFE068F8F7D2FEE88006F42053B3F509
:10ABC000005F40F08E802069F5F79EFC5CA3D3E91E
:10ABD0000023F5F739FBF5F7E7FF20616648F8F742
:10ABE000F1FE2069F8F7BAFE288106F0A003802B59
:10ABF00040F083806069F5F787FC51A3D3E9002317
:10AC0000F5F722FBF5F7D0FF60615C48F8F7DAFE54
:10AC10006069F8F7A3FE688106F05003102B77D126
:10AC2000A069F5F771FC46A3D3E90023F5F70CFB07
:10AC3000F5F7BAFFA0615248F8F7C4FEA069F8F72B
:10AC40008DFEA88106F44076B6F5007F6BD1E069F1
:10AC5000F5F75AFC3AA3D3E90023F5F7F5FAF5F72F
:10AC6000A3FFE0614748F8F7ADFEE069F8F776FE2C
:10AC7000E881F8BD082B7FF465AF6068F5F744FC08
:10AC80002FA3D3E90023F5F7E1FA4FE7002B3FF4B8
:10AC90007CAFA068F5F738FC29A3D3E90023F5F7CA
:10ACA000D5FAF5F781FFA0603048F8F78BFEA06871
:10ACB000F5F72AFC26A3D3E90023F5F70DFF0028BA
:10ACC0003FF45FAF304B5BE7B3F5806F7FF475AF58
:10ACD000E068F5F719FC1AA3D3E90023F5F7B6FAF3
:10ACE00061E7B3F5006F80D12069F5F70DFC14A37F
:10ACF000D3E90023F5F7AAFA6DE7202B8CD1606920
:10AD0000F5F702FC0EA3D3E90023F5F79FFA79E7E4
:10AD1000402B97D1A069F5F7F7FB09A3D3E90023EE
:10AD2000F5F794FA84E7B6F5807FA2D1E069F5F7EC
:10AD3000EBFB03A3D3E90023F5F788FA8FE700BF05
:10AD40007B14AE47E17A743F9A9999999999B93FE2
:10AD5000CDCCCCCCCCCCEC3F9C0600200000FE42FD
:10AD60000000E04060040020820000206804002011
:10AD7000CDCCCC3D6C040020700400207404002075
:10AD8000780400207C0400206666663F2DE9F041CF
:10AD900094B0FFF755FE20213748FFF731F8002621
:10ADA000354C364DE368694683F01003E3600023B9
:10ADB00028681A46FDF784F901281AD19DF8038006
:10ADC0006946A8F102073A460AA802F0C0FEBDF89B
:10ADD000243008F14E020DEB020708F1500207F88B
:10ADE000283C6A441B0A414602F8293C0AA8F8F7A5
:10ADF00063FA00232248194664220068FDF760F9CF
:10AE00000DF103016846F8F75BFB9DF803101D4F39
:10AE100001F150036B4413F8512C13F8523C43EAF0
:10AE20000223ADF8243040B93B8801339BB2022B9A
:10AE30003B80B7D9144B1E70B4E70239684689B21B
:10AE400000F0AAFC9DF80330202BEDD8BDF824209B
:10AE500082EA000313F0FF08E6D1C0F30F20B0EB45
:10AE6000122FE1D16846FFF71FFE0122064BA7F81B
:10AE700000801A7096E700BF00100140CC6D0020E2
:10AE8000C46D0020C06D0020C86D0020014B1878F3
:10AE9000704700BFC86D002008B500230146044874
:10AEA0001A460068FDF70CF9431E5842584108BD88
:10AEB0006086002008B50023014604481A46006851
:10AEC000FDF7FEF8431E5842584108BD246E00208D
:10AED00008B50023014604481A460068FDF7F0F85B
:10AEE000431E5842584108BDBC8600201FB50121B1
:10AEF0001120FFF725F9164B694616480093FEF717
:10AF000023FF02210846FEF7AFFF4FF4006304243D
:10AF1000ADF80C30012302948DF80E304FF0500341
:10AF200083F31188BFF36F8FBFF34F8F02A8FEF733
:10AF30002BFE2046FEF776FE002383F31188064B96
:10AF40000DEB04000193FEF72BFB04B010BD00BF16
:10AF5000040003280010014008060001F8B53A4833
:10AF6000F7F794FE0A20FDF799FCF8F73FF8142054
:10AF7000FDF794FCF8F786F8712803BF0122334BE4
:10AF80003348344808BF1A7002F070FC0020F8F70C
:10AF90003FF80A20FDF782FC0120F8F75FF80A204D
:10AFA000FDF77CFC0120F8F745F80020F7F7DCFFFF
:10AFB0000120F7F7C7FF0320F7F79AFE0020F7F705
:10AFC000ABFE0320F7F7BCFE0420F7F771FE02206A
:10AFD000F7F77AFE0024204F204D214E21483A46B3
:10AFE00020442946FFF70CFD1F48324620442946DD
:10AFF0001C34FFF705FD542CF0D11348F6F79AFAEC
:10B00000F6F7A2FAF0B10122184B16201A70F6F7E3
:10B01000B3FA174802F02AFC00220C210120FCF7A9
:10B0200097FE144B002218600C210120FCF790FEC3
:10B03000114B002218600C210120FCF789FE0F4BF8
:10B040001860F8BD0E48E5E700000020B986002032
:10B0500033D4030850D403080000A04200007A440F
:10B060000000F04164860020D06D0020BA860020E8
:10B070006FD40308246E002060860020BC86002068
:10B080008BD4030838B50B4D2C788CB9214603229C
:10B090000120FCF75DFE084B1860084B03F1140219
:10B0A0005C731A61FFF75AFFFFF720FF01232B7033
:10B0B00038BD00BFB8860020088700204C6E0020F5
:10B0C00008B50920F7F7E2FE0020F7F73BFF012063
:10B0D000F7F74AFE0020F7F7EDFE0020F7F7FCFE39
:10B0E0000020F7F70BFF0120F7F71AFF0020F7F712
:10B0F0004DFE0D20F7F75CFE0F4B1B789BB18C21AA
:10B100000020F7F769FE02210020F7F779FE0821F9
:10B110000020F7F7A1FE01210020F7F743FF0121EE
:10B120000020F7F781FE0120F7F74EFFBDE8084049
:10B130000120F7F725BF00BFBA8600202DE9F047B0
:10B14000B0F800A0304BB0F802E0B0F804C00289BB
:10B15000448981899AFA9AFA9EFA9EFE9CFA9CFC8E
:10B1600052BAA3F800A049BA64BA0FFA8AF7DFF816
:10B170009CA01C815981A3F802E0A3F804C0DA80E6
:10B1800010B20FFA8EF60FFA8CF50FFA81F9F5F777
:10B1900015FEDAF80010F5F75BFD1D49F5F762FEC4
:10B1A0000FFA84F81B4CE0604046F5F707FEDAF82A
:10B1B0000410F5F74DFD1649F5F754FE2061484699
:10B1C000F5F7FCFDDAF80810F5F742FD1049F5F740
:10B1D00049FE60613846F5F7F1FD4FF06251F5F731
:10B1E00041FE20603046F5F7E9FD4FF06251F5F77A
:10B1F00039FE60602846F5F7E1FD4FF06251F5F742
:10B2000031FEA060BDE8F087C0860020406E0020BF
:10B2100000007A3DD486002070B502780346D2073C
:10B2200015D5B0F90100B3F90360B3F90550084B27
:10B23000084C9881DE811D82F5F7C0FDA061304683
:10B24000F5F7BCFDE0612846F5F7B8FD206270BD5A
:10B25000C0860020D486002010B504460C30FFF7CD
:10B260001BFE2046FFF726FE04F11800BDE8104043
:10B27000FFF72EBE0000000000232DE9F04790B03C
:10B2800003930493059300F0CBFB0546FFF7FAFE0A
:10B29000FFF716FF0023A44C23706420FDF7FEFA8D
:10B2A0002378002BF9D02946A048FFF7D5FFA04905
:10B2B0004FF00009A1F11800F9F7B2F90024DFF806
:10B2C00074A200239C484FF0FF3219460068FCF737
:10B2D000F7FE012840F0BC8000F0A2FB974F984E8B
:10B2E0003B783B22002B14BF16230E236821804697
:10B2F00000969448F6F77BFB3046FFF71FFF3B783C
:10B300001BB106F10E00FFF787FFA8EB0500F5F76C
:10B3100051FD5146F5F7A6FD854A0346A2F11801F5
:10B32000A2F10C00F9F764FA03A8F9F701FF039DF5
:10B3300021462846F5F748FF002847D0294682488D
:10B34000F5F786FC0546049E214630460395F5F741
:10B3500031FF7D49002840D03046F5F77BFC7B4E1D
:10B360007B4F0490B860B6F90C007D60F138F5F7BA
:10B37000B9F867A3D3E90023F5F748FAF5F714FC09
:10B380000546B6F90E004838F5F718FD2146064681
:10B390002846F5F719FF20B321463046F5F700FFA0
:10B3A000F8B131462846F5F711FEF5F7ADF800F093
:10B3B00047FB59A3D3E90023F5F7FEF80022654BBC
:10B3C000F4F744FFF5F7F0FBF8603BE028465E49F0
:10B3D000F5F740FC00F10045B5E73046F5F738FCDD
:10B3E000BDE721462846F5F7DBFE2146D0B13046C1
:10B3F000F5F7E0FE0028D4D121463046F5F7EEFE01
:10B40000A8B131462846F5F7E1FDF5F77DF800F0E3
:10B4100017FB41A3D3E90023F5F7CEF840A3D3E906
:10B420000023CDE72846F5F7C5FE0028E4D12146E4
:10B430002846F5F7D3FE28B121463046F5F7C4FE7D
:10B440000028DED14546444AD36883F01003D36018
:10B45000424B1B78012B7FF434AFA5EB09030A2B79
:10B460007FF62FAF3E4B16210693384B06A81A885D
:10B470000027ADF81C205A88DFF8E880ADF81E20C0
:10B480009A8806AEADF82020DA88ADF822201A8915
:10B49000ADF824205A89ADF826209A89ADF82820E5
:10B4A000DA891B8AADF82A20ADF82C3000F074F947
:10B4B000ADF83C009DF81B30023BBB421ADC294E24
:10B4C00080213046FFF72BFA0028F9D0BDF83C1058
:10B4D0002448FFF71CFA234E80213046FFF71FFA5D
:10B4E0000028F9D0BDF83C101E48090AFFF70FFAF2
:10B4F000A946E6E680214046FFF711FA0028F9D078
:10B50000404616F8011BFFF702FA0137D2E700BFE9
:10B51000A4703D0AD7A3F03F00000020DCA54C40FA
:10B520000000000000E0704080000020D486002071
:10B53000EC8600206F12833A08870020BA8600202C
:10B54000296E00200000002000003443C086002047
:10B550000C8700200080564000100140286E00201B
:10B56000AAAA29180038014007B50420FEF74CFBB1
:10B57000012815D10420FEF755FB002301930A4B47
:10B5800001A91868FCF742FD019B4BB14FF0E02385
:10B590004FF08052C3F8042DBFF34F8FBFF36F8F6E
:10B5A00003B05DF804FB00BF088700202DE9F041DF
:10B5B0001D4B92B0079340F2FF130446014609A8C1
:10B5C0000893FBF79BFE38BB2046F4F731FE054697
:10B5D000164EDFF85C800DF10D0701A909A8FBF7F5
:10B5E000C3FEC8B99DF80D00B0B1079A1378002BBF
:10B5F00008BF3A4613782E2BEFD09DF80C30DB06AF
:10B600000DD54146601902F039F92046FFF7CEFF0B
:10B61000002363550028E0D012B0BDE8F081214638
:10B62000304602F0BDF8D8E7E4970020ADD4030817
:10B63000A9D4030837B53A4901223A48FBF7EEFB93
:10B64000394C0D280146207056D1384BDA68384BFA
:10B650009A420CD10120F5F749FE3649364BCA68AB
:10B6600002F4E0621343CB60BFF34F8FFEE7334831
:10B6700002F0FCF800222A481146FBF705FF0546B8
:10B68000207000282FD12E4802F0F0F80122244922
:10B690002846FBF7C3FB0122207021492148FBF714
:10B6A000BDFB2070274802F0E1F86A4601A91C485A
:10B6B000FBF78AFE0099019A8B7849695A4302394F
:10B6C00059439200207089001F4802F069F81F4812
:10B6D00002F0CCF812491E4802F023FA1C48FFF78A
:10B6E00065FF03B030BD1B4A1B48D36883F01003CD
:10B6F000D36002F0BBF8FEE730B1184802F050F812
:10B70000174802F0B3F8FEE7084BDA68084B9A4294
:10B7100001D0F6F7C5F8134802F0A8F8C2E700BF59
:10B72000B5D40308B4870020E3990020B06D002051
:10B73000DDCCBBAA00ED00E00400FA05B8D4030894
:10B74000E7D4030885D50308B4D50308E6D5030874
:10B75000508700200010014001D503081BD50308C5
:10B7600040D5030865D5030808B54FF0500383F3AF
:10B770001188BFF36F8FBFF34F8F044B044D054803
:10B78000C3E900519A6002F00BF8FEE75006002072
:10B790001F008A2F13D60308FF2370B51C46074DE0
:10B7A000074E0144814202D143EA042070BD10F8E3
:10B7B000012B5A40AB5C6340B45CF3E728D6030826
:10B7C00028D7030873B5FDF7BDFCFDF7D9FE0024AB
:10B7D0000526042501462E4801F0E2FF23464FF4DA
:10B7E0009672CDE900642B492B48FCF7B5FD234642
:10B7F00040F20E622949019400952948FCF7ACFDFE
:10B8000023466422CDE9005426492748FCF7A4FDCD
:10B8100023463222CDE9005424492548FCF79CFDFB
:10B8200023466422CDE9006422492348FCF794FDB5
:10B8300023466422CDE9006420492148FCF78CFDB1
:10B8400023466422CDE900541E491F48FCF784FDBD
:10B8500023469622CDE900541C491D48FCF77CFD87
:10B86000234664221B49CDE900541B48FCF774FDB4
:10B87000FDF786FE0146194801F092FF184B186843
:10B88000FCF742FE02B0BDE87040FDF77DBC00BF92
:10B8900028D803084DD8030879B2000855D8030802
:10B8A000352400085AD803084D16000864D8030848
:10B8B000C13500086AD80308B92B000870D80308FE
:10B8C0008DAD000876D80308B14400087DD8030880
:10B8D0001D3E000883D80308A13F000889D803084B
:10B8E000E499002037B54FF44070FDF74FFE482033
:10B8F000F5F780FFF6F756FEF6F778FE4FF4E130E5
:10B90000F8F7C4FB1D4801F0B1FF4FF41650F8F7EB
:10B9100039FA4FF41650F8F7F7FA1948F6F762F8C3
:10B920000024F6F71DF8FFF785FEF5F77FFDF8F721
:10B930000DF8032201251146042320460094F5F753
:10B94000DDFE4FF44870F8F74DFE0E4B4FF4967243
:10B950000D490193009523460C48FCF7FDFCFCF7CC
:10B9600041FE2A4620460A49FBF758FA2046094A72
:10B97000D36883F01003D36003B030BDADD80308A3
:10B9800000000020E4990020BDD80308C5B70008D6
:10B99000B5D4030800100140FEF76CBB08B54FF0AA
:10B9A000500383F31188BFF36F8FBFF34F8F0448A9
:10B9B00001F05CFF034AD36883F01003D360FEE715
:10B9C000C8D803080010014008B54FF0500383F3B6
:10B9D0001188BFF36F8FBFF34F8F044801F046FF0C
:10B9E000034AD36883F01003D360FEE7D8D8030876
:10B9F000001001407047FEE7FEE7FEE770470000D9
:10BA000008B5FDF7BFF8012803D0BDE80840FDF7F1
:10BA1000F9BB024A13680133136008BDE89900209E
:10BA200008B5FDF7AFF8012803D0BDE80840FCF7E2
:10BA300025BE014B186808BDE899002000000000F1
:10BA40002DE9F84FB64B21F000469E4204460D46C4
:10BA50008B4617DDB34B9E4201DC09D140B1224633
:10BA60002B4620462946F4F7F1FB04460D4605E037
:10BA7000BBF1000FAC4C00F32181AC4D20462946B0
:10BA8000BDE8F88FAA4B9E4211DCA3F1DE739E4203
:10BA90000ADC8BA3D3E90023F4F7D8FB0022A54BE3
:10BAA000F5F71AF80028E9D14FF0FF3A27E000F047
:10BAB00051F9A14B04469E420D4600F3B880A3F510
:10BAC00050239E4200F39C8002460B46F4F7BEFBD7
:10BAD0000022984BF4F7B8FB002206460F464FF0C1
:10BAE000804320462946F4F7B1FB02460B46304618
:10BAF0003946F4F78BFE4FF0000A04460D46224605
:10BB00002B4620462946F4F757FD02460B46804651
:10BB10008946F4F751FD6CA3D3E9002306460F468E
:10BB2000F4F74AFD6AA3D3E90023F4F78FFB32460A
:10BB30003B46F4F741FD68A3D3E90023F4F786FB05
:10BB400032463B46F4F738FD65A3D3E90023F4F70A
:10BB50007DFB32463B46F4F72FFD63A3D3E9002378
:10BB6000F4F774FB32463B46F4F726FD60A3D3E9B5
:10BB70000023F4F76BFB42464B46F4F71DFD5EA332
:10BB8000D3E900238046894630463946F4F714FD50
:10BB90005BA3D3E90023F4F757FB32463B46F4F7A7
:10BBA0000BFD59A3D3E90023F4F74EFB32463B4685
:10BBB000F4F702FD56A3D3E90023F4F745FB324620
:10BBC0003B46F4F7F9FC54A3D3E90023F4F73CFB1C
:10BBD00032463B46F4F7F0FC02460B4640464946E7
:10BBE000F4F734FB22462B46F4F7E6FCBAF1FF3FAC
:10BBF00002460B4644D120462946F4F725FB34E79C
:10BC000000224C4BF4F720FB002206460F4620464C
:10BC10002946484BF4F71AFB02460B463046394694
:10BC2000F4F7F4FD4FF0010A04460D4667E7434B75
:10BC30009E421ADA0022424BF4F706FB0022064627
:10BC40000F46204629463E4BF4F7B6FC0022394BFE
:10BC5000F4F7FCFA02460B4630463946F4F7D6FDB7
:10BC60004FF0020A04460D4649E702460B46002003
:10BC70003449F4F7CBFD4FF0030A04460D463EE786
:10BC8000314B324E03EBCA03D3E90023F4F7DCFA5D
:10BC900022462B46F4F7D8FA06EBCA0602460B46B4
:10BCA000D6E90001F4F7D0FABBF1000F04460D46C7
:10BCB000BFF6E4AE01F100431D46DFE6244DDDE6AC
:10BCC0009C7500883CE4377E11DA22E33AAD903F60
:10BCD000EB0D76244B7BA93F513DD0A0660DB13FC3
:10BCE0006E204CC5CD45B73FFF8300922449C23F2B
:10BCF0000D5555555555D53F2F6C6A2C44B4A2BFF0
:10BD00009AFDDE522DDEAD3F6D9A74AFF2B0B33FB7
:10BD1000711623FEC671BC3FC4EB98999999C93F2F
:10BD2000FFFF0F440000F07F182D4454FB21F9BFA2
:10BD3000FFFFDB3F0000F03FFFFFF23F00800340CA
:10BD40000000F83F0000F0BF10D90308F0D8030846
:10BD5000FB21F93F21F000431946704707B5114A0E
:10BD600020F000439342014606DC0122002103B08B
:10BD70005DF804EB00F018B8B3F1FF4F04DBF4F703
:10BD800067FF03B05DF804FB694600F039F9420033
:10BD900002F0020201990098C2F1010200F004F8D9
:10BDA000EFE700BFDA0F493F2DE9F74F20F0004AD7
:10BDB000BAF1465F04460E46904607461ADAF5F792
:10BDC00017FA70BB08F1010353EA0A030CD12046AD
:10BDD00000F074FA01464FF07E50F5F7F7F804468C
:10BDE000204603B0BDE8F08FB8F1010FF8D021462E
:10BDF0007148F2E7714B9A4513DB0028BCBF00F194
:10BE0000004401F100466E482146F4F721FF044644
:10BE100031466C48F4F71CFF2146F4F71BFF00265F
:10BE2000044621462046F5F71DF801468146F5F700
:10BE300019F8494605462046F5F714F86249834645
:10BE40002846F5F70FF86149F4F704FF2946F5F79E
:10BE500009F85F49F4F7FEFE2946F5F703F85D4956
:10BE6000F4F7F8FE2946F4F7FDFF5B49F4F7F2FE1C
:10BE70002946F4F7F7FF5949F4F7ECFE4946F4F781
:10BE8000F1FF574901902846F4F7ECFF5549F4F7C4
:10BE9000E1FE2946F4F7E6FF5349F4F7DBFE2946B5
:10BEA000F4F7E0FF5149F4F7D5FE2946F4F7DAFF3D
:10BEB0004F49F4F7CFFE2946F4F7D4FF4D49F4F784
:10BEC000C9FE019B01461846F4F7C4FE5946F4F733
:10BED000C9FF3146F4F7BEFE4946F4F7C3FF3146C9
:10BEE000F4F7B8FE054644495846F4F7BBFF294627
:10BEF000F4F7B0FE014681462046F4F7ABFE2F4B27
:10BF000005469A452BDB4046F4F758FF294606467E
:10BF10002846F4F7A7FF314680462846F4F79AFEF4
:10BF200001464046F5F752F84946F4F791FE0146BE
:10BF30002046F4F78DFE0146F4F78CFE01463046AC
:10BF4000F4F786FEBF1707F002070446C7F10100A9
:10BF5000F4F734FF01462046F4F784FF3FE7B8F1D9
:10BF6000010F27D0254E014606EA00081248F5F7D2
:10BF70002DF82146064007464046F4F769FE014683
:10BF80004846F4F765FE3146F4F76CFF3146044647
:10BF90004046F4F767FF4FF07E51F4F75BFE014631
:10BFA0002046F4F757FE3946F4F75CFF3146F4F7C4
:10BFB00051FE14E7044613E7000080BF40A12C3F68
:10BFC000DA0F493F682122338453D9377AC0953834
:10BFD000B937813948DEBE3A1F37113CD10D5D3D7E
:10BFE0005FAE9BB745F4A338C8261A3A16696B3B77
:10BFF000A427B33C8988083EABAAAA3E00F0FFFF05
:10C000002DE9F04FA04A20F0004696420C468246A9
:10C0100087B004DC002308604B6000251AE09B4ACF
:10C0200096424BDC00289A499A4F26F00F0623DDF2
:10C03000F4F70EFEBE42054610D09749F4F708FE0D
:10C04000014620602846F4F703FE9349F4F700FE0A
:10C0500001256060284607B0BDE8F08F8F49F4F7EE
:10C06000F7FD8F490546F4F7F3FD014620602846A9
:10C07000F4F7EEFD8A49E9E7F4F7ECFDBE42054628
:10C080000ED08549F4F7E6FD014620602846F4F716
:10C09000DFFD8149F4F7DEFD4FF0FF356060D9E741
:10C0A0007E49F4F7D7FD7E490546F4F7D3FD0146F6
:10C0B00020602846F4F7CCFD7949EBE7794A9642AF
:10C0C00000F3918000F0FAF877490746F4F7CAFECA
:10C0D0004FF07C51F4F7BEFDF5F78AF80546F4F70A
:10C0E0006DFE6B498146F4F7BDFE01463846F4F714
:10C0F000AFFD694980464846F4F7B4FE1F2D074658
:10C100000CDC6A4A691E52F8212026F0FF03934294
:10C1100004D039464046F4F79BFD0BE039464046D3
:10C12000F4F796FDC0F3C753C3EBD653082B4FEA81
:10C13000E65B01DC206026E058494846F4F792FEB1
:10C14000074601464046F4F783FD01460646404651
:10C15000F4F77EFD3946F4F77BFD07465049484623
:10C16000F4F780FE3946F4F773FD01460746304682
:10C17000F4F76EFDC0F3C753ABEB030BBBF1190F24
:10C1800016DCB0462060266840463146F4F760FD74
:10C190003946F4F75DFDBAF1000F6060BFF65AAFA3
:10C1A00006F1004600F10040266060606D4251E7F4
:10C1B0003F494846F4F756FE074601463046F4F735
:10C1C00047FD014680463046F4F742FD3946F4F714
:10C1D0003FFD064637494846F4F744FE3146F4F73A
:10C1E00037FD074695E7B6F1FF4F05DB0146F4F74B
:10C1F0002FFD6060206010E7F715863FA6EBC7565D
:10C200003046F4F7F5FFF4F7D9FD014603903046C8
:10C21000F4F71EFD4FF08741F4F724FE0646F4F7CD
:10C22000E7FFF4F7CBFD0146049005463046F4F7EE
:10C230000FFD4FF08741F4F715FE00210590F4F74C
:10C24000A5FFF0B100212846F4F7A0FF002814BF95
:10C2500001230223184A21460192022203A80092D8
:10C260003A4600F02FF8BAF1000F0546BFF6F2AEDD
:10C27000236803F100432360636803F100436360B4
:10C2800094E70323E6E700BFD80F493FE3CB16400E
:10C29000800FC93FD00FC93F43443537004435377D
:10C2A00008A3852E800F494384F9223F30D9030823
:10C2B00000A3852E32318D24B0D9030820F0004030
:10C2C000704700002DE9F04FDBB002920493649AAE
:10C2D000BB4B059053F8223000910193049B013B26
:10C2E0000393029B1A1DC0F29B80DC1E48BF1C1DDD
:10C2F000E41000254FF0000B671CFB000693029B27
:10C30000039AA3EBC707019BA4EB020803EB020906
:10C31000659B1EAE03EB880A4D4540F38380049A6B
:10C320001EAB03EB82054FF0000900230DF58C7B5B
:10C33000019A914540F39E8013460AAA02EB8303BB
:10C340000893659BDDF8048003EB840307930AAC34
:10C350002646C3464FF087495AAB03EB880353F890
:10C36000505C0DF58C7ABBF1000F00F388803946E4
:10C37000284600F05BFA4FF078510546F4F772FD5D
:10C3800000F0A0FA4FF08241F4F76CFD0146284618
:10C39000F4F75EFC0546F4F72BFF0646F4F70EFDB6
:10C3A00001462846F4F754FC002F814640F386806E
:10C3B00008F1FF320AAB53F82250C7F1080145FAE1
:10C3C00001F31E448B40ED1A0AAB43F82250C7F12B
:10C3D00007031D41002D7FDD002292460136904566
:10C3E00000F3B080002F05DD012F00F0BD80022F8B
:10C3F00000F0C580022D6FD149464FF07E50F4F712
:10C4000027FC8146BAF1000F66D039464FF07E50C6
:10C4100000F00CFA01464846F4F71AFC81465BE04E
:10C42000002466E718EB050F07D45AF82500F4F747
:10C43000C5FC46F8040B01356EE75846F9E707934B
:10C44000059BDAF8001053F82800F4F70BFD0146BD
:10C450003046F4F7FFFB0646079B08F10108039AF4
:10C46000AAF1040A9045EADD4BF8046B09F10109D1
:10C4700004355DE7AA461E464FF00008EFE74FF08F
:10C480006E512846F4F7EEFCF4F7B2FEF4F796FC92
:10C4900049460990F4F7E6FC01462846F4F7D8FB34
:10C4A000F4F7A6FE099B0BF1FF3B46F8040B5AF884
:10C4B0002B101846F4F7CEFB054654E706D108F1D9
:10C4C000FF330AAA52F82350ED1183E74FF07C5155
:10C4D000F4F77AFE054698BB00214846F4F756FE6D
:10C4E000002800F0988008F1FF34234600220199CB
:10C4F0008B424CDA002A67D00AAB53F82430083F4D
:10C50000002B00F0868039464FF07E5000F08EF907
:10C51000A24681464FF06E5846AFBAF1000F80F246
:10C52000AF8027460022002FC0F2D98046A990464E
:10C530004FF0000A234B01EB870BA4EB0709C2E085
:10C54000022549E72368BAF1000F08D11BB1C3F5F2
:10C550008073236001239A46013204343FE7C3F11C
:10C56000FF0323605346F6E708F1FF320AAB53F8A6
:10C57000223003F07F030AA941F822303AE708F19C
:10C58000FF320AAB53F8223003F03F03F3E70AA966
:10C5900051F82310013B0A43A9E7013453F8042D55
:10C5A000002AFAD0049B1EAA434408F1010602EBBC
:10C5B000830544440DF58C79B44208DAA046C6E6FA
:10C5C000F4DC0308C8DC03080124089BE6E7079BAA
:10C5D000AB4653F82600F4F7F1FB4FF0000A4FF09A
:10C5E00000082860039B9A4504DD49F8268004353D
:10C5F0000136E1E7059B5BF8040953F82A10F4F7CC
:10C6000031FC01464046F4F725FB0AF1010A804659
:10C61000E8E7013C70E7069B029A4846991A00F049
:10C6200005F94FF087410446F4F7CEFD00B34FF013
:10C630006E512046F4F716FCF4F7DAFDF4F7BEFB72
:10C640004FF087418146F4F70DFC01462046F4F790
:10C65000FFFAF4F7CDFD0AAB43F828004846F4F79B
:10C66000C7FD08F101040AAB083743F824004AE784
:10C670002046F4F7BDFD0AAB444643F8280042E7E4
:10C680000AAB53F82A00F4F799FB4946F4F7EAFBA2
:10C69000414647F82A004846F4F7E4FB0AF1FF3A1E
:10C6A00081463AE753F8040B5BF8041B03920293AC
:10C6B000F4F7D8FB01464046F4F7CCFADDE9023244
:10C6C00080460AF1010A01998A4501DCCA45E9DD83
:10C6D0005AAB03EB890949F8A08C013F23E7649B1F
:10C6E000022B07DC002B4EDC2ED006F007005BB0DF
:10C6F000BDE8F08F649B032BF7D10DF1C80B0BEB5A
:10C700008407B846A246BAF1000F49DCA146B9F148
:10C71000010F60DC0020012C76DC329A339B002D67
:10C7200078D100990A600A464B609060DDE757F8BF
:10C730002410F4F78FFA013C002CF8DA0DB100F167
:10C740000040009B1860D0E7002032AFF4E757F8B4
:10C750002810F4F77FFA08F1FF38B8F1000FF6DA85
:10C76000ADB100F10043009A014613603298F4F72E
:10C770006FFA4FF0010844450BDA0DB100F10040AB
:10C78000009B5860B1E7A046002032AFE5E70346C2
:10C79000E9E757F8041FF4F75DFA08F10108EAE742
:10C7A000D8F8003058F8042C19461046029301922C
:10C7B000F4F750FA019A014681461046F4F748FA18
:10C7C000029B0AF1FF3A1946F4F744FA48F80409C3
:10C7D000C8F8009097E757F8043CD7F800A018462F
:10C7E00051460193F4F736FA019B014680461846FC
:10C7F000F4F72EFA5146F4F72DFA47F8040909F137
:10C80000FF39C7F8008082E75BF82410F4F722FABA
:10C81000013C80E7009902F1004203F100430A6005
:10C820004B600A4600F100407FE700BF30F0004255
:10C8300038B503460D4604462ED0B2F1FF4F04D35F
:10C840000146F4F707FA034626E010F0FF4F18D12F
:10C850004FF09841F4F706FB174A034695420CDB6C
:10C860000446C0F3C752193A4CF250318D420ADDEA
:10C870001249184661F31E0000E01149F4F7F2FA7C
:10C88000E1E7D20DF0E75119FE29F1DC002905DDC1
:10C8900024F0FF4444EAC153184638BD11F1160F85
:10C8A00001DA0749E5E701F1190024F0FF444FF0F0
:10C8B0004C5144EAC050E1E7B03CFFFFCAF2497175
:10C8C0006042A20D70B5C0F3C7557F3D162D0146DD
:10C8D000044620F0004625DC002D0EDA1649F4F758
:10C8E000B9F90021F4F77AFC28B1002C22DA134BB5
:10C8F000002E18BF1C4621461AE0114E2E41304230
:10C9000016D00D49F4F7A6F90021F4F767FC0028CA
:10C91000F1D0002CBEBF4FF400032B41E41824EAF1
:10C920000604E8E7B6F1FF4F02D3F4F793F90146A6
:10C93000084670BD0024DEE7CAF24971000080BFDE
:10C94000FFFF7F00002B2DE9F0471F46BBBF03F11F
:10C9500000431F4600232D2388B01446129A109DD1
:10C960001370149BDDF84CA023F02008B8F1460F9B
:10C9700005D0B8F1450F00D10135022300E00323B3
:10C9800007AA049206AACDE902A2CDE90035224603
:10C990003B4601F079F9B8F1470F064602D1119BE9
:10C9A000DB0722D5B8F1460F06EB050910D1337825
:10C9B000302B0AD10022002320463946F4F764F8D0
:10C9C00018B9C5F10105CAF80050DAF800309944E9
:10C9D0000022002320463946F4F756F808B1CDF876
:10C9E0001C903022079B4B4507D33046079B159A76
:10C9F0009B1B136008B0BDE8F087591C07911A70A3
:10CA0000F0E70346F7B5002903F8022BB6BF2D2245
:10CA10002B224942092942702ADD0DF107021746EF
:10CA20000A2691FBF6F5944606FB151430340CF8F3
:10CA3000014C0C46632C294602F1FF32F1DC303107
:10CA4000ACF1020402F8011C2246411CBA420AD38E
:10CA50000DF10902A2EB0C02BC4288BF0022134474
:10CA6000181A03B0F0BD12F8015B01F8015FEDE7A1
:10CA7000302330318370C170031DF1E72DE9F04F91
:10CA800091B00C46DDF8688016461F46054600F05A
:10CA9000F5FF036818460993F3F7CAFB00230E93CA
:10CAA000D8F800300A90073323F0070303F1080297
:10CAB00094F81890D4F800B0C8F80020D3E900A882
:10CAC00052464346C4E9122328F000430B934FF02B
:10CAD000FF3250469C4B0B99F4F708F870BB4FF0AF
:10CAE000FF325046984B0B99F3F7E2FF30BB002220
:10CAF000002350464146F3F7D1FF10B12D2384F8AF
:10CB00004330924A924BB9F1470F94BF90469846F2
:10CB100003234FF0000A23612BF004032360334604
:10CB20002146284600970FAA00F0D6F9013040F0C0
:10CB300090804FF0FF3011B0BDE8F08F5246434671
:10CB400050464146F3F7D2FF48B1B8F1000FB8BFE5
:10CB50002D23804AB8BF84F843307F4BD3E7636806
:10CB600009F0DF015A1C42D10623636000220692BD
:10CB70000EAACDE904920DAA4BF4806303920DF145
:10CB80003302CDE9013223606368524600932846A0
:10CB900043460B91FFF7D6FE0B99804647290D9926
:10CBA00008D1C81C02DB6368994240DDA9F1020983
:10CBB0005FFA89F9B9F1650F1FD84A46013904F1C6
:10CBC00050000D91FFF71DFF0E9A82461318012A9F
:10CBD000236102DC2268D20701D5013323619DF86D
:10CBE0003330002B9BD02D2384F8433097E747291F
:10CBF000BCD1002BBAD10123B7E7B9F1660F18D128
:10CC0000002963680BDD216113B92268D00702D5C2
:10CC100001330B4423614FF0000AA165DFE713B92C
:10CC20002268D20701D50233F4E70123F2E74FF07F
:10CC300067090E9B994205DB23682161D807EAD575
:10CC40004B1CE7E70029CCBF0122C1F102021344CB
:10CC5000E0E723685A0507D423694246314628464F
:10CC6000B84701302BD164E7B9F1650F40F2DD80A0
:10CC7000D4E9120100220023F3F706FF002833D085
:10CC8000012331462846354AB84701303FF451AFB9
:10CC9000DDE90D239A4202DB2368D8070FD5DDE9D1
:10CCA000092331462846B84701303FF442AF4FF0E0
:10CCB000000804F11A090E9B013B434509DC236877
:10CCC0009B0700F10481E0680F9B9842B8BF1846AB
:10CCD00031E701234A4631462846B84701303FF440
:10CCE00028AF08F10108E6E70D9B002B38DC012393
:10CCF00031462846194AB84701303FF41AAFDDE9FA
:10CD00000D32134302D12368D907D8D5DDE90923B1
:10CD100031462846B84701303FF40BAF4FF00009C9
:10CD200004F11A0A0D9B5B424B4501DC0E9B94E714
:10CD30000123524631462846B84701303FF4F9AE48
:10CD400009F10109EEE700BFFFFFEF7F00DD0308F7
:10CD500004DD030808DD03080CDD030819CE030811
:10CD60000E9AA36D9A42A8BF1A46002A914637DC54
:10CD70004FF0000B29EAE97904F11A02D4F858A01F
:10CD8000AAEB09035B4533DCDDE90D239A423BDB6B
:10CD90002368DA0738D4DDE90D32A2EB0309A2EBF0
:10CDA0000A029145A8BF9146B9F1000F34DC4FF05B
:10CDB000000829EAE97904F11A0ADDE90D239B1A32
:10CDC000A3EB090343457FF77AAF0123524631466F
:10CDD0002846B84701303FF4ACAE08F10108ECE753
:10CDE0001346314642462846B8470130C0D1A0E636
:10CDF0000123314628460B92B84701303FF499AEE3
:10CE00000B9A0BF1010BB9E73146DDE909232846FE
:10CE1000B8470130BFD18CE64B463146284608EB77
:10CE20000A02B8470130C2D183E60E9A012A01DC1A
:10CE3000DB0739D50123424631462846B847013041
:10CE40003FF477AEDDE9092331462846B847013083
:10CE50003FF46FAED4E9120100220023DDF83890D0
:10CE6000F3F712FED8B909F1FF3308F10102314698
:10CE70002846B84701300ED15BE601234A463146C9
:10CE80002846B84701303FF454AE08F101080E9B24
:10CE9000013B4345F1DC534604F15002DEE64FF01E
:10CEA000000804F11A09F2E701234246DFE70123F3
:10CEB0004A4631462846B84701303FF43AAE08F1B9
:10CEC0000108E3680F995B1A4345F0DCFBE64FF07D
:10CED000000804F11909F4E72DE9F04716469946D0
:10CEE0008A680B6907469342B8BF1346336091F8CE
:10CEF00043200C46DDF820800AB1013333602368FB
:10CF0000990642BF336802333360256815F0060581
:10CF100006D104F1190AE36832689B1AAB422BDC94
:10CF200094F84320131E226818BF0123920630D4C0
:10CF30004946384604F14302C047013023D02368F4
:10CF4000226903F00603042B14BF002533684FF059
:10CF5000000608BFE56804F11A0408BFED1A54F88A
:10CF6000123C08BF25EAE5759342C4BF9B1AED1831
:10CF7000B5421AD1002008E00123524649463846FE
:10CF8000C047013003D14FF0FF30BDE8F0870135D5
:10CF9000C1E73020E11881F843005A1C94F845108D
:10CFA0002244023382F84310C2E701232246494655
:10CFB0003846C0470130E6D00136D9E72DE9FF47B2
:10CFC0000F7E9146782F80460C469A460C9D01F1C3
:10CFD000430207D8622F0AD8002F00F0D580582FBF
:10CFE00000F0C18004F1420584F842703AE0A7F1F4
:10CFF0006303152BF6D801A151F823F055D0000892
:10D0000069D00008E5CF0008E5CF0008E5CF0008AB
:10D01000E5CF000869D00008E5CF0008E5CF00089B
:10D02000E5CF0008E5CF00086FD1000895D00008D3
:10D0300029D10008E5CF0008E5CF000891D100080C
:10D04000E5CF000895D00008E5CF0008E5CF00083F
:10D0500031D100082B681A1D1B682A6004F14205B3
:10D0600084F842300123A0E020682B68070603F112
:10D070000401296001D51E6803E04606FBD5B3F91B
:10D080000060002E03DA2D23764284F843300A2311
:10D09000594812E02B682068191D2960050601D542
:10D0A0001E6802E04106FBD51E886F2F0CBF0823C7
:10D0B0000A235148002184F843106568002DA8BF59
:10D0C0002168A560A4BF21F0040121600EB9002DE4
:10D0D0004BD01546B6FBF3F103FB1167C75D05F8AE
:10D0E000017D3746BB420E46F4D9082B0BD123688D
:10D0F000DE0708D5236961689942DEBF302305F851
:10D10000013C05F1FF35521B22614B46214640464A
:10D11000CDF800A003AAFFF7DFFE01304AD14FF09F
:10D12000FF3004B0BDE8F087236843F0200323609C
:10D130007827324884F84570236829681F0651F81B
:10D14000046B02D45F0648BFB6B2DF0748BF43F0A6
:10D150002003296048BF23601EB9236823F0200301
:10D1600023601023A6E72448E4E71546BDE72B68B3
:10D170002668181D6169286035061B6801D519608D
:10D1800002E07006FBD51980002315462361BCE739
:10D190002B6800211A1D2A601D686268284600F06D
:10D1A000C8FC08B1401B606063682361002384F8F9
:10D1B0004330AAE72A46494640462369D047013012
:10D1C000ADD023689B0713D4E068039B9842B8BF97
:10D1D0001846A6E70123324649464046D04701306B
:10D1E0009DD00135E36803995B1AAB42F2DCEBE7B3
:10D1F000002504F11906F5E710DD030821DD030819
:10D200002DE9F04F87B003938B6817465A1EB2F58D
:10D21000AE7F85BF6FF4AE755B190023029388BFA4
:10D2200040F25D138B464FF000058CBF8B6002937C
:10D230000B68804643F4F0634BF81C3B0C465E469B
:10D24000AA46A946CDE904550195A26852B13B68AA
:10D250001B784E2B64D8402B3CD8A3F12B01C8B2CD
:10D260000E283AD9B9F1000F03D0236823F4807354
:10D2700023600AF1FF3ABAF1010F00F213815E4513
:10D2800000F205810125284607B0BDE8F08FA3F123
:10D2900061020D2AE6D801A151F822F0DBD3000883
:10D2A00065D2000865D2000865D200083BD40008AA
:10D2B00013D4000865D2000865D20008E9D300083D
:10D2C00065D2000865D2000865D2000865D2000862
:10D2D000A1D30008A3F14102DBE70E29C2D801A0C7
:10D2E00050F821F093D3000865D2000893D30008CA
:10D2F00027D4000865D2000841D300087DD3000878
:10D300007DD300087DD300087DD300087DD30008BD
:10D310007DD300087DD300087DD300087DD30008AD
:10D320006E2B09D8602BB2D8542B77D0592B99D1BA
:10D33000072D97D1082529E0742B6FD0792BF6E7BC
:10D340002168C8051AD5029B21F08001216009F1EE
:10D3500001091BB1013B01320293A260A368013BAA
:10D36000A3602369013323617B68013B002B7B6051
:10D3700040F384803B6801333B6066E71AEB050F9E
:10D380007FF470AF226822F4C072226006F8013B7D
:10D39000E4E7226810067FF565AF22F08002F4E72B
:10D3A000BAF1000F0ED1B9F1000F0ED1226802F4CC
:10D3B000E061B1F5E06F08D122F4F0624FF0010AAC
:10D3C0002260E3E7BAF1020F55D0012D02D0042DFF
:10D3D0007FF448AF0135EDB2D8E7BAF1010F7FF421
:10D3E00041AF4FF0020AD1E77DB9B9F1000F7FF4E8
:10D3F0003CAF226802F4E061B1F5E06F7FF439AF31
:10D4000022F4F06201252260C0E7032DE2D0052D51
:10D41000DEE7022D7FF426AF0325B7E7062D7FF464
:10D4200021AF0725B2E7226891057FF51BAF22F4F3
:10D4300020722260CDF80490A8E7226802F4A0616F
:10D44000B1F5806F06D050057FF50CAFB9F1000F34
:10D450003FF40FAF910558BF019922F4F06258BF15
:10D46000A9EB010142F4C0724FF0000958BFCDE9A9
:10D47000041622608AE74FF0030A87E739464046E0
:10D48000D4F88031984700283FF4DFAEEAE6D4F8BC
:10D490007C313A46404616F8011D98472369013B06
:10D4A0002361ECE66B1E062B25D8022D36D85E458F
:10D4B0007FF6E8AED4F87C313A46404616F8011DB6
:10D4C00098472369013B2361F1E70298D4F87C3146
:10D4D00010F8011D3A460290404698472369013BE7
:10D4E00023610AF1FF3A5FFA8AFABAF1020FECD12E
:10D4F000033DEDB2761B2368DA052FD55B0510D509
:10D500005E457FF6BFAED4F87C313A46404616F809
:10D51000011D98472369013B2361F1E7AA46029662
:10D52000DFE716F8011C2369652903F1FF3306F1D3
:10D53000FF3523610CD045290AD0D4F87C313A4616
:10D5400040469847236916F8021C013BB51E23612B
:10D550003A464046D4F87C3198472E46256815F067
:10D56000100555D13570236803F4C063B3F5806F9F
:10D570001DD1019B4B45A3EB090225D10022594641
:10D58000404602F015FD039BD4F800C01B681CF058
:10D59000020F06460F4603F1040220D003990A60E9
:10D5A0001B68C3E90067E3680133E3606BE6049B33
:10D5B000002BE3D005990A232A464046013102F0A8
:10D5C0007BFD049B059EC21A04F26F139E4228BF86
:10D5D00004F5B77630460F4900F050F9CEE71CF05D
:10D5E000040FDBD1DDF80CC0CCF80020D3F80080AC
:10D5F00002460B46F3F77AFA28B1074800F0B6FA6C
:10D60000C8F80000CFE730463946F3F7CDFAF7E720
:10D61000002538E632DD03083FD50308002310B5A6
:10D620000446C0E90033C0E9043383608181436666
:10D63000C2818361194608225C3000F017FA0D4B55
:10D64000246263620C4BA3620C4BE3620C4B2363BA
:10D650000C4B9C4206D003F16802944202D0D033B6
:10D660009C4205D104F15800BDE8104000F056BAC4
:10D6700010BD00BFBDD80008DFD8000817D90008CA
:10D680003BD90008EC990020024A0349034800F006
:10D6900069B800BF88040020F50601089404002042
:10D6A00041680C4B10B59942044601D003F022F8B2
:10D6B000A168094B994202D0204603F01BF8E168AB
:10D6C000064B994204D02046BDE8104003F012B842
:10D6D00010BD00BFEC990020549A0020BC9A002095
:10D6E00010B50B4B0B4C0C4A20461A60042100224B
:10D6F000FFF794FF04F1680001220921FFF78EFF74
:10D7000004F1D0000222BDE810401221FFF786BFCD
:10D71000249B0020EC99002089D60008014800F0E5
:10D72000FEB900BF2D9B0020014800F0F9B900BFF1
:10D730002D9B002010B50446FFF7F0FF236A1BB1B4
:10D74000BDE81040FFF7F0BF044B2362044B1B6899
:10D75000002BF5D1FFF7C4FFF2E700BFA1D6000808
:10D76000249B00202DE9F8430746884614460026EE
:10D77000D4E90195B9F1010905D52468002CF7D148
:10D780003046BDE8F883AB89012B07D9B5F90E30D7
:10D79000013303D029463846C04706436835E9E7D8
:10D7A0000FB407B5064904AB086853F8042B816829
:10D7B000019302F003FE03B05DF804EB04B0704780
:10D7C000E0040020036A70B505460E4684680BB974
:10D7D000FFF7B0FF636EDB0705D4A389980502D479
:10D7E000A06D00F09CF9A389190713D523698BB1AB
:10D7F000013EA36816F8011F013BA360E9B9002BA5
:10D800002EDA22460A21284600F09BF8013007D084
:10D810000A2507E02146284600F0D0F80028E7D086
:10D820004FF0FF35636EDA0705D4A3899B0502D458
:10D83000A06D00F075F9284670BD002B04DAA269CE
:10D840009A4206DC0A2904D023685A1C2260197007
:10D85000CFE72246284600F074F80130C9D1DFE74F
:10D860000A2523685A1C22601D70DBE7024B014623
:10D870001868FFF7A7BF00BFE00400200EB46FF0E8
:10D88000004100B59CB01DAB029006900791049139
:10D890000848094953F8042B0591006802A901932F
:10D8A00002F066FC0022029B1A701CB05DF804EBCB
:10D8B00003B07047E00400200802FFFF10B50C46DB
:10D8C000B1F90E1000F000F90028ABBF636DA38919
:10D8D0001B1823F48053ACBF6365A38110BD2DE9F1
:10D8E000F0411F468B890546DB050C46164605D5DB
:10D8F00002230022B1F90E1000F0D4F8A3893246B9
:10D9000023F48053A38128463B46B4F90E10BDE8AA
:10D91000F04100F0EBB810B50C46B1F90E1000F074
:10D92000C1F8431CA38915BF606523F4805343F4F9
:10D930008053A38118BFA38110BDB1F90E1000F070
:10D94000A1B8F8B50E461446054618B1036A0BB9DE
:10D95000FFF7F0FEA369A360A3891A0725D5236901
:10D960001BB323682269F6B2981A6369374683426B
:10D9700004DC2146284602F0BDFEE0B9A368013B65
:10D98000A36023685A1C22601E706269431C9A427D
:10D9900004D0A389DB0706D50A2E04D121462846E8
:10D9A00002F0A8FE38B93846F8BD2146284600F0F6
:10D9B00005F80028D5D04FF0FF37F4E738B52A4BEB
:10D9C000054618680C4618B1036A0BB9FFF7B2FE9A
:10D9D000A389B4F90C20180722D4D90607D4092347
:10D9E0002B6042F040034FF0FF30A38134E0580732
:10D9F00012D5616B41B104F14403994202D028462B
:10DA000000F026FF00236363A38923F02403A3818E
:10DA10000023636023692360A38943F00803A38183
:10DA200023694BB9A38903F42073B3F5007F03D0B6
:10DA30002146284602F0ABFEA089B4F90C2010F074
:10DA400001030AD00023A36063695B42A3612369D9
:10DA500043B910F08000C4D138BD810758BF636955
:10DA6000A360F4E70020F7E7E00400200346024447
:10DA7000934200D1704703F8011BF9E70048704753
:10DA8000D405002038B50023054D044608462B6018
:10DA9000F6F786FD431C02D12B6803B1236038BD25
:10DAA000289B002038B50446084611460022054D43
:10DAB0002A601A46F6F780FD431C02D12B6803B199
:10DAC000236038BD289B002038B50446084611461F
:10DAD0000022054D2A601A46F6F74AFD431C02D182
:10DAE0002B6803B1236038BD289B002038B504465D
:10DAF000084611460022054D2A601A46F6F720FD19
:10DB0000431C02D12B6803B1236038BD289B002041
:10DB1000014B1868704700BFE00400207047704751
:10DB20007047034611F8012B03F8012B002AF9D1A5
:10DB30007047034610B5C9B202449342184601D15A
:10DB4000002003E0047801338C42F6D110BD0A4472
:10DB5000914200F1FF3300D1704710B511F8014B2D
:10DB6000914203F8014FF9D110BD00000048704701
:10DB70000000C07F2DE9F74F03690C690746A342F7
:10DB80007FDB013C00F1140501F1140805EB84036F
:10DB9000019358F8243055F8242001339A42B2FBFF
:10DBA000F3F64FEA840B08EB840931D34FF0000EF3
:10DBB0004046AC46F24650F8042B93B206FB03E312
:10DBC0004FEA124E1A0C9BB206FB0E22AAEB03037D
:10DBD000DCF800A04FEA124E1FFA8AFA5344DCF830
:10DBE00000A092B2C2EB1A4202EB23429BB243EA7C
:10DBF000024381454FEA224A4CF8043BDBD255F8F8
:10DC00000B302BB9019B043B9D421A462DD33C613E
:10DC1000384601F0DDF9002823DB294600200136D3
:10DC200058F8042BD1F800C093B2C31A120C1FFA93
:10DC30008CF00344C2EB1C4202EB23429BB243EA4A
:10DC40000243C1454FEA224041F8043BE8D255F86F
:10DC5000242005EB840322B9043B9D421A460AD3D3
:10DC60003C61304603B0BDE8F08F1268043B002AE7
:10DC7000CDD1013CC8E71268043B002AF0D1013C39
:10DC8000EBE70020EEE700002DE9F04F16461F46B7
:10DC9000C46999B00546CDE90467DDF8948074B98C
:10DCA000102000F01DFE0246E86120B9EF21AC4BC8
:10DCB000AC4802F00DFEC0E901440460C460EB69A9
:10DCC000196851B15A68012393404A608B60284615
:10DCD00000F0FAFE0022EB691A603B1EAFBF002382
:10DCE000012223F000430593A8BFC8F80030DDF8F7
:10DCF00014909D4BB8BFC8F8002033EA090319D12E
:10DD000042F20F73249A1360C9F31303334300F0F4
:10DD10008985269B53B9954B23E0954B0393083394
:10DD2000269A1360039819B0BDE8F08F8F4B0393C8
:10DD30000333F5E7DDE90434CDE90C34DDE90C010A
:10DD400000220023F2F7A0FE804660B10123249A4E
:10DD50001360269B002B00F06285864B269A136089
:10DD6000013B0393DEE716AB019317AB0093284604
:10DD7000DDE90C2301F03CFAC9F30A548246002C79
:10DD80007ED0DDE90C010D9BA4F2FF34C3F3130335
:10DD900043F07F5343F44013CDF84C8019460022E2
:10DDA000754BF2F751FA68A3D3E90023F2F704FCAC
:10DDB00067A3D3E90023F2F749FA064620460F4647
:10DDC000F2F790FB64A3D3E90023F2F7F5FB0246D8
:10DDD0000B4630463946F2F739FA06460F46F2F757
:10DDE0009BFE00228346002330463946F2F756FE5A
:10DDF00048B15846F2F776FB32463B46F2F744FE0E
:10DE000008B90BF1FF3BBBF1160F57D8DDE90C0148
:10DE10005A4B03EBCB03D3E90023F2F73FFE002874
:10DE20004ED000230BF1FF3B0F93169B1B1B5A1E7A
:10DE300046BFC3F1010900234FF00009099248BF12
:10DE40000993BBF1000F3DDB099BCDF838B05B4473
:10DE5000099300230A93229B092B67D8052BC4BF83
:10DE6000043B2293229BC8BF0024A3F10203D8BF26
:10DE70000124032B00F28680DFE803F02C393756AB
:10DE8000DDE916431C4404F23243202BC1BFC3F129
:10DE9000400309FA03F904F2124326FA03F3D6BF4A
:10DEA000C3F1200349EA030006FA03F0F2F70AFB84
:10DEB0000122A1F1F873013C13926FE70123B3E74C
:10DEC0000F90B2E7CBF100030A930023A9EB0B09F3
:10DED0000E93C0E700230B93239B002B55DC0123FB
:10DEE0001A460693089323920BE00123F3E70023DD
:10DEF0000B93239B5B4406930133012B0893B8BF1C
:10DF0000012300210422E86902F114069E4240D94F
:10DF10004160284600F098FD039000283CD102465D
:10DF200040F2AF11164BC3E60123E1E701240023C1
:10DF30000B9422934FF0FF33002206930893122391
:10DF4000D1E700BFAFF3008061436F63A787D23F83
:10DF5000B3C8608B288AC63FFB799F501344D33FD8
:10DF600044DD03085BDD03080000F07F40DD0308AB
:10DF700037DD03081ACE03080000F83F48DE030827
:10DF8000B3DD030801230B93D4E7239B0693089387
:10DF9000B7E701315200B7E7EB69039A1A60089BB3
:10DFA0000E2B00F2A880002C00F0A580BBF1000F22
:10DFB00034DD9A4B0BF00F0203EBC2031BF4807F9E
:10DFC000D3E90034CDE910344FEA2B1416D0DDE943
:10DFD0000C01934B0327D3E90823F2F717FCCDE993
:10DFE000040104F00F048E4E54B9DDE91023DDE97D
:10DFF0000401F2F70BFCCDE9040129E00227F2E766
:10E00000E10708D5DDE91001D6E90023F2F7D4FADB
:10E01000CDE91001013764100836E5E700F0A5806E
:10E02000DDE90C01CBF100047C4B04F00F0203EBA3
:10E03000C203D3E90023F2F7BFFA02270023CDE998
:10E040000401774E2411002C40F08480002BD2D1A3
:10E05000DDE90434CDE910340F9B002B00F08780FC
:10E06000DDE9100100226F4BF2F718FD00287ED089
:10E07000089B002B7BD0069B002B38DDDDE91001CF
:10E080000022694BF2F798FACDE90401069C0BF1E6
:10E09000FF3801373846F2F725FADDE90423F2F7B5
:10E0A0008BFA0022614BF2F7D1F8A1F15076CDE95D
:10E0B00010011196002C5DD1DDE9040100225C4BBA
:10E0C000F2F7C2F802460B46CDE904233346109A14
:10E0D000F2F702FD002840F09582DDE90401109A74
:10E0E00006F10043F2F7DAFC002840F08982DDE90E
:10E0F0000C34CDE90434179B002BC0F25181BBF1E5
:10E100000E0F00F34D81454B03EBCB03D3E90034F5
:10E11000CDE90634239B002B80F2DA80089B002B8C
:10E1200000F3D68040F06B82DDE906010022404B0F
:10E13000F2F742FADDE90423F2F7C4FC089C264614
:10E14000002840F041823123039F0BF1010B07F8B7
:10E15000013B3DE2E20705D5D6E90023F2F72CFAB0
:10E1600001230137641008366DE7022770E7D846AF
:10E17000089C8FE70399294B214412910B9903EBDB
:10E18000C403DDE9106753E90223002954D00020BD
:10E190002849F2F73BFB3B463246F2F755F8CDE90A
:10E1A0001001039FDDE90401F2F7B6FC0446F2F723
:10E1B00099F902460B46DDE90401F2F745F80246FB
:10E1C0000B463034CDE90423DDE9102307F8014B79
:10E1D000F2F764FC002873D1DDE904230020114923
:10E1E000F2F732F8DDE91023F2F758FC002840F08E
:10E1F000B680129B9F423FF47AAFDDE91001002206
:10E20000094BF2F7D9F90022CDE91001DDE904014B
:10E21000054BF2F7D1F9CDE90401C3E748DE030865
:10E2200020DE03080000F03F0000244000001C40F6
:10E23000000014400000E03F30463946F2F7BCF9D8
:10E24000129BCDE91001039C1493DDE90401F2F760
:10E2500063FC1590F2F746F902460B46DDE904012E
:10E26000F1F7F2FF159B0646303304F8013B129B91
:10E270000F469C424FF0000224D1DDE91001AF4B64
:10E28000F1F7E4FF02460B4630463946F2F724FC2C
:10E29000002863D1DDE910230020A849F1F7D4FF5D
:10E2A00002460B4630463946F2F7F8FB00283FF4A9
:10E2B0001EAF149F7B1E149317F8013C302BF8D02F
:10E2C000C3463BE09E4BF2F777F9CDE90401BCE78A
:10E2D000039FDDE90489DDE9062340464946F2F75C
:10E2E00095FAF2F719FC0446F2F7FCF8DDE906238B
:10E2F000F2F762F902460B4640464946F1F7A4FFA1
:10E3000004F1300607F8016B039EDDF820C0BE1B48
:10E31000B44502460B4636D1F1F798FFDDE90623F6
:10E3200080468946F2F7D8FB58BBDDE90623404614
:10E330004946F2F7A9FB08B1E30722D45146284623
:10E3400000F0C2FB0023249A3B700BF10103136021
:10E35000269B002B3FF4E6AC1F60E3E427463B46D8
:10E360001F4613F8012D392A07D1039A9A42F7D193
:10E370003022039908F101080A701A7801321A70E4
:10E380009EE7D846EBE700226D4BF2F715F9002225
:10E39000002380468946F2F777FB00289BD0CDE723
:10E3A0000B9A002A00F0C480229A012A00F3A88068
:10E3B000139A002A00F0A08003F233434F460A9CD0
:10E3C000099A01211A4428469944099200F07CFCDC
:10E3D00006465FB1099B002B08DDBB42A8BF3B4648
:10E3E000099AA9EB0309FF1AD31A09930A9BF3B1FF
:10E3F0000B9B002B00F0A080002C10DD3146224644
:10E40000284600F01FFD524601460646284600F009
:10E4100071FC80465146284600F056FBC2460A9BD6
:10E420001A1B04D05146284600F00CFD82460121FB
:10E43000284600F049FC0E9B0446002B40F38280E6
:10E440001A460146284600F0FDFC229B0446012B9B
:10E450007BDD4FF00008236904EB8303186900F0AB
:10E46000E5FBC0F12000099B184410F01F0000F0EC
:10E470009280C0F12003042B40F38580099BC0F1FA
:10E480001C000344814407440993B9F1000F05DDE2
:10E4900051464A46284600F02FFD8246099B002B34
:10E4A00005DD21461A46284600F026FD04460F9B4E
:10E4B000002B72D02146504600F08AFD00286CDA0D
:10E4C000002351460A22284600F020FB0B9B82467F
:10E4D0000BF1FF3B002B00F0AC81002331460A22F8
:10E4E000284600F013FB069B0646002B00F39380A2
:10E4F000229B022B59DC8EE0169BC3F136035DE7AD
:10E50000089B5C1E0A9BA342BFBF0A9B0E9AE31A9C
:10E51000D218A8BF1C1B089BBEBF0A940E920024F1
:10E52000002BB5BFA9EB03074F460023089B47E725
:10E530004F460A9C0B9E4CE70A9A73E70000E03FA7
:10E5400000002440229B012B18DC049BB3B9059BDF
:10E55000C3F3130393B9059B23F000431B0D1B0565
:10E560007BB14FF00108099B09F1010901330993BF
:10E570000E9B002B7FF46FAF012074E74FF0000873
:10E58000F6E79846F4E780D0099A1C331A44994478
:10E590001F44099279E70346F6E7089B002B34DC19
:10E5A000229B022B31DD089B0693069B63B9214613
:10E5B0000522284600F0AAFA01460446504600F01B
:10E5C00007FD00283FF7BFAD239B039F6FEA030BB6
:10E5D0004FF000082146284600F076FA002E3FF45E
:10E5E000ADAEB8F1000F05D0B04503D04146284686
:10E5F00000F06AFA3146284600F066FA9EE60024EA
:10E600002646E1E7C34626469DE50B9B002B00F01E
:10E61000C880089B0693002F05DD31463A46284600
:10E6200000F06AFC0646B8F1000F5BD0284671681E
:10E6300000F00AFA074628B9024640F2EF21814B62
:10E64000FFF736BB326906F10C01023292000C3042
:10E65000FFF77DFA01223946284600F04DFCB0460E
:10E660000646039B039A01330893069B13440B93BE
:10E67000049B03F001030A93089B2146013B50468B
:10E680000493FFF777FA4146069000F130095046AF
:10E6900000F09EFC324609902146284600F0B4FC6A
:10E6A000C268074602BB0146504600F091FC024694
:10E6B000394628460C9200F007FA229B0C9A089FD4
:10E6C00043EA02010A9B194310D1B9F1390F29D04D
:10E6D000099B002B02DD069B03F13109049B83F8A3
:10E6E000009077E73046BAE70122E1E7099B002B6B
:10E6F00004DB22990B430A990B4320D1002AEDDD5C
:10E7000051460122284600F0F7FB2146824600F0E0
:10E710005FFC002803DCE1D119F0010FDED0B9F174
:10E72000390FD8D13923049A13703B461F4617F886
:10E73000012C013B392A6BD001321A704AE7002ABA
:10E7400007DDB9F1390FEDD0049A09F10103137017
:10E7500040E7089B0B9A03F8019C934242D0514634
:10E7600000230A22284600F0D1F9B04582464FF036
:10E7700000034FF00A024146284607D100F0C6F9CF
:10E7800080460646089B0133089375E700F0BEF902
:10E790003146804600230A22284600F0B7F9064693
:10E7A000F0E7089B0693039F21465046FFF7E2F9E6
:10E7B000039B00F1300907F8019BFA1A069B93426C
:10E7C00007DD514600230A22284600F09FF98246C1
:10E7D000EAE7069B4FF00008002BCCBF1F4601273D
:10E7E000039B1F4451460122284600F085FB214629
:10E7F000824600F0EDFB002897DC02D119F0010FF2
:10E8000093D13B461F4613F8012D302AFAD0E1E69A
:10E81000039A9A428AD131230BF1010B97E70A4BF5
:10E82000FFF79FBA269B002B7FF477AA074BFFF7D1
:10E8300098BA069B002BB6DC229B022B3FF7B5AEA5
:10E84000B1E700BFB3DD030819CE030837DD0308C5
:10E8500038B50546002940D051F8043C0C1F002B68
:10E86000B8BFE41800F0E4F81C4A136833B96360D9
:10E8700014602846BDE8384000F0E0B8A34208D94B
:10E88000206821188B4201BF19685B680918216054
:10E89000EDE71A465B680BB1A342FAD9116850182C
:10E8A000A0420BD120680144501883421160E0D18E
:10E8B00018685B68084410605360DAE702D90C23DB
:10E8C0002B60D6E7206821188B4201BF19685B686E
:10E8D0000918216063605460CBE738BD309B00208D
:10E8E000024B0146186800F023B800BFE004002086
:10E8F00070B50E4E0C463168054611B901F0D2FFD5
:10E9000030602146284601F0CDFF431C0AD0C41CCC
:10E9100024F00304A04207D0211A284601F0C2FFC8
:10E92000013001D14FF0FF34204670BD349B0020F0
:10E930002DE9F843CD1C25F0030508350C2D38BF13
:10E940000C25002D074601DBA94205D90C23002622
:10E950003B603046BDE8F883DFF8D08000F068F80F
:10E96000D8F800301C465CBB29463846FFF7C0FF8C
:10E97000431C044655D1D8F800402646002E45D108
:10E98000002C48D023683146384604EB030901F0D7
:10E9900089FF81453FD1216838466D1A2946FFF726
:10E9A000A7FF013037D023682B442360D8F800300C
:10E9B000002B38D05A68A2422BD100225A600FE0B7
:10E9C0002268521B1FD40B2A17D96119A342256054
:10E9D00018BF5960636808BFC8F8001062514B60E7
:10E9E000384604F10B0600F029F826F00706231D2F
:10E9F000F21AAED09B1BA350ABE7A3426268DDD1F5
:10EA0000C8F80020ECE723466468ACE73446766833
:10EA1000B4E71346CCE70C2338463B6000F00EF811
:10EA200097E72560DCE75B60FFDE00BF309B0020DE
:10EA30000148FFF774B800BF2C9B00200148FFF786
:10EA40006FB800BF2C9B002070B5C66904460D4608
:10EA500076B91020FFF744FF0246E06120B96B2130
:10EA6000174B184801F034FFC0E901660660C66024
:10EA7000E669F36883B1E369DB6853F82500B8B948
:10EA8000012101FA05F6721D2046920001F03EFFB9
:10EA900060B1C0E901560EE021220421204601F0B8
:10EAA00035FFE369F060DB68002BE4D1002070BD26
:10EAB000026843F825200023C0E90333F7E700BFCD
:10EAC00044DD0308C4DD030870B5C66905460C467D
:10EAD00076B91020FFF704FF0246E86120B98F21C4
:10EAE000084B094801F0F4FEC0E901660660C66003
:10EAF0003CB1EB696268DB6853F82210216043F88F
:10EB0000224070BD44DD0308C4DD03082DE9F04157
:10EB100007460C461E4600200D6901F1140CDCF876
:10EB20000030013099B202FB01611E0C0B0C02FB9C
:10EB3000063389B201EB034185424FEA13464CF894
:10EB4000041BECDC0EB3A368AB4219DC61683846E9
:10EB50000131FFF779FF804628B90246BA210C4BF4
:10EB60000C4801F0B5FE226904F10C01023292005A
:10EB70000C30FEF7ECFF21463846FFF7A5FF444670
:10EB800004EB850301355E6125612046BDE8F08117
:10EB9000B3DD0308C4DD03082DE9F8431546092257
:10EBA0001F4608330C4693FBF2F306460122002170
:10EBB0009A4209DB3046FFF747FF40B90246D321AE
:10EBC000184B194801F084FE52000131F0E7089B10
:10EBD000092D43614FF00103036116DD04F10909BA
:10EBE000C8462C4418F8013B01460A223046303B07
:10EBF000FFF78CFFA045F5D1A5F108044C442D1B6F
:10EC00006319BB4204DBBDE8F88309250A34F6E743
:10EC100014F8013B01460A223046303BFFF776FFED
:10EC2000EEE700BFB3DD0308C4DD0308020C1204E5
:10EC30000346CAB90304102013F07F4F04BF1B0220
:10EC4000083013F0704F04BF1B01043013F0404F25
:10EC500004BF9B000230002B05DB13F0804F00F156
:10EC6000010008BF202070470020E5E70368024646
:10EC700013F007000BD0D90721D4980749BF5B08D0
:10EC80009B08012013605CBF02201360704799B29B
:10EC900009B910201B0CD9B209B908301B0A190791
:10ECA00004BF1B090430990704BF9B080230D90731
:10ECB00003D45B0800F1010003D01360704700200B
:10ECC000704720207047000010B50C460121FFF767
:10ECD000BBFE024628B940F24511044B044801F03E
:10ECE000F7FD01234461036110BD00BFB3DD0308DC
:10ECF000C4DD03082DE9F04F91460A69D9F81030B8
:10ED00000C469A42BEBF0B464C4699462769D9F835
:10ED100010A0A368616807EB0A06B34285B0B8BFCC
:10ED20000131FFF791FE30B902464FF4B171434B08
:10ED3000434801F0CDFD00F114052B46002205EB00
:10ED40008608434521D304F1140303EB870709F137
:10ED5000140303EB8A0202923A1B153A22F00302D3
:10ED6000043204F115018F4238BF04220192029A45
:10ED700003939A420CD8002E03DD58F8043D002B73
:10ED80005AD0066105B0BDE8F08F43F8042BD8E7F0
:10ED9000B3F800A0BAF1000F23D0A9464FF0000C41
:10EDA00004F1140E5EF8042BD9F800101FFA82FB50
:10EDB00089B20AFB0B116144D9F800C0120C4FEA6A
:10EDC0001C4C0AFB02C202EB114289B241EA024129
:10EDD00077454FEA124C49F8041BE3D8019A45F8ED
:10EDE00002C0039A0433B2F80290B9F1000F21D0A7
:10EDF000AE464FF0000A296804F1140CBCF800B0CC
:10EE0000BEF8022089B209FB0B22524441EA0241BA
:10EE10004EF8041B5CF8041B4FEA114ABEF80010C0
:10EE2000674509FB0A1101EB12414FEA114AE5D887
:10EE3000019AA95004359AE7013E9CE7B3DD030827
:10EE4000C4DD03082DE9F843154612F00302064617
:10EE50000F4607D0254C013A002354F82220FFF733
:10EE600055FE0746AD103DD0F4697CB91020FFF780
:10EE700037FD0246F06128B940F2B3111C4B1D4822
:10EE800001F026FDC0E901440460C460D6F81C808E
:10EE9000D8F808404CB940F271213046FFF714FF12
:10EEA00000230446C8F8080003604FF00009EB0790
:10EEB0000AD5394622463046FFF71CFF80463946C0
:10EEC0003046FFF701FE47466D100BD0206838B979
:10EED000224621463046FFF70DFF2060C0F8009023
:10EEE0000446E4E73846BDE8F88300BF10DF0308B6
:10EEF00044DD0308C4DD03082DE9F0470C4607464E
:10EF000091462369496803EB6218A3684FEA621AC5
:10EF100008F10106B3420BDB3846FFF795FD0546C5
:10EF200048B902464FF4EF71274B284801F0D0FC56
:10EF300001315B00EEE7002300F1140100F1100243
:10EF40001846534533DB20692AEAEA7A04F11403B0
:10EF500019F01F0901EB8A0103EB800C2BD08A46C4
:10EF60000022C9F1200E186800FA09F010434AF88F
:10EF7000040B53F8042B9C4522FA0EF2F3D8ACEBA9
:10EF80000403153B23F00303043304F11500844507
:10EF900038BF0423CA500AB108F10206013E3846C0
:10EFA00021462E61FFF790FD2846BDE8F08742F824
:10EFB000040F0133C5E7043953F8042B9C4541F88D
:10EFC000042FF9D8EAE700BFB3DD0308C4DD030866
:10EFD00003460A69006930B5801A0DD11433143123
:10EFE00003EB820401EB820154F8045D51F8042D17
:10EFF000954202D004D3012030BDA342F4D3FBE7F5
:10F000004FF0FF30F8E700002DE9F84F0D460746B6
:10F01000114628461446FFF7DBFF061E11D1314684
:10F020003846FFF711FD024628B940F237213A4B26
:10F030003A4801F04DFC0123C0E904361046BDE812
:10F04000F88FA4BF23462C4638466168A6BF1D46EC
:10F0500000260126FFF7F8FC024618B940F24521C8
:10F060002D4BE5E702F11408C2464FF0000C27696A
:10F07000C6602E6904F1140005F1140900EB870E37
:10F0800009EB8606103454F804BF59F8043B1FFA04
:10F090008BF161441FFA83FC1B0CA1EB0C01C3EB49
:10F0A0001B4303EB214389B241EA03414E454FEA3A
:10F0B000234C4AF8041BE6D8731B153B23F00303CB
:10F0C00015350433AE4238BF0423184443441E466A
:10F0D000054675450ED30EF10301091A21F003010F
:10F0E0000338864538BF00210B4453F8041D89B10D
:10F0F0001761A3E755F8048B1FFA88F161440C14DB
:10F1000004EB184489B241EA04414FEA244C46F822
:10F11000041BDEE7013FE8E7B3DD0308C4DD0308B5
:10F120000E4B0B40A3F15073002B08DC5B42B3F194
:10F13000A07F4FEA235204DA4FF400231341002248
:10F1400008E0A2F114031E2BD6BF4FF000420122AB
:10F15000DA40002319461046704700BF0000F07FD8
:10F16000F8B5056900F1140707EB850555F8044C5F
:10F170002E1F2046FFF75AFDC0F120020A28034641
:10F18000DFF868C00A6012DCC0F10B0E24FA0EF240
:10F19000B74242EA0C012CBF002255F8082C153367
:10F1A00004FA03F322FA0EF21A431046F8BDB742EE
:10F1B0002EBF002255F8082CA5F108060B3B12D0F3
:10F1C000C3F1200522FA05F19C400C43BE4244F0F5
:10F1D0007F5194BF002456F8044C9A40EC4041F40F
:10F1E00040112243E1E744EA0C01DEE70000F03F72
:10F1F000F7B5012117461C46089EFFF725FC05467A
:10F2000030B9024640F20F31224B234801F060FB37
:10F21000C4F31303C4F30A5424BB002F019326D074
:10F2200068460097FFF722FDDDE90012E8B1C0F162
:10F23000200302FA03F30B43C2406B610192019B6E
:10F24000002B14BF02210121AB612961BCB1A4F2E2
:10F25000334404443460C0F13500099B18602846EB
:10F2600003B0F0BD43F48013D7E76961E7E701A875
:10F27000FFF7FCFC019B01216B612030E5E7A0F268
:10F28000324005EB810330601869FFF7CFFCC0EB1B
:10F290004110E2E7B3DD0308C4DD03082DE9F74FB1
:10F2A000884669468146FFF75BFF0F4604460D46D8
:10F2B000404601A9FFF754FFD9F81030D8F81020C4
:10F2C0008B46A3EB020CDDE900329B1A03EB4C13D7
:10F2D000002BD5BF0A462A46C3EB033302EB035784
:10F2E000D8BF02EB035B5B46024639462046F1F786
:10F2F0008DFA03B0BDE8F08F013970B5491114697A
:10F30000013102F1140300EB810103EB8404051FBA
:10F31000A3420CD3A31A113B23F003031132A242E0
:10F3200088BF002318440023884205D370BD53F8DA
:10F33000046B45F8046FEBE740F8043BF4E700F199
:10F34000140200694B11984210B511DB0ADD11F06F
:10F350001F0107D052F8234024FA01F000FA01F10E
:10F360008C420BD102EB8303934203D8002010BDE3
:10F370000346F7E753F8041D0029F5D00120F6E70E
:10F380002DE9F0410F469046FFF7CAFE04460D46B0
:10F39000B8F1000F11D0C7F30A53C3F16B03002B70
:10F3A0000BDD00241B0503F17F5505F540152246B2
:10F3B0002B46F1F701F904460D4620462946BDE8E3
:10F3C000F0810000000000002DE9F04F9FB017927F
:10F3D000002204461A920D464FF000084FF0000933
:10F3E0000A46199211782B294AD038D80D2932D8DB
:10F3F000082932D800293BD000220E92199E32787B
:10F40000302A40F0B280727802F0DF02582A6ED1C2
:10F4100002930E9B204601931AAB00938C4A1BABC0
:10F4200019A901F0EFFA10F00F07054605D0062FD5
:10F4300028D10023013619960E93179B002B40F01C
:10F44000A0850E9BCBB1424609F1004310461946F8
:10F450001FB0BDE8F08F2029CED10132C1E72D29A0
:10F46000CAD101210E91511C19915278002AC5D19F
:10F47000179B1995002B40F0828542464B46E5E7E5
:10F480000021EFE71A9A3AB135211CA8FFF734FFA3
:10F4900020461A99FFF718FB013F1B9A042F06D844
:10F4A000DFE807F014031D201400DDE91C89E905DD
:10F4B00048BF49F0004929F000431B0D1B05002BF4
:10F4C000BBD1FEF725FB22230360B6E702F23342ED
:10F4D000DDE91C8323F4801343EA0259E7E7DFF8F0
:10F4E0007491E4E76FF000494FF0FF38DFE7199BB4
:10F4F0005A1C19925B78302BF9D0002B9DD0012338
:10F500004FF0000A0A22D3460593199BCDF828A094
:10F510000B9319980678A6F13003D9B2092926D998
:10F5200001224D4901F089F9002830D000203246EF
:10F5300003465E460890652A01D0452A13D11EB9BC
:10F54000059A024394D00026199D6A1C19926A7884
:10F550002B2A74D02D2A78D04FF0000CA2F1300164
:10F5600009297FD9199500279EE00023C8E7BBF140
:10F57000080FD8BF0A9900F10100D6BF02FB013382
:10F5800002FB0A3A0A930BF1010B1990C1E7199B90
:10F590005A1C19925A78BBF1000F37D05E4608907A
:10F5A000A2F13003092B12D90123C4E7199B0130C2
:10F5B0005A1C19925A78302AF8D0A2F13103082B3C
:10F5C00000F2E484089000200646199B0B93303A21
:10F5D00000F1010314D0089900EB060C19440891BE
:10F5E00033460A21634513D13318082B06F101066F
:10F5F00006441ADC0A230A9903FB01230A93002319
:10F60000199A1846511C19915278C9E75846D2E701
:10F61000082B03F1010303DC0A9F4F430A97E1E73C
:10F62000102BD8BF01FB0AFADCE7102EDCBF0A233F
:10F6300003FB0A2AE3E700230893012380E74FF046
:10F64000000CAA1C1992AA7888E74FF0010CF8E781
:10F650001CDF03080000F07F4ED40308199A511CE8
:10F6600019915278302AF9D0A2F1310108293FF6D8
:10F670007AAF303A0992199A0C92199A571C199735
:10F680005278A2F1300EBEF1090F38D90C997F1AC9
:10F69000082F44F61F6703DC09998F42A8BF0F4665
:10F6A000BCF1000F00D07F42002E4FD105990143DD
:10F6B0007FF4C3AE002B7FF4DBAE692A29D026DCB1
:10F6C000492A26D04E2A7FF4D3AE9A4919A801F0D0
:10F6D000DBFB00283FF4CCAE199B1B78282B2FD1E5
:10F6E00095491CAA19A801F0E3FB052828D11D9B08
:10F6F000DDF8708043F0FF4949F4E0099DE60A21F6
:10F70000099F01FB0721A1F130020992B5E76E2A9A
:10F71000D9E78A4919A801F0B7FB00283FF4A8AE41
:10F72000199B8749013B19A8199301F0ADFB10B94A
:10F73000199B013319934FF00008DFF808927CE61B
:10F74000814801F0BFF88046894676E6089BBBF108
:10F75000000F08BFB346FB1A102E0A9835460993CE
:10F76000A8BF1025F0F7AEFE092E8046894613DDAE
:10F77000764B03EBC50353E91223F0F71DFF8046D8
:10F7800050468946F0F79EFE02460B4640464946E3
:10F79000F0F75CFD804689460F2E36DC099B002B76
:10F7A0003FF44BAE22DD162B09DC6849424601EBE3
:10F7B000C3014B46D1E90001F0F7FEFEC3E7099A09
:10F7C000C6F12503934220DB604CC6F10F0604EB23
:10F7D000C6014246D1E900014B46F0F7EDFE099B18
:10F7E0009E1B04EBC604D4E90023E5E7099B16330E
:10F7F0000BDB089B4046DF1B544B494603EBC70716
:10F80000D7E90023F1F702F89DE7099B751B1D441A
:10F81000002D70DD15F00F030AD04C49424601EB74
:10F82000C301D1E900014B46F0F7C6FE8046894688
:10F8300035F00F054DD0B5F59A7F22DD0026B34691
:10F840000B96089622234FF00008DFF8F89023600B
:10F850000B9B002B3FF4F1AD20461A99FFF734F9CA
:10F8600020460899FFF730F959462046FFF72CF952
:10F8700020460B99FFF728F931462046FFF724F977
:10F88000DBE5334B40460593002349469A462D114C
:10F89000012D21DC0BB1804689462D49A9F154790F
:10F8A00001EBCA014246D1E900014B46F0F784FE64
:10F8B000244B0A460B40274980468B42BED8A1F50F
:10F8C00080118B4286BF4FF0FF38DFF88C9002F139
:10F8D0005479002305937BE0EA0705D5059BD3E91E
:10F8E0000023F0F769FE0123059A0AF1010A0832A4
:10F8F0006D100592CCE7ECD06D4215F00F020AD0E6
:10F90000124B404603EBC2034946D3E90023F0F70C
:10F910007DFF804689462D11DBD01F2D1EDD002680
:10F92000B3460B96089622234FF000084FF00009CB
:10F9300023608DE70DDD030830DF030805DD0308D4
:10F940003ADD03080000F07F3FD5030848DE0308D6
:10F9500020DE03080000A07CFFFFEF7F15F01003FE
:10F9600018BF6A234046059349460023DFF8C8A222
:10F97000EA0704D5DAE90023F0F71EFE01236D1033
:10F980000AF1080AF4D10BB180468946059BBBB148
:10F99000C9F30A52C2F16B03002B494610DD1F2B3D
:10F9A00040F32881342BD8BF4FF0FF334FF00008CD
:10F9B000CFBF4FF05C79C2F14B02934003EA0109DB
:10F9C0000022002340464946F1F75EF80028A6D100
:10F9D0000A9B5A460093204633460B99FFF7DCF802
:10F9E0000B9000283FF42AAF0026099A089B002AB2
:10F9F000A3EB0703A8BF0023B346129322EAE273E6
:10FA000016930B9B20465968FFF71EF808900028B4
:10FA10003FF418AF0B9B0C301A6903F10C01023252
:10FA20009200FEF794F81CAB01931BAB0093424687
:10FA30004B462046CDF83080CDF83C90FFF7D8FB00
:10FA40001A9000283FF4FEAE01212046FFF73CF952
:10FA5000834600283FF4F6AE1B9F1C9A002FABBFD5
:10FA6000129B169B07EB030ADD1B059BA8BF169D87
:10FA7000A7EB03071744714B07F1FF37B8BFDDF859
:10FA800048A09F42C2F1360280F2C780DB1B1F2BC9
:10FA90004FF00101A2EB030200F3B38001FA03F37C
:10FAA0001393002310930AEB0207059BBA451544F4
:10FAB0001D445346A8BF3B46AB42A8BF2B46002B74
:10FAC000C2BFFF1AED1AAAEB030A129B002B17DD27
:10FAD00059461A462046FFF7B5F9834600283FF4F9
:10FAE000B1AE01461A9A2046FFF704F90A900028A1
:10FAF0003FF4A8AE20461A99FEF7E6FF0A9B1A9338
:10FB0000002F00F38F80099B002B08DD2046169AFA
:10FB10000899FFF797F9089000283FF493AE002D5D
:10FB200008DD2A4620460899FFF7E6F908900028E4
:10FB30003FF488AEBAF1000F08DD59465246204620
:10FB4000FFF7DAF9834600283FF47CAE2046089A96
:10FB50001A99FFF759FA064600283FF473AE0025BC
:10FB6000C3685946C5600A93FFF732FAA8426BDAB8
:10FB70000A9B53EA080340F08F80C9F31303002B5C
:10FB800040F08A8029F000431B0D1B05B3F1D66FAE
:10FB900040F28280736913B93369012B7CDD3146F1
:10FBA00001222046FFF7A8F959460646FFF710FA4A
:10FBB000002871DD05994B46214A002900F08D800F
:10FBC00002EA0901B1F1D66F00F38780B1F15C7FE1
:10FBD0007FF7A9AE404649461A4B0022F0F7ECFCED
:10FBE000174B80460B408946002B7FF435AE22230D
:10FBF000236031E64FF0FF3202FA03F303EA08080C
:10FC0000DEE6C7F17F4707F57F0707F57B47E23759
:10FC100001FA07F31093139145E700231093012392
:10FC2000139340E73A4620461A99FFF765F91A9070
:10FC300000287FF468AF05E648DF030802FCFFFFF9
:10FC40000000F07F00005039CA4665D10A9AC9F316
:10FC5000130352B39E4A93422AD1059B4146FBB1FE
:10FC60009C4B4FF0FF3209EA0303B3F1D46F1AD86B
:10FC70001B0DC3F16B0302FA03F3994218D1964BA3
:10FC80009A4502D101313FF4DDAD4FF00008914BB0
:10FC90000AEA030303F58019059B002B9AD1DBE5E3
:10FCA0004FF0FF33E9E71346E7E753EA080381D053
:10FCB000109BE3B113EA0A0FEED00A9B4046494677
:10FCC000059AC3B1FFF75CFB02460B460C980F99EF
:10FCD000F0F7BCFA80468946DEE71340A3F58013AF
:10FCE0006FEA13594FF0FF386FEA0959D4E7139BB5
:10FCF00013EA080FE0E7FFF743FB02460B460C98B8
:10FD00000F99F0F7A1FA0022002380468946F0F708
:10FD1000BBFE0028C0D006E659463046FFF7BEFAC3
:10FD200002460B46CDE9102300224FF08043F0F746
:10FD3000BFFE00286FD00A9B002B7CD1B8F1000FCA
:10FD400059D1C9F31303002B7BD1DDE91001002247
:10FD5000624BF0F7A3FE00285AD1DDE91001002222
:10FD60005F4BF0F729FC05460F4607F10043069567
:10FD70000793DDE90623CDE91023564B554A0AEADD
:10FD800003031393574B0AEA02029A4240F0B080F1
:10FD9000AAF1547940464946FFF7C2F9DDE9062346
:10FDA000F0F70AFC42464B46F0F750FADFF824A180
:10FDB0004D4A01EA0A0A9245804648D90F9A464BB5
:10FDC0009A4203D10C9B01333FF43CAD4FF0FF3816
:10FDD000DFF8049120461A99FEF776FE204608992E
:10FDE000FEF772FE59462046FEF76EFE314620466B
:10FDF000FEF76AFE05E6B8F1010F03D1B9F1000F75
:10FE00003FF491AD0022394B0A9DCDE9062316E05F
:10FE10000A9D334FA9E7324B0022DDE91001F0F7CC
:10FE2000CBFB0A9B05460F46002B9ED002460B4695
:10FE3000CDE906239DE70022284BCDE90623274F75
:10FE400097E70022294B4546CDE90623F7E701F164
:10FE50005479059BCA46002BBCD129F00043139A64
:10FE60001B0D1B059A42B5D128463946F1F706FA13
:10FE7000F0F774FB02460B4628463946F0F7E4F9E2
:10FE80000B460246C9F3130ACDE90C230A9B4AEA42
:10FE9000080A5AEA030A6CD009A3D3E90023F0F751
:10FEA000FDFD00287FF4D8AC07A3D3E90023DDE9EA
:10FEB0000C01F0F711FE00288CD0CDE4AFF30080E8
:10FEC0009535A094FFFFDF3F35E5AF350000E03FFB
:10FED000FFFF0F000000F07FFFFFEF7F0000F03F0B
:10FEE0000000E03F0000E07FFFFF9F7C0000F0BFCC
:10FEF000059B33B3139BB3F1D46F22D828A3D3E966
:10FF0000002328463946F0F7D3FDA0B139462846EC
:10FF1000F0F72AFE012838BF0120F0F7D3FA0A9B38
:10FF200005460F4603BB01F1004314901593DDE92C
:10FF30001423CDE91023119B139A03F1D6639B1A66
:10FF400011930C980F99DDE91089FFF7E9F8024643
:10FF50000B4640464946F0F72FFB0C9A0F9BF0F7F3
:10FF600075F98046894674E702460B46CDE91423AD
:10FF7000DDE70DA3D3E90023F0F790FD9BE7002315
:10FF80000E93199B179A1360FFF75BBA652A3FF42B
:10FF900052AB452A3FF44FAB0123FFF787BB00BFAD
:10FFA0000000C0FFFFFFDF419535A094FFFFCF3F6A
:10FFB000014BFFF709BA00BFE4040020012B2DE933
:10FFC000F0478646904601D0242B06D9FDF7A0FDC8
:10FFD000162303600020BDE8F0870D4635482A4609
:10FFE00015F8014B065D16F00806F8D12D2C2ED120
:10FFF00001262C78951C002B57D0102B09D1302CC2
:020000040801F1
:1000000007D12A7802F0DF02582A49D110236C78F0
:100010000235002206F1004C0CF1FF3CBCFBF3F969
:10002000104603FB19CAA4F13007092F14D83C4627
:10003000A34220DD571C07D0814519D301D1A24529
:1000400016DB012200FB034015F8014BEBE72B2CDC
:1000500004BF2C78951CCEE7A4F14107192F01D8D5
:10006000373CE5E7A4F16107192F04D8573CDFE7D7
:100070004FF0FF32E8E7531C08D122236046CEF848
:100080000030B8F1000FA6D0691E06E006B140426C
:10009000B8F1000F9FD0002AF6D1C8F800109AE7F7
:1000A0003024002BB5D10823B3E7302CA9D00A2384
:1000B000AFE700BF71DF0308FFF780BF2DE9F0470E
:1000C0001F468E688246BE420C4690460B682CD86E
:1000D0008A8912F4906F26D06569096905EB450598
:1000E000A3EB010905EBD5757B1C4B446D109D42BC
:1000F00038BF1D46530527D52946FEF719FC06468D
:1001000060B34A462169FDF722FDA38923F4906379
:1001100043F08003A38126614E4426603E4665611C
:10012000A5EB0905A560BE4200D93E4632464146D0
:10013000206800F068FB0020A3689B1BA360236875
:1001400033442360BDE8F0872A4600F05EFF064690
:100150000028E0D150462169FEF77AFB0C23CAF84B
:100160000030A3894FF0FF3043F04003A381E9E75B
:100170002DE9F04F98468B8907461B060D4614461D
:100180009DB00ED50B6963B94021FEF7D1FB286005
:10019000286120B90C233B604FF0FF30D0E04023B2
:1001A0006B610023099320238DF8293030234FF011
:1001B0000109CDF80C80DFF8A0818DF82A302346A4
:1001C0009A4613F8012B0AB1252AF9D1BAEB040B90
:1001D0000BD05B46224629463846FFF76FFF0130B9
:1001E00000F0A980099A5A4409929AF80030002B2D
:1001F00000F0A18000234FF0FF32CDE905230AF182
:10020000010A049307938DF853301A93544605223C
:1002100014F8011B5048FDF78CFC049AD8B9D0069D
:1002200044BF20238DF85330110744BF2B238DF892
:1002300053309AF800302A2B15D0544600204FF046
:100240000A0C079A214611F8013B303B092B4DD986
:10025000B0B1079214E0A0EB080309FA03F31343CB
:10026000A2460493D2E7039B191D1B680391002B40
:10027000BBBF5B4242F0020207930793B8BF0492F0
:1002800023782E2B0CD163782A2B34D1039B023494
:100290001A1D1B680392002BB8BF4FF0FF33059364
:1002A000DFF8B8A0032250462178FDF742FC38B1B0
:1002B0004022049BA0EB0A008240134301340493C4
:1002C00014F8011B062226488DF82810FDF731FC92
:1002D000002838D0234B1BBB039B073323F00703B5
:1002E00008330393099B3344099368E70C460120C4
:1002F0000CFB0232A6E700234FF00A0C194601342A
:100300000593204610F8012B303A092A03D9002B17
:10031000C6D00591C4E7044601230CFB0121F0E798
:1003200003AB00932A4638460F4B04A9FCF7A6FB03
:10033000421C0646D6D1AB895B063FF52DAF099826
:100340001DB0BDE8F08F03AB00932A463846064B3C
:1003500004A9FCF733FEEBE771E0030877E003083C
:100360007BE003087DCA0008BD000108936810B453
:10037000013B002B936007DA9469A34201DB0A2951
:1003800002D110BCFDF7DDBA1368581C106019705B
:10039000084610BC7047F8B506460F461446D518F7
:1003A000AC4201D1002007E03A46304614F8011B68
:1003B000FFF7DCFF431CF3D1F8BD00002DE9F04F3F
:1003C0000D461446984606469DB018B1036A0BB90F
:1003D000FDF7B0F96B6ED90705D4AB899A0502D445
:1003E000A86DFDF79CFBAB891B0701D52B699BB959
:1003F00029463046FDF7E2FA70B16B6EDC0704D592
:100400004FF0FF301DB0BDE8F08FAB899805F7D4F1
:10041000A86DFDF785FBF3E70023099320238DF8F2
:10042000293030234FF00109CDF80C80DFF8AC8182
:100430008DF82A3023469A4613F8012B0AB1252A53
:10044000F9D1BAEB040B0BD05B4622462946304665
:10045000FFF7A1FF013000F0A980099A5A440992E0
:100460009AF80030002B00F0A18000234FF0FF32FB
:10047000CDE905230AF1010A049307938DF853305F
:100480001A935446052214F8011B5448FDF751FBFA
:10049000049AD8B9D10644BF20238DF853301307EE
:1004A00044BF2B238DF853309AF800302A2B15D0F7
:1004B000544600204FF00A0C079A214611F8013BE0
:1004C000303B092B4DD9B0B1079214E0A0EB0803E3
:1004D00009FA03F31343A2460493D2E7039B191DC1
:1004E0001B680391002BBBBF5B4242F002020793E3
:1004F0000793B8BF049223782E2B0CD163782A2B54
:1005000034D1039B02341A1D1B680392002BB8BF21
:100510004FF0FF330593DFF8C8A00322504621783F
:10052000FDF707FB38B14022049BA0EB0A00824094
:1005300013430134049314F8011B062229488DF853
:100540002810FDF7F6FA00283FD0274B1BBB039B72
:10055000073323F0070308330393099B3B440993B4
:1005600068E70C4601200CFB0232A6E700234FF09F
:100570000A0C194601340593204610F8012B303A35
:10058000092A03D9002BC6D00591C4E704460123EC
:100590000CFB0121F0E703AB00932A463046134BD6
:1005A00004A9FCF76BFA0746781CD6D16B6ED90705
:1005B00005D4AB899A0502D4A86DFDF7B1FAAB89D1
:1005C0005B063FF51DAF09981CE703AB00932A4675
:1005D0003046064B04A9FCF7F1FCE4E771E00308A0
:1005E00077E003087BE003087DCA00089703010851
:1005F0008A89F8B5054610070C4657D44B68002B7E
:1006000004DC0B6C002B01DC0020F8BDE66A002E38
:10061000FAD0002312F480522F68216A2B6032D066
:10062000606DA3895A0705D56368C01A636B0BB167
:10063000236CC01A00230246E66A2846216AB047A6
:10064000431CA38906D129681D292BD8284A0A41B1
:10065000D60727D4002262602269D904226004D51B
:10066000421C01D12B6803B96065616B2F600029C2
:10067000CAD004F14403994202D02846FEF7E8F8B4
:1006800000206063C1E701232846B047411CC8D160
:100690002B68002BC5D01D2B01D0162B01D12F604C
:1006A000B2E7A38943F04003A381AEE70F69002FAF
:1006B000AAD0930718BF00230E6808BF4B69F61B2A
:1006C0000F608B60002E9FDD33463A462846216A34
:1006D000D4F828C0E047002806DCA3894FF0FF309B
:1006E00043F04003A38190E70744361AEAE700BFCE
:1006F000FEFFBFDF38B50B6905460C4613B9002570
:10070000284638BD18B1036A0BB9FDF713F8B4F9E0
:100710000C30002BF3D0626ED00704D4990502D4BC
:10072000A06DFDF7FCF928462146FFF761FF636ED7
:100730000546DA07E4D4A3899B05E1D4A06DFDF753
:10074000EFF9DDE770B50C46B1F90E10154600293A
:100750001E4696B00CDAA389002113F0800F0CBF5F
:100760004FF480634023002031602B6016B070BDD1
:100770006A4600F075F80028EDDB019901F470413C
:10078000A1F50053594259414FF48063EBE78B893F
:1007900073B59D0706460C4607D504F14703236051
:1007A00023610123636102B070BD6A4601ABFFF7AC
:1007B000C9FF009905463046FEF7BAF848B9B4F9C2
:1007C0000C309A05EFD423F0030343F00203A38116
:1007D000E3E7A389206043F08003A381009B2061AD
:1007E0006361019B5BB13046B4F90E1000F04AF82A
:1007F00028B1A38923F0030343F00103A381A38954
:100800001D43A581CFE7884210B501EB020402D950
:100810008442234607D8431EA14208D011F8012B79
:1008200003F8012FF8E7014602448A4200D110BDC7
:1008300013F8014D02F8014DF7E710B56AB101391F
:10084000841810F8012B11F8013F9A4203D1A042FD
:1008500001D0002AF5D1D01A10BD1046FCE70000E7
:1008600038B50023064D0446084611462B60F3F7C1
:10087000ABFE431C02D12B6803B1236038BD00BF1F
:10088000289B002038B50023054D044608462B6000
:10089000F3F740FE431C02D12B6803B1236038BD3F
:1008A000289B002038B50023054D044608462B60E0
:1008B00000F04EFC431C02D12B6803B1236038BD0D
:1008C000289B002000200149704700BF0000F87FEE
:1008D0001FB514461A46094B05461B68D8684CB12B
:1008E000074BCDE9013400912B46064900F0CAFBC5
:1008F00000F0DAFB044B1C46F3E700BFE0040020E5
:100900008AE0030897E003083FD5030870B5A1FB10
:10091000025434B92946FEF70BF8064628B930468A
:1009200070BD0C2200260260F9E72A462146FDF739
:100930009DF8F4E703692DE9F043B3EB611F00F183
:1009400014044FEA611246DD11F01F0104EB830627
:1009500004EB82050CD1294600F11007B14235D3D2
:100960009B1A9B00EA1E964238BF0023234415E0E1
:10097000A14654F82270C1F12008CF4005F1040EC1
:100980007645F44616D89A1A9200043A0135AE42DA
:1009900038BF0022A318A75007B10433A342A3EB2A
:1009A000040208BF00234FEAA202026108BF4361AC
:1009B000BDE8F083DCF800C00CFA08FC4CEA07073D
:1009C00049F8047B5EF8047BCF40D9E751F804CBAB
:1009D00047F804CFC2E72346E0E7A0F13003092B34
:1009E00002D82038C0B27047A0F16103052B01D8AE
:1009F0004738F7E7A0F14103052B01D82738F1E785
:100A0000002070472DE9F04F81468A4617460A6854
:100A100085B002F1020BC2F1FF2202F57F020293C0
:100A2000FE3202EB0B03D8461BF8010B0193302872
:100A3000F7D0FFF7D2FF0446002838D10122404604
:100A4000A749FFF7FAFE0646002869D198F8010089
:100A50005D46FFF7C2FF002864D05A4610789046E2
:100A6000302802F10102F9D0FFF7B7FF0123B0FAF5
:100A700080F45E46640901934246154628780132A7
:100A8000FFF7ABFF0028F8D1012228469449FFF771
:100A9000D4FE78B946B96E1C324615462878013224
:100AA000FFF79BFF0028F8D1731B9E0004E0002491
:100AB0002646E1E7002EF7D12B7803F0DF03502B19
:100AC0003DD16B782B2B2FD02D2B31D04FF0000B3D
:100AD000691C0878FFF781FF421ED2B2182A2ED86F
:100AE000A0F1100211F8010FFFF777FF00F1FF3CB2
:100AF0005FFA8CFCBCF1180F1DD9BBF1000F00D0C0
:100B000052421644CAF80010DCB1019B002B14BFFE
:100B10004FF000084FF00608404605B0BDE8F08FE2
:100B2000454626460124C7E74FF0000BA91CD0E735
:100B30004FF0010BFAE70A2303FB0200D0E7294636
:100B4000E0E72146A5EB0803013B072B0ADC4846FA
:100B5000FDF77AFF044640B90246E421614B624842
:100B6000FFF7B6FE01315B10EFE700239B4600F173
:100B7000140ACDF804A0A84544D3DDF804805846F3
:100B800048F804BBA8EB0A084FEAA80222614FEA22
:100B90004218FEF74BF83D68A8EB0008A84559DD60
:100BA000A8EB050841462046FEF7C9FB8346B8B1CD
:100BB0004FF0010B08F1FF3359115AF8211003F0DF
:100BC0001F020BFA02F20A420AD05B4506DD2046FC
:100BD000A8F10201FEF7B3FB002838D14FF0020B59
:100BE00041462046FFF7A6FE4644BB68B34241DAC1
:100BF00021464846FDF768FF00230E9A4FF0A308F0
:100C0000136089E715F8012D2E2A14D0202B06D168
:100C1000019B43F804BB4FF0000B01935B4628781F
:100C20000393FFF7DAFE039B00F00F0098404BEAB6
:100C3000000B04339FE7A845E8D80122284628493D
:100C40000393FFF7FAFD039B0028DFD193E74FF0F2
:100C5000030BC5E70BDAA5EB0808214642464846D8
:100C6000FEF74AF90446A6EB080600F1140A4FF015
:100C7000000BBAE77B68B34274DD9E1BB54235DCDE
:100C8000FB68022B23D0032B25D0012B15D1B542B5
:100C900013D1012D0BD17B68029A4FF062081360CB
:100CA00001232361CAF800300E9B1C6034E7204604
:100CB000691EFEF744FB0028EDD121464846FDF7AA
:100CC00003FF00230E9A4FF05008136024E70F9B98
:100CD000002BF2D1DFE70F9B002BDCD1EDE700BF4B
:100CE0004ED40308B3DD0308C6E0030806F1FF385D
:100CF000BBF1000F33D1B8F1000F04D041462046BC
:100D0000FEF71DFB834601234FEA681208F01F0817
:100D100003FA08F34FF002085AF822203146134232
:100D2000204618BF4BF0020BAD1BFFF703FE7E6899
:100D3000BBF1000F4AD0FB68022B16D0032B18D052
:100D4000012B09D11BF0020F06D0DAF800304BEA74
:100D5000030B1BF0010F0FD148F0100836E04FF0E5
:100D6000010BD0E74FF00108E2E70F9BC3F101034D
:100D70000F930F9B002BEFD0D4F810B004F11402A6
:100D80004FEA8B030193002302EB8B00944652F849
:100D9000041BB1F1FF3F1ED00131CCF80010B8F1B7
:100DA000020F04F114023DD13B68013BAB420BD171
:100DB0000123691105F01F0503FA05F552F82130EA
:100DC0001D4218BF4FF0010848F020080E9B1C6020
:100DD000029B1E60A0E6904242F8043CD6D8A2686E
:100DE000934517DB616848460131FDF72DFE8246C9
:100DF00018B9024684211A4BB1E6226904F10C01AC
:100E0000023292000C30FCF7A2FE21464846FDF764
:100E10005BFE54462269511C2161012104EB8202D0
:100E20005161BCE7216959450BDD01212046FFF7DF
:100E300081FDBB680136B342FFF6DAAE4FF0010820
:100E4000C2E715F01F05F9D0019BC5F120051A4432
:100E500052F8040CFDF7EAFEA842E6DBEEE700BF1D
:100E6000B3DD0308C2F10802920070B5C2F120069A
:100E70004368046803FA06F52C43D340046040F845
:100E8000043F8842F4D370BD30B50368013311F8D4
:100E9000014B14B90360012030BD13F8012BA2F1FE
:100EA0004105192D98BF2032A242F0D00020F3E76F
:100EB0002DE9F04F00250B6882465E1102EB860695
:100EC00013F01F0318BF0436371F9046B9463C463F
:100ED000AB4687B00168019346F8045C02954A78F6
:100EE0004B1C039342B3104605910492FFF775FD26
:100EF00000284FD1049A0599202A18D8029B9B45B7
:100F000013DD4C4506D2072D04DC2A46494620460F
:100F1000FFF7A8FF444550D90023A4F1040944F881
:100F2000043C1D464C46CDF808B00399D7E7292A62
:100F300055D10231CAF80010BBF1000F4FD04C451B
:100F400006D2072D04DC2A4649462046FFF78AFFD1
:100F5000444534D92346A8F1040253F8041B9F42A8
:100F600042F8041FF9D23B1B23F003030433033E72
:100F70000134A64238BF04230022434443F8042B23
:100F80009F42FBD23B681BB9474526D101233B60FA
:100F9000052025E00135082D0BF1010B06DD444548
:100FA000C3D90023012544F8043C043C226800F026
:100FB0000F0040EA02102060B7E70825B5E7019B63
:100FC000002BDFD04FF0FF32C3F12003DA4056F898
:100FD000043C134046F8043CD4E7043FD2E7042025
:100FE00007B0BDE8F08F82B001B901A942B14BB1A1
:100FF00013780B601278101E18BF012002B07047E2
:101000001046FBE76FF00100F8E72DE9F04180465C
:1010100014460E4621B91146BDE8F041FDF788BCE3
:101020002AB9FDF715FC25462846BDE8F08100F0F9
:1010300042F88442074602D8B4EB500F12D821463A
:101040004046FDF775FC05460028EDD0BC4222461F
:10105000314628BF3A46FCF77AFD31464046FDF757
:10106000F7FBE1E73546DFE70346084641B1FF2AD3
:1010700004D98A224FF0FF301A60704701200A70AD
:10108000704700000EB403B5014603AB054853F8A2
:10109000042B00680193FFF791F902B05DF804EBAF
:1010A00003B07047E0040020062008B500F034F8D3
:1010B000012000F05BF851F8043C181F002BBCBF66
:1010C0000B58C01870471F2938B504460D4604D97F
:1010D000162303604FF0FF3038BDC26B12B152F8D7
:1010E00021304BB9204600F031F82A46014620460F
:1010F000BDE8384000F018B8012B0AD0591C03D1C4
:10110000162303600120E7E70024284642F8254023
:1011100098470020E0E70000024B01461868FFF7FF
:10112000D2BF00BFE004002038B50023064D0446BE
:10113000084611462B60F3F7FAF9431C02D12B68DD
:1011400003B1236038BD00BF289B0020F3F7EDB941
:10115000044A0346116809B9034911601068034441
:1011600013607047389B0020409B0020FEE7000082
:10117000F8B500BFF8BC08BC9E467047F8B500BF84
:08118000F8BC08BC9E46704754
:101188004572726F723A204C6F6164696E672063B2
:101198006F6E66696720646174612066726F6D2086
:1011A800666C617368206661696C6564210A4C6FBE
:1011B8006164696E672064656661756C742070612E
:1011C80072616D657465727320616E6420736176F7
:1011D800696E67207468656D20746F20666C617332
:1011E80068210052657374617274204932432E2E4F
:1011F8002E200000005800400000400021000000A0
:1012080022000000801A060008000000000C0140BF
:10121800000400000A00000008000000000C014063
:10122800000800000B0000000000000001000000A2
:1012380000000000580002400F00000000000200FB
:10124800000008000000000000000000000000008E
:10125800000000003E3E506C6179416E696D61741A
:10126800696F6E205461736B2E2E2E0D00313A2F4C
:101278007265732E62696E003E3EBFAABBFAB6AFB6
:10128800BBADBCD3D4D8B3C9B9A62E2E2E0D002120
:1012980021CEB4B7A2CFD6BFAABBFAB6AFBBAD2E8C
:1012A8002E2E2E0D004D61696E2020566F6C7461D4
:1012B80067653A25352E326600536572766F20567B
:1012C8006F6C746167653A25352E32660064697300
:1012D80074616E6365313A2535646D6D00646973B8
:1012E80074616E6365323A2535646D6D006D6F7497
:1012F8006F72315F70776D3A253564006D6F746F6A
:1013080072325F70776D3A253564003E3EB6AFBBEA
:10131800ADD7CAD4B4BCD3D4D8B3C9B9A62E2E2E4F
:101328000D002121CEB4B7A2CFD6B6AFBBADD7CA78
:10133800D4B42E2E2E2E0D00000000000000000058
:10134800002F000000000700070000147F147F141E
:1013580000242A7F2A1200626408132300364955A4
:10136800225000000503000000001C22410000007C
:1013780041221C000014083E08140008083E080812
:10138800000000A06000000808080808000060606D
:101398000000002010080402003E5149453E0000AC
:1013A800427F4000004261514946002141454B318E
:1013B800001814127F10002745454539003C4A495A
:1013C80049300001710905030036494949360006CC
:1013D8004949291E00003636000000005636000034
:1013E80000081422410000141414141400004122AF
:1013F800140800020151090600324959513E007C87
:101408001211127C007F49494936003E4141412270
:10141800007F4141221C007F49494941007F090959
:101428000901003E4149497A007F0808087F000009
:10143800417F4100002040413F01007F08142241C4
:10144800007F40404040007F020C027F007F04087C
:10145800107F003E4141413E007F09090906003ED8
:101468004151215E007F0919294600464949493101
:101478000001017F0101003F4040403F001F204024
:10148800201F003F4038403F0063140814630007E2
:101498000870080700615149454300007F41410039
:1014A80000552A552A55000041417F0000040201D9
:1014B80002040040404040400000010204000020B7
:1014C80054545478007F48444438003844444420F5
:1014D80000384444487F00385454541800087E09A2
:1014E80001020018A4A4A47C007F0804047800006A
:1014F800447D4000004080847D00007F1028440027
:101508000000417F4000007C04180478007C080437
:10151800047800384444443800FC24242418001873
:10152800242418FC007C080404080048545454205F
:1015380000043F444020003C4040207C001C2040E8
:10154800201C003C4030403C004428102844001C2B
:10155800A0A0A07C004464544C4414141414141423
:101568000000000000000000000000000000000073
:10157800000000F800000000000000333000000008
:1015880000100C06100C060000000000000000000F
:1015980040C07840C0784000043F04043F04040081
:1015A800007088FC08300000001820FF211E000091
:1015B800F008F000E018000000211C031E211E00A6
:1015C80000F00888700000001E212324192721102C
:1015D80010160E00000000000000000000000000CF
:1015E800000000E018040200000000071820400076
:1015F80000020418E0000000004020180700000066
:10160800404080F0804040000202010F01020200C9
:10161800000000F0000000000101011F01010100AD
:10162800000000000000000080B070000000000012
:10163800000000000000000000010101010101019B
:101648000000000000000000003030000000000032
:101658000000000080601804006018060100000007
:1016680000E010080810E000000F102020100F0004
:10167800001010F8000000000020203F202000008B
:1016880000700808088870000030282422213000E3
:1016980000300888884830000018202020110E00EB
:1016A8000000C02010F8000000070424243F240094
:1016B80000F80888880808000019212020110E0069
:1016C80000E0108888180000000F112020110E007B
:1016D80000380808C83808000000003F0000000073
:1016E8000070880808887000001C222121221C0034
:1016F80000E010080810E0000000312222110F005D
:10170800000000C0C00000000000003030000000F1
:101718000000008000000000000080600000000061
:10172800000080402010080000010204081020007A
:1017380040404040404040000404040404040400C5
:10174800000810204080000000201008040201005A
:10175800007048080808F00000000030360100005A
:10176800C030C828E810E0000718272423140B000D
:101778000000C038E0000000203C23020227382087
:1017880008F8888888700000203F202020110E006B
:10179800C030080808083800071820202010080062
:1017A80008F808080810E000203F202020100F004B
:1017B80008F88888E8081000203F20202320180017
:1017C80008F88888E8081000203F2000030000007F
:1017D800C03008080838000007182020221E020020
:1017E80008F808000008F808203F210101213F20DF
:1017F800000808F8080800000020203F202000000A
:1018080000000808F8080800C08080807F000000F9
:1018180008F888C028180800203F20012638200032
:1018280008F8080000000000203F20202020300099
:1018380008F8F800F8F80800203F003F003F2000B3
:1018480008F830C00008F808203F200007183F00BB
:10185800E01008080810E0000F10202020100F00EA
:1018680008F808080808F000203F210101010000DD
:10187800E01008080810E0000F18242438504F0022
:1018880008F8888888887000203F2000030C3020E2
:1018980000708808080838000038202121221C0020
:1018A800180808F8080818000000203F2000000069
:1018B80008F808000008F808001F202020201F0052
:1018C8000878880000C83808000007380E010000B2
:1018D800F80800F80008F800033C0700073C03007C
:1018E800081868808068180820302C03032C3020E2
:1018F8000838C800C83808000000203F2000000051
:1019080010080808C83808002038262120201800A8
:10191800000000FE020202000000007F404040007C
:10192800000C30C000000000000000010638C000B4
:1019380000020202FE000000004040407F0000005C
:101948000000040202020400000000000000000081
:10195800000000000000000080808080808080807F
:101968000002020400000000000000000000000067
:1019780000008080808000000019242222223F205D
:1019880008F8008080000000003F112020110E00A0
:101998000000008080800000000E1120202011002F
:1019A800000000808088F800000E112020103F20E1
:1019B8000000808080800000001F22222222130065
:1019C800008080F0888888180020203F20200000B0
:1019D8000000808080808000006B94949493600065
:1019E80008F8008080800000203F210000203F2070
:1019F80000809898000000000020203F2020000070
:101A0800000000809898000000C08080807F00005F
:101A180008F8000080808000203F24022D3020003C
:101A2800000808F8000000000020203F20200000E7
:101A38008080808080808000203F20003F20003F01
:101A48008080008080800000203F210000203F200F
:101A58000000808080800000001F202020201F00C0
:101A6800808000808000000080FFA12020110E00EF
:101A78000000008080808000000E112020A0FF80E0
:101A8800808080008080800020203F21200001008D
:101A980000008080808080000033242424241900E2
:101AA800008080E0808000000000001F20200000EF
:101AB8008080000000808000001F202020103F2030
:101AC800808080000080808000010E3008060100C0
:101AD80080800080008080800F300C030C300F0065
:101AE80000808000808080000020312E0E31200090
:101AF800808080000080808080818E7018060100C0
:101B080000808080808080000021302C22213000DD
:101B180000000000807C020200000000003F4040FE
:101B280000000000FF00000000000000FF000000AF
:101B38000002027C800000000040403F00000000DE
:101B48000006010102020404000000000000000079
:101B58001122334455003C3C2D464C4153482D45F9
:101B680052524F522D3E3E2053504920B5C8B4FD25
:101B7800B3ACCAB1216572726F72436F6465203D60
:101B88002025640A003C3C2D464C4153482D4552C3
:101B9800524F522D3E3E205350495F464C415348C8
:101BA8005F50616765577269746520746F6F206C48
:101BB800617267652100756C747261736F6E696319
:101BC8005F64697374616E63653A202564206D6D86
:101BD8000A00555341525431204572726F723A20AF
:101BE800526563656976656420636865636B7375C0
:101BF8006D3A2025782C20616E642063616C6375D2
